{"contracts/RelayerRegistry.sol":{"RelayerRegistry":{"abi":[{"inputs":[{"internalType":"address","name":"_pyusdAddress","type":"address"}],"stateMutability":"nonpayable","type":"constructor"},{"inputs":[{"internalType":"address","name":"owner","type":"address"}],"name":"OwnableInvalidOwner","type":"error"},{"inputs":[{"internalType":"address","name":"account","type":"address"}],"name":"OwnableUnauthorizedAccount","type":"error"},{"inputs":[],"name":"ReentrancyGuardReentrantCall","type":"error"},{"inputs":[{"internalType":"address","name":"token","type":"address"}],"name":"SafeERC20FailedOperation","type":"error"},{"anonymous":false,"inputs":[{"indexed":true,"internalType":"address","name":"relayer","type":"address"},{"indexed":false,"internalType":"uint256","name":"amount","type":"uint256"},{"indexed":false,"internalType":"string","name":"reason","type":"string"}],"name":"EmergencySlash","type":"event"},{"anonymous":false,"inputs":[{"indexed":true,"internalType":"address","name":"relayer","type":"address"},{"indexed":false,"internalType":"bool","name":"success","type":"bool"},{"indexed":false,"internalType":"uint256","name":"feeAmount","type":"uint256"}],"name":"ExecutionRecorded","type":"event"},{"anonymous":false,"inputs":[{"indexed":true,"internalType":"address","name":"previousOwner","type":"address"},{"indexed":true,"internalType":"address","name":"newOwner","type":"address"}],"name":"OwnershipTransferred","type":"event"},{"anonymous":false,"inputs":[{"indexed":true,"internalType":"address","name":"relayer","type":"address"},{"indexed":false,"internalType":"uint256","name":"stakedAmount","type":"uint256"}],"name":"RelayerRegistered","type":"event"},{"anonymous":false,"inputs":[{"indexed":true,"internalType":"address","name":"relayer","type":"address"},{"indexed":false,"internalType":"uint256","name":"amount","type":"uint256"},{"indexed":false,"internalType":"uint256","name":"newStake","type":"uint256"}],"name":"RelayerRestaked","type":"event"},{"anonymous":false,"inputs":[{"indexed":true,"internalType":"address","name":"relayer","type":"address"},{"indexed":false,"internalType":"uint256","name":"slashAmount","type":"uint256"},{"indexed":false,"internalType":"uint256","name":"remainingStake","type":"uint256"}],"name":"RelayerSlashed","type":"event"},{"anonymous":false,"inputs":[{"indexed":true,"internalType":"address","name":"relayer","type":"address"},{"indexed":false,"internalType":"uint256","name":"returnedStake","type":"uint256"}],"name":"RelayerUnregistered","type":"event"},{"anonymous":false,"inputs":[{"indexed":false,"internalType":"uint256","name":"slashAmount","type":"uint256"},{"indexed":false,"internalType":"uint256","name":"failureThreshold","type":"uint256"}],"name":"SlashingParametersUpdated","type":"event"},{"anonymous":false,"inputs":[{"indexed":true,"internalType":"address","name":"relayer","type":"address"},{"indexed":false,"internalType":"uint256","name":"requestTime","type":"uint256"}],"name":"WithdrawalRequested","type":"event"},{"inputs":[],"name":"CONSECUTIVE_FAILURES_THRESHOLD","outputs":[{"internalType":"uint256","name":"","type":"uint256"}],"stateMutability":"view","type":"function"},{"inputs":[],"name":"MINIMUM_STAKE","outputs":[{"internalType":"uint256","name":"","type":"uint256"}],"stateMutability":"view","type":"function"},{"inputs":[],"name":"PYUSD_ADDRESS","outputs":[{"internalType":"address","name":"","type":"address"}],"stateMutability":"view","type":"function"},{"inputs":[],"name":"SLASHING_COOLDOWN","outputs":[{"internalType":"uint256","name":"","type":"uint256"}],"stateMutability":"view","type":"function"},{"inputs":[],"name":"SLASH_AMOUNT","outputs":[{"internalType":"uint256","name":"","type":"uint256"}],"stateMutability":"view","type":"function"},{"inputs":[],"name":"WITHDRAWAL_DELAY","outputs":[{"internalType":"uint256","name":"","type":"uint256"}],"stateMutability":"view","type":"function"},{"inputs":[{"internalType":"address","name":"relayerAddress","type":"address"}],"name":"canExecute","outputs":[{"internalType":"bool","name":"","type":"bool"}],"stateMutability":"view","type":"function"},{"inputs":[{"internalType":"address","name":"","type":"address"}],"name":"consecutiveFailures","outputs":[{"internalType":"uint256","name":"","type":"uint256"}],"stateMutability":"view","type":"function"},{"inputs":[{"internalType":"address","name":"relayerAddress","type":"address"},{"internalType":"uint256","name":"amount","type":"uint256"},{"internalType":"string","name":"reason","type":"string"}],"name":"emergencySlash","outputs":[],"stateMutability":"nonpayable","type":"function"},{"inputs":[{"internalType":"address","name":"relayerAddress","type":"address"}],"name":"emergencyUnslash","outputs":[],"stateMutability":"nonpayable","type":"function"},{"inputs":[],"name":"failureThresholdConfig","outputs":[{"internalType":"uint256","name":"","type":"uint256"}],"stateMutability":"view","type":"function"},{"inputs":[{"internalType":"address","name":"relayerAddress","type":"address"}],"name":"getConsecutiveFailures","outputs":[{"internalType":"uint256","name":"","type":"uint256"}],"stateMutability":"view","type":"function"},{"inputs":[{"internalType":"address","name":"relayerAddress","type":"address"}],"name":"getRelayerInfo","outputs":[{"components":[{"internalType":"uint256","name":"stakedAmount","type":"uint256"},{"internalType":"uint256","name":"successfulExecutions","type":"uint256"},{"internalType":"uint256","name":"failedExecutions","type":"uint256"},{"internalType":"uint256","name":"totalFeesEarned","type":"uint256"},{"internalType":"uint256","name":"withdrawalRequestTime","type":"uint256"},{"internalType":"bool","name":"isActive","type":"bool"},{"internalType":"bool","name":"withdrawalRequested","type":"bool"}],"internalType":"struct RelayerRegistry.Relayer","name":"","type":"tuple"}],"stateMutability":"view","type":"function"},{"inputs":[{"internalType":"address","name":"relayerAddress","type":"address"}],"name":"getRelayerStats","outputs":[{"internalType":"uint256","name":"stakedAmount","type":"uint256"},{"internalType":"uint256","name":"successfulExecutions","type":"uint256"},{"internalType":"uint256","name":"failedExecutions","type":"uint256"},{"internalType":"uint256","name":"totalFeesEarned","type":"uint256"},{"internalType":"bool","name":"isActive","type":"bool"}],"stateMutability":"view","type":"function"},{"inputs":[{"internalType":"address","name":"relayerAddress","type":"address"}],"name":"getTimeUntilSlashCooldown","outputs":[{"internalType":"uint256","name":"","type":"uint256"}],"stateMutability":"view","type":"function"},{"inputs":[{"internalType":"address","name":"relayerAddress","type":"address"}],"name":"isRelayerActive","outputs":[{"internalType":"bool","name":"","type":"bool"}],"stateMutability":"view","type":"function"},{"inputs":[{"internalType":"address","name":"","type":"address"}],"name":"isSlashed","outputs":[{"internalType":"bool","name":"","type":"bool"}],"stateMutability":"view","type":"function"},{"inputs":[{"internalType":"address","name":"","type":"address"}],"name":"lastSlashTime","outputs":[{"internalType":"uint256","name":"","type":"uint256"}],"stateMutability":"view","type":"function"},{"inputs":[],"name":"owner","outputs":[{"internalType":"address","name":"","type":"address"}],"stateMutability":"view","type":"function"},{"inputs":[{"internalType":"address","name":"relayerAddress","type":"address"},{"internalType":"bool","name":"success","type":"bool"},{"internalType":"uint256","name":"feeAmount","type":"uint256"}],"name":"recordExecution","outputs":[],"stateMutability":"nonpayable","type":"function"},{"inputs":[{"internalType":"uint256","name":"stakeAmount","type":"uint256"}],"name":"registerRelayer","outputs":[],"stateMutability":"nonpayable","type":"function"},{"inputs":[{"internalType":"address","name":"","type":"address"}],"name":"relayers","outputs":[{"internalType":"uint256","name":"stakedAmount","type":"uint256"},{"internalType":"uint256","name":"successfulExecutions","type":"uint256"},{"internalType":"uint256","name":"failedExecutions","type":"uint256"},{"internalType":"uint256","name":"totalFeesEarned","type":"uint256"},{"internalType":"uint256","name":"withdrawalRequestTime","type":"uint256"},{"internalType":"bool","name":"isActive","type":"bool"},{"internalType":"bool","name":"withdrawalRequested","type":"bool"}],"stateMutability":"view","type":"function"},{"inputs":[],"name":"renounceOwnership","outputs":[],"stateMutability":"nonpayable","type":"function"},{"inputs":[],"name":"requestWithdrawal","outputs":[],"stateMutability":"nonpayable","type":"function"},{"inputs":[{"internalType":"uint256","name":"amount","type":"uint256"}],"name":"restakeAfterSlash","outputs":[],"stateMutability":"nonpayable","type":"function"},{"inputs":[{"internalType":"address","name":"_subscriptionManager","type":"address"}],"name":"setSubscriptionManager","outputs":[],"stateMutability":"nonpayable","type":"function"},{"inputs":[],"name":"slashAmountConfig","outputs":[{"internalType":"uint256","name":"","type":"uint256"}],"stateMutability":"view","type":"function"},{"inputs":[],"name":"subscriptionManager","outputs":[{"internalType":"address","name":"","type":"address"}],"stateMutability":"view","type":"function"},{"inputs":[{"internalType":"address","name":"newOwner","type":"address"}],"name":"transferOwnership","outputs":[],"stateMutability":"nonpayable","type":"function"},{"inputs":[],"name":"unregisterRelayer","outputs":[],"stateMutability":"nonpayable","type":"function"},{"inputs":[{"internalType":"uint256","name":"slashAmount","type":"uint256"},{"internalType":"uint256","name":"failureThreshold","type":"uint256"}],"name":"updateSlashingParameters","outputs":[],"stateMutability":"nonpayable","type":"function"}],"devdoc":{"errors":{"OwnableInvalidOwner(address)":[{"details":"The owner is not a valid owner account. (eg. `address(0)`)"}],"OwnableUnauthorizedAccount(address)":[{"details":"The caller account is not authorized to perform an operation."}],"ReentrancyGuardReentrantCall()":[{"details":"Unauthorized reentrant call."}],"SafeERC20FailedOperation(address)":[{"details":"An operation with an ERC-20 token failed."}]},"kind":"dev","methods":{"owner()":{"details":"Returns the address of the current owner."},"renounceOwnership()":{"details":"Leaves the contract without owner. It will not be possible to call `onlyOwner` functions. Can only be called by the current owner. NOTE: Renouncing ownership will leave the contract without an owner, thereby disabling any functionality that is only available to the owner."},"transferOwnership(address)":{"details":"Transfers ownership of the contract to a new account (`newOwner`). Can only be called by the current owner."}},"version":1},"evm":{"bytecode":{"linkReferences":{},"object":"60a03461013f57601f6118cc38819003918201601f19168301916001600160401b038311848410176101445780849260209460405283398101031261013f57516001600160a01b03811680820361013f57600160005533156101295760018054336001600160a01b0319821681179092556040519291906001600160a01b03167f8be0079c531659141344cd1fd0a4f28419497f9722a3daafe3b4186f6b6457e0600080a36305f5e1006003556003600455156100e75750608052604051611771908161015b82396080518181816101b2015281816104f6015281816106730152610b100152f35b62461bcd60e51b815260206004820152601560248201527f496e76616c6964205059555344206164647265737300000000000000000000006044820152606490fd5b631e4fbdf760e01b600052600060045260246000fd5b600080fd5b634e487b7160e01b600052604160045260246000fdfe6080604052600436101561001257600080fd5b60003560e01c8062359015146112e857806306bfd20b146111f057806308dbbb03146111d15780630ebb172a146111b357806315d397541461119557806320e732cd146110fe57806337720606146110df5780635300f8411461105c578063546b83ad146103f75780636272430614610ff1578063715018a614610f945780637f20265414610f5a57806383a9f7fc14610f1857806385c99e2b14610e9b578063894f8c7214610bfe5780638ce37cc414610ab35780638da5cb5b14610a8a578063ab576cb514610a6c578063b4bb6c0d14610a50578063b63f3b8a14610953578063b799036c14610914578063bf158fd2146108eb578063c05b358514610830578063ceb88df814610812578063d53f8a631461076f578063dbaf2145146106a2578063e2b025761461065d578063e6d1b24014610431578063efdac37c146103f7578063f2fde38b1461036d5763f5855d161461017057600080fd5b346103685760203660031901126103685760043561018c6115b4565b33600052600260205260406000205461032357633b9aca0081106102de576101df8130337f00000000000000000000000000000000000000000000000000000000000000006001600160a01b03166115d6565b6040516101eb8161139e565b81815260208101600081526005604083019260008452606081016000815260808201906000825260a08301956001875260c084019560008752336000526002602052604060002094518555516001850155516002840155516003830155516004820155019151151560ff8019845416911617825551151561ff0082549160081b169061ff00191617905533600052600660205260006040812055336000526007602052604060002060ff198154169055336000526005602052600060408120556040519081527f193a79fd17752d71da6eaba98e99be182b006d3e3178dd96b26a52f905e23e7d60203392a26001600055005b60405162461bcd60e51b815260206004820152601960248201527f496e73756666696369656e74207374616b6520616d6f756e74000000000000006044820152606490fd5b60405162461bcd60e51b815260206004820152601a60248201527f52656c6179657220616c726561647920726567697374657265640000000000006044820152606490fd5b600080fd5b3461036857602036600319011261036857610386611313565b61038e61158b565b6001600160a01b031680156103e157600180546001600160a01b0319811683179091556001600160a01b03167f8be0079c531659141344cd1fd0a4f28419497f9722a3daafe3b4186f6b6457e0600080a3005b631e4fbdf760e01b600052600060045260246000fd5b34610368576020366003190112610368576001600160a01b03610418611313565b1660005260066020526020604060002054604051908152f35b346103685760003660031901126103685761044a6115b4565b33600052600260205260406000206005810190815461046b60ff8216611479565b815492610479841515611434565b60ff8260081c1615610618576004830191825462093a8081018091116106025742106105bd576000809433825260076020526104bc60ff604084205416156114ba565b5561ffff191690555560405163a9059cbb60e01b602082015233602482015260448082018390528152610523906104f46064826113d0565b7f00000000000000000000000000000000000000000000000000000000000000006001600160a01b03166116d4565b6040519081527f1febc9d304fb99c3cd8bc5ffe8b9219d7676ffad2aa8cfa3a8286ea93092244c60203392a2336000526002602052600060056040822082815582600182015582600282015582600382015582600482015501553360005260066020526000604081205533600052600560205260006040812055336000526007602052604060002060ff1981541690556001600055600080f35b60405162461bcd60e51b815260206004820152601860248201527f5769746864726177616c2064656c6179206e6f74206d657400000000000000006044820152606490fd5b634e487b7160e01b600052601160045260246000fd5b60405162461bcd60e51b815260206004820152601d60248201527f4d7573742072657175657374207769746864726177616c2066697273740000006044820152606490fd5b34610368576000366003190112610368576040517f00000000000000000000000000000000000000000000000000000000000000006001600160a01b03168152602090f35b346103685760003660031901126103685733600052600260205260406000206005810180546106d360ff8216611479565b6106df83541515611434565b60ff8160081c1661072a576101009061ff0019161790556004429101556040514281527fe670e4e82118d22a1f9ee18920455ebc958bae26a90a05d31d3378788b1b0e4460203392a2005b60405162461bcd60e51b815260206004820152601c60248201527f5769746864726177616c20616c726561647920726571756573746564000000006044820152606490fd5b346103685760403660031901126103685760043560243561078e61158b565b610799821515611507565b80156107d957816040917fcaf538385e067c71f144fcab1890f637fa60fb1ab456f6a023a4c9427df9deb7936003558060045582519182526020820152a1005b60405162461bcd60e51b8152602060048201526011602482015270125b9d985b1a59081d1a1c995cda1bdb19607a1b6044820152606490fd5b34610368576000366003190112610368576020600454604051908152f35b3461036857602036600319011261036857610849611313565b61085161158b565b6001600160a01b031680156108b4576008546001600160a01b038116610881576001600160a01b03191617600855005b60405162461bcd60e51b815260206004820152600b60248201526a105b1c9958591e481cd95d60aa1b6044820152606490fd5b60405162461bcd60e51b815260206004820152600f60248201526e496e76616c6964206164647265737360881b6044820152606490fd5b34610368576000366003190112610368576008546040516001600160a01b039091168152602090f35b34610368576020366003190112610368576001600160a01b03610935611313565b166000526007602052602060ff604060002054166040519015158152f35b346103685760603660031901126103685761096c611313565b60243560443567ffffffffffffffff8111610368573660238201121561036857806004013567ffffffffffffffff8111610368573660248284010111610368577fb29f077e0f1bff1879b3429feea103b77c429db336ffc4f31154f266038a5c9c926060916109d961158b565b6109e4821515611507565b610a1c8260018060a01b03881697886000526002602052610a17604060002054610a108482101561154a565b1515611434565b611621565b80602460405195869485526040602086015282604086015201848401376000828201840152601f01601f19168101030190a2005b3461036857600036600319011261036857602060405160038152f35b34610368576000366003190112610368576020604051620151808152f35b34610368576000366003190112610368576001546040516001600160a01b039091168152602090f35b3461036857602036600319011261036857600435610acf6115b4565b336000526007602052610ae960ff604060002054166113f2565b8015610bc857336000526002602052610b086040600020541515611434565b610b3d8130337f00000000000000000000000000000000000000000000000000000000000000006001600160a01b03166115d6565b3360005260026020526040600020633b9aca00610b5b838354611329565b8083551015610b9e575b5460405191825260208201527f610e5fc0d3114f2abb2801d5c0fdd8f3db27b0fbbf30da68155090bb63a1778560403392a26001600055005b60058101600160ff19825416179055336000526007602052604060002060ff198154169055610b65565b60405162461bcd60e51b815260206004820152600e60248201526d125b9d985b1a5908185b5bdd5b9d60921b6044820152606490fd5b3461036857606036600319011261036857610c17611313565b602435801515908181036103685760085460443591906001600160a01b03163303610e565760018060a01b03841693846000526002602052604060002091610c6183541515611434565b610c7160ff600585015416611479565b856000526007602052610c8c60ff60406000205416156114ba565b15610cf557509160409160038460017fc799a6e963130dbc0f01e269475a49a5da606f63b2f40ae03f66e7af420762959601610cc881546114f8565b905501610cd6828254611329565b90558460005260066020526000838120555b82519182526020820152a2005b90600201610d0381546114f8565b90558360005260066020526040600020610d1d81546114f8565b90558360005260066020526040600020546004541115610d63575b507fc799a6e963130dbc0f01e269475a49a5da606f63b2f40ae03f66e7af4207629591604091610ce8565b91600354918460005260026020528260406000205410610e1157846000526005602052604060002054620151808101809111610602574210610dd457610dcc6040937fc799a6e963130dbc0f01e269475a49a5da606f63b2f40ae03f66e7af4207629595611621565b915091610d38565b60405162461bcd60e51b8152602060048201526015602482015274536c61736820636f6f6c646f776e2061637469766560581b6044820152606490fd5b60405162461bcd60e51b815260206004820152601b60248201527f496e73756666696369656e74207374616b6520746f20736c61736800000000006044820152606490fd5b60405162461bcd60e51b815260206004820152601860248201527f4f6e6c7920537562736372697074696f6e4d616e6167657200000000000000006044820152606490fd5b346103685760203660031901126103685760206001600160a01b03610ebe611313565b168060005260028252604060002060ff6005820154169182610efd575b5081610eed575b506040519015158152f35b633b9aca00915054101582610ee2565b9091506000526007825260ff60406000205416159083610edb565b34610368576020366003190112610368576001600160a01b03610f39611313565b166000526002602052602060ff600560406000200154166040519015158152f35b34610368576020366003190112610368576001600160a01b03610f7b611313565b1660005260056020526020604060002054604051908152f35b3461036857600036600319011261036857610fad61158b565b600180546001600160a01b031981169091556000906001600160a01b03167f8be0079c531659141344cd1fd0a4f28419497f9722a3daafe3b4186f6b6457e08280a3005b34610368576020366003190112610368576001600160a01b03611012611313565b16600052600260205260a06040600020805490600181015490600281015460ff60056003840154930154169260405194855260208501526040840152606083015215156080820152f35b34610368576020366003190112610368576001600160a01b0361107d611313565b16600052600260205260e0604060002060ff815491600181015490600281015460038201549060056004840154930154936040519687526020870152604086015260608501526080840152818116151560a084015260081c16151560c0820152f35b346103685760003660031901126103685760206040516305f5e1008152f35b3461036857602036600319011261036857611117611313565b61111f61158b565b6001600160a01b03166000818152600760205260409020546111439060ff166113f2565b806000526007602052604060002060ff1981541690558060005260066020526000604081205560005260026020526040600020633b9aca008154101561118557005b600501805460ff19166001179055005b34610368576000366003190112610368576020600354604051908152f35b3461036857600036600319011261036857602060405162093a808152f35b34610368576000366003190112610368576020604051633b9aca008152f35b3461036857602036600319011261036857611209611313565b600060c06040516112198161139e565b8281528260208201528260408201528260608201528260808201528260a0820152015260018060a01b0316600052600260205260e06040600020604051906112608261139e565b805491828152600182015491602082019283526002810154604083019081526003820154906060840191825260056004840154936080860194855201549460ff60c060a087019682891615158852019660081c161515865260405196875251602087015251604086015251606085015251608084015251151560a083015251151560c0820152f35b3461036857602036600319011261036857602061130b611306611313565b611343565b604051908152f35b600435906001600160a01b038216820361036857565b9190820180921161060257565b9190820391821161060257565b6001600160a01b03166000818152600560205260409020546201518081019081106106025742101561139857600052600560205260406000205462015180810180911161060257611395904290611336565b90565b50600090565b60e0810190811067ffffffffffffffff8211176113ba57604052565b634e487b7160e01b600052604160045260246000fd5b90601f8019910116810190811067ffffffffffffffff8211176113ba57604052565b156113f957565b60405162461bcd60e51b815260206004820152601360248201527214995b185e595c881b9bdd081cdb185cda1959606a1b6044820152606490fd5b1561143b57565b60405162461bcd60e51b815260206004820152601660248201527514995b185e595c881b9bdd081c9959da5cdd195c995960521b6044820152606490fd5b1561148057565b60405162461bcd60e51b815260206004820152601260248201527152656c61796572206e6f742061637469766560701b6044820152606490fd5b156114c157565b60405162461bcd60e51b815260206004820152600f60248201526e14995b185e595c881cdb185cda1959608a1b6044820152606490fd5b60001981146106025760010190565b1561150e57565b60405162461bcd60e51b8152602060048201526014602482015273125b9d985b1a59081cdb185cda08185b5bdd5b9d60621b6044820152606490fd5b1561155157565b60405162461bcd60e51b8152602060048201526012602482015271496e73756666696369656e74207374616b6560701b6044820152606490fd5b6001546001600160a01b0316330361159f57565b63118cdaa760e01b6000523360045260246000fd5b6002600054146115c5576002600055565b633ee5aeb560e01b60005260046000fd5b6040516323b872dd60e01b60208201526001600160a01b03928316602482015292909116604483015260648083019390935291815261161f9161161a6084836113d0565b6116d4565b565b60407f4ccd10aa8a641e19c262018438ab4cbaa91e683a875ddd178515bc2cc6869ec69160018060a01b03169283600052600260205281600020611668828254101561154a565b846000526005602052428360002055611682828254611336565b8155600085815260076020908152848220805460ff191660011790556006905283812055805490633b9aca0082106116c3575b5082519182526020820152a2565b600501805460ff19169055386116b5565b906000602091828151910182855af11561172f576000513d61172657506001600160a01b0381163b155b6117055750565b635274afe760e01b60009081526001600160a01b0391909116600452602490fd5b600114156116fe565b6040513d6000823e3d90fdfea264697066735822122068a1b92bb61de50af8117d9826fac5ac4eb424bb2261a3262d4898cbef75b65064736f6c634300081c0033","opcodes":"PUSH1 0xA0 CALLVALUE PUSH2 0x13F JUMPI PUSH1 0x1F PUSH2 0x18CC CODESIZE DUP2 SWAP1 SUB SWAP2 DUP3 ADD PUSH1 0x1F NOT AND DUP4 ADD SWAP2 PUSH1 0x1 PUSH1 0x1 PUSH1 0x40 SHL SUB DUP4 GT DUP5 DUP5 LT OR PUSH2 0x144 JUMPI DUP1 DUP5 SWAP3 PUSH1 0x20 SWAP5 PUSH1 0x40 MSTORE DUP4 CODECOPY DUP2 ADD SUB SLT PUSH2 0x13F JUMPI MLOAD PUSH1 0x1 PUSH1 0x1 PUSH1 0xA0 SHL SUB DUP2 AND DUP1 DUP3 SUB PUSH2 0x13F JUMPI PUSH1 0x1 PUSH1 0x0 SSTORE CALLER ISZERO PUSH2 0x129 JUMPI PUSH1 0x1 DUP1 SLOAD CALLER PUSH1 0x1 PUSH1 0x1 PUSH1 0xA0 SHL SUB NOT DUP3 AND DUP2 OR SWAP1 SWAP3 SSTORE PUSH1 0x40 MLOAD SWAP3 SWAP2 SWAP1 PUSH1 0x1 PUSH1 0x1 PUSH1 0xA0 SHL SUB AND PUSH32 0x8BE0079C531659141344CD1FD0A4F28419497F9722A3DAAFE3B4186F6B6457E0 PUSH1 0x0 DUP1 LOG3 PUSH4 0x5F5E100 PUSH1 0x3 SSTORE PUSH1 0x3 PUSH1 0x4 SSTORE ISZERO PUSH2 0xE7 JUMPI POP PUSH1 0x80 MSTORE PUSH1 0x40 MLOAD PUSH2 0x1771 SWAP1 DUP2 PUSH2 0x15B DUP3 CODECOPY PUSH1 0x80 MLOAD DUP2 DUP2 DUP2 PUSH2 0x1B2 ADD MSTORE DUP2 DUP2 PUSH2 0x4F6 ADD MSTORE DUP2 DUP2 PUSH2 0x673 ADD MSTORE PUSH2 0xB10 ADD MSTORE RETURN JUMPDEST PUSH3 0x461BCD PUSH1 0xE5 SHL DUP2 MSTORE PUSH1 0x20 PUSH1 0x4 DUP3 ADD MSTORE PUSH1 0x15 PUSH1 0x24 DUP3 ADD MSTORE PUSH32 0x496E76616C696420505955534420616464726573730000000000000000000000 PUSH1 0x44 DUP3 ADD MSTORE PUSH1 0x64 SWAP1 REVERT JUMPDEST PUSH4 0x1E4FBDF7 PUSH1 0xE0 SHL PUSH1 0x0 MSTORE PUSH1 0x0 PUSH1 0x4 MSTORE PUSH1 0x24 PUSH1 0x0 REVERT JUMPDEST PUSH1 0x0 DUP1 REVERT JUMPDEST PUSH4 0x4E487B71 PUSH1 0xE0 SHL PUSH1 0x0 MSTORE PUSH1 0x41 PUSH1 0x4 MSTORE PUSH1 0x24 PUSH1 0x0 REVERT INVALID PUSH1 0x80 PUSH1 0x40 MSTORE PUSH1 0x4 CALLDATASIZE LT ISZERO PUSH2 0x12 JUMPI PUSH1 0x0 DUP1 REVERT JUMPDEST PUSH1 0x0 CALLDATALOAD PUSH1 0xE0 SHR DUP1 PUSH3 0x359015 EQ PUSH2 0x12E8 JUMPI DUP1 PUSH4 0x6BFD20B EQ PUSH2 0x11F0 JUMPI DUP1 PUSH4 0x8DBBB03 EQ PUSH2 0x11D1 JUMPI DUP1 PUSH4 0xEBB172A EQ PUSH2 0x11B3 JUMPI DUP1 PUSH4 0x15D39754 EQ PUSH2 0x1195 JUMPI DUP1 PUSH4 0x20E732CD EQ PUSH2 0x10FE JUMPI DUP1 PUSH4 0x37720606 EQ PUSH2 0x10DF JUMPI DUP1 PUSH4 0x5300F841 EQ PUSH2 0x105C JUMPI DUP1 PUSH4 0x546B83AD EQ PUSH2 0x3F7 JUMPI DUP1 PUSH4 0x62724306 EQ PUSH2 0xFF1 JUMPI DUP1 PUSH4 0x715018A6 EQ PUSH2 0xF94 JUMPI DUP1 PUSH4 0x7F202654 EQ PUSH2 0xF5A JUMPI DUP1 PUSH4 0x83A9F7FC EQ PUSH2 0xF18 JUMPI DUP1 PUSH4 0x85C99E2B EQ PUSH2 0xE9B JUMPI DUP1 PUSH4 0x894F8C72 EQ PUSH2 0xBFE JUMPI DUP1 PUSH4 0x8CE37CC4 EQ PUSH2 0xAB3 JUMPI DUP1 PUSH4 0x8DA5CB5B EQ PUSH2 0xA8A JUMPI DUP1 PUSH4 0xAB576CB5 EQ PUSH2 0xA6C JUMPI DUP1 PUSH4 0xB4BB6C0D EQ PUSH2 0xA50 JUMPI DUP1 PUSH4 0xB63F3B8A EQ PUSH2 0x953 JUMPI DUP1 PUSH4 0xB799036C EQ PUSH2 0x914 JUMPI DUP1 PUSH4 0xBF158FD2 EQ PUSH2 0x8EB JUMPI DUP1 PUSH4 0xC05B3585 EQ PUSH2 0x830 JUMPI DUP1 PUSH4 0xCEB88DF8 EQ PUSH2 0x812 JUMPI DUP1 PUSH4 0xD53F8A63 EQ PUSH2 0x76F JUMPI DUP1 PUSH4 0xDBAF2145 EQ PUSH2 0x6A2 JUMPI DUP1 PUSH4 0xE2B02576 EQ PUSH2 0x65D JUMPI DUP1 PUSH4 0xE6D1B240 EQ PUSH2 0x431 JUMPI DUP1 PUSH4 0xEFDAC37C EQ PUSH2 0x3F7 JUMPI DUP1 PUSH4 0xF2FDE38B EQ PUSH2 0x36D JUMPI PUSH4 0xF5855D16 EQ PUSH2 0x170 JUMPI PUSH1 0x0 DUP1 REVERT JUMPDEST CALLVALUE PUSH2 0x368 JUMPI PUSH1 0x20 CALLDATASIZE PUSH1 0x3 NOT ADD SLT PUSH2 0x368 JUMPI PUSH1 0x4 CALLDATALOAD PUSH2 0x18C PUSH2 0x15B4 JUMP JUMPDEST CALLER PUSH1 0x0 MSTORE PUSH1 0x2 PUSH1 0x20 MSTORE PUSH1 0x40 PUSH1 0x0 KECCAK256 SLOAD PUSH2 0x323 JUMPI PUSH4 0x3B9ACA00 DUP2 LT PUSH2 0x2DE JUMPI PUSH2 0x1DF DUP2 ADDRESS CALLER PUSH32 0x0 PUSH1 0x1 PUSH1 0x1 PUSH1 0xA0 SHL SUB AND PUSH2 0x15D6 JUMP JUMPDEST PUSH1 0x40 MLOAD PUSH2 0x1EB DUP2 PUSH2 0x139E JUMP JUMPDEST DUP2 DUP2 MSTORE PUSH1 0x20 DUP2 ADD PUSH1 0x0 DUP2 MSTORE PUSH1 0x5 PUSH1 0x40 DUP4 ADD SWAP3 PUSH1 0x0 DUP5 MSTORE PUSH1 0x60 DUP2 ADD PUSH1 0x0 DUP2 MSTORE PUSH1 0x80 DUP3 ADD SWAP1 PUSH1 0x0 DUP3 MSTORE PUSH1 0xA0 DUP4 ADD SWAP6 PUSH1 0x1 DUP8 MSTORE PUSH1 0xC0 DUP5 ADD SWAP6 PUSH1 0x0 DUP8 MSTORE CALLER PUSH1 0x0 MSTORE PUSH1 0x2 PUSH1 0x20 MSTORE PUSH1 0x40 PUSH1 0x0 KECCAK256 SWAP5 MLOAD DUP6 SSTORE MLOAD PUSH1 0x1 DUP6 ADD SSTORE MLOAD PUSH1 0x2 DUP5 ADD SSTORE MLOAD PUSH1 0x3 DUP4 ADD SSTORE MLOAD PUSH1 0x4 DUP3 ADD SSTORE ADD SWAP2 MLOAD ISZERO ISZERO PUSH1 0xFF DUP1 NOT DUP5 SLOAD AND SWAP2 AND OR DUP3 SSTORE MLOAD ISZERO ISZERO PUSH2 0xFF00 DUP3 SLOAD SWAP2 PUSH1 0x8 SHL AND SWAP1 PUSH2 0xFF00 NOT AND OR SWAP1 SSTORE CALLER PUSH1 0x0 MSTORE PUSH1 0x6 PUSH1 0x20 MSTORE PUSH1 0x0 PUSH1 0x40 DUP2 KECCAK256 SSTORE CALLER PUSH1 0x0 MSTORE PUSH1 0x7 PUSH1 0x20 MSTORE PUSH1 0x40 PUSH1 0x0 KECCAK256 PUSH1 0xFF NOT DUP2 SLOAD AND SWAP1 SSTORE CALLER PUSH1 0x0 MSTORE PUSH1 0x5 PUSH1 0x20 MSTORE PUSH1 0x0 PUSH1 0x40 DUP2 KECCAK256 SSTORE PUSH1 0x40 MLOAD SWAP1 DUP2 MSTORE PUSH32 0x193A79FD17752D71DA6EABA98E99BE182B006D3E3178DD96B26A52F905E23E7D PUSH1 0x20 CALLER SWAP3 LOG2 PUSH1 0x1 PUSH1 0x0 SSTORE STOP JUMPDEST PUSH1 0x40 MLOAD PUSH3 0x461BCD PUSH1 0xE5 SHL DUP2 MSTORE PUSH1 0x20 PUSH1 0x4 DUP3 ADD MSTORE PUSH1 0x19 PUSH1 0x24 DUP3 ADD MSTORE PUSH32 0x496E73756666696369656E74207374616B6520616D6F756E7400000000000000 PUSH1 0x44 DUP3 ADD MSTORE PUSH1 0x64 SWAP1 REVERT JUMPDEST PUSH1 0x40 MLOAD PUSH3 0x461BCD PUSH1 0xE5 SHL DUP2 MSTORE PUSH1 0x20 PUSH1 0x4 DUP3 ADD MSTORE PUSH1 0x1A PUSH1 0x24 DUP3 ADD MSTORE PUSH32 0x52656C6179657220616C72656164792072656769737465726564000000000000 PUSH1 0x44 DUP3 ADD MSTORE PUSH1 0x64 SWAP1 REVERT JUMPDEST PUSH1 0x0 DUP1 REVERT JUMPDEST CALLVALUE PUSH2 0x368 JUMPI PUSH1 0x20 CALLDATASIZE PUSH1 0x3 NOT ADD SLT PUSH2 0x368 JUMPI PUSH2 0x386 PUSH2 0x1313 JUMP JUMPDEST PUSH2 0x38E PUSH2 0x158B JUMP JUMPDEST PUSH1 0x1 PUSH1 0x1 PUSH1 0xA0 SHL SUB AND DUP1 ISZERO PUSH2 0x3E1 JUMPI PUSH1 0x1 DUP1 SLOAD PUSH1 0x1 PUSH1 0x1 PUSH1 0xA0 SHL SUB NOT DUP2 AND DUP4 OR SWAP1 SWAP2 SSTORE PUSH1 0x1 PUSH1 0x1 PUSH1 0xA0 SHL SUB AND PUSH32 0x8BE0079C531659141344CD1FD0A4F28419497F9722A3DAAFE3B4186F6B6457E0 PUSH1 0x0 DUP1 LOG3 STOP JUMPDEST PUSH4 0x1E4FBDF7 PUSH1 0xE0 SHL PUSH1 0x0 MSTORE PUSH1 0x0 PUSH1 0x4 MSTORE PUSH1 0x24 PUSH1 0x0 REVERT JUMPDEST CALLVALUE PUSH2 0x368 JUMPI PUSH1 0x20 CALLDATASIZE PUSH1 0x3 NOT ADD SLT PUSH2 0x368 JUMPI PUSH1 0x1 PUSH1 0x1 PUSH1 0xA0 SHL SUB PUSH2 0x418 PUSH2 0x1313 JUMP JUMPDEST AND PUSH1 0x0 MSTORE PUSH1 0x6 PUSH1 0x20 MSTORE PUSH1 0x20 PUSH1 0x40 PUSH1 0x0 KECCAK256 SLOAD PUSH1 0x40 MLOAD SWAP1 DUP2 MSTORE RETURN JUMPDEST CALLVALUE PUSH2 0x368 JUMPI PUSH1 0x0 CALLDATASIZE PUSH1 0x3 NOT ADD SLT PUSH2 0x368 JUMPI PUSH2 0x44A PUSH2 0x15B4 JUMP JUMPDEST CALLER PUSH1 0x0 MSTORE PUSH1 0x2 PUSH1 0x20 MSTORE PUSH1 0x40 PUSH1 0x0 KECCAK256 PUSH1 0x5 DUP2 ADD SWAP1 DUP2 SLOAD PUSH2 0x46B PUSH1 0xFF DUP3 AND PUSH2 0x1479 JUMP JUMPDEST DUP2 SLOAD SWAP3 PUSH2 0x479 DUP5 ISZERO ISZERO PUSH2 0x1434 JUMP JUMPDEST PUSH1 0xFF DUP3 PUSH1 0x8 SHR AND ISZERO PUSH2 0x618 JUMPI PUSH1 0x4 DUP4 ADD SWAP2 DUP3 SLOAD PUSH3 0x93A80 DUP2 ADD DUP1 SWAP2 GT PUSH2 0x602 JUMPI TIMESTAMP LT PUSH2 0x5BD JUMPI PUSH1 0x0 DUP1 SWAP5 CALLER DUP3 MSTORE PUSH1 0x7 PUSH1 0x20 MSTORE PUSH2 0x4BC PUSH1 0xFF PUSH1 0x40 DUP5 KECCAK256 SLOAD AND ISZERO PUSH2 0x14BA JUMP JUMPDEST SSTORE PUSH2 0xFFFF NOT AND SWAP1 SSTORE SSTORE PUSH1 0x40 MLOAD PUSH4 0xA9059CBB PUSH1 0xE0 SHL PUSH1 0x20 DUP3 ADD MSTORE CALLER PUSH1 0x24 DUP3 ADD MSTORE PUSH1 0x44 DUP1 DUP3 ADD DUP4 SWAP1 MSTORE DUP2 MSTORE PUSH2 0x523 SWAP1 PUSH2 0x4F4 PUSH1 0x64 DUP3 PUSH2 0x13D0 JUMP JUMPDEST PUSH32 0x0 PUSH1 0x1 PUSH1 0x1 PUSH1 0xA0 SHL SUB AND PUSH2 0x16D4 JUMP JUMPDEST PUSH1 0x40 MLOAD SWAP1 DUP2 MSTORE PUSH32 0x1FEBC9D304FB99C3CD8BC5FFE8B9219D7676FFAD2AA8CFA3A8286EA93092244C PUSH1 0x20 CALLER SWAP3 LOG2 CALLER PUSH1 0x0 MSTORE PUSH1 0x2 PUSH1 0x20 MSTORE PUSH1 0x0 PUSH1 0x5 PUSH1 0x40 DUP3 KECCAK256 DUP3 DUP2 SSTORE DUP3 PUSH1 0x1 DUP3 ADD SSTORE DUP3 PUSH1 0x2 DUP3 ADD SSTORE DUP3 PUSH1 0x3 DUP3 ADD SSTORE DUP3 PUSH1 0x4 DUP3 ADD SSTORE ADD SSTORE CALLER PUSH1 0x0 MSTORE PUSH1 0x6 PUSH1 0x20 MSTORE PUSH1 0x0 PUSH1 0x40 DUP2 KECCAK256 SSTORE CALLER PUSH1 0x0 MSTORE PUSH1 0x5 PUSH1 0x20 MSTORE PUSH1 0x0 PUSH1 0x40 DUP2 KECCAK256 SSTORE CALLER PUSH1 0x0 MSTORE PUSH1 0x7 PUSH1 0x20 MSTORE PUSH1 0x40 PUSH1 0x0 KECCAK256 PUSH1 0xFF NOT DUP2 SLOAD AND SWAP1 SSTORE PUSH1 0x1 PUSH1 0x0 SSTORE PUSH1 0x0 DUP1 RETURN JUMPDEST PUSH1 0x40 MLOAD PUSH3 0x461BCD PUSH1 0xE5 SHL DUP2 MSTORE PUSH1 0x20 PUSH1 0x4 DUP3 ADD MSTORE PUSH1 0x18 PUSH1 0x24 DUP3 ADD MSTORE PUSH32 0x5769746864726177616C2064656C6179206E6F74206D65740000000000000000 PUSH1 0x44 DUP3 ADD MSTORE PUSH1 0x64 SWAP1 REVERT JUMPDEST PUSH4 0x4E487B71 PUSH1 0xE0 SHL PUSH1 0x0 MSTORE PUSH1 0x11 PUSH1 0x4 MSTORE PUSH1 0x24 PUSH1 0x0 REVERT JUMPDEST PUSH1 0x40 MLOAD PUSH3 0x461BCD PUSH1 0xE5 SHL DUP2 MSTORE PUSH1 0x20 PUSH1 0x4 DUP3 ADD MSTORE PUSH1 0x1D PUSH1 0x24 DUP3 ADD MSTORE PUSH32 0x4D7573742072657175657374207769746864726177616C206669727374000000 PUSH1 0x44 DUP3 ADD MSTORE PUSH1 0x64 SWAP1 REVERT JUMPDEST CALLVALUE PUSH2 0x368 JUMPI PUSH1 0x0 CALLDATASIZE PUSH1 0x3 NOT ADD SLT PUSH2 0x368 JUMPI PUSH1 0x40 MLOAD PUSH32 0x0 PUSH1 0x1 PUSH1 0x1 PUSH1 0xA0 SHL SUB AND DUP2 MSTORE PUSH1 0x20 SWAP1 RETURN JUMPDEST CALLVALUE PUSH2 0x368 JUMPI PUSH1 0x0 CALLDATASIZE PUSH1 0x3 NOT ADD SLT PUSH2 0x368 JUMPI CALLER PUSH1 0x0 MSTORE PUSH1 0x2 PUSH1 0x20 MSTORE PUSH1 0x40 PUSH1 0x0 KECCAK256 PUSH1 0x5 DUP2 ADD DUP1 SLOAD PUSH2 0x6D3 PUSH1 0xFF DUP3 AND PUSH2 0x1479 JUMP JUMPDEST PUSH2 0x6DF DUP4 SLOAD ISZERO ISZERO PUSH2 0x1434 JUMP JUMPDEST PUSH1 0xFF DUP2 PUSH1 0x8 SHR AND PUSH2 0x72A JUMPI PUSH2 0x100 SWAP1 PUSH2 0xFF00 NOT AND OR SWAP1 SSTORE PUSH1 0x4 TIMESTAMP SWAP2 ADD SSTORE PUSH1 0x40 MLOAD TIMESTAMP DUP2 MSTORE PUSH32 0xE670E4E82118D22A1F9EE18920455EBC958BAE26A90A05D31D3378788B1B0E44 PUSH1 0x20 CALLER SWAP3 LOG2 STOP JUMPDEST PUSH1 0x40 MLOAD PUSH3 0x461BCD PUSH1 0xE5 SHL DUP2 MSTORE PUSH1 0x20 PUSH1 0x4 DUP3 ADD MSTORE PUSH1 0x1C PUSH1 0x24 DUP3 ADD MSTORE PUSH32 0x5769746864726177616C20616C72656164792072657175657374656400000000 PUSH1 0x44 DUP3 ADD MSTORE PUSH1 0x64 SWAP1 REVERT JUMPDEST CALLVALUE PUSH2 0x368 JUMPI PUSH1 0x40 CALLDATASIZE PUSH1 0x3 NOT ADD SLT PUSH2 0x368 JUMPI PUSH1 0x4 CALLDATALOAD PUSH1 0x24 CALLDATALOAD PUSH2 0x78E PUSH2 0x158B JUMP JUMPDEST PUSH2 0x799 DUP3 ISZERO ISZERO PUSH2 0x1507 JUMP JUMPDEST DUP1 ISZERO PUSH2 0x7D9 JUMPI DUP2 PUSH1 0x40 SWAP2 PUSH32 0xCAF538385E067C71F144FCAB1890F637FA60FB1AB456F6A023A4C9427DF9DEB7 SWAP4 PUSH1 0x3 SSTORE DUP1 PUSH1 0x4 SSTORE DUP3 MLOAD SWAP2 DUP3 MSTORE PUSH1 0x20 DUP3 ADD MSTORE LOG1 STOP JUMPDEST PUSH1 0x40 MLOAD PUSH3 0x461BCD PUSH1 0xE5 SHL DUP2 MSTORE PUSH1 0x20 PUSH1 0x4 DUP3 ADD MSTORE PUSH1 0x11 PUSH1 0x24 DUP3 ADD MSTORE PUSH17 0x125B9D985B1A59081D1A1C995CDA1BDB19 PUSH1 0x7A SHL PUSH1 0x44 DUP3 ADD MSTORE PUSH1 0x64 SWAP1 REVERT JUMPDEST CALLVALUE PUSH2 0x368 JUMPI PUSH1 0x0 CALLDATASIZE PUSH1 0x3 NOT ADD SLT PUSH2 0x368 JUMPI PUSH1 0x20 PUSH1 0x4 SLOAD PUSH1 0x40 MLOAD SWAP1 DUP2 MSTORE RETURN JUMPDEST CALLVALUE PUSH2 0x368 JUMPI PUSH1 0x20 CALLDATASIZE PUSH1 0x3 NOT ADD SLT PUSH2 0x368 JUMPI PUSH2 0x849 PUSH2 0x1313 JUMP JUMPDEST PUSH2 0x851 PUSH2 0x158B JUMP JUMPDEST PUSH1 0x1 PUSH1 0x1 PUSH1 0xA0 SHL SUB AND DUP1 ISZERO PUSH2 0x8B4 JUMPI PUSH1 0x8 SLOAD PUSH1 0x1 PUSH1 0x1 PUSH1 0xA0 SHL SUB DUP2 AND PUSH2 0x881 JUMPI PUSH1 0x1 PUSH1 0x1 PUSH1 0xA0 SHL SUB NOT AND OR PUSH1 0x8 SSTORE STOP JUMPDEST PUSH1 0x40 MLOAD PUSH3 0x461BCD PUSH1 0xE5 SHL DUP2 MSTORE PUSH1 0x20 PUSH1 0x4 DUP3 ADD MSTORE PUSH1 0xB PUSH1 0x24 DUP3 ADD MSTORE PUSH11 0x105B1C9958591E481CD95D PUSH1 0xAA SHL PUSH1 0x44 DUP3 ADD MSTORE PUSH1 0x64 SWAP1 REVERT JUMPDEST PUSH1 0x40 MLOAD PUSH3 0x461BCD PUSH1 0xE5 SHL DUP2 MSTORE PUSH1 0x20 PUSH1 0x4 DUP3 ADD MSTORE PUSH1 0xF PUSH1 0x24 DUP3 ADD MSTORE PUSH15 0x496E76616C69642061646472657373 PUSH1 0x88 SHL PUSH1 0x44 DUP3 ADD MSTORE PUSH1 0x64 SWAP1 REVERT JUMPDEST CALLVALUE PUSH2 0x368 JUMPI PUSH1 0x0 CALLDATASIZE PUSH1 0x3 NOT ADD SLT PUSH2 0x368 JUMPI PUSH1 0x8 SLOAD PUSH1 0x40 MLOAD PUSH1 0x1 PUSH1 0x1 PUSH1 0xA0 SHL SUB SWAP1 SWAP2 AND DUP2 MSTORE PUSH1 0x20 SWAP1 RETURN JUMPDEST CALLVALUE PUSH2 0x368 JUMPI PUSH1 0x20 CALLDATASIZE PUSH1 0x3 NOT ADD SLT PUSH2 0x368 JUMPI PUSH1 0x1 PUSH1 0x1 PUSH1 0xA0 SHL SUB PUSH2 0x935 PUSH2 0x1313 JUMP JUMPDEST AND PUSH1 0x0 MSTORE PUSH1 0x7 PUSH1 0x20 MSTORE PUSH1 0x20 PUSH1 0xFF PUSH1 0x40 PUSH1 0x0 KECCAK256 SLOAD AND PUSH1 0x40 MLOAD SWAP1 ISZERO ISZERO DUP2 MSTORE RETURN JUMPDEST CALLVALUE PUSH2 0x368 JUMPI PUSH1 0x60 CALLDATASIZE PUSH1 0x3 NOT ADD SLT PUSH2 0x368 JUMPI PUSH2 0x96C PUSH2 0x1313 JUMP JUMPDEST PUSH1 0x24 CALLDATALOAD PUSH1 0x44 CALLDATALOAD PUSH8 0xFFFFFFFFFFFFFFFF DUP2 GT PUSH2 0x368 JUMPI CALLDATASIZE PUSH1 0x23 DUP3 ADD SLT ISZERO PUSH2 0x368 JUMPI DUP1 PUSH1 0x4 ADD CALLDATALOAD PUSH8 0xFFFFFFFFFFFFFFFF DUP2 GT PUSH2 0x368 JUMPI CALLDATASIZE PUSH1 0x24 DUP3 DUP5 ADD ADD GT PUSH2 0x368 JUMPI PUSH32 0xB29F077E0F1BFF1879B3429FEEA103B77C429DB336FFC4F31154F266038A5C9C SWAP3 PUSH1 0x60 SWAP2 PUSH2 0x9D9 PUSH2 0x158B JUMP JUMPDEST PUSH2 0x9E4 DUP3 ISZERO ISZERO PUSH2 0x1507 JUMP JUMPDEST PUSH2 0xA1C DUP3 PUSH1 0x1 DUP1 PUSH1 0xA0 SHL SUB DUP9 AND SWAP8 DUP9 PUSH1 0x0 MSTORE PUSH1 0x2 PUSH1 0x20 MSTORE PUSH2 0xA17 PUSH1 0x40 PUSH1 0x0 KECCAK256 SLOAD PUSH2 0xA10 DUP5 DUP3 LT ISZERO PUSH2 0x154A JUMP JUMPDEST ISZERO ISZERO PUSH2 0x1434 JUMP JUMPDEST PUSH2 0x1621 JUMP JUMPDEST DUP1 PUSH1 0x24 PUSH1 0x40 MLOAD SWAP6 DUP7 SWAP5 DUP6 MSTORE PUSH1 0x40 PUSH1 0x20 DUP7 ADD MSTORE DUP3 PUSH1 0x40 DUP7 ADD MSTORE ADD DUP5 DUP5 ADD CALLDATACOPY PUSH1 0x0 DUP3 DUP3 ADD DUP5 ADD MSTORE PUSH1 0x1F ADD PUSH1 0x1F NOT AND DUP2 ADD SUB ADD SWAP1 LOG2 STOP JUMPDEST CALLVALUE PUSH2 0x368 JUMPI PUSH1 0x0 CALLDATASIZE PUSH1 0x3 NOT ADD SLT PUSH2 0x368 JUMPI PUSH1 0x20 PUSH1 0x40 MLOAD PUSH1 0x3 DUP2 MSTORE RETURN JUMPDEST CALLVALUE PUSH2 0x368 JUMPI PUSH1 0x0 CALLDATASIZE PUSH1 0x3 NOT ADD SLT PUSH2 0x368 JUMPI PUSH1 0x20 PUSH1 0x40 MLOAD PUSH3 0x15180 DUP2 MSTORE RETURN JUMPDEST CALLVALUE PUSH2 0x368 JUMPI PUSH1 0x0 CALLDATASIZE PUSH1 0x3 NOT ADD SLT PUSH2 0x368 JUMPI PUSH1 0x1 SLOAD PUSH1 0x40 MLOAD PUSH1 0x1 PUSH1 0x1 PUSH1 0xA0 SHL SUB SWAP1 SWAP2 AND DUP2 MSTORE PUSH1 0x20 SWAP1 RETURN JUMPDEST CALLVALUE PUSH2 0x368 JUMPI PUSH1 0x20 CALLDATASIZE PUSH1 0x3 NOT ADD SLT PUSH2 0x368 JUMPI PUSH1 0x4 CALLDATALOAD PUSH2 0xACF PUSH2 0x15B4 JUMP JUMPDEST CALLER PUSH1 0x0 MSTORE PUSH1 0x7 PUSH1 0x20 MSTORE PUSH2 0xAE9 PUSH1 0xFF PUSH1 0x40 PUSH1 0x0 KECCAK256 SLOAD AND PUSH2 0x13F2 JUMP JUMPDEST DUP1 ISZERO PUSH2 0xBC8 JUMPI CALLER PUSH1 0x0 MSTORE PUSH1 0x2 PUSH1 0x20 MSTORE PUSH2 0xB08 PUSH1 0x40 PUSH1 0x0 KECCAK256 SLOAD ISZERO ISZERO PUSH2 0x1434 JUMP JUMPDEST PUSH2 0xB3D DUP2 ADDRESS CALLER PUSH32 0x0 PUSH1 0x1 PUSH1 0x1 PUSH1 0xA0 SHL SUB AND PUSH2 0x15D6 JUMP JUMPDEST CALLER PUSH1 0x0 MSTORE PUSH1 0x2 PUSH1 0x20 MSTORE PUSH1 0x40 PUSH1 0x0 KECCAK256 PUSH4 0x3B9ACA00 PUSH2 0xB5B DUP4 DUP4 SLOAD PUSH2 0x1329 JUMP JUMPDEST DUP1 DUP4 SSTORE LT ISZERO PUSH2 0xB9E JUMPI JUMPDEST SLOAD PUSH1 0x40 MLOAD SWAP2 DUP3 MSTORE PUSH1 0x20 DUP3 ADD MSTORE PUSH32 0x610E5FC0D3114F2ABB2801D5C0FDD8F3DB27B0FBBF30DA68155090BB63A17785 PUSH1 0x40 CALLER SWAP3 LOG2 PUSH1 0x1 PUSH1 0x0 SSTORE STOP JUMPDEST PUSH1 0x5 DUP2 ADD PUSH1 0x1 PUSH1 0xFF NOT DUP3 SLOAD AND OR SWAP1 SSTORE CALLER PUSH1 0x0 MSTORE PUSH1 0x7 PUSH1 0x20 MSTORE PUSH1 0x40 PUSH1 0x0 KECCAK256 PUSH1 0xFF NOT DUP2 SLOAD AND SWAP1 SSTORE PUSH2 0xB65 JUMP JUMPDEST PUSH1 0x40 MLOAD PUSH3 0x461BCD PUSH1 0xE5 SHL DUP2 MSTORE PUSH1 0x20 PUSH1 0x4 DUP3 ADD MSTORE PUSH1 0xE PUSH1 0x24 DUP3 ADD MSTORE PUSH14 0x125B9D985B1A5908185B5BDD5B9D PUSH1 0x92 SHL PUSH1 0x44 DUP3 ADD MSTORE PUSH1 0x64 SWAP1 REVERT JUMPDEST CALLVALUE PUSH2 0x368 JUMPI PUSH1 0x60 CALLDATASIZE PUSH1 0x3 NOT ADD SLT PUSH2 0x368 JUMPI PUSH2 0xC17 PUSH2 0x1313 JUMP JUMPDEST PUSH1 0x24 CALLDATALOAD DUP1 ISZERO ISZERO SWAP1 DUP2 DUP2 SUB PUSH2 0x368 JUMPI PUSH1 0x8 SLOAD PUSH1 0x44 CALLDATALOAD SWAP2 SWAP1 PUSH1 0x1 PUSH1 0x1 PUSH1 0xA0 SHL SUB AND CALLER SUB PUSH2 0xE56 JUMPI PUSH1 0x1 DUP1 PUSH1 0xA0 SHL SUB DUP5 AND SWAP4 DUP5 PUSH1 0x0 MSTORE PUSH1 0x2 PUSH1 0x20 MSTORE PUSH1 0x40 PUSH1 0x0 KECCAK256 SWAP2 PUSH2 0xC61 DUP4 SLOAD ISZERO ISZERO PUSH2 0x1434 JUMP JUMPDEST PUSH2 0xC71 PUSH1 0xFF PUSH1 0x5 DUP6 ADD SLOAD AND PUSH2 0x1479 JUMP JUMPDEST DUP6 PUSH1 0x0 MSTORE PUSH1 0x7 PUSH1 0x20 MSTORE PUSH2 0xC8C PUSH1 0xFF PUSH1 0x40 PUSH1 0x0 KECCAK256 SLOAD AND ISZERO PUSH2 0x14BA JUMP JUMPDEST ISZERO PUSH2 0xCF5 JUMPI POP SWAP2 PUSH1 0x40 SWAP2 PUSH1 0x3 DUP5 PUSH1 0x1 PUSH32 0xC799A6E963130DBC0F01E269475A49A5DA606F63B2F40AE03F66E7AF42076295 SWAP7 ADD PUSH2 0xCC8 DUP2 SLOAD PUSH2 0x14F8 JUMP JUMPDEST SWAP1 SSTORE ADD PUSH2 0xCD6 DUP3 DUP3 SLOAD PUSH2 0x1329 JUMP JUMPDEST SWAP1 SSTORE DUP5 PUSH1 0x0 MSTORE PUSH1 0x6 PUSH1 0x20 MSTORE PUSH1 0x0 DUP4 DUP2 KECCAK256 SSTORE JUMPDEST DUP3 MLOAD SWAP2 DUP3 MSTORE PUSH1 0x20 DUP3 ADD MSTORE LOG2 STOP JUMPDEST SWAP1 PUSH1 0x2 ADD PUSH2 0xD03 DUP2 SLOAD PUSH2 0x14F8 JUMP JUMPDEST SWAP1 SSTORE DUP4 PUSH1 0x0 MSTORE PUSH1 0x6 PUSH1 0x20 MSTORE PUSH1 0x40 PUSH1 0x0 KECCAK256 PUSH2 0xD1D DUP2 SLOAD PUSH2 0x14F8 JUMP JUMPDEST SWAP1 SSTORE DUP4 PUSH1 0x0 MSTORE PUSH1 0x6 PUSH1 0x20 MSTORE PUSH1 0x40 PUSH1 0x0 KECCAK256 SLOAD PUSH1 0x4 SLOAD GT ISZERO PUSH2 0xD63 JUMPI JUMPDEST POP PUSH32 0xC799A6E963130DBC0F01E269475A49A5DA606F63B2F40AE03F66E7AF42076295 SWAP2 PUSH1 0x40 SWAP2 PUSH2 0xCE8 JUMP JUMPDEST SWAP2 PUSH1 0x3 SLOAD SWAP2 DUP5 PUSH1 0x0 MSTORE PUSH1 0x2 PUSH1 0x20 MSTORE DUP3 PUSH1 0x40 PUSH1 0x0 KECCAK256 SLOAD LT PUSH2 0xE11 JUMPI DUP5 PUSH1 0x0 MSTORE PUSH1 0x5 PUSH1 0x20 MSTORE PUSH1 0x40 PUSH1 0x0 KECCAK256 SLOAD PUSH3 0x15180 DUP2 ADD DUP1 SWAP2 GT PUSH2 0x602 JUMPI TIMESTAMP LT PUSH2 0xDD4 JUMPI PUSH2 0xDCC PUSH1 0x40 SWAP4 PUSH32 0xC799A6E963130DBC0F01E269475A49A5DA606F63B2F40AE03F66E7AF42076295 SWAP6 PUSH2 0x1621 JUMP JUMPDEST SWAP2 POP SWAP2 PUSH2 0xD38 JUMP JUMPDEST PUSH1 0x40 MLOAD PUSH3 0x461BCD PUSH1 0xE5 SHL DUP2 MSTORE PUSH1 0x20 PUSH1 0x4 DUP3 ADD MSTORE PUSH1 0x15 PUSH1 0x24 DUP3 ADD MSTORE PUSH21 0x536C61736820636F6F6C646F776E20616374697665 PUSH1 0x58 SHL PUSH1 0x44 DUP3 ADD MSTORE PUSH1 0x64 SWAP1 REVERT JUMPDEST PUSH1 0x40 MLOAD PUSH3 0x461BCD PUSH1 0xE5 SHL DUP2 MSTORE PUSH1 0x20 PUSH1 0x4 DUP3 ADD MSTORE PUSH1 0x1B PUSH1 0x24 DUP3 ADD MSTORE PUSH32 0x496E73756666696369656E74207374616B6520746F20736C6173680000000000 PUSH1 0x44 DUP3 ADD MSTORE PUSH1 0x64 SWAP1 REVERT JUMPDEST PUSH1 0x40 MLOAD PUSH3 0x461BCD PUSH1 0xE5 SHL DUP2 MSTORE PUSH1 0x20 PUSH1 0x4 DUP3 ADD MSTORE PUSH1 0x18 PUSH1 0x24 DUP3 ADD MSTORE PUSH32 0x4F6E6C7920537562736372697074696F6E4D616E616765720000000000000000 PUSH1 0x44 DUP3 ADD MSTORE PUSH1 0x64 SWAP1 REVERT JUMPDEST CALLVALUE PUSH2 0x368 JUMPI PUSH1 0x20 CALLDATASIZE PUSH1 0x3 NOT ADD SLT PUSH2 0x368 JUMPI PUSH1 0x20 PUSH1 0x1 PUSH1 0x1 PUSH1 0xA0 SHL SUB PUSH2 0xEBE PUSH2 0x1313 JUMP JUMPDEST AND DUP1 PUSH1 0x0 MSTORE PUSH1 0x2 DUP3 MSTORE PUSH1 0x40 PUSH1 0x0 KECCAK256 PUSH1 0xFF PUSH1 0x5 DUP3 ADD SLOAD AND SWAP2 DUP3 PUSH2 0xEFD JUMPI JUMPDEST POP DUP2 PUSH2 0xEED JUMPI JUMPDEST POP PUSH1 0x40 MLOAD SWAP1 ISZERO ISZERO DUP2 MSTORE RETURN JUMPDEST PUSH4 0x3B9ACA00 SWAP2 POP SLOAD LT ISZERO DUP3 PUSH2 0xEE2 JUMP JUMPDEST SWAP1 SWAP2 POP PUSH1 0x0 MSTORE PUSH1 0x7 DUP3 MSTORE PUSH1 0xFF PUSH1 0x40 PUSH1 0x0 KECCAK256 SLOAD AND ISZERO SWAP1 DUP4 PUSH2 0xEDB JUMP JUMPDEST CALLVALUE PUSH2 0x368 JUMPI PUSH1 0x20 CALLDATASIZE PUSH1 0x3 NOT ADD SLT PUSH2 0x368 JUMPI PUSH1 0x1 PUSH1 0x1 PUSH1 0xA0 SHL SUB PUSH2 0xF39 PUSH2 0x1313 JUMP JUMPDEST AND PUSH1 0x0 MSTORE PUSH1 0x2 PUSH1 0x20 MSTORE PUSH1 0x20 PUSH1 0xFF PUSH1 0x5 PUSH1 0x40 PUSH1 0x0 KECCAK256 ADD SLOAD AND PUSH1 0x40 MLOAD SWAP1 ISZERO ISZERO DUP2 MSTORE RETURN JUMPDEST CALLVALUE PUSH2 0x368 JUMPI PUSH1 0x20 CALLDATASIZE PUSH1 0x3 NOT ADD SLT PUSH2 0x368 JUMPI PUSH1 0x1 PUSH1 0x1 PUSH1 0xA0 SHL SUB PUSH2 0xF7B PUSH2 0x1313 JUMP JUMPDEST AND PUSH1 0x0 MSTORE PUSH1 0x5 PUSH1 0x20 MSTORE PUSH1 0x20 PUSH1 0x40 PUSH1 0x0 KECCAK256 SLOAD PUSH1 0x40 MLOAD SWAP1 DUP2 MSTORE RETURN JUMPDEST CALLVALUE PUSH2 0x368 JUMPI PUSH1 0x0 CALLDATASIZE PUSH1 0x3 NOT ADD SLT PUSH2 0x368 JUMPI PUSH2 0xFAD PUSH2 0x158B JUMP JUMPDEST PUSH1 0x1 DUP1 SLOAD PUSH1 0x1 PUSH1 0x1 PUSH1 0xA0 SHL SUB NOT DUP2 AND SWAP1 SWAP2 SSTORE PUSH1 0x0 SWAP1 PUSH1 0x1 PUSH1 0x1 PUSH1 0xA0 SHL SUB AND PUSH32 0x8BE0079C531659141344CD1FD0A4F28419497F9722A3DAAFE3B4186F6B6457E0 DUP3 DUP1 LOG3 STOP JUMPDEST CALLVALUE PUSH2 0x368 JUMPI PUSH1 0x20 CALLDATASIZE PUSH1 0x3 NOT ADD SLT PUSH2 0x368 JUMPI PUSH1 0x1 PUSH1 0x1 PUSH1 0xA0 SHL SUB PUSH2 0x1012 PUSH2 0x1313 JUMP JUMPDEST AND PUSH1 0x0 MSTORE PUSH1 0x2 PUSH1 0x20 MSTORE PUSH1 0xA0 PUSH1 0x40 PUSH1 0x0 KECCAK256 DUP1 SLOAD SWAP1 PUSH1 0x1 DUP2 ADD SLOAD SWAP1 PUSH1 0x2 DUP2 ADD SLOAD PUSH1 0xFF PUSH1 0x5 PUSH1 0x3 DUP5 ADD SLOAD SWAP4 ADD SLOAD AND SWAP3 PUSH1 0x40 MLOAD SWAP5 DUP6 MSTORE PUSH1 0x20 DUP6 ADD MSTORE PUSH1 0x40 DUP5 ADD MSTORE PUSH1 0x60 DUP4 ADD MSTORE ISZERO ISZERO PUSH1 0x80 DUP3 ADD MSTORE RETURN JUMPDEST CALLVALUE PUSH2 0x368 JUMPI PUSH1 0x20 CALLDATASIZE PUSH1 0x3 NOT ADD SLT PUSH2 0x368 JUMPI PUSH1 0x1 PUSH1 0x1 PUSH1 0xA0 SHL SUB PUSH2 0x107D PUSH2 0x1313 JUMP JUMPDEST AND PUSH1 0x0 MSTORE PUSH1 0x2 PUSH1 0x20 MSTORE PUSH1 0xE0 PUSH1 0x40 PUSH1 0x0 KECCAK256 PUSH1 0xFF DUP2 SLOAD SWAP2 PUSH1 0x1 DUP2 ADD SLOAD SWAP1 PUSH1 0x2 DUP2 ADD SLOAD PUSH1 0x3 DUP3 ADD SLOAD SWAP1 PUSH1 0x5 PUSH1 0x4 DUP5 ADD SLOAD SWAP4 ADD SLOAD SWAP4 PUSH1 0x40 MLOAD SWAP7 DUP8 MSTORE PUSH1 0x20 DUP8 ADD MSTORE PUSH1 0x40 DUP7 ADD MSTORE PUSH1 0x60 DUP6 ADD MSTORE PUSH1 0x80 DUP5 ADD MSTORE DUP2 DUP2 AND ISZERO ISZERO PUSH1 0xA0 DUP5 ADD MSTORE PUSH1 0x8 SHR AND ISZERO ISZERO PUSH1 0xC0 DUP3 ADD MSTORE RETURN JUMPDEST CALLVALUE PUSH2 0x368 JUMPI PUSH1 0x0 CALLDATASIZE PUSH1 0x3 NOT ADD SLT PUSH2 0x368 JUMPI PUSH1 0x20 PUSH1 0x40 MLOAD PUSH4 0x5F5E100 DUP2 MSTORE RETURN JUMPDEST CALLVALUE PUSH2 0x368 JUMPI PUSH1 0x20 CALLDATASIZE PUSH1 0x3 NOT ADD SLT PUSH2 0x368 JUMPI PUSH2 0x1117 PUSH2 0x1313 JUMP JUMPDEST PUSH2 0x111F PUSH2 0x158B JUMP JUMPDEST PUSH1 0x1 PUSH1 0x1 PUSH1 0xA0 SHL SUB AND PUSH1 0x0 DUP2 DUP2 MSTORE PUSH1 0x7 PUSH1 0x20 MSTORE PUSH1 0x40 SWAP1 KECCAK256 SLOAD PUSH2 0x1143 SWAP1 PUSH1 0xFF AND PUSH2 0x13F2 JUMP JUMPDEST DUP1 PUSH1 0x0 MSTORE PUSH1 0x7 PUSH1 0x20 MSTORE PUSH1 0x40 PUSH1 0x0 KECCAK256 PUSH1 0xFF NOT DUP2 SLOAD AND SWAP1 SSTORE DUP1 PUSH1 0x0 MSTORE PUSH1 0x6 PUSH1 0x20 MSTORE PUSH1 0x0 PUSH1 0x40 DUP2 KECCAK256 SSTORE PUSH1 0x0 MSTORE PUSH1 0x2 PUSH1 0x20 MSTORE PUSH1 0x40 PUSH1 0x0 KECCAK256 PUSH4 0x3B9ACA00 DUP2 SLOAD LT ISZERO PUSH2 0x1185 JUMPI STOP JUMPDEST PUSH1 0x5 ADD DUP1 SLOAD PUSH1 0xFF NOT AND PUSH1 0x1 OR SWAP1 SSTORE STOP JUMPDEST CALLVALUE PUSH2 0x368 JUMPI PUSH1 0x0 CALLDATASIZE PUSH1 0x3 NOT ADD SLT PUSH2 0x368 JUMPI PUSH1 0x20 PUSH1 0x3 SLOAD PUSH1 0x40 MLOAD SWAP1 DUP2 MSTORE RETURN JUMPDEST CALLVALUE PUSH2 0x368 JUMPI PUSH1 0x0 CALLDATASIZE PUSH1 0x3 NOT ADD SLT PUSH2 0x368 JUMPI PUSH1 0x20 PUSH1 0x40 MLOAD PUSH3 0x93A80 DUP2 MSTORE RETURN JUMPDEST CALLVALUE PUSH2 0x368 JUMPI PUSH1 0x0 CALLDATASIZE PUSH1 0x3 NOT ADD SLT PUSH2 0x368 JUMPI PUSH1 0x20 PUSH1 0x40 MLOAD PUSH4 0x3B9ACA00 DUP2 MSTORE RETURN JUMPDEST CALLVALUE PUSH2 0x368 JUMPI PUSH1 0x20 CALLDATASIZE PUSH1 0x3 NOT ADD SLT PUSH2 0x368 JUMPI PUSH2 0x1209 PUSH2 0x1313 JUMP JUMPDEST PUSH1 0x0 PUSH1 0xC0 PUSH1 0x40 MLOAD PUSH2 0x1219 DUP2 PUSH2 0x139E JUMP JUMPDEST DUP3 DUP2 MSTORE DUP3 PUSH1 0x20 DUP3 ADD MSTORE DUP3 PUSH1 0x40 DUP3 ADD MSTORE DUP3 PUSH1 0x60 DUP3 ADD MSTORE DUP3 PUSH1 0x80 DUP3 ADD MSTORE DUP3 PUSH1 0xA0 DUP3 ADD MSTORE ADD MSTORE PUSH1 0x1 DUP1 PUSH1 0xA0 SHL SUB AND PUSH1 0x0 MSTORE PUSH1 0x2 PUSH1 0x20 MSTORE PUSH1 0xE0 PUSH1 0x40 PUSH1 0x0 KECCAK256 PUSH1 0x40 MLOAD SWAP1 PUSH2 0x1260 DUP3 PUSH2 0x139E JUMP JUMPDEST DUP1 SLOAD SWAP2 DUP3 DUP2 MSTORE PUSH1 0x1 DUP3 ADD SLOAD SWAP2 PUSH1 0x20 DUP3 ADD SWAP3 DUP4 MSTORE PUSH1 0x2 DUP2 ADD SLOAD PUSH1 0x40 DUP4 ADD SWAP1 DUP2 MSTORE PUSH1 0x3 DUP3 ADD SLOAD SWAP1 PUSH1 0x60 DUP5 ADD SWAP2 DUP3 MSTORE PUSH1 0x5 PUSH1 0x4 DUP5 ADD SLOAD SWAP4 PUSH1 0x80 DUP7 ADD SWAP5 DUP6 MSTORE ADD SLOAD SWAP5 PUSH1 0xFF PUSH1 0xC0 PUSH1 0xA0 DUP8 ADD SWAP7 DUP3 DUP10 AND ISZERO ISZERO DUP9 MSTORE ADD SWAP7 PUSH1 0x8 SHR AND ISZERO ISZERO DUP7 MSTORE PUSH1 0x40 MLOAD SWAP7 DUP8 MSTORE MLOAD PUSH1 0x20 DUP8 ADD MSTORE MLOAD PUSH1 0x40 DUP7 ADD MSTORE MLOAD PUSH1 0x60 DUP6 ADD MSTORE MLOAD PUSH1 0x80 DUP5 ADD MSTORE MLOAD ISZERO ISZERO PUSH1 0xA0 DUP4 ADD MSTORE MLOAD ISZERO ISZERO PUSH1 0xC0 DUP3 ADD MSTORE RETURN JUMPDEST CALLVALUE PUSH2 0x368 JUMPI PUSH1 0x20 CALLDATASIZE PUSH1 0x3 NOT ADD SLT PUSH2 0x368 JUMPI PUSH1 0x20 PUSH2 0x130B PUSH2 0x1306 PUSH2 0x1313 JUMP JUMPDEST PUSH2 0x1343 JUMP JUMPDEST PUSH1 0x40 MLOAD SWAP1 DUP2 MSTORE RETURN JUMPDEST PUSH1 0x4 CALLDATALOAD SWAP1 PUSH1 0x1 PUSH1 0x1 PUSH1 0xA0 SHL SUB DUP3 AND DUP3 SUB PUSH2 0x368 JUMPI JUMP JUMPDEST SWAP2 SWAP1 DUP3 ADD DUP1 SWAP3 GT PUSH2 0x602 JUMPI JUMP JUMPDEST SWAP2 SWAP1 DUP3 SUB SWAP2 DUP3 GT PUSH2 0x602 JUMPI JUMP JUMPDEST PUSH1 0x1 PUSH1 0x1 PUSH1 0xA0 SHL SUB AND PUSH1 0x0 DUP2 DUP2 MSTORE PUSH1 0x5 PUSH1 0x20 MSTORE PUSH1 0x40 SWAP1 KECCAK256 SLOAD PUSH3 0x15180 DUP2 ADD SWAP1 DUP2 LT PUSH2 0x602 JUMPI TIMESTAMP LT ISZERO PUSH2 0x1398 JUMPI PUSH1 0x0 MSTORE PUSH1 0x5 PUSH1 0x20 MSTORE PUSH1 0x40 PUSH1 0x0 KECCAK256 SLOAD PUSH3 0x15180 DUP2 ADD DUP1 SWAP2 GT PUSH2 0x602 JUMPI PUSH2 0x1395 SWAP1 TIMESTAMP SWAP1 PUSH2 0x1336 JUMP JUMPDEST SWAP1 JUMP JUMPDEST POP PUSH1 0x0 SWAP1 JUMP JUMPDEST PUSH1 0xE0 DUP2 ADD SWAP1 DUP2 LT PUSH8 0xFFFFFFFFFFFFFFFF DUP3 GT OR PUSH2 0x13BA JUMPI PUSH1 0x40 MSTORE JUMP JUMPDEST PUSH4 0x4E487B71 PUSH1 0xE0 SHL PUSH1 0x0 MSTORE PUSH1 0x41 PUSH1 0x4 MSTORE PUSH1 0x24 PUSH1 0x0 REVERT JUMPDEST SWAP1 PUSH1 0x1F DUP1 NOT SWAP2 ADD AND DUP2 ADD SWAP1 DUP2 LT PUSH8 0xFFFFFFFFFFFFFFFF DUP3 GT OR PUSH2 0x13BA JUMPI PUSH1 0x40 MSTORE JUMP JUMPDEST ISZERO PUSH2 0x13F9 JUMPI JUMP JUMPDEST PUSH1 0x40 MLOAD PUSH3 0x461BCD PUSH1 0xE5 SHL DUP2 MSTORE PUSH1 0x20 PUSH1 0x4 DUP3 ADD MSTORE PUSH1 0x13 PUSH1 0x24 DUP3 ADD MSTORE PUSH19 0x14995B185E595C881B9BDD081CDB185CDA1959 PUSH1 0x6A SHL PUSH1 0x44 DUP3 ADD MSTORE PUSH1 0x64 SWAP1 REVERT JUMPDEST ISZERO PUSH2 0x143B JUMPI JUMP JUMPDEST PUSH1 0x40 MLOAD PUSH3 0x461BCD PUSH1 0xE5 SHL DUP2 MSTORE PUSH1 0x20 PUSH1 0x4 DUP3 ADD MSTORE PUSH1 0x16 PUSH1 0x24 DUP3 ADD MSTORE PUSH22 0x14995B185E595C881B9BDD081C9959DA5CDD195C9959 PUSH1 0x52 SHL PUSH1 0x44 DUP3 ADD MSTORE PUSH1 0x64 SWAP1 REVERT JUMPDEST ISZERO PUSH2 0x1480 JUMPI JUMP JUMPDEST PUSH1 0x40 MLOAD PUSH3 0x461BCD PUSH1 0xE5 SHL DUP2 MSTORE PUSH1 0x20 PUSH1 0x4 DUP3 ADD MSTORE PUSH1 0x12 PUSH1 0x24 DUP3 ADD MSTORE PUSH18 0x52656C61796572206E6F7420616374697665 PUSH1 0x70 SHL PUSH1 0x44 DUP3 ADD MSTORE PUSH1 0x64 SWAP1 REVERT JUMPDEST ISZERO PUSH2 0x14C1 JUMPI JUMP JUMPDEST PUSH1 0x40 MLOAD PUSH3 0x461BCD PUSH1 0xE5 SHL DUP2 MSTORE PUSH1 0x20 PUSH1 0x4 DUP3 ADD MSTORE PUSH1 0xF PUSH1 0x24 DUP3 ADD MSTORE PUSH15 0x14995B185E595C881CDB185CDA1959 PUSH1 0x8A SHL PUSH1 0x44 DUP3 ADD MSTORE PUSH1 0x64 SWAP1 REVERT JUMPDEST PUSH1 0x0 NOT DUP2 EQ PUSH2 0x602 JUMPI PUSH1 0x1 ADD SWAP1 JUMP JUMPDEST ISZERO PUSH2 0x150E JUMPI JUMP JUMPDEST PUSH1 0x40 MLOAD PUSH3 0x461BCD PUSH1 0xE5 SHL DUP2 MSTORE PUSH1 0x20 PUSH1 0x4 DUP3 ADD MSTORE PUSH1 0x14 PUSH1 0x24 DUP3 ADD MSTORE PUSH20 0x125B9D985B1A59081CDB185CDA08185B5BDD5B9D PUSH1 0x62 SHL PUSH1 0x44 DUP3 ADD MSTORE PUSH1 0x64 SWAP1 REVERT JUMPDEST ISZERO PUSH2 0x1551 JUMPI JUMP JUMPDEST PUSH1 0x40 MLOAD PUSH3 0x461BCD PUSH1 0xE5 SHL DUP2 MSTORE PUSH1 0x20 PUSH1 0x4 DUP3 ADD MSTORE PUSH1 0x12 PUSH1 0x24 DUP3 ADD MSTORE PUSH18 0x496E73756666696369656E74207374616B65 PUSH1 0x70 SHL PUSH1 0x44 DUP3 ADD MSTORE PUSH1 0x64 SWAP1 REVERT JUMPDEST PUSH1 0x1 SLOAD PUSH1 0x1 PUSH1 0x1 PUSH1 0xA0 SHL SUB AND CALLER SUB PUSH2 0x159F JUMPI JUMP JUMPDEST PUSH4 0x118CDAA7 PUSH1 0xE0 SHL PUSH1 0x0 MSTORE CALLER PUSH1 0x4 MSTORE PUSH1 0x24 PUSH1 0x0 REVERT JUMPDEST PUSH1 0x2 PUSH1 0x0 SLOAD EQ PUSH2 0x15C5 JUMPI PUSH1 0x2 PUSH1 0x0 SSTORE JUMP JUMPDEST PUSH4 0x3EE5AEB5 PUSH1 0xE0 SHL PUSH1 0x0 MSTORE PUSH1 0x4 PUSH1 0x0 REVERT JUMPDEST PUSH1 0x40 MLOAD PUSH4 0x23B872DD PUSH1 0xE0 SHL PUSH1 0x20 DUP3 ADD MSTORE PUSH1 0x1 PUSH1 0x1 PUSH1 0xA0 SHL SUB SWAP3 DUP4 AND PUSH1 0x24 DUP3 ADD MSTORE SWAP3 SWAP1 SWAP2 AND PUSH1 0x44 DUP4 ADD MSTORE PUSH1 0x64 DUP1 DUP4 ADD SWAP4 SWAP1 SWAP4 MSTORE SWAP2 DUP2 MSTORE PUSH2 0x161F SWAP2 PUSH2 0x161A PUSH1 0x84 DUP4 PUSH2 0x13D0 JUMP JUMPDEST PUSH2 0x16D4 JUMP JUMPDEST JUMP JUMPDEST PUSH1 0x40 PUSH32 0x4CCD10AA8A641E19C262018438AB4CBAA91E683A875DDD178515BC2CC6869EC6 SWAP2 PUSH1 0x1 DUP1 PUSH1 0xA0 SHL SUB AND SWAP3 DUP4 PUSH1 0x0 MSTORE PUSH1 0x2 PUSH1 0x20 MSTORE DUP2 PUSH1 0x0 KECCAK256 PUSH2 0x1668 DUP3 DUP3 SLOAD LT ISZERO PUSH2 0x154A JUMP JUMPDEST DUP5 PUSH1 0x0 MSTORE PUSH1 0x5 PUSH1 0x20 MSTORE TIMESTAMP DUP4 PUSH1 0x0 KECCAK256 SSTORE PUSH2 0x1682 DUP3 DUP3 SLOAD PUSH2 0x1336 JUMP JUMPDEST DUP2 SSTORE PUSH1 0x0 DUP6 DUP2 MSTORE PUSH1 0x7 PUSH1 0x20 SWAP1 DUP2 MSTORE DUP5 DUP3 KECCAK256 DUP1 SLOAD PUSH1 0xFF NOT AND PUSH1 0x1 OR SWAP1 SSTORE PUSH1 0x6 SWAP1 MSTORE DUP4 DUP2 KECCAK256 SSTORE DUP1 SLOAD SWAP1 PUSH4 0x3B9ACA00 DUP3 LT PUSH2 0x16C3 JUMPI JUMPDEST POP DUP3 MLOAD SWAP2 DUP3 MSTORE PUSH1 0x20 DUP3 ADD MSTORE LOG2 JUMP JUMPDEST PUSH1 0x5 ADD DUP1 SLOAD PUSH1 0xFF NOT AND SWAP1 SSTORE CODESIZE PUSH2 0x16B5 JUMP JUMPDEST SWAP1 PUSH1 0x0 PUSH1 0x20 SWAP2 DUP3 DUP2 MLOAD SWAP2 ADD DUP3 DUP6 GAS CALL ISZERO PUSH2 0x172F JUMPI PUSH1 0x0 MLOAD RETURNDATASIZE PUSH2 0x1726 JUMPI POP PUSH1 0x1 PUSH1 0x1 PUSH1 0xA0 SHL SUB DUP2 AND EXTCODESIZE ISZERO JUMPDEST PUSH2 0x1705 JUMPI POP JUMP JUMPDEST PUSH4 0x5274AFE7 PUSH1 0xE0 SHL PUSH1 0x0 SWAP1 DUP2 MSTORE PUSH1 0x1 PUSH1 0x1 PUSH1 0xA0 SHL SUB SWAP2 SWAP1 SWAP2 AND PUSH1 0x4 MSTORE PUSH1 0x24 SWAP1 REVERT JUMPDEST PUSH1 0x1 EQ ISZERO PUSH2 0x16FE JUMP JUMPDEST PUSH1 0x40 MLOAD RETURNDATASIZE PUSH1 0x0 DUP3 RETURNDATACOPY RETURNDATASIZE SWAP1 REVERT INVALID LOG2 PUSH5 0x6970667358 0x22 SLT KECCAK256 PUSH9 0xA1B92BB61DE50AF811 PUSH30 0x9826FAC5AC4EB424BB2261A3262D4898CBEF75B65064736F6C634300081C STOP CALLER "},"gasEstimates":{"creation":{"codeDepositCost":"1200200","executionCost":"infinite","totalCost":"infinite"},"external":{"CONSECUTIVE_FAILURES_THRESHOLD()":"543","MINIMUM_STAKE()":"191","PYUSD_ADDRESS()":"infinite","SLASHING_COOLDOWN()":"521","SLASH_AMOUNT()":"279","WITHDRAWAL_DELAY()":"213","canExecute(address)":"7079","consecutiveFailures(address)":"3017","emergencySlash(address,uint256,string)":"infinite","emergencyUnslash(address)":"60471","failureThresholdConfig()":"2756","getConsecutiveFailures(address)":"2577","getRelayerInfo(address)":"infinite","getRelayerStats(address)":"11119","getTimeUntilSlashCooldown(address)":"4746","isRelayerActive(address)":"2683","isSlashed(address)":"2853","lastSlashTime(address)":"2643","owner()":"2626","recordExecution(address,bool,uint256)":"64629","registerRelayer(uint256)":"infinite","relayers(address)":"13238","renounceOwnership()":"28275","requestWithdrawal()":"50720","restakeAfterSlash(uint256)":"infinite","setSubscriptionManager(address)":"27144","slashAmountConfig()":"2338","subscriptionManager()":"2736","transferOwnership(address)":"28803","unregisterRelayer()":"infinite","updateSlashingParameters(uint256,uint256)":"48416"},"internal":{"_applySlash(address,uint256)":"infinite","_slashRelayer(address,uint256)":"infinite"}},"methodIdentifiers":{"CONSECUTIVE_FAILURES_THRESHOLD()":"b4bb6c0d","MINIMUM_STAKE()":"08dbbb03","PYUSD_ADDRESS()":"e2b02576","SLASHING_COOLDOWN()":"ab576cb5","SLASH_AMOUNT()":"37720606","WITHDRAWAL_DELAY()":"0ebb172a","canExecute(address)":"85c99e2b","consecutiveFailures(address)":"efdac37c","emergencySlash(address,uint256,string)":"b63f3b8a","emergencyUnslash(address)":"20e732cd","failureThresholdConfig()":"ceb88df8","getConsecutiveFailures(address)":"546b83ad","getRelayerInfo(address)":"06bfd20b","getRelayerStats(address)":"62724306","getTimeUntilSlashCooldown(address)":"00359015","isRelayerActive(address)":"83a9f7fc","isSlashed(address)":"b799036c","lastSlashTime(address)":"7f202654","owner()":"8da5cb5b","recordExecution(address,bool,uint256)":"894f8c72","registerRelayer(uint256)":"f5855d16","relayers(address)":"5300f841","renounceOwnership()":"715018a6","requestWithdrawal()":"dbaf2145","restakeAfterSlash(uint256)":"8ce37cc4","setSubscriptionManager(address)":"c05b3585","slashAmountConfig()":"15d39754","subscriptionManager()":"bf158fd2","transferOwnership(address)":"f2fde38b","unregisterRelayer()":"e6d1b240","updateSlashingParameters(uint256,uint256)":"d53f8a63"}},"storageLayout":{"storage":[{"astId":1498,"contract":"contracts/RelayerRegistry.sol:RelayerRegistry","label":"_status","offset":0,"slot":"0","type":"t_uint256"},{"astId":8,"contract":"contracts/RelayerRegistry.sol:RelayerRegistry","label":"_owner","offset":0,"slot":"1","type":"t_address"},{"astId":2139,"contract":"contracts/RelayerRegistry.sol:RelayerRegistry","label":"relayers","offset":0,"slot":"2","type":"t_mapping(t_address,t_struct(Relayer)2134_storage)"},{"astId":2154,"contract":"contracts/RelayerRegistry.sol:RelayerRegistry","label":"slashAmountConfig","offset":0,"slot":"3","type":"t_uint256"},{"astId":2157,"contract":"contracts/RelayerRegistry.sol:RelayerRegistry","label":"failureThresholdConfig","offset":0,"slot":"4","type":"t_uint256"},{"astId":2161,"contract":"contracts/RelayerRegistry.sol:RelayerRegistry","label":"lastSlashTime","offset":0,"slot":"5","type":"t_mapping(t_address,t_uint256)"},{"astId":2165,"contract":"contracts/RelayerRegistry.sol:RelayerRegistry","label":"consecutiveFailures","offset":0,"slot":"6","type":"t_mapping(t_address,t_uint256)"},{"astId":2169,"contract":"contracts/RelayerRegistry.sol:RelayerRegistry","label":"isSlashed","offset":0,"slot":"7","type":"t_mapping(t_address,t_bool)"},{"astId":2176,"contract":"contracts/RelayerRegistry.sol:RelayerRegistry","label":"subscriptionManager","offset":0,"slot":"8","type":"t_address"}],"types":{"t_address":{"encoding":"inplace","label":"address","numberOfBytes":"20"},"t_bool":{"encoding":"inplace","label":"bool","numberOfBytes":"1"},"t_mapping(t_address,t_bool)":{"encoding":"mapping","key":"t_address","label":"mapping(address => bool)","numberOfBytes":"32","value":"t_bool"},"t_mapping(t_address,t_struct(Relayer)2134_storage)":{"encoding":"mapping","key":"t_address","label":"mapping(address => struct RelayerRegistry.Relayer)","numberOfBytes":"32","value":"t_struct(Relayer)2134_storage"},"t_mapping(t_address,t_uint256)":{"encoding":"mapping","key":"t_address","label":"mapping(address => uint256)","numberOfBytes":"32","value":"t_uint256"},"t_struct(Relayer)2134_storage":{"encoding":"inplace","label":"struct RelayerRegistry.Relayer","members":[{"astId":2121,"contract":"contracts/RelayerRegistry.sol:RelayerRegistry","label":"stakedAmount","offset":0,"slot":"0","type":"t_uint256"},{"astId":2123,"contract":"contracts/RelayerRegistry.sol:RelayerRegistry","label":"successfulExecutions","offset":0,"slot":"1","type":"t_uint256"},{"astId":2125,"contract":"contracts/RelayerRegistry.sol:RelayerRegistry","label":"failedExecutions","offset":0,"slot":"2","type":"t_uint256"},{"astId":2127,"contract":"contracts/RelayerRegistry.sol:RelayerRegistry","label":"totalFeesEarned","offset":0,"slot":"3","type":"t_uint256"},{"astId":2129,"contract":"contracts/RelayerRegistry.sol:RelayerRegistry","label":"withdrawalRequestTime","offset":0,"slot":"4","type":"t_uint256"},{"astId":2131,"contract":"contracts/RelayerRegistry.sol:RelayerRegistry","label":"isActive","offset":0,"slot":"5","type":"t_bool"},{"astId":2133,"contract":"contracts/RelayerRegistry.sol:RelayerRegistry","label":"withdrawalRequested","offset":1,"slot":"5","type":"t_bool"}],"numberOfBytes":"192"},"t_uint256":{"encoding":"inplace","label":"uint256","numberOfBytes":"32"}}},"userdoc":{"kind":"user","methods":{},"version":1}}}}