{"contracts/SubscriptionManager.sol":{"SubscriptionManager":{"abi":[{"inputs":[{"internalType":"address","name":"_pyusdAddress","type":"address"},{"internalType":"address","name":"_relayerRegistry","type":"address"}],"stateMutability":"nonpayable","type":"constructor"},{"inputs":[],"name":"ECDSAInvalidSignature","type":"error"},{"inputs":[{"internalType":"uint256","name":"length","type":"uint256"}],"name":"ECDSAInvalidSignatureLength","type":"error"},{"inputs":[{"internalType":"bytes32","name":"s","type":"bytes32"}],"name":"ECDSAInvalidSignatureS","type":"error"},{"inputs":[],"name":"ReentrancyGuardReentrantCall","type":"error"},{"anonymous":false,"inputs":[{"indexed":true,"internalType":"bytes32","name":"subscriptionId","type":"bytes32"},{"indexed":true,"internalType":"address","name":"subscriber","type":"address"},{"indexed":true,"internalType":"address","name":"merchant","type":"address"},{"indexed":false,"internalType":"uint256","name":"paymentNumber","type":"uint256"},{"indexed":false,"internalType":"uint256","name":"amount","type":"uint256"},{"indexed":false,"internalType":"uint256","name":"fee","type":"uint256"},{"indexed":false,"internalType":"address","name":"relayer","type":"address"}],"name":"PaymentExecuted","type":"event"},{"anonymous":false,"inputs":[{"indexed":true,"internalType":"bytes32","name":"subscriptionId","type":"bytes32"},{"indexed":true,"internalType":"address","name":"subscriber","type":"address"},{"indexed":true,"internalType":"address","name":"merchant","type":"address"},{"indexed":false,"internalType":"uint256","name":"amount","type":"uint256"},{"indexed":false,"internalType":"string","name":"reason","type":"string"}],"name":"PaymentFailed","type":"event"},{"anonymous":false,"inputs":[{"indexed":true,"internalType":"bytes32","name":"subscriptionId","type":"bytes32"},{"indexed":true,"internalType":"address","name":"subscriber","type":"address"},{"indexed":true,"internalType":"address","name":"merchant","type":"address"}],"name":"SubscriptionCancelled","type":"event"},{"anonymous":false,"inputs":[{"indexed":true,"internalType":"bytes32","name":"subscriptionId","type":"bytes32"},{"indexed":true,"internalType":"address","name":"subscriber","type":"address"},{"indexed":true,"internalType":"address","name":"merchant","type":"address"},{"indexed":false,"internalType":"uint256","name":"amount","type":"uint256"},{"indexed":false,"internalType":"uint256","name":"interval","type":"uint256"},{"indexed":false,"internalType":"uint256","name":"maxPayments","type":"uint256"},{"indexed":false,"internalType":"uint256","name":"maxTotalAmount","type":"uint256"},{"indexed":false,"internalType":"uint256","name":"expiry","type":"uint256"}],"name":"SubscriptionCreated","type":"event"},{"anonymous":false,"inputs":[{"indexed":true,"internalType":"bytes32","name":"subscriptionId","type":"bytes32"},{"indexed":true,"internalType":"address","name":"subscriber","type":"address"}],"name":"SubscriptionPaused","type":"event"},{"anonymous":false,"inputs":[{"indexed":true,"internalType":"bytes32","name":"subscriptionId","type":"bytes32"},{"indexed":true,"internalType":"address","name":"subscriber","type":"address"}],"name":"SubscriptionResumed","type":"event"},{"inputs":[],"name":"PAUSE_REQUEST_TYPEHASH","outputs":[{"internalType":"bytes32","name":"","type":"bytes32"}],"stateMutability":"view","type":"function"},{"inputs":[],"name":"PROTOCOL_FEE_BPS","outputs":[{"internalType":"uint256","name":"","type":"uint256"}],"stateMutability":"view","type":"function"},{"inputs":[],"name":"PYUSD_ADDRESS","outputs":[{"internalType":"address","name":"","type":"address"}],"stateMutability":"view","type":"function"},{"inputs":[],"name":"RELAYER_REGISTRY","outputs":[{"internalType":"contract RelayerRegistry","name":"","type":"address"}],"stateMutability":"view","type":"function"},{"inputs":[],"name":"RESUME_REQUEST_TYPEHASH","outputs":[{"internalType":"bytes32","name":"","type":"bytes32"}],"stateMutability":"view","type":"function"},{"inputs":[],"name":"SUBSCRIPTION_INTENT_TYPEHASH","outputs":[{"internalType":"bytes32","name":"","type":"bytes32"}],"stateMutability":"view","type":"function"},{"inputs":[{"internalType":"bytes32","name":"subscriptionId","type":"bytes32"}],"name":"cancelSubscription","outputs":[],"stateMutability":"nonpayable","type":"function"},{"inputs":[{"components":[{"internalType":"address","name":"subscriber","type":"address"},{"internalType":"address","name":"merchant","type":"address"},{"internalType":"uint256","name":"amount","type":"uint256"},{"internalType":"uint256","name":"interval","type":"uint256"},{"internalType":"uint256","name":"startTime","type":"uint256"},{"internalType":"uint256","name":"maxPayments","type":"uint256"},{"internalType":"uint256","name":"maxTotalAmount","type":"uint256"},{"internalType":"uint256","name":"expiry","type":"uint256"},{"internalType":"uint256","name":"nonce","type":"uint256"}],"internalType":"struct SubscriptionManager.SubscriptionIntent","name":"intent","type":"tuple"},{"internalType":"bytes","name":"signature","type":"bytes"}],"name":"createSubscription","outputs":[{"internalType":"bytes32","name":"subscriptionId","type":"bytes32"}],"stateMutability":"nonpayable","type":"function"},{"inputs":[{"internalType":"address","name":"","type":"address"}],"name":"currentNonce","outputs":[{"internalType":"uint256","name":"","type":"uint256"}],"stateMutability":"view","type":"function"},{"inputs":[{"internalType":"bytes32","name":"subscriptionId","type":"bytes32"},{"internalType":"address","name":"relayer","type":"address"}],"name":"executeSubscription","outputs":[],"stateMutability":"nonpayable","type":"function"},{"inputs":[{"internalType":"bytes32","name":"","type":"bytes32"}],"name":"executedPayments","outputs":[{"internalType":"uint256","name":"","type":"uint256"}],"stateMutability":"view","type":"function"},{"inputs":[{"internalType":"address","name":"_subscriber","type":"address"}],"name":"getNextNonce","outputs":[{"internalType":"uint256","name":"","type":"uint256"}],"stateMutability":"view","type":"function"},{"inputs":[{"internalType":"bytes32","name":"subscriptionId","type":"bytes32"}],"name":"getNextPaymentTime","outputs":[{"internalType":"uint256","name":"","type":"uint256"}],"stateMutability":"view","type":"function"},{"inputs":[{"internalType":"bytes32","name":"subscriptionId","type":"bytes32"}],"name":"getPaymentCount","outputs":[{"internalType":"uint256","name":"","type":"uint256"}],"stateMutability":"view","type":"function"},{"inputs":[{"internalType":"bytes32","name":"subscriptionId","type":"bytes32"}],"name":"getSubscription","outputs":[{"components":[{"internalType":"address","name":"subscriber","type":"address"},{"internalType":"address","name":"merchant","type":"address"},{"internalType":"uint256","name":"amount","type":"uint256"},{"internalType":"uint256","name":"interval","type":"uint256"},{"internalType":"uint256","name":"startTime","type":"uint256"},{"internalType":"uint256","name":"maxPayments","type":"uint256"},{"internalType":"uint256","name":"maxTotalAmount","type":"uint256"},{"internalType":"uint256","name":"expiry","type":"uint256"},{"internalType":"uint256","name":"nonce","type":"uint256"},{"internalType":"enum SubscriptionManager.SubscriptionStatus","name":"status","type":"uint8"}],"internalType":"struct SubscriptionManager.Subscription","name":"","type":"tuple"}],"stateMutability":"view","type":"function"},{"inputs":[{"internalType":"bytes32","name":"subscriptionId","type":"bytes32"}],"name":"isSubscriptionActive","outputs":[{"internalType":"bool","name":"","type":"bool"}],"stateMutability":"view","type":"function"},{"inputs":[{"internalType":"bytes32","name":"subscriptionId","type":"bytes32"},{"internalType":"bytes","name":"signature","type":"bytes"}],"name":"pauseSubscription","outputs":[],"stateMutability":"nonpayable","type":"function"},{"inputs":[{"internalType":"bytes32","name":"subscriptionId","type":"bytes32"},{"internalType":"bytes","name":"signature","type":"bytes"}],"name":"resumeSubscription","outputs":[],"stateMutability":"nonpayable","type":"function"},{"inputs":[{"internalType":"bytes32","name":"","type":"bytes32"}],"name":"subscriptions","outputs":[{"internalType":"address","name":"subscriber","type":"address"},{"internalType":"address","name":"merchant","type":"address"},{"internalType":"uint256","name":"amount","type":"uint256"},{"internalType":"uint256","name":"interval","type":"uint256"},{"internalType":"uint256","name":"startTime","type":"uint256"},{"internalType":"uint256","name":"maxPayments","type":"uint256"},{"internalType":"uint256","name":"maxTotalAmount","type":"uint256"},{"internalType":"uint256","name":"expiry","type":"uint256"},{"internalType":"uint256","name":"nonce","type":"uint256"},{"internalType":"enum SubscriptionManager.SubscriptionStatus","name":"status","type":"uint8"}],"stateMutability":"view","type":"function"},{"inputs":[{"components":[{"internalType":"address","name":"subscriber","type":"address"},{"internalType":"address","name":"merchant","type":"address"},{"internalType":"uint256","name":"amount","type":"uint256"},{"internalType":"uint256","name":"interval","type":"uint256"},{"internalType":"uint256","name":"startTime","type":"uint256"},{"internalType":"uint256","name":"maxPayments","type":"uint256"},{"internalType":"uint256","name":"maxTotalAmount","type":"uint256"},{"internalType":"uint256","name":"expiry","type":"uint256"},{"internalType":"uint256","name":"nonce","type":"uint256"}],"internalType":"struct SubscriptionManager.SubscriptionIntent","name":"intent","type":"tuple"},{"internalType":"bytes","name":"signature","type":"bytes"}],"name":"verifyIntent","outputs":[{"internalType":"bool","name":"valid","type":"bool"},{"internalType":"address","name":"signer","type":"address"}],"stateMutability":"view","type":"function"}],"devdoc":{"errors":{"ECDSAInvalidSignature()":[{"details":"The signature derives the `address(0)`."}],"ECDSAInvalidSignatureLength(uint256)":[{"details":"The signature has an invalid length."}],"ECDSAInvalidSignatureS(bytes32)":[{"details":"The signature has an S value that is in the upper half order."}],"ReentrancyGuardReentrantCall()":[{"details":"Unauthorized reentrant call."}]},"kind":"dev","methods":{},"version":1},"evm":{"bytecode":{"linkReferences":{},"object":"60e080604052346101f9576040816123c6803803809161001f82856101fe565b8339810103126101f95761003e602061003783610237565b9201610237565b60016000556001600160a01b038216156101b4576001600160a01b03169081156101705760805260a0526040516100766040826101fe565b6005815264417572756d60d81b602090910152604080517facdbaa2d9365d09420a73f7eac1bfd80ef7f0a52431b7ed44c1d8a8f77e56da8916100b990826101fe565b600181526020810190603160f81b82525190206040519060208201927f8b73c3c69bb8fe3d512ecc4cf759cc79239f7b179b0ffacaa9a75d522b39400f8452604083015260608201524660808201523060a082015260a0815261011d60c0826101fe565b51902060c05260405161217a908161024c8239608051818181610142015281816109f901528181611bc90152611cf9015260a05181818161039001526113bc015260c0518181816106010152611a400152f35b606460405162461bcd60e51b815260206004820152602060248201527f496e76616c69642072656c6179657220726567697374727920616464726573736044820152fd5b60405162461bcd60e51b815260206004820152601560248201527f496e76616c6964205059555344206164647265737300000000000000000000006044820152606490fd5b600080fd5b601f909101601f19168101906001600160401b0382119082101761022157604052565b634e487b7160e01b600052604160045260246000fd5b51906001600160a01b03821682036101f95756fe608080604052600436101561001357600080fd5b60003560e01c9081631f32768e14610f195750806333e5a1d614610ede5780635ad63a24146108a05780635adf2d8d146108655780636437ecfc146104c657806369e1fd9a1461080e5780636c00f051146107055780636f956971146100fb57806377bef0031461053b5780637b0e3b621461050057806390193b7c146104c657806391351c821461046a57806394259c6c146103bf578063a807db751461037a578063be3782281461035e578063c603ff48146102f5578063d21f1ffc146101a1578063d3a1cbfd14610171578063e2b025761461012c5763eaef9f2f146100fb57600080fd5b346101275760203660031901126101275760043560005260026020526020604060002054604051908152f35b600080fd5b34610127576000366003190112610127576040517f00000000000000000000000000000000000000000000000000000000000000006001600160a01b03168152602090f35b3461012757604061018a610184366110b3565b91611a14565b825191151582526001600160a01b03166020820152f35b3461012757602036600319011261012757600435600081815260016020526040902080546001600160a01b03166101d98115156112d4565b33036102b0576009810160ff815416600581101561029a57801590811561028f575b501561024b57805460ff191660021790558054600191909101546001600160a01b03908116929116907f8065a33ad053d617d51579685a263b0f7c6ec05931dbc0280bfda3a784208959600080a4005b606460405162461bcd60e51b815260206004820152602060248201527f537562736372697074696f6e2063616e6e6f742062652063616e63656c6c65646044820152fd5b6001915014846101fb565b634e487b7160e01b600052602160045260246000fd5b60405162461bcd60e51b815260206004820152601a60248201527f4f6e6c7920737562736372696265722063616e2063616e63656c0000000000006044820152606490fd5b34610127576020366003190112610127576020610356600435806000526001835260406000209061033060018060a01b0383541615156112d4565b600052600283526103506040600020546003600484015493015490611284565b9061136c565b604051908152f35b3461012757600036600319011261012757602060405160328152f35b34610127576000366003190112610127576040517f00000000000000000000000000000000000000000000000000000000000000006001600160a01b03168152602090f35b34610127576020366003190112610127576004356000526001602052610140604060002061046860018060a01b038254169160018060a01b036001820154169060028101546003820154600483015460058401549060068501549260078601549460ff6009600889015498015416976040519a8b5260208b015260408a01526060890152608088015260a087015260c086015260e0850152610100840152610120830190611078565bf35b3461012757602036600319011261012757600435600090815260016020526040902080546001600160a01b03161515806104ac575b6020906040519015158152f35b506009015460ff16600581101561029a576020901561049f565b34610127576020366003190112610127576001600160a01b036104e76110f1565b1660005260036020526020604060002054604051908152f35b346101275760003660031901126101275760206040517fd806147178df513a750f9faa80312ba59509af708425df523403bf058ce4b2448152f35b34610127576105493661111b565b9082600052600160205260406000209160018060a01b038354169061056f8215156112d4565b600984019260ff845416600581101561029a576001036106c05761065e61065561066d9361064f869485600052600360205260406000205460405160208101917fd806147178df513a750f9faa80312ba59509af708425df523403bf058ce4b24483528d60408301526060820152606081526105ec60808261117e565b51902060405161190160f01b602082019081527f00000000000000000000000000000000000000000000000000000000000000006022830152604282019290925261064481606281015b03601f19810183528261117e565b5190209236916119dd565b9061200d565b90929192612049565b6001600160a01b0316146111b4565b6000526003602052604060002061068481546112ad565b9055805460ff19169055546001600160a01b0316907faa36c7b46a257244f7f4be84a7163f464e536b2f812d6c308ef7856c58ba925d600080a3005b60405162461bcd60e51b815260206004820152601760248201527f537562736372697074696f6e206e6f74207061757365640000000000000000006044820152606490fd5b34610127576107133661111b565b82600052600160205260406000209160018060a01b03835416906107388215156112d4565b600984019260ff845416600581101561029a57610655849261064f6107b89561076461065e9515611320565b85600052600360205260406000205460405160208101917fb4d196c0bbe67585f3497477b08a7dedca34f0794cef101cf570c3e415f6d93983528d60408301526060820152606081526105ec60808261117e565b600052600360205260406000206107cf81546112ad565b9055805460ff19166001179055546001600160a01b0316907fded8d4d23682b33f0e79da6698526d10c5f7ec65705c1903e9ac7f78b5e3a51b600080a3005b34610127576040366003190112610127576024356001600160a01b0381168103610127576002600054146108545761084d906002600055600435611395565b6001600055005b633ee5aeb560e01b60005260046000fd5b346101275760003660031901126101275760206040517fb4d196c0bbe67585f3497477b08a7dedca34f0794cef101cf570c3e415f6d9398152f35b34610127576108ae366110b3565b909161010081013591906001600160a01b036108c9826111a0565b1660005260036020526040600020548303610ea9576108f86108ec838684611a14565b81610e82575b506111b4565b60e08101359242841115610e3d57608082013592848411610df9576040830135928315610db55760608101358015610d655760a0820135978815610d115760c0830135936109468a88611284565b8510610ccc5761098c604061096361095e36886111f4565b611aa4565b93838251948592602084019788528484013781016000838201520301601f19810183528261117e565b5190206000818152600160205260409020549097906001600160a01b0316610c87576109b88987611284565b6109f560206109c6866111a0565b604051636eb1769f60e11b81526001600160a01b03909116600482015230602482015291829081906044820190565b03817f00000000000000000000000000000000000000000000000000000000000000006001600160a01b03165afa908115610c7b57600091610c49575b5010610c04578794610a43846111a0565b906020850198610a528a6111a0565b9060405193610a608561114b565b600160a01b600190031684526020840191600160a01b600190031682528c60408501918b8352606086018881526080870191825260a0870192835260c08701938b855260e0880195898752610100890197885261012089019d60008f526000526001602052604060002098600160a01b6001900390600160a01b60019003905116166bffffffffffffffffffffffff60a01b8a5416178955600160a01b600190039051166001890190600160a01b60019003166bffffffffffffffffffffffff60a01b825416179055516002880155516003870155516004860155516005850155516006840155516007830155516008820155600901945193600585101561029a57602099610bd1610bcb60a0968c997fdec8943e7ef8a51d83c078700fdab942959d920107deebc0b4f301bb422892109960ff80198354169116179055600180891b03610bad826111a0565b1660005260038e526040600020610bc481546112ad565b90556111a0565b996111a0565b936040519889528b890152604088015260608701526080860152600180831b031694600180831b031693a4604051908152f35b60405162461bcd60e51b815260206004820152601c60248201527f496e73756666696369656e7420505955534420616c6c6f77616e6365000000006044820152606490fd5b90506020813d602011610c73575b81610c646020938361117e565b8101031261012757518b610a32565b3d9150610c57565b6040513d6000823e3d90fd5b60405162461bcd60e51b815260206004820152601b60248201527f537562736372697074696f6e20616c72656164792065786973747300000000006044820152606490fd5b60405162461bcd60e51b815260206004820152601d60248201527f4d617820746f74616c20616d6f756e7420696e73756666696369656e740000006044820152606490fd5b60405162461bcd60e51b815260206004820152602660248201527f4d6178207061796d656e7473206d7573742062652067726561746572207468616044820152656e207a65726f60d01b6064820152608490fd5b60405162461bcd60e51b815260206004820152602260248201527f496e74657276616c206d7573742062652067726561746572207468616e207a65604482015261726f60f01b6064820152608490fd5b606460405162461bcd60e51b815260206004820152602060248201527f416d6f756e74206d7573742062652067726561746572207468616e207a65726f6044820152fd5b606460405162461bcd60e51b815260206004820152602060248201527f53746172742074696d65206d757374206265206265666f7265206578706972796044820152fd5b60405162461bcd60e51b815260206004820152601b60248201527f537562736372697074696f6e20696e74656e74206578706972656400000000006044820152606490fd5b90506001600160a01b03610e95846111a0565b6001600160a01b03909216911614866108f2565b60405162461bcd60e51b815260206004820152600d60248201526c496e76616c6964206e6f6e636560981b6044820152606490fd5b346101275760003660031901126101275760206040517f95d1972ebb257253c8eca5422008068e9ebae76c58e3beafa47373a6a2c529da8152f35b346101275760203660031901126101275761012081610f3960009361114b565b8281528260208201528260408201528260608201528260808201528260a08201528260c08201528260e082015282610100820152015260043560005260016020526040600020604051610f8b8161114b565b60018060a01b03825416815260018060a01b03600183015416916020820192835260028101546040830190815260038201549160608401928352600481015460808501908152600582015460a0860190815260068301549060c0870191825260078401549260e0880193845260ff60096008870154966101008b0197885201541696610120890196600589101561029a576101409a6104689989526040519a60018060a01b039051168b5260018060a01b0390511660208b01525160408a01525160608901525160808801525160a08701525160c08601525160e085015251610100840152516101208301905b90600582101561029a5752565b9181601f840112156101275782359167ffffffffffffffff8311610127576020838186019501011161012757565b9060031982016101408112610127576101201361012757600491610124359067ffffffffffffffff8211610127576110ed91600401611085565b9091565b600435906001600160a01b038216820361012757565b35906001600160a01b038216820361012757565b90604060031983011261012757600435916024359067ffffffffffffffff8211610127576110ed91600401611085565b610140810190811067ffffffffffffffff82111761116857604052565b634e487b7160e01b600052604160045260246000fd5b90601f8019910116810190811067ffffffffffffffff82111761116857604052565b356001600160a01b03811681036101275790565b156111bb57565b60405162461bcd60e51b8152602060048201526011602482015270496e76616c6964207369676e617475726560781b6044820152606490fd5b91908261012091031261012757604051610120810181811067ffffffffffffffff8211176111685760405261010080829461122e81611107565b845261123c60208201611107565b602085015260408101356040850152606081013560608501526080810135608085015260a081013560a085015260c081013560c085015260e081013560e08501520135910152565b8181029291811591840414171561129757565b634e487b7160e01b600052601160045260246000fd5b60001981146112975760010190565b90816020910312610127575180151581036101275790565b156112db57565b60405162461bcd60e51b815260206004820152601b60248201527f537562736372697074696f6e20646f6573206e6f7420657869737400000000006044820152606490fd5b1561132757565b60405162461bcd60e51b815260206004820152601760248201527f537562736372697074696f6e206e6f74206163746976650000000000000000006044820152606490fd5b9190820180921161129757565b67ffffffffffffffff811161116857601f01601f191660200190565b90336001600160a01b03909116036119a5576040516385c99e2b60e01b81523360048201527f00000000000000000000000000000000000000000000000000000000000000006001600160a01b031691600091602081602481875afa90811561199a57839161196b575b501561192d57808252600160205260408220805490919061142a906001600160a01b031615156112d4565b600982019360ff8554166005811015611919576114479015611320565b6007830154421161184e57818452600160205261148160408520838652600260205261035060408720546003600484015493015490611284565b42106118135781845260026020526040842054600181018091116117ff5760028401805491603283028381046032148415171561172c576127109004926114c786611b58565b156117405750815483810390811161172c57836114e49188611cce565b80916000146115ef57505084875260026020526040872061150581546112ad565b9055847fda131df023be8b7d63a716139b42d5152ccf8728cfe960a6629bc576d36dd118608060018060a01b038954169360018060a01b0360018b01541695546040519182526020820152866040820152336060820152a4813b156115eb5784916064839260405194859384926344a7c63960e11b84523360048501526001602485015260448401525af180156115e0579084916115c7575b505260026020526005604083205491015411156115b9575050565b50805460ff19166004179055565b816115d19161117e565b6115dc57823861159e565b8280fd5b6040513d86823e3d90fd5b8480fd5b9296959497985092505051156116ee575b60018060a01b03835416926001808060a01b039101541693549060405191825260406020830152805190816040840152875b8281106116d8575050906060818389837f8d07bb7d7ffc0fde6ebc3e0e718c1fdbfac73eb7ea593da5566fa86a1c3c1a309684010152601f80199101168101030190a4803b156116d4578180916064604051809481936344a7c63960e11b83523360048401528160248401528160448401525af180156116c9576116b4575050565b6116bf82809261117e565b6116c65750565b80fd5b6040513d84823e3d90fd5b5080fd5b8060208092840101516060828701015201611632565b506040516116fd60408261117e565b601881527f5061796d656e7420657865637574696f6e206661696c656400000000000000006020820152611600565b634e487b7160e01b88526011600452602488fd5b86546001909701546040805192835260208301819052601d908301527f457865637574696f6e20636f6e73747261696e7473206e6f74206d6574000000606083015297985093966001600160a01b03908116961694937f8d07bb7d7ffc0fde6ebc3e0e718c1fdbfac73eb7ea593da5566fa86a1c3c1a309350608092509050a4803b156116d4578180916064604051809481936344a7c63960e11b83523360048401528160248401528160448401525af180156116c9576116b4575050565b634e487b7160e01b85526011600452602485fd5b60405162461bcd60e51b815260206004820152601360248201527214185e5b595b9d081b9bdd08191d59481e595d606a1b6044820152606490fd5b9293600360ff1982541617905560018060a01b03825416907f8d07bb7d7ffc0fde6ebc3e0e718c1fdbfac73eb7ea593da5566fa86a1c3c1a306080600260018060a01b0360018701541695015460405190815260406020820152601460408201527314dd589cd8dc9a5c1d1a5bdb88195e1c1a5c995960621b6060820152a4803b156116d4578180916064604051809481936344a7c63960e11b83523360048401528160248401528160448401525af180156116c95761190c575050565b816119169161117e565b50565b634e487b7160e01b85526021600452602485fd5b60405162461bcd60e51b815260206004820152601660248201527514995b185e595c881b9bdd08185d5d1a1bdc9a5e995960521b6044820152606490fd5b61198d915060203d602011611993575b611985818361117e565b8101906112bc565b386113ff565b503d61197b565b6040513d85823e3d90fd5b60405162461bcd60e51b815260206004820152601060248201526f0a4cad8c2f2cae440dad2e6dac2e8c6d60831b6044820152606490fd5b9291926119e982611379565b916119f7604051938461117e565b829481845281830111610127578281602093846000960137010152565b90611a82939261064f611a7992611a2e61095e36876111f4565b60405161190160f01b602082019081527f0000000000000000000000000000000000000000000000000000000000000000602283015260428201929092526106448160628101610636565b90949194612049565b6001600160a01b0390611a94906111a0565b166001600160a01b038316149190565b60018060a01b038151169060018060a01b03602082015116906040810151906060810151608082015160a08301519060c08401519261010060e0860151950151956040519760208901997f95d1972ebb257253c8eca5422008068e9ebae76c58e3beafa47373a6a2c529da8b5260408a01526060890152608088015260a087015260c086015260e08501526101008401526101208301526101408201526101408152611b526101608261117e565b51902090565b8060005260016020526040600020906000526002602052604060002054906005810154821015611cc757611b9c611b9792600283015493848092611284565b61136c565b600682015410611cc757546040516370a0823160e01b81526001600160a01b0391821660048201819052917f00000000000000000000000000000000000000000000000000000000000000001690602081602481855afa8015610c7b578491600091611c92575b5010611c8a57604051636eb1769f60e11b81526001600160a01b03929092166004830152306024830152602090829060449082905afa908115610c7b57600091611c58575b5010611c5357600190565b600090565b90506020813d602011611c82575b81611c736020938361117e565b81010312610127575138611c48565b3d9150611c66565b505050600090565b9150506020813d602011611cbf575b81611cae6020938361117e565b810103126101275783905138611c03565b3d9150611ca1565b5050600090565b600281015481546040516370a0823160e01b81526001600160a01b03918216600482018190529395947f0000000000000000000000000000000000000000000000000000000000000000909216939290602081602481885afa8015610c7b578291600091611f68575b5010611f2457604051636eb1769f60e11b81526001600160a01b0384166004820152306024820152602081604481885afa908115610c7b57600091611ef2575b5010611ea45760018501546040516323b872dd60e01b60208201526001600160a01b039384166024820152921660448301526064820152611dc590611dbf8160848101610636565b82611f9d565b15611e635791546040516323b872dd60e01b60208201526001600160a01b039091166024820152336044820152606480820192909252908152611e1291611e0d60848361117e565b611f9d565b15611e2f57600190604051611e2860208261117e565b6000815290565b600090604051611e4060408261117e565b6013815272119959481d1c985b9cd9995c8819985a5b1959606a1b602082015290565b505050600090604051611e7760408261117e565b601881527f4d65726368616e74207472616e73666572206661696c65640000000000000000602082015290565b5050505050600090604051611eba60608261117e565b602281527f496e73756666696369656e7420616c6c6f77616e636520666f72207061796d656020820152611b9d60f21b604082015290565b90506020813d602011611f1c575b81611f0d6020938361117e565b81010312610127575138611d77565b3d9150611f00565b505050505050600090604051611f3b60408261117e565b602081527f496e73756666696369656e742062616c616e636520666f72207061796d656e74602082015290565b9150506020813d602011611f95575b81611f846020938361117e565b810103126101275781905138611d37565b3d9150611f77565b600091829182602083519301915af13d15612005573d90611fbd82611379565b91611fcb604051938461117e565b82523d6000602084013e5b15611fff578051908115611ff857602080611ff59383010191016112bc565b90565b5050600190565b50600090565b606090611fd6565b815191906041830361203e5761203792506020820151906060604084015193015160001a906120bb565b9192909190565b505060009160029190565b919091600481101561029a578061205f57509050565b60006001820361207a5763f645eedf60e01b60005260046000fd5b5060028103612098578263fce698f760e01b60005260045260246000fd5b90916003600092146120a8575050565b6335e2f38360e21b825260045260249150fd5b91907f7fffffffffffffffffffffffffffffff5d576e7357a4501ddfe92f46681b20a08411612138579160209360809260ff60009560405194855216868401526040830152606082015282805260015afa15610c7b576000516001600160a01b0381161561212c5790600090600090565b50600090600190600090565b5050506000916003919056fea2646970667358221220b133f785ca34dabbdbc1f178727b4d4bab1520cc5fd2516a0779f44d196a59e664736f6c634300081c0033","opcodes":"PUSH1 0xE0 DUP1 PUSH1 0x40 MSTORE CALLVALUE PUSH2 0x1F9 JUMPI PUSH1 0x40 DUP2 PUSH2 0x23C6 DUP1 CODESIZE SUB DUP1 SWAP2 PUSH2 0x1F DUP3 DUP6 PUSH2 0x1FE JUMP JUMPDEST DUP4 CODECOPY DUP2 ADD SUB SLT PUSH2 0x1F9 JUMPI PUSH2 0x3E PUSH1 0x20 PUSH2 0x37 DUP4 PUSH2 0x237 JUMP JUMPDEST SWAP3 ADD PUSH2 0x237 JUMP JUMPDEST PUSH1 0x1 PUSH1 0x0 SSTORE PUSH1 0x1 PUSH1 0x1 PUSH1 0xA0 SHL SUB DUP3 AND ISZERO PUSH2 0x1B4 JUMPI PUSH1 0x1 PUSH1 0x1 PUSH1 0xA0 SHL SUB AND SWAP1 DUP2 ISZERO PUSH2 0x170 JUMPI PUSH1 0x80 MSTORE PUSH1 0xA0 MSTORE PUSH1 0x40 MLOAD PUSH2 0x76 PUSH1 0x40 DUP3 PUSH2 0x1FE JUMP JUMPDEST PUSH1 0x5 DUP2 MSTORE PUSH5 0x417572756D PUSH1 0xD8 SHL PUSH1 0x20 SWAP1 SWAP2 ADD MSTORE PUSH1 0x40 DUP1 MLOAD PUSH32 0xACDBAA2D9365D09420A73F7EAC1BFD80EF7F0A52431B7ED44C1D8A8F77E56DA8 SWAP2 PUSH2 0xB9 SWAP1 DUP3 PUSH2 0x1FE JUMP JUMPDEST PUSH1 0x1 DUP2 MSTORE PUSH1 0x20 DUP2 ADD SWAP1 PUSH1 0x31 PUSH1 0xF8 SHL DUP3 MSTORE MLOAD SWAP1 KECCAK256 PUSH1 0x40 MLOAD SWAP1 PUSH1 0x20 DUP3 ADD SWAP3 PUSH32 0x8B73C3C69BB8FE3D512ECC4CF759CC79239F7B179B0FFACAA9A75D522B39400F DUP5 MSTORE PUSH1 0x40 DUP4 ADD MSTORE PUSH1 0x60 DUP3 ADD MSTORE CHAINID PUSH1 0x80 DUP3 ADD MSTORE ADDRESS PUSH1 0xA0 DUP3 ADD MSTORE PUSH1 0xA0 DUP2 MSTORE PUSH2 0x11D PUSH1 0xC0 DUP3 PUSH2 0x1FE JUMP JUMPDEST MLOAD SWAP1 KECCAK256 PUSH1 0xC0 MSTORE PUSH1 0x40 MLOAD PUSH2 0x217A SWAP1 DUP2 PUSH2 0x24C DUP3 CODECOPY PUSH1 0x80 MLOAD DUP2 DUP2 DUP2 PUSH2 0x142 ADD MSTORE DUP2 DUP2 PUSH2 0x9F9 ADD MSTORE DUP2 DUP2 PUSH2 0x1BC9 ADD MSTORE PUSH2 0x1CF9 ADD MSTORE PUSH1 0xA0 MLOAD DUP2 DUP2 DUP2 PUSH2 0x390 ADD MSTORE PUSH2 0x13BC ADD MSTORE PUSH1 0xC0 MLOAD DUP2 DUP2 DUP2 PUSH2 0x601 ADD MSTORE PUSH2 0x1A40 ADD MSTORE RETURN JUMPDEST PUSH1 0x64 PUSH1 0x40 MLOAD PUSH3 0x461BCD PUSH1 0xE5 SHL DUP2 MSTORE PUSH1 0x20 PUSH1 0x4 DUP3 ADD MSTORE PUSH1 0x20 PUSH1 0x24 DUP3 ADD MSTORE PUSH32 0x496E76616C69642072656C617965722072656769737472792061646472657373 PUSH1 0x44 DUP3 ADD MSTORE REVERT JUMPDEST PUSH1 0x40 MLOAD PUSH3 0x461BCD PUSH1 0xE5 SHL DUP2 MSTORE PUSH1 0x20 PUSH1 0x4 DUP3 ADD MSTORE PUSH1 0x15 PUSH1 0x24 DUP3 ADD MSTORE PUSH32 0x496E76616C696420505955534420616464726573730000000000000000000000 PUSH1 0x44 DUP3 ADD MSTORE PUSH1 0x64 SWAP1 REVERT JUMPDEST PUSH1 0x0 DUP1 REVERT JUMPDEST PUSH1 0x1F SWAP1 SWAP2 ADD PUSH1 0x1F NOT AND DUP2 ADD SWAP1 PUSH1 0x1 PUSH1 0x1 PUSH1 0x40 SHL SUB DUP3 GT SWAP1 DUP3 LT OR PUSH2 0x221 JUMPI PUSH1 0x40 MSTORE JUMP JUMPDEST PUSH4 0x4E487B71 PUSH1 0xE0 SHL PUSH1 0x0 MSTORE PUSH1 0x41 PUSH1 0x4 MSTORE PUSH1 0x24 PUSH1 0x0 REVERT JUMPDEST MLOAD SWAP1 PUSH1 0x1 PUSH1 0x1 PUSH1 0xA0 SHL SUB DUP3 AND DUP3 SUB PUSH2 0x1F9 JUMPI JUMP INVALID PUSH1 0x80 DUP1 PUSH1 0x40 MSTORE PUSH1 0x4 CALLDATASIZE LT ISZERO PUSH2 0x13 JUMPI PUSH1 0x0 DUP1 REVERT JUMPDEST PUSH1 0x0 CALLDATALOAD PUSH1 0xE0 SHR SWAP1 DUP2 PUSH4 0x1F32768E EQ PUSH2 0xF19 JUMPI POP DUP1 PUSH4 0x33E5A1D6 EQ PUSH2 0xEDE JUMPI DUP1 PUSH4 0x5AD63A24 EQ PUSH2 0x8A0 JUMPI DUP1 PUSH4 0x5ADF2D8D EQ PUSH2 0x865 JUMPI DUP1 PUSH4 0x6437ECFC EQ PUSH2 0x4C6 JUMPI DUP1 PUSH4 0x69E1FD9A EQ PUSH2 0x80E JUMPI DUP1 PUSH4 0x6C00F051 EQ PUSH2 0x705 JUMPI DUP1 PUSH4 0x6F956971 EQ PUSH2 0xFB JUMPI DUP1 PUSH4 0x77BEF003 EQ PUSH2 0x53B JUMPI DUP1 PUSH4 0x7B0E3B62 EQ PUSH2 0x500 JUMPI DUP1 PUSH4 0x90193B7C EQ PUSH2 0x4C6 JUMPI DUP1 PUSH4 0x91351C82 EQ PUSH2 0x46A JUMPI DUP1 PUSH4 0x94259C6C EQ PUSH2 0x3BF JUMPI DUP1 PUSH4 0xA807DB75 EQ PUSH2 0x37A JUMPI DUP1 PUSH4 0xBE378228 EQ PUSH2 0x35E JUMPI DUP1 PUSH4 0xC603FF48 EQ PUSH2 0x2F5 JUMPI DUP1 PUSH4 0xD21F1FFC EQ PUSH2 0x1A1 JUMPI DUP1 PUSH4 0xD3A1CBFD EQ PUSH2 0x171 JUMPI DUP1 PUSH4 0xE2B02576 EQ PUSH2 0x12C JUMPI PUSH4 0xEAEF9F2F EQ PUSH2 0xFB JUMPI PUSH1 0x0 DUP1 REVERT JUMPDEST CALLVALUE PUSH2 0x127 JUMPI PUSH1 0x20 CALLDATASIZE PUSH1 0x3 NOT ADD SLT PUSH2 0x127 JUMPI PUSH1 0x4 CALLDATALOAD PUSH1 0x0 MSTORE PUSH1 0x2 PUSH1 0x20 MSTORE PUSH1 0x20 PUSH1 0x40 PUSH1 0x0 KECCAK256 SLOAD PUSH1 0x40 MLOAD SWAP1 DUP2 MSTORE RETURN JUMPDEST PUSH1 0x0 DUP1 REVERT JUMPDEST CALLVALUE PUSH2 0x127 JUMPI PUSH1 0x0 CALLDATASIZE PUSH1 0x3 NOT ADD SLT PUSH2 0x127 JUMPI PUSH1 0x40 MLOAD PUSH32 0x0 PUSH1 0x1 PUSH1 0x1 PUSH1 0xA0 SHL SUB AND DUP2 MSTORE PUSH1 0x20 SWAP1 RETURN JUMPDEST CALLVALUE PUSH2 0x127 JUMPI PUSH1 0x40 PUSH2 0x18A PUSH2 0x184 CALLDATASIZE PUSH2 0x10B3 JUMP JUMPDEST SWAP2 PUSH2 0x1A14 JUMP JUMPDEST DUP3 MLOAD SWAP2 ISZERO ISZERO DUP3 MSTORE PUSH1 0x1 PUSH1 0x1 PUSH1 0xA0 SHL SUB AND PUSH1 0x20 DUP3 ADD MSTORE RETURN JUMPDEST CALLVALUE PUSH2 0x127 JUMPI PUSH1 0x20 CALLDATASIZE PUSH1 0x3 NOT ADD SLT PUSH2 0x127 JUMPI PUSH1 0x4 CALLDATALOAD PUSH1 0x0 DUP2 DUP2 MSTORE PUSH1 0x1 PUSH1 0x20 MSTORE PUSH1 0x40 SWAP1 KECCAK256 DUP1 SLOAD PUSH1 0x1 PUSH1 0x1 PUSH1 0xA0 SHL SUB AND PUSH2 0x1D9 DUP2 ISZERO ISZERO PUSH2 0x12D4 JUMP JUMPDEST CALLER SUB PUSH2 0x2B0 JUMPI PUSH1 0x9 DUP2 ADD PUSH1 0xFF DUP2 SLOAD AND PUSH1 0x5 DUP2 LT ISZERO PUSH2 0x29A JUMPI DUP1 ISZERO SWAP1 DUP2 ISZERO PUSH2 0x28F JUMPI JUMPDEST POP ISZERO PUSH2 0x24B JUMPI DUP1 SLOAD PUSH1 0xFF NOT AND PUSH1 0x2 OR SWAP1 SSTORE DUP1 SLOAD PUSH1 0x1 SWAP2 SWAP1 SWAP2 ADD SLOAD PUSH1 0x1 PUSH1 0x1 PUSH1 0xA0 SHL SUB SWAP1 DUP2 AND SWAP3 SWAP2 AND SWAP1 PUSH32 0x8065A33AD053D617D51579685A263B0F7C6EC05931DBC0280BFDA3A784208959 PUSH1 0x0 DUP1 LOG4 STOP JUMPDEST PUSH1 0x64 PUSH1 0x40 MLOAD PUSH3 0x461BCD PUSH1 0xE5 SHL DUP2 MSTORE PUSH1 0x20 PUSH1 0x4 DUP3 ADD MSTORE PUSH1 0x20 PUSH1 0x24 DUP3 ADD MSTORE PUSH32 0x537562736372697074696F6E2063616E6E6F742062652063616E63656C6C6564 PUSH1 0x44 DUP3 ADD MSTORE REVERT JUMPDEST PUSH1 0x1 SWAP2 POP EQ DUP5 PUSH2 0x1FB JUMP JUMPDEST PUSH4 0x4E487B71 PUSH1 0xE0 SHL PUSH1 0x0 MSTORE PUSH1 0x21 PUSH1 0x4 MSTORE PUSH1 0x24 PUSH1 0x0 REVERT JUMPDEST PUSH1 0x40 MLOAD PUSH3 0x461BCD PUSH1 0xE5 SHL DUP2 MSTORE PUSH1 0x20 PUSH1 0x4 DUP3 ADD MSTORE PUSH1 0x1A PUSH1 0x24 DUP3 ADD MSTORE PUSH32 0x4F6E6C7920737562736372696265722063616E2063616E63656C000000000000 PUSH1 0x44 DUP3 ADD MSTORE PUSH1 0x64 SWAP1 REVERT JUMPDEST CALLVALUE PUSH2 0x127 JUMPI PUSH1 0x20 CALLDATASIZE PUSH1 0x3 NOT ADD SLT PUSH2 0x127 JUMPI PUSH1 0x20 PUSH2 0x356 PUSH1 0x4 CALLDATALOAD DUP1 PUSH1 0x0 MSTORE PUSH1 0x1 DUP4 MSTORE PUSH1 0x40 PUSH1 0x0 KECCAK256 SWAP1 PUSH2 0x330 PUSH1 0x1 DUP1 PUSH1 0xA0 SHL SUB DUP4 SLOAD AND ISZERO ISZERO PUSH2 0x12D4 JUMP JUMPDEST PUSH1 0x0 MSTORE PUSH1 0x2 DUP4 MSTORE PUSH2 0x350 PUSH1 0x40 PUSH1 0x0 KECCAK256 SLOAD PUSH1 0x3 PUSH1 0x4 DUP5 ADD SLOAD SWAP4 ADD SLOAD SWAP1 PUSH2 0x1284 JUMP JUMPDEST SWAP1 PUSH2 0x136C JUMP JUMPDEST PUSH1 0x40 MLOAD SWAP1 DUP2 MSTORE RETURN JUMPDEST CALLVALUE PUSH2 0x127 JUMPI PUSH1 0x0 CALLDATASIZE PUSH1 0x3 NOT ADD SLT PUSH2 0x127 JUMPI PUSH1 0x20 PUSH1 0x40 MLOAD PUSH1 0x32 DUP2 MSTORE RETURN JUMPDEST CALLVALUE PUSH2 0x127 JUMPI PUSH1 0x0 CALLDATASIZE PUSH1 0x3 NOT ADD SLT PUSH2 0x127 JUMPI PUSH1 0x40 MLOAD PUSH32 0x0 PUSH1 0x1 PUSH1 0x1 PUSH1 0xA0 SHL SUB AND DUP2 MSTORE PUSH1 0x20 SWAP1 RETURN JUMPDEST CALLVALUE PUSH2 0x127 JUMPI PUSH1 0x20 CALLDATASIZE PUSH1 0x3 NOT ADD SLT PUSH2 0x127 JUMPI PUSH1 0x4 CALLDATALOAD PUSH1 0x0 MSTORE PUSH1 0x1 PUSH1 0x20 MSTORE PUSH2 0x140 PUSH1 0x40 PUSH1 0x0 KECCAK256 PUSH2 0x468 PUSH1 0x1 DUP1 PUSH1 0xA0 SHL SUB DUP3 SLOAD AND SWAP2 PUSH1 0x1 DUP1 PUSH1 0xA0 SHL SUB PUSH1 0x1 DUP3 ADD SLOAD AND SWAP1 PUSH1 0x2 DUP2 ADD SLOAD PUSH1 0x3 DUP3 ADD SLOAD PUSH1 0x4 DUP4 ADD SLOAD PUSH1 0x5 DUP5 ADD SLOAD SWAP1 PUSH1 0x6 DUP6 ADD SLOAD SWAP3 PUSH1 0x7 DUP7 ADD SLOAD SWAP5 PUSH1 0xFF PUSH1 0x9 PUSH1 0x8 DUP10 ADD SLOAD SWAP9 ADD SLOAD AND SWAP8 PUSH1 0x40 MLOAD SWAP11 DUP12 MSTORE PUSH1 0x20 DUP12 ADD MSTORE PUSH1 0x40 DUP11 ADD MSTORE PUSH1 0x60 DUP10 ADD MSTORE PUSH1 0x80 DUP9 ADD MSTORE PUSH1 0xA0 DUP8 ADD MSTORE PUSH1 0xC0 DUP7 ADD MSTORE PUSH1 0xE0 DUP6 ADD MSTORE PUSH2 0x100 DUP5 ADD MSTORE PUSH2 0x120 DUP4 ADD SWAP1 PUSH2 0x1078 JUMP JUMPDEST RETURN JUMPDEST CALLVALUE PUSH2 0x127 JUMPI PUSH1 0x20 CALLDATASIZE PUSH1 0x3 NOT ADD SLT PUSH2 0x127 JUMPI PUSH1 0x4 CALLDATALOAD PUSH1 0x0 SWAP1 DUP2 MSTORE PUSH1 0x1 PUSH1 0x20 MSTORE PUSH1 0x40 SWAP1 KECCAK256 DUP1 SLOAD PUSH1 0x1 PUSH1 0x1 PUSH1 0xA0 SHL SUB AND ISZERO ISZERO DUP1 PUSH2 0x4AC JUMPI JUMPDEST PUSH1 0x20 SWAP1 PUSH1 0x40 MLOAD SWAP1 ISZERO ISZERO DUP2 MSTORE RETURN JUMPDEST POP PUSH1 0x9 ADD SLOAD PUSH1 0xFF AND PUSH1 0x5 DUP2 LT ISZERO PUSH2 0x29A JUMPI PUSH1 0x20 SWAP1 ISZERO PUSH2 0x49F JUMP JUMPDEST CALLVALUE PUSH2 0x127 JUMPI PUSH1 0x20 CALLDATASIZE PUSH1 0x3 NOT ADD SLT PUSH2 0x127 JUMPI PUSH1 0x1 PUSH1 0x1 PUSH1 0xA0 SHL SUB PUSH2 0x4E7 PUSH2 0x10F1 JUMP JUMPDEST AND PUSH1 0x0 MSTORE PUSH1 0x3 PUSH1 0x20 MSTORE PUSH1 0x20 PUSH1 0x40 PUSH1 0x0 KECCAK256 SLOAD PUSH1 0x40 MLOAD SWAP1 DUP2 MSTORE RETURN JUMPDEST CALLVALUE PUSH2 0x127 JUMPI PUSH1 0x0 CALLDATASIZE PUSH1 0x3 NOT ADD SLT PUSH2 0x127 JUMPI PUSH1 0x20 PUSH1 0x40 MLOAD PUSH32 0xD806147178DF513A750F9FAA80312BA59509AF708425DF523403BF058CE4B244 DUP2 MSTORE RETURN JUMPDEST CALLVALUE PUSH2 0x127 JUMPI PUSH2 0x549 CALLDATASIZE PUSH2 0x111B JUMP JUMPDEST SWAP1 DUP3 PUSH1 0x0 MSTORE PUSH1 0x1 PUSH1 0x20 MSTORE PUSH1 0x40 PUSH1 0x0 KECCAK256 SWAP2 PUSH1 0x1 DUP1 PUSH1 0xA0 SHL SUB DUP4 SLOAD AND SWAP1 PUSH2 0x56F DUP3 ISZERO ISZERO PUSH2 0x12D4 JUMP JUMPDEST PUSH1 0x9 DUP5 ADD SWAP3 PUSH1 0xFF DUP5 SLOAD AND PUSH1 0x5 DUP2 LT ISZERO PUSH2 0x29A JUMPI PUSH1 0x1 SUB PUSH2 0x6C0 JUMPI PUSH2 0x65E PUSH2 0x655 PUSH2 0x66D SWAP4 PUSH2 0x64F DUP7 SWAP5 DUP6 PUSH1 0x0 MSTORE PUSH1 0x3 PUSH1 0x20 MSTORE PUSH1 0x40 PUSH1 0x0 KECCAK256 SLOAD PUSH1 0x40 MLOAD PUSH1 0x20 DUP2 ADD SWAP2 PUSH32 0xD806147178DF513A750F9FAA80312BA59509AF708425DF523403BF058CE4B244 DUP4 MSTORE DUP14 PUSH1 0x40 DUP4 ADD MSTORE PUSH1 0x60 DUP3 ADD MSTORE PUSH1 0x60 DUP2 MSTORE PUSH2 0x5EC PUSH1 0x80 DUP3 PUSH2 0x117E JUMP JUMPDEST MLOAD SWAP1 KECCAK256 PUSH1 0x40 MLOAD PUSH2 0x1901 PUSH1 0xF0 SHL PUSH1 0x20 DUP3 ADD SWAP1 DUP2 MSTORE PUSH32 0x0 PUSH1 0x22 DUP4 ADD MSTORE PUSH1 0x42 DUP3 ADD SWAP3 SWAP1 SWAP3 MSTORE PUSH2 0x644 DUP2 PUSH1 0x62 DUP2 ADD JUMPDEST SUB PUSH1 0x1F NOT DUP2 ADD DUP4 MSTORE DUP3 PUSH2 0x117E JUMP JUMPDEST MLOAD SWAP1 KECCAK256 SWAP3 CALLDATASIZE SWAP2 PUSH2 0x19DD JUMP JUMPDEST SWAP1 PUSH2 0x200D JUMP JUMPDEST SWAP1 SWAP3 SWAP2 SWAP3 PUSH2 0x2049 JUMP JUMPDEST PUSH1 0x1 PUSH1 0x1 PUSH1 0xA0 SHL SUB AND EQ PUSH2 0x11B4 JUMP JUMPDEST PUSH1 0x0 MSTORE PUSH1 0x3 PUSH1 0x20 MSTORE PUSH1 0x40 PUSH1 0x0 KECCAK256 PUSH2 0x684 DUP2 SLOAD PUSH2 0x12AD JUMP JUMPDEST SWAP1 SSTORE DUP1 SLOAD PUSH1 0xFF NOT AND SWAP1 SSTORE SLOAD PUSH1 0x1 PUSH1 0x1 PUSH1 0xA0 SHL SUB AND SWAP1 PUSH32 0xAA36C7B46A257244F7F4BE84A7163F464E536B2F812D6C308EF7856C58BA925D PUSH1 0x0 DUP1 LOG3 STOP JUMPDEST PUSH1 0x40 MLOAD PUSH3 0x461BCD PUSH1 0xE5 SHL DUP2 MSTORE PUSH1 0x20 PUSH1 0x4 DUP3 ADD MSTORE PUSH1 0x17 PUSH1 0x24 DUP3 ADD MSTORE PUSH32 0x537562736372697074696F6E206E6F7420706175736564000000000000000000 PUSH1 0x44 DUP3 ADD MSTORE PUSH1 0x64 SWAP1 REVERT JUMPDEST CALLVALUE PUSH2 0x127 JUMPI PUSH2 0x713 CALLDATASIZE PUSH2 0x111B JUMP JUMPDEST DUP3 PUSH1 0x0 MSTORE PUSH1 0x1 PUSH1 0x20 MSTORE PUSH1 0x40 PUSH1 0x0 KECCAK256 SWAP2 PUSH1 0x1 DUP1 PUSH1 0xA0 SHL SUB DUP4 SLOAD AND SWAP1 PUSH2 0x738 DUP3 ISZERO ISZERO PUSH2 0x12D4 JUMP JUMPDEST PUSH1 0x9 DUP5 ADD SWAP3 PUSH1 0xFF DUP5 SLOAD AND PUSH1 0x5 DUP2 LT ISZERO PUSH2 0x29A JUMPI PUSH2 0x655 DUP5 SWAP3 PUSH2 0x64F PUSH2 0x7B8 SWAP6 PUSH2 0x764 PUSH2 0x65E SWAP6 ISZERO PUSH2 0x1320 JUMP JUMPDEST DUP6 PUSH1 0x0 MSTORE PUSH1 0x3 PUSH1 0x20 MSTORE PUSH1 0x40 PUSH1 0x0 KECCAK256 SLOAD PUSH1 0x40 MLOAD PUSH1 0x20 DUP2 ADD SWAP2 PUSH32 0xB4D196C0BBE67585F3497477B08A7DEDCA34F0794CEF101CF570C3E415F6D939 DUP4 MSTORE DUP14 PUSH1 0x40 DUP4 ADD MSTORE PUSH1 0x60 DUP3 ADD MSTORE PUSH1 0x60 DUP2 MSTORE PUSH2 0x5EC PUSH1 0x80 DUP3 PUSH2 0x117E JUMP JUMPDEST PUSH1 0x0 MSTORE PUSH1 0x3 PUSH1 0x20 MSTORE PUSH1 0x40 PUSH1 0x0 KECCAK256 PUSH2 0x7CF DUP2 SLOAD PUSH2 0x12AD JUMP JUMPDEST SWAP1 SSTORE DUP1 SLOAD PUSH1 0xFF NOT AND PUSH1 0x1 OR SWAP1 SSTORE SLOAD PUSH1 0x1 PUSH1 0x1 PUSH1 0xA0 SHL SUB AND SWAP1 PUSH32 0xDED8D4D23682B33F0E79DA6698526D10C5F7EC65705C1903E9AC7F78B5E3A51B PUSH1 0x0 DUP1 LOG3 STOP JUMPDEST CALLVALUE PUSH2 0x127 JUMPI PUSH1 0x40 CALLDATASIZE PUSH1 0x3 NOT ADD SLT PUSH2 0x127 JUMPI PUSH1 0x24 CALLDATALOAD PUSH1 0x1 PUSH1 0x1 PUSH1 0xA0 SHL SUB DUP2 AND DUP2 SUB PUSH2 0x127 JUMPI PUSH1 0x2 PUSH1 0x0 SLOAD EQ PUSH2 0x854 JUMPI PUSH2 0x84D SWAP1 PUSH1 0x2 PUSH1 0x0 SSTORE PUSH1 0x4 CALLDATALOAD PUSH2 0x1395 JUMP JUMPDEST PUSH1 0x1 PUSH1 0x0 SSTORE STOP JUMPDEST PUSH4 0x3EE5AEB5 PUSH1 0xE0 SHL PUSH1 0x0 MSTORE PUSH1 0x4 PUSH1 0x0 REVERT JUMPDEST CALLVALUE PUSH2 0x127 JUMPI PUSH1 0x0 CALLDATASIZE PUSH1 0x3 NOT ADD SLT PUSH2 0x127 JUMPI PUSH1 0x20 PUSH1 0x40 MLOAD PUSH32 0xB4D196C0BBE67585F3497477B08A7DEDCA34F0794CEF101CF570C3E415F6D939 DUP2 MSTORE RETURN JUMPDEST CALLVALUE PUSH2 0x127 JUMPI PUSH2 0x8AE CALLDATASIZE PUSH2 0x10B3 JUMP JUMPDEST SWAP1 SWAP2 PUSH2 0x100 DUP2 ADD CALLDATALOAD SWAP2 SWAP1 PUSH1 0x1 PUSH1 0x1 PUSH1 0xA0 SHL SUB PUSH2 0x8C9 DUP3 PUSH2 0x11A0 JUMP JUMPDEST AND PUSH1 0x0 MSTORE PUSH1 0x3 PUSH1 0x20 MSTORE PUSH1 0x40 PUSH1 0x0 KECCAK256 SLOAD DUP4 SUB PUSH2 0xEA9 JUMPI PUSH2 0x8F8 PUSH2 0x8EC DUP4 DUP7 DUP5 PUSH2 0x1A14 JUMP JUMPDEST DUP2 PUSH2 0xE82 JUMPI JUMPDEST POP PUSH2 0x11B4 JUMP JUMPDEST PUSH1 0xE0 DUP2 ADD CALLDATALOAD SWAP3 TIMESTAMP DUP5 GT ISZERO PUSH2 0xE3D JUMPI PUSH1 0x80 DUP3 ADD CALLDATALOAD SWAP3 DUP5 DUP5 GT PUSH2 0xDF9 JUMPI PUSH1 0x40 DUP4 ADD CALLDATALOAD SWAP3 DUP4 ISZERO PUSH2 0xDB5 JUMPI PUSH1 0x60 DUP2 ADD CALLDATALOAD DUP1 ISZERO PUSH2 0xD65 JUMPI PUSH1 0xA0 DUP3 ADD CALLDATALOAD SWAP8 DUP9 ISZERO PUSH2 0xD11 JUMPI PUSH1 0xC0 DUP4 ADD CALLDATALOAD SWAP4 PUSH2 0x946 DUP11 DUP9 PUSH2 0x1284 JUMP JUMPDEST DUP6 LT PUSH2 0xCCC JUMPI PUSH2 0x98C PUSH1 0x40 PUSH2 0x963 PUSH2 0x95E CALLDATASIZE DUP9 PUSH2 0x11F4 JUMP JUMPDEST PUSH2 0x1AA4 JUMP JUMPDEST SWAP4 DUP4 DUP3 MLOAD SWAP5 DUP6 SWAP3 PUSH1 0x20 DUP5 ADD SWAP8 DUP9 MSTORE DUP5 DUP5 ADD CALLDATACOPY DUP2 ADD PUSH1 0x0 DUP4 DUP3 ADD MSTORE SUB ADD PUSH1 0x1F NOT DUP2 ADD DUP4 MSTORE DUP3 PUSH2 0x117E JUMP JUMPDEST MLOAD SWAP1 KECCAK256 PUSH1 0x0 DUP2 DUP2 MSTORE PUSH1 0x1 PUSH1 0x20 MSTORE PUSH1 0x40 SWAP1 KECCAK256 SLOAD SWAP1 SWAP8 SWAP1 PUSH1 0x1 PUSH1 0x1 PUSH1 0xA0 SHL SUB AND PUSH2 0xC87 JUMPI PUSH2 0x9B8 DUP10 DUP8 PUSH2 0x1284 JUMP JUMPDEST PUSH2 0x9F5 PUSH1 0x20 PUSH2 0x9C6 DUP7 PUSH2 0x11A0 JUMP JUMPDEST PUSH1 0x40 MLOAD PUSH4 0x6EB1769F PUSH1 0xE1 SHL DUP2 MSTORE PUSH1 0x1 PUSH1 0x1 PUSH1 0xA0 SHL SUB SWAP1 SWAP2 AND PUSH1 0x4 DUP3 ADD MSTORE ADDRESS PUSH1 0x24 DUP3 ADD MSTORE SWAP2 DUP3 SWAP1 DUP2 SWAP1 PUSH1 0x44 DUP3 ADD SWAP1 JUMP JUMPDEST SUB DUP2 PUSH32 0x0 PUSH1 0x1 PUSH1 0x1 PUSH1 0xA0 SHL SUB AND GAS STATICCALL SWAP1 DUP2 ISZERO PUSH2 0xC7B JUMPI PUSH1 0x0 SWAP2 PUSH2 0xC49 JUMPI JUMPDEST POP LT PUSH2 0xC04 JUMPI DUP8 SWAP5 PUSH2 0xA43 DUP5 PUSH2 0x11A0 JUMP JUMPDEST SWAP1 PUSH1 0x20 DUP6 ADD SWAP9 PUSH2 0xA52 DUP11 PUSH2 0x11A0 JUMP JUMPDEST SWAP1 PUSH1 0x40 MLOAD SWAP4 PUSH2 0xA60 DUP6 PUSH2 0x114B JUMP JUMPDEST PUSH1 0x1 PUSH1 0xA0 SHL PUSH1 0x1 SWAP1 SUB AND DUP5 MSTORE PUSH1 0x20 DUP5 ADD SWAP2 PUSH1 0x1 PUSH1 0xA0 SHL PUSH1 0x1 SWAP1 SUB AND DUP3 MSTORE DUP13 PUSH1 0x40 DUP6 ADD SWAP2 DUP12 DUP4 MSTORE PUSH1 0x60 DUP7 ADD DUP9 DUP2 MSTORE PUSH1 0x80 DUP8 ADD SWAP2 DUP3 MSTORE PUSH1 0xA0 DUP8 ADD SWAP3 DUP4 MSTORE PUSH1 0xC0 DUP8 ADD SWAP4 DUP12 DUP6 MSTORE PUSH1 0xE0 DUP9 ADD SWAP6 DUP10 DUP8 MSTORE PUSH2 0x100 DUP10 ADD SWAP8 DUP9 MSTORE PUSH2 0x120 DUP10 ADD SWAP14 PUSH1 0x0 DUP16 MSTORE PUSH1 0x0 MSTORE PUSH1 0x1 PUSH1 0x20 MSTORE PUSH1 0x40 PUSH1 0x0 KECCAK256 SWAP9 PUSH1 0x1 PUSH1 0xA0 SHL PUSH1 0x1 SWAP1 SUB SWAP1 PUSH1 0x1 PUSH1 0xA0 SHL PUSH1 0x1 SWAP1 SUB SWAP1 MLOAD AND AND PUSH12 0xFFFFFFFFFFFFFFFFFFFFFFFF PUSH1 0xA0 SHL DUP11 SLOAD AND OR DUP10 SSTORE PUSH1 0x1 PUSH1 0xA0 SHL PUSH1 0x1 SWAP1 SUB SWAP1 MLOAD AND PUSH1 0x1 DUP10 ADD SWAP1 PUSH1 0x1 PUSH1 0xA0 SHL PUSH1 0x1 SWAP1 SUB AND PUSH12 0xFFFFFFFFFFFFFFFFFFFFFFFF PUSH1 0xA0 SHL DUP3 SLOAD AND OR SWAP1 SSTORE MLOAD PUSH1 0x2 DUP9 ADD SSTORE MLOAD PUSH1 0x3 DUP8 ADD SSTORE MLOAD PUSH1 0x4 DUP7 ADD SSTORE MLOAD PUSH1 0x5 DUP6 ADD SSTORE MLOAD PUSH1 0x6 DUP5 ADD SSTORE MLOAD PUSH1 0x7 DUP4 ADD SSTORE MLOAD PUSH1 0x8 DUP3 ADD SSTORE PUSH1 0x9 ADD SWAP5 MLOAD SWAP4 PUSH1 0x5 DUP6 LT ISZERO PUSH2 0x29A JUMPI PUSH1 0x20 SWAP10 PUSH2 0xBD1 PUSH2 0xBCB PUSH1 0xA0 SWAP7 DUP13 SWAP10 PUSH32 0xDEC8943E7EF8A51D83C078700FDAB942959D920107DEEBC0B4F301BB42289210 SWAP10 PUSH1 0xFF DUP1 NOT DUP4 SLOAD AND SWAP2 AND OR SWAP1 SSTORE PUSH1 0x1 DUP1 DUP10 SHL SUB PUSH2 0xBAD DUP3 PUSH2 0x11A0 JUMP JUMPDEST AND PUSH1 0x0 MSTORE PUSH1 0x3 DUP15 MSTORE PUSH1 0x40 PUSH1 0x0 KECCAK256 PUSH2 0xBC4 DUP2 SLOAD PUSH2 0x12AD JUMP JUMPDEST SWAP1 SSTORE PUSH2 0x11A0 JUMP JUMPDEST SWAP10 PUSH2 0x11A0 JUMP JUMPDEST SWAP4 PUSH1 0x40 MLOAD SWAP9 DUP10 MSTORE DUP12 DUP10 ADD MSTORE PUSH1 0x40 DUP9 ADD MSTORE PUSH1 0x60 DUP8 ADD MSTORE PUSH1 0x80 DUP7 ADD MSTORE PUSH1 0x1 DUP1 DUP4 SHL SUB AND SWAP5 PUSH1 0x1 DUP1 DUP4 SHL SUB AND SWAP4 LOG4 PUSH1 0x40 MLOAD SWAP1 DUP2 MSTORE RETURN JUMPDEST PUSH1 0x40 MLOAD PUSH3 0x461BCD PUSH1 0xE5 SHL DUP2 MSTORE PUSH1 0x20 PUSH1 0x4 DUP3 ADD MSTORE PUSH1 0x1C PUSH1 0x24 DUP3 ADD MSTORE PUSH32 0x496E73756666696369656E7420505955534420616C6C6F77616E636500000000 PUSH1 0x44 DUP3 ADD MSTORE PUSH1 0x64 SWAP1 REVERT JUMPDEST SWAP1 POP PUSH1 0x20 DUP2 RETURNDATASIZE PUSH1 0x20 GT PUSH2 0xC73 JUMPI JUMPDEST DUP2 PUSH2 0xC64 PUSH1 0x20 SWAP4 DUP4 PUSH2 0x117E JUMP JUMPDEST DUP2 ADD SUB SLT PUSH2 0x127 JUMPI MLOAD DUP12 PUSH2 0xA32 JUMP JUMPDEST RETURNDATASIZE SWAP2 POP PUSH2 0xC57 JUMP JUMPDEST PUSH1 0x40 MLOAD RETURNDATASIZE PUSH1 0x0 DUP3 RETURNDATACOPY RETURNDATASIZE SWAP1 REVERT JUMPDEST PUSH1 0x40 MLOAD PUSH3 0x461BCD PUSH1 0xE5 SHL DUP2 MSTORE PUSH1 0x20 PUSH1 0x4 DUP3 ADD MSTORE PUSH1 0x1B PUSH1 0x24 DUP3 ADD MSTORE PUSH32 0x537562736372697074696F6E20616C7265616479206578697374730000000000 PUSH1 0x44 DUP3 ADD MSTORE PUSH1 0x64 SWAP1 REVERT JUMPDEST PUSH1 0x40 MLOAD PUSH3 0x461BCD PUSH1 0xE5 SHL DUP2 MSTORE PUSH1 0x20 PUSH1 0x4 DUP3 ADD MSTORE PUSH1 0x1D PUSH1 0x24 DUP3 ADD MSTORE PUSH32 0x4D617820746F74616C20616D6F756E7420696E73756666696369656E74000000 PUSH1 0x44 DUP3 ADD MSTORE PUSH1 0x64 SWAP1 REVERT JUMPDEST PUSH1 0x40 MLOAD PUSH3 0x461BCD PUSH1 0xE5 SHL DUP2 MSTORE PUSH1 0x20 PUSH1 0x4 DUP3 ADD MSTORE PUSH1 0x26 PUSH1 0x24 DUP3 ADD MSTORE PUSH32 0x4D6178207061796D656E7473206D757374206265206772656174657220746861 PUSH1 0x44 DUP3 ADD MSTORE PUSH6 0x6E207A65726F PUSH1 0xD0 SHL PUSH1 0x64 DUP3 ADD MSTORE PUSH1 0x84 SWAP1 REVERT JUMPDEST PUSH1 0x40 MLOAD PUSH3 0x461BCD PUSH1 0xE5 SHL DUP2 MSTORE PUSH1 0x20 PUSH1 0x4 DUP3 ADD MSTORE PUSH1 0x22 PUSH1 0x24 DUP3 ADD MSTORE PUSH32 0x496E74657276616C206D7573742062652067726561746572207468616E207A65 PUSH1 0x44 DUP3 ADD MSTORE PUSH2 0x726F PUSH1 0xF0 SHL PUSH1 0x64 DUP3 ADD MSTORE PUSH1 0x84 SWAP1 REVERT JUMPDEST PUSH1 0x64 PUSH1 0x40 MLOAD PUSH3 0x461BCD PUSH1 0xE5 SHL DUP2 MSTORE PUSH1 0x20 PUSH1 0x4 DUP3 ADD MSTORE PUSH1 0x20 PUSH1 0x24 DUP3 ADD MSTORE PUSH32 0x416D6F756E74206D7573742062652067726561746572207468616E207A65726F PUSH1 0x44 DUP3 ADD MSTORE REVERT JUMPDEST PUSH1 0x64 PUSH1 0x40 MLOAD PUSH3 0x461BCD PUSH1 0xE5 SHL DUP2 MSTORE PUSH1 0x20 PUSH1 0x4 DUP3 ADD MSTORE PUSH1 0x20 PUSH1 0x24 DUP3 ADD MSTORE PUSH32 0x53746172742074696D65206D757374206265206265666F726520657870697279 PUSH1 0x44 DUP3 ADD MSTORE REVERT JUMPDEST PUSH1 0x40 MLOAD PUSH3 0x461BCD PUSH1 0xE5 SHL DUP2 MSTORE PUSH1 0x20 PUSH1 0x4 DUP3 ADD MSTORE PUSH1 0x1B PUSH1 0x24 DUP3 ADD MSTORE PUSH32 0x537562736372697074696F6E20696E74656E7420657870697265640000000000 PUSH1 0x44 DUP3 ADD MSTORE PUSH1 0x64 SWAP1 REVERT JUMPDEST SWAP1 POP PUSH1 0x1 PUSH1 0x1 PUSH1 0xA0 SHL SUB PUSH2 0xE95 DUP5 PUSH2 0x11A0 JUMP JUMPDEST PUSH1 0x1 PUSH1 0x1 PUSH1 0xA0 SHL SUB SWAP1 SWAP3 AND SWAP2 AND EQ DUP7 PUSH2 0x8F2 JUMP JUMPDEST PUSH1 0x40 MLOAD PUSH3 0x461BCD PUSH1 0xE5 SHL DUP2 MSTORE PUSH1 0x20 PUSH1 0x4 DUP3 ADD MSTORE PUSH1 0xD PUSH1 0x24 DUP3 ADD MSTORE PUSH13 0x496E76616C6964206E6F6E6365 PUSH1 0x98 SHL PUSH1 0x44 DUP3 ADD MSTORE PUSH1 0x64 SWAP1 REVERT JUMPDEST CALLVALUE PUSH2 0x127 JUMPI PUSH1 0x0 CALLDATASIZE PUSH1 0x3 NOT ADD SLT PUSH2 0x127 JUMPI PUSH1 0x20 PUSH1 0x40 MLOAD PUSH32 0x95D1972EBB257253C8ECA5422008068E9EBAE76C58E3BEAFA47373A6A2C529DA DUP2 MSTORE RETURN JUMPDEST CALLVALUE PUSH2 0x127 JUMPI PUSH1 0x20 CALLDATASIZE PUSH1 0x3 NOT ADD SLT PUSH2 0x127 JUMPI PUSH2 0x120 DUP2 PUSH2 0xF39 PUSH1 0x0 SWAP4 PUSH2 0x114B JUMP JUMPDEST DUP3 DUP2 MSTORE DUP3 PUSH1 0x20 DUP3 ADD MSTORE DUP3 PUSH1 0x40 DUP3 ADD MSTORE DUP3 PUSH1 0x60 DUP3 ADD MSTORE DUP3 PUSH1 0x80 DUP3 ADD MSTORE DUP3 PUSH1 0xA0 DUP3 ADD MSTORE DUP3 PUSH1 0xC0 DUP3 ADD MSTORE DUP3 PUSH1 0xE0 DUP3 ADD MSTORE DUP3 PUSH2 0x100 DUP3 ADD MSTORE ADD MSTORE PUSH1 0x4 CALLDATALOAD PUSH1 0x0 MSTORE PUSH1 0x1 PUSH1 0x20 MSTORE PUSH1 0x40 PUSH1 0x0 KECCAK256 PUSH1 0x40 MLOAD PUSH2 0xF8B DUP2 PUSH2 0x114B JUMP JUMPDEST PUSH1 0x1 DUP1 PUSH1 0xA0 SHL SUB DUP3 SLOAD AND DUP2 MSTORE PUSH1 0x1 DUP1 PUSH1 0xA0 SHL SUB PUSH1 0x1 DUP4 ADD SLOAD AND SWAP2 PUSH1 0x20 DUP3 ADD SWAP3 DUP4 MSTORE PUSH1 0x2 DUP2 ADD SLOAD PUSH1 0x40 DUP4 ADD SWAP1 DUP2 MSTORE PUSH1 0x3 DUP3 ADD SLOAD SWAP2 PUSH1 0x60 DUP5 ADD SWAP3 DUP4 MSTORE PUSH1 0x4 DUP2 ADD SLOAD PUSH1 0x80 DUP6 ADD SWAP1 DUP2 MSTORE PUSH1 0x5 DUP3 ADD SLOAD PUSH1 0xA0 DUP7 ADD SWAP1 DUP2 MSTORE PUSH1 0x6 DUP4 ADD SLOAD SWAP1 PUSH1 0xC0 DUP8 ADD SWAP2 DUP3 MSTORE PUSH1 0x7 DUP5 ADD SLOAD SWAP3 PUSH1 0xE0 DUP9 ADD SWAP4 DUP5 MSTORE PUSH1 0xFF PUSH1 0x9 PUSH1 0x8 DUP8 ADD SLOAD SWAP7 PUSH2 0x100 DUP12 ADD SWAP8 DUP9 MSTORE ADD SLOAD AND SWAP7 PUSH2 0x120 DUP10 ADD SWAP7 PUSH1 0x5 DUP10 LT ISZERO PUSH2 0x29A JUMPI PUSH2 0x140 SWAP11 PUSH2 0x468 SWAP10 DUP10 MSTORE PUSH1 0x40 MLOAD SWAP11 PUSH1 0x1 DUP1 PUSH1 0xA0 SHL SUB SWAP1 MLOAD AND DUP12 MSTORE PUSH1 0x1 DUP1 PUSH1 0xA0 SHL SUB SWAP1 MLOAD AND PUSH1 0x20 DUP12 ADD MSTORE MLOAD PUSH1 0x40 DUP11 ADD MSTORE MLOAD PUSH1 0x60 DUP10 ADD MSTORE MLOAD PUSH1 0x80 DUP9 ADD MSTORE MLOAD PUSH1 0xA0 DUP8 ADD MSTORE MLOAD PUSH1 0xC0 DUP7 ADD MSTORE MLOAD PUSH1 0xE0 DUP6 ADD MSTORE MLOAD PUSH2 0x100 DUP5 ADD MSTORE MLOAD PUSH2 0x120 DUP4 ADD SWAP1 JUMPDEST SWAP1 PUSH1 0x5 DUP3 LT ISZERO PUSH2 0x29A JUMPI MSTORE JUMP JUMPDEST SWAP2 DUP2 PUSH1 0x1F DUP5 ADD SLT ISZERO PUSH2 0x127 JUMPI DUP3 CALLDATALOAD SWAP2 PUSH8 0xFFFFFFFFFFFFFFFF DUP4 GT PUSH2 0x127 JUMPI PUSH1 0x20 DUP4 DUP2 DUP7 ADD SWAP6 ADD ADD GT PUSH2 0x127 JUMPI JUMP JUMPDEST SWAP1 PUSH1 0x3 NOT DUP3 ADD PUSH2 0x140 DUP2 SLT PUSH2 0x127 JUMPI PUSH2 0x120 SGT PUSH2 0x127 JUMPI PUSH1 0x4 SWAP2 PUSH2 0x124 CALLDATALOAD SWAP1 PUSH8 0xFFFFFFFFFFFFFFFF DUP3 GT PUSH2 0x127 JUMPI PUSH2 0x10ED SWAP2 PUSH1 0x4 ADD PUSH2 0x1085 JUMP JUMPDEST SWAP1 SWAP2 JUMP JUMPDEST PUSH1 0x4 CALLDATALOAD SWAP1 PUSH1 0x1 PUSH1 0x1 PUSH1 0xA0 SHL SUB DUP3 AND DUP3 SUB PUSH2 0x127 JUMPI JUMP JUMPDEST CALLDATALOAD SWAP1 PUSH1 0x1 PUSH1 0x1 PUSH1 0xA0 SHL SUB DUP3 AND DUP3 SUB PUSH2 0x127 JUMPI JUMP JUMPDEST SWAP1 PUSH1 0x40 PUSH1 0x3 NOT DUP4 ADD SLT PUSH2 0x127 JUMPI PUSH1 0x4 CALLDATALOAD SWAP2 PUSH1 0x24 CALLDATALOAD SWAP1 PUSH8 0xFFFFFFFFFFFFFFFF DUP3 GT PUSH2 0x127 JUMPI PUSH2 0x10ED SWAP2 PUSH1 0x4 ADD PUSH2 0x1085 JUMP JUMPDEST PUSH2 0x140 DUP2 ADD SWAP1 DUP2 LT PUSH8 0xFFFFFFFFFFFFFFFF DUP3 GT OR PUSH2 0x1168 JUMPI PUSH1 0x40 MSTORE JUMP JUMPDEST PUSH4 0x4E487B71 PUSH1 0xE0 SHL PUSH1 0x0 MSTORE PUSH1 0x41 PUSH1 0x4 MSTORE PUSH1 0x24 PUSH1 0x0 REVERT JUMPDEST SWAP1 PUSH1 0x1F DUP1 NOT SWAP2 ADD AND DUP2 ADD SWAP1 DUP2 LT PUSH8 0xFFFFFFFFFFFFFFFF DUP3 GT OR PUSH2 0x1168 JUMPI PUSH1 0x40 MSTORE JUMP JUMPDEST CALLDATALOAD PUSH1 0x1 PUSH1 0x1 PUSH1 0xA0 SHL SUB DUP2 AND DUP2 SUB PUSH2 0x127 JUMPI SWAP1 JUMP JUMPDEST ISZERO PUSH2 0x11BB JUMPI JUMP JUMPDEST PUSH1 0x40 MLOAD PUSH3 0x461BCD PUSH1 0xE5 SHL DUP2 MSTORE PUSH1 0x20 PUSH1 0x4 DUP3 ADD MSTORE PUSH1 0x11 PUSH1 0x24 DUP3 ADD MSTORE PUSH17 0x496E76616C6964207369676E6174757265 PUSH1 0x78 SHL PUSH1 0x44 DUP3 ADD MSTORE PUSH1 0x64 SWAP1 REVERT JUMPDEST SWAP2 SWAP1 DUP3 PUSH2 0x120 SWAP2 SUB SLT PUSH2 0x127 JUMPI PUSH1 0x40 MLOAD PUSH2 0x120 DUP2 ADD DUP2 DUP2 LT PUSH8 0xFFFFFFFFFFFFFFFF DUP3 GT OR PUSH2 0x1168 JUMPI PUSH1 0x40 MSTORE PUSH2 0x100 DUP1 DUP3 SWAP5 PUSH2 0x122E DUP2 PUSH2 0x1107 JUMP JUMPDEST DUP5 MSTORE PUSH2 0x123C PUSH1 0x20 DUP3 ADD PUSH2 0x1107 JUMP JUMPDEST PUSH1 0x20 DUP6 ADD MSTORE PUSH1 0x40 DUP2 ADD CALLDATALOAD PUSH1 0x40 DUP6 ADD MSTORE PUSH1 0x60 DUP2 ADD CALLDATALOAD PUSH1 0x60 DUP6 ADD MSTORE PUSH1 0x80 DUP2 ADD CALLDATALOAD PUSH1 0x80 DUP6 ADD MSTORE PUSH1 0xA0 DUP2 ADD CALLDATALOAD PUSH1 0xA0 DUP6 ADD MSTORE PUSH1 0xC0 DUP2 ADD CALLDATALOAD PUSH1 0xC0 DUP6 ADD MSTORE PUSH1 0xE0 DUP2 ADD CALLDATALOAD PUSH1 0xE0 DUP6 ADD MSTORE ADD CALLDATALOAD SWAP2 ADD MSTORE JUMP JUMPDEST DUP2 DUP2 MUL SWAP3 SWAP2 DUP2 ISZERO SWAP2 DUP5 DIV EQ OR ISZERO PUSH2 0x1297 JUMPI JUMP JUMPDEST PUSH4 0x4E487B71 PUSH1 0xE0 SHL PUSH1 0x0 MSTORE PUSH1 0x11 PUSH1 0x4 MSTORE PUSH1 0x24 PUSH1 0x0 REVERT JUMPDEST PUSH1 0x0 NOT DUP2 EQ PUSH2 0x1297 JUMPI PUSH1 0x1 ADD SWAP1 JUMP JUMPDEST SWAP1 DUP2 PUSH1 0x20 SWAP2 SUB SLT PUSH2 0x127 JUMPI MLOAD DUP1 ISZERO ISZERO DUP2 SUB PUSH2 0x127 JUMPI SWAP1 JUMP JUMPDEST ISZERO PUSH2 0x12DB JUMPI JUMP JUMPDEST PUSH1 0x40 MLOAD PUSH3 0x461BCD PUSH1 0xE5 SHL DUP2 MSTORE PUSH1 0x20 PUSH1 0x4 DUP3 ADD MSTORE PUSH1 0x1B PUSH1 0x24 DUP3 ADD MSTORE PUSH32 0x537562736372697074696F6E20646F6573206E6F742065786973740000000000 PUSH1 0x44 DUP3 ADD MSTORE PUSH1 0x64 SWAP1 REVERT JUMPDEST ISZERO PUSH2 0x1327 JUMPI JUMP JUMPDEST PUSH1 0x40 MLOAD PUSH3 0x461BCD PUSH1 0xE5 SHL DUP2 MSTORE PUSH1 0x20 PUSH1 0x4 DUP3 ADD MSTORE PUSH1 0x17 PUSH1 0x24 DUP3 ADD MSTORE PUSH32 0x537562736372697074696F6E206E6F7420616374697665000000000000000000 PUSH1 0x44 DUP3 ADD MSTORE PUSH1 0x64 SWAP1 REVERT JUMPDEST SWAP2 SWAP1 DUP3 ADD DUP1 SWAP3 GT PUSH2 0x1297 JUMPI JUMP JUMPDEST PUSH8 0xFFFFFFFFFFFFFFFF DUP2 GT PUSH2 0x1168 JUMPI PUSH1 0x1F ADD PUSH1 0x1F NOT AND PUSH1 0x20 ADD SWAP1 JUMP JUMPDEST SWAP1 CALLER PUSH1 0x1 PUSH1 0x1 PUSH1 0xA0 SHL SUB SWAP1 SWAP2 AND SUB PUSH2 0x19A5 JUMPI PUSH1 0x40 MLOAD PUSH4 0x85C99E2B PUSH1 0xE0 SHL DUP2 MSTORE CALLER PUSH1 0x4 DUP3 ADD MSTORE PUSH32 0x0 PUSH1 0x1 PUSH1 0x1 PUSH1 0xA0 SHL SUB AND SWAP2 PUSH1 0x0 SWAP2 PUSH1 0x20 DUP2 PUSH1 0x24 DUP2 DUP8 GAS STATICCALL SWAP1 DUP2 ISZERO PUSH2 0x199A JUMPI DUP4 SWAP2 PUSH2 0x196B JUMPI JUMPDEST POP ISZERO PUSH2 0x192D JUMPI DUP1 DUP3 MSTORE PUSH1 0x1 PUSH1 0x20 MSTORE PUSH1 0x40 DUP3 KECCAK256 DUP1 SLOAD SWAP1 SWAP2 SWAP1 PUSH2 0x142A SWAP1 PUSH1 0x1 PUSH1 0x1 PUSH1 0xA0 SHL SUB AND ISZERO ISZERO PUSH2 0x12D4 JUMP JUMPDEST PUSH1 0x9 DUP3 ADD SWAP4 PUSH1 0xFF DUP6 SLOAD AND PUSH1 0x5 DUP2 LT ISZERO PUSH2 0x1919 JUMPI PUSH2 0x1447 SWAP1 ISZERO PUSH2 0x1320 JUMP JUMPDEST PUSH1 0x7 DUP4 ADD SLOAD TIMESTAMP GT PUSH2 0x184E JUMPI DUP2 DUP5 MSTORE PUSH1 0x1 PUSH1 0x20 MSTORE PUSH2 0x1481 PUSH1 0x40 DUP6 KECCAK256 DUP4 DUP7 MSTORE PUSH1 0x2 PUSH1 0x20 MSTORE PUSH2 0x350 PUSH1 0x40 DUP8 KECCAK256 SLOAD PUSH1 0x3 PUSH1 0x4 DUP5 ADD SLOAD SWAP4 ADD SLOAD SWAP1 PUSH2 0x1284 JUMP JUMPDEST TIMESTAMP LT PUSH2 0x1813 JUMPI DUP2 DUP5 MSTORE PUSH1 0x2 PUSH1 0x20 MSTORE PUSH1 0x40 DUP5 KECCAK256 SLOAD PUSH1 0x1 DUP2 ADD DUP1 SWAP2 GT PUSH2 0x17FF JUMPI PUSH1 0x2 DUP5 ADD DUP1 SLOAD SWAP2 PUSH1 0x32 DUP4 MUL DUP4 DUP2 DIV PUSH1 0x32 EQ DUP5 ISZERO OR ISZERO PUSH2 0x172C JUMPI PUSH2 0x2710 SWAP1 DIV SWAP3 PUSH2 0x14C7 DUP7 PUSH2 0x1B58 JUMP JUMPDEST ISZERO PUSH2 0x1740 JUMPI POP DUP2 SLOAD DUP4 DUP2 SUB SWAP1 DUP2 GT PUSH2 0x172C JUMPI DUP4 PUSH2 0x14E4 SWAP2 DUP9 PUSH2 0x1CCE JUMP JUMPDEST DUP1 SWAP2 PUSH1 0x0 EQ PUSH2 0x15EF JUMPI POP POP DUP5 DUP8 MSTORE PUSH1 0x2 PUSH1 0x20 MSTORE PUSH1 0x40 DUP8 KECCAK256 PUSH2 0x1505 DUP2 SLOAD PUSH2 0x12AD JUMP JUMPDEST SWAP1 SSTORE DUP5 PUSH32 0xDA131DF023BE8B7D63A716139B42D5152CCF8728CFE960A6629BC576D36DD118 PUSH1 0x80 PUSH1 0x1 DUP1 PUSH1 0xA0 SHL SUB DUP10 SLOAD AND SWAP4 PUSH1 0x1 DUP1 PUSH1 0xA0 SHL SUB PUSH1 0x1 DUP12 ADD SLOAD AND SWAP6 SLOAD PUSH1 0x40 MLOAD SWAP2 DUP3 MSTORE PUSH1 0x20 DUP3 ADD MSTORE DUP7 PUSH1 0x40 DUP3 ADD MSTORE CALLER PUSH1 0x60 DUP3 ADD MSTORE LOG4 DUP2 EXTCODESIZE ISZERO PUSH2 0x15EB JUMPI DUP5 SWAP2 PUSH1 0x64 DUP4 SWAP3 PUSH1 0x40 MLOAD SWAP5 DUP6 SWAP4 DUP5 SWAP3 PUSH4 0x44A7C639 PUSH1 0xE1 SHL DUP5 MSTORE CALLER PUSH1 0x4 DUP6 ADD MSTORE PUSH1 0x1 PUSH1 0x24 DUP6 ADD MSTORE PUSH1 0x44 DUP5 ADD MSTORE GAS CALL DUP1 ISZERO PUSH2 0x15E0 JUMPI SWAP1 DUP5 SWAP2 PUSH2 0x15C7 JUMPI JUMPDEST POP MSTORE PUSH1 0x2 PUSH1 0x20 MSTORE PUSH1 0x5 PUSH1 0x40 DUP4 KECCAK256 SLOAD SWAP2 ADD SLOAD GT ISZERO PUSH2 0x15B9 JUMPI POP POP JUMP JUMPDEST POP DUP1 SLOAD PUSH1 0xFF NOT AND PUSH1 0x4 OR SWAP1 SSTORE JUMP JUMPDEST DUP2 PUSH2 0x15D1 SWAP2 PUSH2 0x117E JUMP JUMPDEST PUSH2 0x15DC JUMPI DUP3 CODESIZE PUSH2 0x159E JUMP JUMPDEST DUP3 DUP1 REVERT JUMPDEST PUSH1 0x40 MLOAD RETURNDATASIZE DUP7 DUP3 RETURNDATACOPY RETURNDATASIZE SWAP1 REVERT JUMPDEST DUP5 DUP1 REVERT JUMPDEST SWAP3 SWAP7 SWAP6 SWAP5 SWAP8 SWAP9 POP SWAP3 POP POP MLOAD ISZERO PUSH2 0x16EE JUMPI JUMPDEST PUSH1 0x1 DUP1 PUSH1 0xA0 SHL SUB DUP4 SLOAD AND SWAP3 PUSH1 0x1 DUP1 DUP1 PUSH1 0xA0 SHL SUB SWAP2 ADD SLOAD AND SWAP4 SLOAD SWAP1 PUSH1 0x40 MLOAD SWAP2 DUP3 MSTORE PUSH1 0x40 PUSH1 0x20 DUP4 ADD MSTORE DUP1 MLOAD SWAP1 DUP2 PUSH1 0x40 DUP5 ADD MSTORE DUP8 JUMPDEST DUP3 DUP2 LT PUSH2 0x16D8 JUMPI POP POP SWAP1 PUSH1 0x60 DUP2 DUP4 DUP10 DUP4 PUSH32 0x8D07BB7D7FFC0FDE6EBC3E0E718C1FDBFAC73EB7EA593DA5566FA86A1C3C1A30 SWAP7 DUP5 ADD ADD MSTORE PUSH1 0x1F DUP1 NOT SWAP2 ADD AND DUP2 ADD SUB ADD SWAP1 LOG4 DUP1 EXTCODESIZE ISZERO PUSH2 0x16D4 JUMPI DUP2 DUP1 SWAP2 PUSH1 0x64 PUSH1 0x40 MLOAD DUP1 SWAP5 DUP2 SWAP4 PUSH4 0x44A7C639 PUSH1 0xE1 SHL DUP4 MSTORE CALLER PUSH1 0x4 DUP5 ADD MSTORE DUP2 PUSH1 0x24 DUP5 ADD MSTORE DUP2 PUSH1 0x44 DUP5 ADD MSTORE GAS CALL DUP1 ISZERO PUSH2 0x16C9 JUMPI PUSH2 0x16B4 JUMPI POP POP JUMP JUMPDEST PUSH2 0x16BF DUP3 DUP1 SWAP3 PUSH2 0x117E JUMP JUMPDEST PUSH2 0x16C6 JUMPI POP JUMP JUMPDEST DUP1 REVERT JUMPDEST PUSH1 0x40 MLOAD RETURNDATASIZE DUP5 DUP3 RETURNDATACOPY RETURNDATASIZE SWAP1 REVERT JUMPDEST POP DUP1 REVERT JUMPDEST DUP1 PUSH1 0x20 DUP1 SWAP3 DUP5 ADD ADD MLOAD PUSH1 0x60 DUP3 DUP8 ADD ADD MSTORE ADD PUSH2 0x1632 JUMP JUMPDEST POP PUSH1 0x40 MLOAD PUSH2 0x16FD PUSH1 0x40 DUP3 PUSH2 0x117E JUMP JUMPDEST PUSH1 0x18 DUP2 MSTORE PUSH32 0x5061796D656E7420657865637574696F6E206661696C65640000000000000000 PUSH1 0x20 DUP3 ADD MSTORE PUSH2 0x1600 JUMP JUMPDEST PUSH4 0x4E487B71 PUSH1 0xE0 SHL DUP9 MSTORE PUSH1 0x11 PUSH1 0x4 MSTORE PUSH1 0x24 DUP9 REVERT JUMPDEST DUP7 SLOAD PUSH1 0x1 SWAP1 SWAP8 ADD SLOAD PUSH1 0x40 DUP1 MLOAD SWAP3 DUP4 MSTORE PUSH1 0x20 DUP4 ADD DUP2 SWAP1 MSTORE PUSH1 0x1D SWAP1 DUP4 ADD MSTORE PUSH32 0x457865637574696F6E20636F6E73747261696E7473206E6F74206D6574000000 PUSH1 0x60 DUP4 ADD MSTORE SWAP8 SWAP9 POP SWAP4 SWAP7 PUSH1 0x1 PUSH1 0x1 PUSH1 0xA0 SHL SUB SWAP1 DUP2 AND SWAP7 AND SWAP5 SWAP4 PUSH32 0x8D07BB7D7FFC0FDE6EBC3E0E718C1FDBFAC73EB7EA593DA5566FA86A1C3C1A30 SWAP4 POP PUSH1 0x80 SWAP3 POP SWAP1 POP LOG4 DUP1 EXTCODESIZE ISZERO PUSH2 0x16D4 JUMPI DUP2 DUP1 SWAP2 PUSH1 0x64 PUSH1 0x40 MLOAD DUP1 SWAP5 DUP2 SWAP4 PUSH4 0x44A7C639 PUSH1 0xE1 SHL DUP4 MSTORE CALLER PUSH1 0x4 DUP5 ADD MSTORE DUP2 PUSH1 0x24 DUP5 ADD MSTORE DUP2 PUSH1 0x44 DUP5 ADD MSTORE GAS CALL DUP1 ISZERO PUSH2 0x16C9 JUMPI PUSH2 0x16B4 JUMPI POP POP JUMP JUMPDEST PUSH4 0x4E487B71 PUSH1 0xE0 SHL DUP6 MSTORE PUSH1 0x11 PUSH1 0x4 MSTORE PUSH1 0x24 DUP6 REVERT JUMPDEST PUSH1 0x40 MLOAD PUSH3 0x461BCD PUSH1 0xE5 SHL DUP2 MSTORE PUSH1 0x20 PUSH1 0x4 DUP3 ADD MSTORE PUSH1 0x13 PUSH1 0x24 DUP3 ADD MSTORE PUSH19 0x14185E5B595B9D081B9BDD08191D59481E595D PUSH1 0x6A SHL PUSH1 0x44 DUP3 ADD MSTORE PUSH1 0x64 SWAP1 REVERT JUMPDEST SWAP3 SWAP4 PUSH1 0x3 PUSH1 0xFF NOT DUP3 SLOAD AND OR SWAP1 SSTORE PUSH1 0x1 DUP1 PUSH1 0xA0 SHL SUB DUP3 SLOAD AND SWAP1 PUSH32 0x8D07BB7D7FFC0FDE6EBC3E0E718C1FDBFAC73EB7EA593DA5566FA86A1C3C1A30 PUSH1 0x80 PUSH1 0x2 PUSH1 0x1 DUP1 PUSH1 0xA0 SHL SUB PUSH1 0x1 DUP8 ADD SLOAD AND SWAP6 ADD SLOAD PUSH1 0x40 MLOAD SWAP1 DUP2 MSTORE PUSH1 0x40 PUSH1 0x20 DUP3 ADD MSTORE PUSH1 0x14 PUSH1 0x40 DUP3 ADD MSTORE PUSH20 0x14DD589CD8DC9A5C1D1A5BDB88195E1C1A5C9959 PUSH1 0x62 SHL PUSH1 0x60 DUP3 ADD MSTORE LOG4 DUP1 EXTCODESIZE ISZERO PUSH2 0x16D4 JUMPI DUP2 DUP1 SWAP2 PUSH1 0x64 PUSH1 0x40 MLOAD DUP1 SWAP5 DUP2 SWAP4 PUSH4 0x44A7C639 PUSH1 0xE1 SHL DUP4 MSTORE CALLER PUSH1 0x4 DUP5 ADD MSTORE DUP2 PUSH1 0x24 DUP5 ADD MSTORE DUP2 PUSH1 0x44 DUP5 ADD MSTORE GAS CALL DUP1 ISZERO PUSH2 0x16C9 JUMPI PUSH2 0x190C JUMPI POP POP JUMP JUMPDEST DUP2 PUSH2 0x1916 SWAP2 PUSH2 0x117E JUMP JUMPDEST POP JUMP JUMPDEST PUSH4 0x4E487B71 PUSH1 0xE0 SHL DUP6 MSTORE PUSH1 0x21 PUSH1 0x4 MSTORE PUSH1 0x24 DUP6 REVERT JUMPDEST PUSH1 0x40 MLOAD PUSH3 0x461BCD PUSH1 0xE5 SHL DUP2 MSTORE PUSH1 0x20 PUSH1 0x4 DUP3 ADD MSTORE PUSH1 0x16 PUSH1 0x24 DUP3 ADD MSTORE PUSH22 0x14995B185E595C881B9BDD08185D5D1A1BDC9A5E9959 PUSH1 0x52 SHL PUSH1 0x44 DUP3 ADD MSTORE PUSH1 0x64 SWAP1 REVERT JUMPDEST PUSH2 0x198D SWAP2 POP PUSH1 0x20 RETURNDATASIZE PUSH1 0x20 GT PUSH2 0x1993 JUMPI JUMPDEST PUSH2 0x1985 DUP2 DUP4 PUSH2 0x117E JUMP JUMPDEST DUP2 ADD SWAP1 PUSH2 0x12BC JUMP JUMPDEST CODESIZE PUSH2 0x13FF JUMP JUMPDEST POP RETURNDATASIZE PUSH2 0x197B JUMP JUMPDEST PUSH1 0x40 MLOAD RETURNDATASIZE DUP6 DUP3 RETURNDATACOPY RETURNDATASIZE SWAP1 REVERT JUMPDEST PUSH1 0x40 MLOAD PUSH3 0x461BCD PUSH1 0xE5 SHL DUP2 MSTORE PUSH1 0x20 PUSH1 0x4 DUP3 ADD MSTORE PUSH1 0x10 PUSH1 0x24 DUP3 ADD MSTORE PUSH16 0xA4CAD8C2F2CAE440DAD2E6DAC2E8C6D PUSH1 0x83 SHL PUSH1 0x44 DUP3 ADD MSTORE PUSH1 0x64 SWAP1 REVERT JUMPDEST SWAP3 SWAP2 SWAP3 PUSH2 0x19E9 DUP3 PUSH2 0x1379 JUMP JUMPDEST SWAP2 PUSH2 0x19F7 PUSH1 0x40 MLOAD SWAP4 DUP5 PUSH2 0x117E JUMP JUMPDEST DUP3 SWAP5 DUP2 DUP5 MSTORE DUP2 DUP4 ADD GT PUSH2 0x127 JUMPI DUP3 DUP2 PUSH1 0x20 SWAP4 DUP5 PUSH1 0x0 SWAP7 ADD CALLDATACOPY ADD ADD MSTORE JUMP JUMPDEST SWAP1 PUSH2 0x1A82 SWAP4 SWAP3 PUSH2 0x64F PUSH2 0x1A79 SWAP3 PUSH2 0x1A2E PUSH2 0x95E CALLDATASIZE DUP8 PUSH2 0x11F4 JUMP JUMPDEST PUSH1 0x40 MLOAD PUSH2 0x1901 PUSH1 0xF0 SHL PUSH1 0x20 DUP3 ADD SWAP1 DUP2 MSTORE PUSH32 0x0 PUSH1 0x22 DUP4 ADD MSTORE PUSH1 0x42 DUP3 ADD SWAP3 SWAP1 SWAP3 MSTORE PUSH2 0x644 DUP2 PUSH1 0x62 DUP2 ADD PUSH2 0x636 JUMP JUMPDEST SWAP1 SWAP5 SWAP2 SWAP5 PUSH2 0x2049 JUMP JUMPDEST PUSH1 0x1 PUSH1 0x1 PUSH1 0xA0 SHL SUB SWAP1 PUSH2 0x1A94 SWAP1 PUSH2 0x11A0 JUMP JUMPDEST AND PUSH1 0x1 PUSH1 0x1 PUSH1 0xA0 SHL SUB DUP4 AND EQ SWAP2 SWAP1 JUMP JUMPDEST PUSH1 0x1 DUP1 PUSH1 0xA0 SHL SUB DUP2 MLOAD AND SWAP1 PUSH1 0x1 DUP1 PUSH1 0xA0 SHL SUB PUSH1 0x20 DUP3 ADD MLOAD AND SWAP1 PUSH1 0x40 DUP2 ADD MLOAD SWAP1 PUSH1 0x60 DUP2 ADD MLOAD PUSH1 0x80 DUP3 ADD MLOAD PUSH1 0xA0 DUP4 ADD MLOAD SWAP1 PUSH1 0xC0 DUP5 ADD MLOAD SWAP3 PUSH2 0x100 PUSH1 0xE0 DUP7 ADD MLOAD SWAP6 ADD MLOAD SWAP6 PUSH1 0x40 MLOAD SWAP8 PUSH1 0x20 DUP10 ADD SWAP10 PUSH32 0x95D1972EBB257253C8ECA5422008068E9EBAE76C58E3BEAFA47373A6A2C529DA DUP12 MSTORE PUSH1 0x40 DUP11 ADD MSTORE PUSH1 0x60 DUP10 ADD MSTORE PUSH1 0x80 DUP9 ADD MSTORE PUSH1 0xA0 DUP8 ADD MSTORE PUSH1 0xC0 DUP7 ADD MSTORE PUSH1 0xE0 DUP6 ADD MSTORE PUSH2 0x100 DUP5 ADD MSTORE PUSH2 0x120 DUP4 ADD MSTORE PUSH2 0x140 DUP3 ADD MSTORE PUSH2 0x140 DUP2 MSTORE PUSH2 0x1B52 PUSH2 0x160 DUP3 PUSH2 0x117E JUMP JUMPDEST MLOAD SWAP1 KECCAK256 SWAP1 JUMP JUMPDEST DUP1 PUSH1 0x0 MSTORE PUSH1 0x1 PUSH1 0x20 MSTORE PUSH1 0x40 PUSH1 0x0 KECCAK256 SWAP1 PUSH1 0x0 MSTORE PUSH1 0x2 PUSH1 0x20 MSTORE PUSH1 0x40 PUSH1 0x0 KECCAK256 SLOAD SWAP1 PUSH1 0x5 DUP2 ADD SLOAD DUP3 LT ISZERO PUSH2 0x1CC7 JUMPI PUSH2 0x1B9C PUSH2 0x1B97 SWAP3 PUSH1 0x2 DUP4 ADD SLOAD SWAP4 DUP5 DUP1 SWAP3 PUSH2 0x1284 JUMP JUMPDEST PUSH2 0x136C JUMP JUMPDEST PUSH1 0x6 DUP3 ADD SLOAD LT PUSH2 0x1CC7 JUMPI SLOAD PUSH1 0x40 MLOAD PUSH4 0x70A08231 PUSH1 0xE0 SHL DUP2 MSTORE PUSH1 0x1 PUSH1 0x1 PUSH1 0xA0 SHL SUB SWAP2 DUP3 AND PUSH1 0x4 DUP3 ADD DUP2 SWAP1 MSTORE SWAP2 PUSH32 0x0 AND SWAP1 PUSH1 0x20 DUP2 PUSH1 0x24 DUP2 DUP6 GAS STATICCALL DUP1 ISZERO PUSH2 0xC7B JUMPI DUP5 SWAP2 PUSH1 0x0 SWAP2 PUSH2 0x1C92 JUMPI JUMPDEST POP LT PUSH2 0x1C8A JUMPI PUSH1 0x40 MLOAD PUSH4 0x6EB1769F PUSH1 0xE1 SHL DUP2 MSTORE PUSH1 0x1 PUSH1 0x1 PUSH1 0xA0 SHL SUB SWAP3 SWAP1 SWAP3 AND PUSH1 0x4 DUP4 ADD MSTORE ADDRESS PUSH1 0x24 DUP4 ADD MSTORE PUSH1 0x20 SWAP1 DUP3 SWAP1 PUSH1 0x44 SWAP1 DUP3 SWAP1 GAS STATICCALL SWAP1 DUP2 ISZERO PUSH2 0xC7B JUMPI PUSH1 0x0 SWAP2 PUSH2 0x1C58 JUMPI JUMPDEST POP LT PUSH2 0x1C53 JUMPI PUSH1 0x1 SWAP1 JUMP JUMPDEST PUSH1 0x0 SWAP1 JUMP JUMPDEST SWAP1 POP PUSH1 0x20 DUP2 RETURNDATASIZE PUSH1 0x20 GT PUSH2 0x1C82 JUMPI JUMPDEST DUP2 PUSH2 0x1C73 PUSH1 0x20 SWAP4 DUP4 PUSH2 0x117E JUMP JUMPDEST DUP2 ADD SUB SLT PUSH2 0x127 JUMPI MLOAD CODESIZE PUSH2 0x1C48 JUMP JUMPDEST RETURNDATASIZE SWAP2 POP PUSH2 0x1C66 JUMP JUMPDEST POP POP POP PUSH1 0x0 SWAP1 JUMP JUMPDEST SWAP2 POP POP PUSH1 0x20 DUP2 RETURNDATASIZE PUSH1 0x20 GT PUSH2 0x1CBF JUMPI JUMPDEST DUP2 PUSH2 0x1CAE PUSH1 0x20 SWAP4 DUP4 PUSH2 0x117E JUMP JUMPDEST DUP2 ADD SUB SLT PUSH2 0x127 JUMPI DUP4 SWAP1 MLOAD CODESIZE PUSH2 0x1C03 JUMP JUMPDEST RETURNDATASIZE SWAP2 POP PUSH2 0x1CA1 JUMP JUMPDEST POP POP PUSH1 0x0 SWAP1 JUMP JUMPDEST PUSH1 0x2 DUP2 ADD SLOAD DUP2 SLOAD PUSH1 0x40 MLOAD PUSH4 0x70A08231 PUSH1 0xE0 SHL DUP2 MSTORE PUSH1 0x1 PUSH1 0x1 PUSH1 0xA0 SHL SUB SWAP2 DUP3 AND PUSH1 0x4 DUP3 ADD DUP2 SWAP1 MSTORE SWAP4 SWAP6 SWAP5 PUSH32 0x0 SWAP1 SWAP3 AND SWAP4 SWAP3 SWAP1 PUSH1 0x20 DUP2 PUSH1 0x24 DUP2 DUP9 GAS STATICCALL DUP1 ISZERO PUSH2 0xC7B JUMPI DUP3 SWAP2 PUSH1 0x0 SWAP2 PUSH2 0x1F68 JUMPI JUMPDEST POP LT PUSH2 0x1F24 JUMPI PUSH1 0x40 MLOAD PUSH4 0x6EB1769F PUSH1 0xE1 SHL DUP2 MSTORE PUSH1 0x1 PUSH1 0x1 PUSH1 0xA0 SHL SUB DUP5 AND PUSH1 0x4 DUP3 ADD MSTORE ADDRESS PUSH1 0x24 DUP3 ADD MSTORE PUSH1 0x20 DUP2 PUSH1 0x44 DUP2 DUP9 GAS STATICCALL SWAP1 DUP2 ISZERO PUSH2 0xC7B JUMPI PUSH1 0x0 SWAP2 PUSH2 0x1EF2 JUMPI JUMPDEST POP LT PUSH2 0x1EA4 JUMPI PUSH1 0x1 DUP6 ADD SLOAD PUSH1 0x40 MLOAD PUSH4 0x23B872DD PUSH1 0xE0 SHL PUSH1 0x20 DUP3 ADD MSTORE PUSH1 0x1 PUSH1 0x1 PUSH1 0xA0 SHL SUB SWAP4 DUP5 AND PUSH1 0x24 DUP3 ADD MSTORE SWAP3 AND PUSH1 0x44 DUP4 ADD MSTORE PUSH1 0x64 DUP3 ADD MSTORE PUSH2 0x1DC5 SWAP1 PUSH2 0x1DBF DUP2 PUSH1 0x84 DUP2 ADD PUSH2 0x636 JUMP JUMPDEST DUP3 PUSH2 0x1F9D JUMP JUMPDEST ISZERO PUSH2 0x1E63 JUMPI SWAP2 SLOAD PUSH1 0x40 MLOAD PUSH4 0x23B872DD PUSH1 0xE0 SHL PUSH1 0x20 DUP3 ADD MSTORE PUSH1 0x1 PUSH1 0x1 PUSH1 0xA0 SHL SUB SWAP1 SWAP2 AND PUSH1 0x24 DUP3 ADD MSTORE CALLER PUSH1 0x44 DUP3 ADD MSTORE PUSH1 0x64 DUP1 DUP3 ADD SWAP3 SWAP1 SWAP3 MSTORE SWAP1 DUP2 MSTORE PUSH2 0x1E12 SWAP2 PUSH2 0x1E0D PUSH1 0x84 DUP4 PUSH2 0x117E JUMP JUMPDEST PUSH2 0x1F9D JUMP JUMPDEST ISZERO PUSH2 0x1E2F JUMPI PUSH1 0x1 SWAP1 PUSH1 0x40 MLOAD PUSH2 0x1E28 PUSH1 0x20 DUP3 PUSH2 0x117E JUMP JUMPDEST PUSH1 0x0 DUP2 MSTORE SWAP1 JUMP JUMPDEST PUSH1 0x0 SWAP1 PUSH1 0x40 MLOAD PUSH2 0x1E40 PUSH1 0x40 DUP3 PUSH2 0x117E JUMP JUMPDEST PUSH1 0x13 DUP2 MSTORE PUSH19 0x119959481D1C985B9CD9995C8819985A5B1959 PUSH1 0x6A SHL PUSH1 0x20 DUP3 ADD MSTORE SWAP1 JUMP JUMPDEST POP POP POP PUSH1 0x0 SWAP1 PUSH1 0x40 MLOAD PUSH2 0x1E77 PUSH1 0x40 DUP3 PUSH2 0x117E JUMP JUMPDEST PUSH1 0x18 DUP2 MSTORE PUSH32 0x4D65726368616E74207472616E73666572206661696C65640000000000000000 PUSH1 0x20 DUP3 ADD MSTORE SWAP1 JUMP JUMPDEST POP POP POP POP POP PUSH1 0x0 SWAP1 PUSH1 0x40 MLOAD PUSH2 0x1EBA PUSH1 0x60 DUP3 PUSH2 0x117E JUMP JUMPDEST PUSH1 0x22 DUP2 MSTORE PUSH32 0x496E73756666696369656E7420616C6C6F77616E636520666F72207061796D65 PUSH1 0x20 DUP3 ADD MSTORE PUSH2 0x1B9D PUSH1 0xF2 SHL PUSH1 0x40 DUP3 ADD MSTORE SWAP1 JUMP JUMPDEST SWAP1 POP PUSH1 0x20 DUP2 RETURNDATASIZE PUSH1 0x20 GT PUSH2 0x1F1C JUMPI JUMPDEST DUP2 PUSH2 0x1F0D PUSH1 0x20 SWAP4 DUP4 PUSH2 0x117E JUMP JUMPDEST DUP2 ADD SUB SLT PUSH2 0x127 JUMPI MLOAD CODESIZE PUSH2 0x1D77 JUMP JUMPDEST RETURNDATASIZE SWAP2 POP PUSH2 0x1F00 JUMP JUMPDEST POP POP POP POP POP POP PUSH1 0x0 SWAP1 PUSH1 0x40 MLOAD PUSH2 0x1F3B PUSH1 0x40 DUP3 PUSH2 0x117E JUMP JUMPDEST PUSH1 0x20 DUP2 MSTORE PUSH32 0x496E73756666696369656E742062616C616E636520666F72207061796D656E74 PUSH1 0x20 DUP3 ADD MSTORE SWAP1 JUMP JUMPDEST SWAP2 POP POP PUSH1 0x20 DUP2 RETURNDATASIZE PUSH1 0x20 GT PUSH2 0x1F95 JUMPI JUMPDEST DUP2 PUSH2 0x1F84 PUSH1 0x20 SWAP4 DUP4 PUSH2 0x117E JUMP JUMPDEST DUP2 ADD SUB SLT PUSH2 0x127 JUMPI DUP2 SWAP1 MLOAD CODESIZE PUSH2 0x1D37 JUMP JUMPDEST RETURNDATASIZE SWAP2 POP PUSH2 0x1F77 JUMP JUMPDEST PUSH1 0x0 SWAP2 DUP3 SWAP2 DUP3 PUSH1 0x20 DUP4 MLOAD SWAP4 ADD SWAP2 GAS CALL RETURNDATASIZE ISZERO PUSH2 0x2005 JUMPI RETURNDATASIZE SWAP1 PUSH2 0x1FBD DUP3 PUSH2 0x1379 JUMP JUMPDEST SWAP2 PUSH2 0x1FCB PUSH1 0x40 MLOAD SWAP4 DUP5 PUSH2 0x117E JUMP JUMPDEST DUP3 MSTORE RETURNDATASIZE PUSH1 0x0 PUSH1 0x20 DUP5 ADD RETURNDATACOPY JUMPDEST ISZERO PUSH2 0x1FFF JUMPI DUP1 MLOAD SWAP1 DUP2 ISZERO PUSH2 0x1FF8 JUMPI PUSH1 0x20 DUP1 PUSH2 0x1FF5 SWAP4 DUP4 ADD ADD SWAP2 ADD PUSH2 0x12BC JUMP JUMPDEST SWAP1 JUMP JUMPDEST POP POP PUSH1 0x1 SWAP1 JUMP JUMPDEST POP PUSH1 0x0 SWAP1 JUMP JUMPDEST PUSH1 0x60 SWAP1 PUSH2 0x1FD6 JUMP JUMPDEST DUP2 MLOAD SWAP2 SWAP1 PUSH1 0x41 DUP4 SUB PUSH2 0x203E JUMPI PUSH2 0x2037 SWAP3 POP PUSH1 0x20 DUP3 ADD MLOAD SWAP1 PUSH1 0x60 PUSH1 0x40 DUP5 ADD MLOAD SWAP4 ADD MLOAD PUSH1 0x0 BYTE SWAP1 PUSH2 0x20BB JUMP JUMPDEST SWAP2 SWAP3 SWAP1 SWAP2 SWAP1 JUMP JUMPDEST POP POP PUSH1 0x0 SWAP2 PUSH1 0x2 SWAP2 SWAP1 JUMP JUMPDEST SWAP2 SWAP1 SWAP2 PUSH1 0x4 DUP2 LT ISZERO PUSH2 0x29A JUMPI DUP1 PUSH2 0x205F JUMPI POP SWAP1 POP JUMP JUMPDEST PUSH1 0x0 PUSH1 0x1 DUP3 SUB PUSH2 0x207A JUMPI PUSH4 0xF645EEDF PUSH1 0xE0 SHL PUSH1 0x0 MSTORE PUSH1 0x4 PUSH1 0x0 REVERT JUMPDEST POP PUSH1 0x2 DUP2 SUB PUSH2 0x2098 JUMPI DUP3 PUSH4 0xFCE698F7 PUSH1 0xE0 SHL PUSH1 0x0 MSTORE PUSH1 0x4 MSTORE PUSH1 0x24 PUSH1 0x0 REVERT JUMPDEST SWAP1 SWAP2 PUSH1 0x3 PUSH1 0x0 SWAP3 EQ PUSH2 0x20A8 JUMPI POP POP JUMP JUMPDEST PUSH4 0x35E2F383 PUSH1 0xE2 SHL DUP3 MSTORE PUSH1 0x4 MSTORE PUSH1 0x24 SWAP2 POP REVERT JUMPDEST SWAP2 SWAP1 PUSH32 0x7FFFFFFFFFFFFFFFFFFFFFFFFFFFFFFF5D576E7357A4501DDFE92F46681B20A0 DUP5 GT PUSH2 0x2138 JUMPI SWAP2 PUSH1 0x20 SWAP4 PUSH1 0x80 SWAP3 PUSH1 0xFF PUSH1 0x0 SWAP6 PUSH1 0x40 MLOAD SWAP5 DUP6 MSTORE AND DUP7 DUP5 ADD MSTORE PUSH1 0x40 DUP4 ADD MSTORE PUSH1 0x60 DUP3 ADD MSTORE DUP3 DUP1 MSTORE PUSH1 0x1 GAS STATICCALL ISZERO PUSH2 0xC7B JUMPI PUSH1 0x0 MLOAD PUSH1 0x1 PUSH1 0x1 PUSH1 0xA0 SHL SUB DUP2 AND ISZERO PUSH2 0x212C JUMPI SWAP1 PUSH1 0x0 SWAP1 PUSH1 0x0 SWAP1 JUMP JUMPDEST POP PUSH1 0x0 SWAP1 PUSH1 0x1 SWAP1 PUSH1 0x0 SWAP1 JUMP JUMPDEST POP POP POP PUSH1 0x0 SWAP2 PUSH1 0x3 SWAP2 SWAP1 JUMP INVALID LOG2 PUSH5 0x6970667358 0x22 SLT KECCAK256 0xB1 CALLER 0xF7 DUP6 0xCA CALLVALUE 0xDA 0xBB 0xDB 0xC1 CALL PUSH25 0x727B4D4BAB1520CC5FD2516A0779F44D196A59E664736F6C63 NUMBER STOP ADDMOD SHR STOP CALLER "},"gasEstimates":{"creation":{"codeDepositCost":"1714000","executionCost":"infinite","totalCost":"infinite"},"external":{"PAUSE_REQUEST_TYPEHASH()":"221","PROTOCOL_FEE_BPS()":"463","PYUSD_ADDRESS()":"infinite","RELAYER_REGISTRY()":"infinite","RESUME_REQUEST_TYPEHASH()":"353","SUBSCRIPTION_INTENT_TYPEHASH()":"177","cancelSubscription(bytes32)":"35321","createSubscription((address,address,uint256,uint256,uint256,uint256,uint256,uint256,uint256),bytes)":"infinite","currentNonce(address)":"2497","executeSubscription(bytes32,address)":"infinite","executedPayments(bytes32)":"2739","getNextNonce(address)":"2629","getNextPaymentTime(bytes32)":"9253","getPaymentCount(bytes32)":"2478","getSubscription(bytes32)":"infinite","isSubscriptionActive(bytes32)":"4785","pauseSubscription(bytes32,bytes)":"infinite","resumeSubscription(bytes32,bytes)":"infinite","subscriptions(bytes32)":"21838","verifyIntent((address,address,uint256,uint256,uint256,uint256,uint256,uint256,uint256),bytes)":"infinite"},"internal":{"_attemptPayment(struct SubscriptionManager.Subscription storage pointer,uint256,uint256)":"infinite","_callToken(address,bytes memory)":"infinite","_canExecutePayment(bytes32)":"infinite","_domainSeparatorV4()":"infinite","_hashIntent(struct SubscriptionManager.SubscriptionIntent memory)":"infinite","_isPaymentDue(bytes32)":"infinite","_validateSubscriptionParams(struct SubscriptionManager.SubscriptionIntent calldata)":"infinite"}},"methodIdentifiers":{"PAUSE_REQUEST_TYPEHASH()":"5adf2d8d","PROTOCOL_FEE_BPS()":"be378228","PYUSD_ADDRESS()":"e2b02576","RELAYER_REGISTRY()":"a807db75","RESUME_REQUEST_TYPEHASH()":"7b0e3b62","SUBSCRIPTION_INTENT_TYPEHASH()":"33e5a1d6","cancelSubscription(bytes32)":"d21f1ffc","createSubscription((address,address,uint256,uint256,uint256,uint256,uint256,uint256,uint256),bytes)":"5ad63a24","currentNonce(address)":"6437ecfc","executeSubscription(bytes32,address)":"69e1fd9a","executedPayments(bytes32)":"eaef9f2f","getNextNonce(address)":"90193b7c","getNextPaymentTime(bytes32)":"c603ff48","getPaymentCount(bytes32)":"6f956971","getSubscription(bytes32)":"1f32768e","isSubscriptionActive(bytes32)":"91351c82","pauseSubscription(bytes32,bytes)":"6c00f051","resumeSubscription(bytes32,bytes)":"77bef003","subscriptions(bytes32)":"94259c6c","verifyIntent((address,address,uint256,uint256,uint256,uint256,uint256,uint256,uint256),bytes)":"d3a1cbfd"}},"storageLayout":{"storage":[{"astId":1498,"contract":"contracts/SubscriptionManager.sol:SubscriptionManager","label":"_status","offset":0,"slot":"0","type":"t_uint256"},{"astId":3175,"contract":"contracts/SubscriptionManager.sol:SubscriptionManager","label":"subscriptions","offset":0,"slot":"1","type":"t_mapping(t_bytes32,t_struct(Subscription)3151_storage)"},{"astId":3179,"contract":"contracts/SubscriptionManager.sol:SubscriptionManager","label":"executedPayments","offset":0,"slot":"2","type":"t_mapping(t_bytes32,t_uint256)"},{"astId":3183,"contract":"contracts/SubscriptionManager.sol:SubscriptionManager","label":"currentNonce","offset":0,"slot":"3","type":"t_mapping(t_address,t_uint256)"}],"types":{"t_address":{"encoding":"inplace","label":"address","numberOfBytes":"20"},"t_bytes32":{"encoding":"inplace","label":"bytes32","numberOfBytes":"32"},"t_enum(SubscriptionStatus)3129":{"encoding":"inplace","label":"enum SubscriptionManager.SubscriptionStatus","numberOfBytes":"1"},"t_mapping(t_address,t_uint256)":{"encoding":"mapping","key":"t_address","label":"mapping(address => uint256)","numberOfBytes":"32","value":"t_uint256"},"t_mapping(t_bytes32,t_struct(Subscription)3151_storage)":{"encoding":"mapping","key":"t_bytes32","label":"mapping(bytes32 => struct SubscriptionManager.Subscription)","numberOfBytes":"32","value":"t_struct(Subscription)3151_storage"},"t_mapping(t_bytes32,t_uint256)":{"encoding":"mapping","key":"t_bytes32","label":"mapping(bytes32 => uint256)","numberOfBytes":"32","value":"t_uint256"},"t_struct(Subscription)3151_storage":{"encoding":"inplace","label":"struct SubscriptionManager.Subscription","members":[{"astId":3131,"contract":"contracts/SubscriptionManager.sol:SubscriptionManager","label":"subscriber","offset":0,"slot":"0","type":"t_address"},{"astId":3133,"contract":"contracts/SubscriptionManager.sol:SubscriptionManager","label":"merchant","offset":0,"slot":"1","type":"t_address"},{"astId":3135,"contract":"contracts/SubscriptionManager.sol:SubscriptionManager","label":"amount","offset":0,"slot":"2","type":"t_uint256"},{"astId":3137,"contract":"contracts/SubscriptionManager.sol:SubscriptionManager","label":"interval","offset":0,"slot":"3","type":"t_uint256"},{"astId":3139,"contract":"contracts/SubscriptionManager.sol:SubscriptionManager","label":"startTime","offset":0,"slot":"4","type":"t_uint256"},{"astId":3141,"contract":"contracts/SubscriptionManager.sol:SubscriptionManager","label":"maxPayments","offset":0,"slot":"5","type":"t_uint256"},{"astId":3143,"contract":"contracts/SubscriptionManager.sol:SubscriptionManager","label":"maxTotalAmount","offset":0,"slot":"6","type":"t_uint256"},{"astId":3145,"contract":"contracts/SubscriptionManager.sol:SubscriptionManager","label":"expiry","offset":0,"slot":"7","type":"t_uint256"},{"astId":3147,"contract":"contracts/SubscriptionManager.sol:SubscriptionManager","label":"nonce","offset":0,"slot":"8","type":"t_uint256"},{"astId":3150,"contract":"contracts/SubscriptionManager.sol:SubscriptionManager","label":"status","offset":0,"slot":"9","type":"t_enum(SubscriptionStatus)3129"}],"numberOfBytes":"320"},"t_uint256":{"encoding":"inplace","label":"uint256","numberOfBytes":"32"}}},"userdoc":{"kind":"user","methods":{},"version":1}}}}