{"contracts/SubscriptionManager.sol":{"SubscriptionManager":{"abi":[{"inputs":[{"internalType":"address","name":"_pyusdAddress","type":"address"}],"stateMutability":"nonpayable","type":"constructor"},{"inputs":[],"name":"ECDSAInvalidSignature","type":"error"},{"inputs":[{"internalType":"uint256","name":"length","type":"uint256"}],"name":"ECDSAInvalidSignatureLength","type":"error"},{"inputs":[{"internalType":"bytes32","name":"s","type":"bytes32"}],"name":"ECDSAInvalidSignatureS","type":"error"},{"anonymous":false,"inputs":[{"indexed":true,"internalType":"bytes32","name":"subscriptionId","type":"bytes32"},{"indexed":true,"internalType":"address","name":"subscriber","type":"address"},{"indexed":true,"internalType":"address","name":"merchant","type":"address"},{"indexed":false,"internalType":"uint256","name":"paymentNumber","type":"uint256"},{"indexed":false,"internalType":"uint256","name":"amount","type":"uint256"},{"indexed":false,"internalType":"uint256","name":"fee","type":"uint256"},{"indexed":false,"internalType":"address","name":"relayer","type":"address"}],"name":"PaymentExecuted","type":"event"},{"anonymous":false,"inputs":[{"indexed":true,"internalType":"bytes32","name":"subscriptionId","type":"bytes32"},{"indexed":true,"internalType":"address","name":"subscriber","type":"address"},{"indexed":true,"internalType":"address","name":"merchant","type":"address"},{"indexed":false,"internalType":"uint256","name":"amount","type":"uint256"},{"indexed":false,"internalType":"string","name":"reason","type":"string"}],"name":"PaymentFailed","type":"event"},{"anonymous":false,"inputs":[{"indexed":true,"internalType":"bytes32","name":"subscriptionId","type":"bytes32"},{"indexed":true,"internalType":"address","name":"subscriber","type":"address"},{"indexed":true,"internalType":"address","name":"merchant","type":"address"}],"name":"SubscriptionCancelled","type":"event"},{"anonymous":false,"inputs":[{"indexed":true,"internalType":"bytes32","name":"subscriptionId","type":"bytes32"},{"indexed":true,"internalType":"address","name":"subscriber","type":"address"},{"indexed":true,"internalType":"address","name":"merchant","type":"address"},{"indexed":false,"internalType":"uint256","name":"amount","type":"uint256"},{"indexed":false,"internalType":"uint256","name":"interval","type":"uint256"},{"indexed":false,"internalType":"uint256","name":"maxPayments","type":"uint256"},{"indexed":false,"internalType":"uint256","name":"maxTotalAmount","type":"uint256"},{"indexed":false,"internalType":"uint256","name":"expiry","type":"uint256"}],"name":"SubscriptionCreated","type":"event"},{"anonymous":false,"inputs":[{"indexed":true,"internalType":"bytes32","name":"subscriptionId","type":"bytes32"},{"indexed":true,"internalType":"address","name":"subscriber","type":"address"}],"name":"SubscriptionPaused","type":"event"},{"anonymous":false,"inputs":[{"indexed":true,"internalType":"bytes32","name":"subscriptionId","type":"bytes32"},{"indexed":true,"internalType":"address","name":"subscriber","type":"address"}],"name":"SubscriptionResumed","type":"event"},{"inputs":[],"name":"PROTOCOL_FEE_BPS","outputs":[{"internalType":"uint256","name":"","type":"uint256"}],"stateMutability":"view","type":"function"},{"inputs":[],"name":"PYUSD_ADDRESS","outputs":[{"internalType":"address","name":"","type":"address"}],"stateMutability":"view","type":"function"},{"inputs":[],"name":"SUBSCRIPTION_INTENT_TYPEHASH","outputs":[{"internalType":"bytes32","name":"","type":"bytes32"}],"stateMutability":"view","type":"function"},{"inputs":[{"components":[{"internalType":"address","name":"subscriber","type":"address"},{"internalType":"address","name":"merchant","type":"address"},{"internalType":"uint256","name":"amount","type":"uint256"},{"internalType":"uint256","name":"interval","type":"uint256"},{"internalType":"uint256","name":"startTime","type":"uint256"},{"internalType":"uint256","name":"maxPayments","type":"uint256"},{"internalType":"uint256","name":"maxTotalAmount","type":"uint256"},{"internalType":"uint256","name":"expiry","type":"uint256"},{"internalType":"uint256","name":"nonce","type":"uint256"}],"internalType":"struct SubscriptionManager.SubscriptionIntent","name":"intent","type":"tuple"},{"internalType":"bytes","name":"signature","type":"bytes"}],"name":"createSubscription","outputs":[{"internalType":"bytes32","name":"subscriptionId","type":"bytes32"}],"stateMutability":"nonpayable","type":"function"},{"inputs":[{"internalType":"bytes32","name":"subscriptionId","type":"bytes32"},{"internalType":"address","name":"relayer","type":"address"}],"name":"executeSubscription","outputs":[],"stateMutability":"nonpayable","type":"function"},{"inputs":[{"internalType":"bytes32","name":"","type":"bytes32"}],"name":"executedPayments","outputs":[{"internalType":"uint256","name":"","type":"uint256"}],"stateMutability":"view","type":"function"},{"inputs":[{"internalType":"bytes32","name":"","type":"bytes32"}],"name":"subscriptions","outputs":[{"internalType":"address","name":"subscriber","type":"address"},{"internalType":"address","name":"merchant","type":"address"},{"internalType":"uint256","name":"amount","type":"uint256"},{"internalType":"uint256","name":"interval","type":"uint256"},{"internalType":"uint256","name":"startTime","type":"uint256"},{"internalType":"uint256","name":"maxPayments","type":"uint256"},{"internalType":"uint256","name":"maxTotalAmount","type":"uint256"},{"internalType":"uint256","name":"expiry","type":"uint256"},{"internalType":"uint256","name":"nonce","type":"uint256"},{"internalType":"enum SubscriptionManager.SubscriptionStatus","name":"status","type":"uint8"}],"stateMutability":"view","type":"function"},{"inputs":[{"components":[{"internalType":"address","name":"subscriber","type":"address"},{"internalType":"address","name":"merchant","type":"address"},{"internalType":"uint256","name":"amount","type":"uint256"},{"internalType":"uint256","name":"interval","type":"uint256"},{"internalType":"uint256","name":"startTime","type":"uint256"},{"internalType":"uint256","name":"maxPayments","type":"uint256"},{"internalType":"uint256","name":"maxTotalAmount","type":"uint256"},{"internalType":"uint256","name":"expiry","type":"uint256"},{"internalType":"uint256","name":"nonce","type":"uint256"}],"internalType":"struct SubscriptionManager.SubscriptionIntent","name":"intent","type":"tuple"},{"internalType":"bytes","name":"signature","type":"bytes"}],"name":"verifyIntent","outputs":[{"internalType":"bool","name":"valid","type":"bool"},{"internalType":"address","name":"signer","type":"address"}],"stateMutability":"view","type":"function"}],"evm":{"bytecode":{"linkReferences":{},"object":"60c0806040523461012d576020816114c3803803809161001f8285610132565b83398101031261012d57516001600160a01b038116810361012d5760805260405161004b604082610132565b6005815264417572756d60d81b602090910152604080517facdbaa2d9365d09420a73f7eac1bfd80ef7f0a52431b7ed44c1d8a8f77e56da89161008e9082610132565b600181526020810190603160f81b82525190206040519060208201927f8b73c3c69bb8fe3d512ecc4cf759cc79239f7b179b0ffacaa9a75d522b39400f8452604083015260608201524660808201523060a082015260a081526100f260c082610132565b51902060a052604051611357908161016c823960805181818160be0152818161035301528181610b0c01526110e5015260a05181610f0d0152f35b600080fd5b601f909101601f19168101906001600160401b0382119082101761015557604052565b634e487b7160e01b600052604160045260246000fdfe608080604052600436101561001357600080fd5b60003560e01c90816333e5a1d614610843575080635ad63a241461022d57806369e1fd9a146101fb57806394259c6c14610139578063be3782281461011d578063d3a1cbfd146100ed578063e2b02576146100a85763eaef9f2f1461007757600080fd5b346100a35760203660031901126100a35760043560005260016020526020604060002054604051908152f35b600080fd5b346100a35760003660031901126100a3576040517f00000000000000000000000000000000000000000000000000000000000000006001600160a01b03168152602090f35b346100a35760406101066101003661087c565b91610eea565b825191151582526001600160a01b03166020820152f35b346100a35760003660031901126100a357602060405160328152f35b346100a35760203660031901126100a3576004356000526000602052604060002060018060a01b0381541660018060a01b036001830154169160028101546003820154600483015460058401549060068501549260078601549460ff600960088901549801541698604051988952602089015260408801526060870152608086015260a085015260c084015260e083015261010082015260058210156101e55761014091610120820152f35b634e487b7160e01b600052602160045260246000fd5b346100a35760403660031901126100a3576024356001600160a01b03811681036100a35761022b90600435610a02565b005b346100a35761023b3661087c565b6102488183859495610eea565b8161081c575b50156107e35760e0820135904282111561079e5760808301359180831161075a5760408401359182156107165760608501359485156106c65760a08101359687156106725760c0820135926102a389876109b4565b841061062d576102e960406102c06102bb3687610924565b610fc0565b93838251948592602084019788528484013781016000838201520301601f198101835282610902565b5190209586600052600060205260018060a01b03604060002054166105e85761031288866109b4565b61034f6020610320856108ee565b604051636eb1769f60e11b81526001600160a01b03909116600482015230602482015291829081906044820190565b03817f00000000000000000000000000000000000000000000000000000000000000006001600160a01b03165afa9081156105dc576000916105aa575b50106105655761039b826108ee565b9360208301966103aa886108ee565b6040519161014083019783891067ffffffffffffffff8a111761054f578b98604052600160a01b600190031683526020830191600160a01b6001900316825260408301908982528c60608501918783526080860190815260a0860191825260c08601928a845260e08701948886526101008801966101008c0135885261012089019d60008f526000526000602052604060002098600160a01b6001900390600160a01b60019003905116166bffffffffffffffffffffffff60a01b8a5416178955600160a01b600190039051166001890190600160a01b60019003166bffffffffffffffffffffffff60a01b82541617905551600288015551600387015551600486015551600585015551600684015551600783015551600882015560090194519360058510156101e55760209961051c61051660a0968c997fdec8943e7ef8a51d83c078700fdab942959d920107deebc0b4f301bb422892109960ff801983541691161790556108ee565b996108ee565b936040519889528b890152604088015260608701526080860152600180831b031694600180831b031693a4604051908152f35b634e487b7160e01b600052604160045260246000fd5b60405162461bcd60e51b815260206004820152601c60248201527f496e73756666696369656e7420505955534420616c6c6f77616e6365000000006044820152606490fd5b90506020813d6020116105d4575b816105c560209383610902565b810103126100a357518a61038c565b3d91506105b8565b6040513d6000823e3d90fd5b60405162461bcd60e51b815260206004820152601b60248201527f537562736372697074696f6e20616c72656164792065786973747300000000006044820152606490fd5b60405162461bcd60e51b815260206004820152601d60248201527f4d617820746f74616c20616d6f756e7420696e73756666696369656e740000006044820152606490fd5b60405162461bcd60e51b815260206004820152602660248201527f4d6178207061796d656e7473206d7573742062652067726561746572207468616044820152656e207a65726f60d01b6064820152608490fd5b60405162461bcd60e51b815260206004820152602260248201527f496e74657276616c206d7573742062652067726561746572207468616e207a65604482015261726f60f01b6064820152608490fd5b606460405162461bcd60e51b815260206004820152602060248201527f416d6f756e74206d7573742062652067726561746572207468616e207a65726f6044820152fd5b606460405162461bcd60e51b815260206004820152602060248201527f53746172742074696d65206d757374206265206265666f7265206578706972796044820152fd5b60405162461bcd60e51b815260206004820152601b60248201527f537562736372697074696f6e20696e74656e74206578706972656400000000006044820152606490fd5b60405162461bcd60e51b8152602060048201526011602482015270496e76616c6964207369676e617475726560781b6044820152606490fd5b90506001600160a01b0361082f846108ee565b6001600160a01b039092169116148461024e565b346100a35760003660031901126100a357807f95d1972ebb257253c8eca5422008068e9ebae76c58e3beafa47373a6a2c529da60209252f35b600319810161014081126100a357610120136100a3576004916101243567ffffffffffffffff81116100a357826023820112156100a35780600401359267ffffffffffffffff84116100a357602484830101116100a3576024019190565b35906001600160a01b03821682036100a357565b356001600160a01b03811681036100a35790565b90601f8019910116810190811067ffffffffffffffff82111761054f57604052565b9190826101209103126100a357604051610120810181811067ffffffffffffffff82111761054f5760405261010080829461095e816108da565b845261096c602082016108da565b602085015260408101356040850152606081013560608501526080810135608085015260a081013560a085015260c081013560c085015260e081013560e08501520135910152565b818102929181159184041417156109c757565b634e487b7160e01b600052601160045260246000fd5b919082018092116109c757565b908160209103126100a3575180151581036100a35790565b80600052600060205260406000209060018060a01b0382541615610ea557600982019160ff83541660058110156101e557610e605760078101544211610dde57816000526000602052610a7b6040600020836000526001602052610a7560406000205460036004840154930154906109b4565b906109dd565b4210610da357610a8a82611074565b15610d655781600052600160205260406000205492600184018094116109c757600282019485549460328602868104603214871517156109c7576127109004918287039687116109c75784546001860180546040516323b872dd60e01b81526001600160a01b03938416600482015290831660248201526044810199909952977f0000000000000000000000000000000000000000000000000000000000000000909116906020816064816000865af19081610d48575b50610bb557505050505060807f8d07bb7d7ffc0fde6ebc3e0e718c1fdbfac73eb7ea593da5566fa86a1c3c1a309160018060a01b039054169360018060a01b03905416945460405190815260406020820152600f60408201526e151c985b9cd9995c8819985a5b1959608a1b6060820152a4565b85546040516323b872dd60e01b81526001600160a01b03918216600482015290831660248201526044810185905290602090829060649082906000905af19081610d1b575b50610c71575050505060807f8d07bb7d7ffc0fde6ebc3e0e718c1fdbfac73eb7ea593da5566fa86a1c3c1a309160018060a01b039054169360018060a01b039054169454604051908152604060208201526013604082015272119959481d1c985b9cd9995c8819985a5b1959606a1b6060820152a4565b856000989597949852600160205260406000209182549160001983146109c75787947fda131df023be8b7d63a716139b42d5152ccf8728cfe960a6629bc576d36dd11894600160809501905560018060a01b038a54169660018060a01b0390541697546040519384526020840152604083015260018060a01b03166060820152a4600052600160205260056040600020549101541115610d0e5750565b805460ff19166004179055565b610d3c9060203d602011610d41575b610d348183610902565b8101906109ea565b610bfa565b503d610d2a565b610d609060203d602011610d4157610d348183610902565b610b41565b60405162461bcd60e51b815260206004820152601660248201527510d85b9b9bdd08195e1958dd5d19481c185e5b595b9d60521b6044820152606490fd5b60405162461bcd60e51b815260206004820152601360248201527214185e5b595b9d081b9bdd08191d59481e595d606a1b6044820152606490fd5b825460ff19166003179092558154600183015460029093015460408051918252602082018190526014908201527314dd589cd8dc9a5c1d1a5bdb88195e1c1a5c995960621b60608201526001600160a01b0393841694509216917f8d07bb7d7ffc0fde6ebc3e0e718c1fdbfac73eb7ea593da5566fa86a1c3c1a3090608090a4565b60405162461bcd60e51b815260206004820152601760248201527f537562736372697074696f6e206e6f74206163746976650000000000000000006044820152606490fd5b60405162461bcd60e51b815260206004820152601b60248201527f537562736372697074696f6e20646f6573206e6f7420657869737400000000006044820152606490fd5b90929192610efb6102bb3684610924565b604051602081019161190160f01b83527f00000000000000000000000000000000000000000000000000000000000000006022830152604282015260428152610f45606282610902565b51902067ffffffffffffffff851161054f5760405190610f6f601f8701601f191660200183610902565b85825236868401116100a3576000602087610f9e98610f959683870137840101526111ea565b90949194611226565b6001600160a01b0390610fb0906108ee565b166001600160a01b038316149190565b60018060a01b038151169060018060a01b03602082015116906040810151906060810151608082015160a08301519060c08401519261010060e0860151950151956040519760208901997f95d1972ebb257253c8eca5422008068e9ebae76c58e3beafa47373a6a2c529da8b5260408a01526060890152608088015260a087015260c086015260e0850152610100840152610120830152610140820152610140815261106e61016082610902565b51902090565b80600052600060205260406000209060005260016020526040600020549060058101548210156111e3576110b86110b3926002830154938480926109b4565b6109dd565b6006820154106111e357546040516370a0823160e01b81526001600160a01b0391821660048201819052917f00000000000000000000000000000000000000000000000000000000000000001690602081602481855afa80156105dc5784916000916111ae575b50106111a657604051636eb1769f60e11b81526001600160a01b03929092166004830152306024830152602090829060449082905afa9081156105dc57600091611174575b501061116f57600190565b600090565b90506020813d60201161119e575b8161118f60209383610902565b810103126100a3575138611164565b3d9150611182565b505050600090565b9150506020813d6020116111db575b816111ca60209383610902565b810103126100a3578390513861111f565b3d91506111bd565b5050600090565b815191906041830361121b5761121492506020820151906060604084015193015160001a90611298565b9192909190565b505060009160029190565b91909160048110156101e5578061123c57509050565b6000600182036112575763f645eedf60e01b60005260046000fd5b5060028103611275578263fce698f760e01b60005260045260246000fd5b9091600360009214611285575050565b6335e2f38360e21b825260045260249150fd5b91907f7fffffffffffffffffffffffffffffff5d576e7357a4501ddfe92f46681b20a08411611315579160209360809260ff60009560405194855216868401526040830152606082015282805260015afa156105dc576000516001600160a01b038116156113095790600090600090565b50600090600190600090565b5050506000916003919056fea2646970667358221220e544cf49c7d7029d22433057aa7db02848d531412ecd95765a07e5e8ab5668d764736f6c634300081c0033","opcodes":"PUSH1 0xC0 DUP1 PUSH1 0x40 MSTORE CALLVALUE PUSH2 0x12D JUMPI PUSH1 0x20 DUP2 PUSH2 0x14C3 DUP1 CODESIZE SUB DUP1 SWAP2 PUSH2 0x1F DUP3 DUP6 PUSH2 0x132 JUMP JUMPDEST DUP4 CODECOPY DUP2 ADD SUB SLT PUSH2 0x12D JUMPI MLOAD PUSH1 0x1 PUSH1 0x1 PUSH1 0xA0 SHL SUB DUP2 AND DUP2 SUB PUSH2 0x12D JUMPI PUSH1 0x80 MSTORE PUSH1 0x40 MLOAD PUSH2 0x4B PUSH1 0x40 DUP3 PUSH2 0x132 JUMP JUMPDEST PUSH1 0x5 DUP2 MSTORE PUSH5 0x417572756D PUSH1 0xD8 SHL PUSH1 0x20 SWAP1 SWAP2 ADD MSTORE PUSH1 0x40 DUP1 MLOAD PUSH32 0xACDBAA2D9365D09420A73F7EAC1BFD80EF7F0A52431B7ED44C1D8A8F77E56DA8 SWAP2 PUSH2 0x8E SWAP1 DUP3 PUSH2 0x132 JUMP JUMPDEST PUSH1 0x1 DUP2 MSTORE PUSH1 0x20 DUP2 ADD SWAP1 PUSH1 0x31 PUSH1 0xF8 SHL DUP3 MSTORE MLOAD SWAP1 KECCAK256 PUSH1 0x40 MLOAD SWAP1 PUSH1 0x20 DUP3 ADD SWAP3 PUSH32 0x8B73C3C69BB8FE3D512ECC4CF759CC79239F7B179B0FFACAA9A75D522B39400F DUP5 MSTORE PUSH1 0x40 DUP4 ADD MSTORE PUSH1 0x60 DUP3 ADD MSTORE CHAINID PUSH1 0x80 DUP3 ADD MSTORE ADDRESS PUSH1 0xA0 DUP3 ADD MSTORE PUSH1 0xA0 DUP2 MSTORE PUSH2 0xF2 PUSH1 0xC0 DUP3 PUSH2 0x132 JUMP JUMPDEST MLOAD SWAP1 KECCAK256 PUSH1 0xA0 MSTORE PUSH1 0x40 MLOAD PUSH2 0x1357 SWAP1 DUP2 PUSH2 0x16C DUP3 CODECOPY PUSH1 0x80 MLOAD DUP2 DUP2 DUP2 PUSH1 0xBE ADD MSTORE DUP2 DUP2 PUSH2 0x353 ADD MSTORE DUP2 DUP2 PUSH2 0xB0C ADD MSTORE PUSH2 0x10E5 ADD MSTORE PUSH1 0xA0 MLOAD DUP2 PUSH2 0xF0D ADD MSTORE RETURN JUMPDEST PUSH1 0x0 DUP1 REVERT JUMPDEST PUSH1 0x1F SWAP1 SWAP2 ADD PUSH1 0x1F NOT AND DUP2 ADD SWAP1 PUSH1 0x1 PUSH1 0x1 PUSH1 0x40 SHL SUB DUP3 GT SWAP1 DUP3 LT OR PUSH2 0x155 JUMPI PUSH1 0x40 MSTORE JUMP JUMPDEST PUSH4 0x4E487B71 PUSH1 0xE0 SHL PUSH1 0x0 MSTORE PUSH1 0x41 PUSH1 0x4 MSTORE PUSH1 0x24 PUSH1 0x0 REVERT INVALID PUSH1 0x80 DUP1 PUSH1 0x40 MSTORE PUSH1 0x4 CALLDATASIZE LT ISZERO PUSH2 0x13 JUMPI PUSH1 0x0 DUP1 REVERT JUMPDEST PUSH1 0x0 CALLDATALOAD PUSH1 0xE0 SHR SWAP1 DUP2 PUSH4 0x33E5A1D6 EQ PUSH2 0x843 JUMPI POP DUP1 PUSH4 0x5AD63A24 EQ PUSH2 0x22D JUMPI DUP1 PUSH4 0x69E1FD9A EQ PUSH2 0x1FB JUMPI DUP1 PUSH4 0x94259C6C EQ PUSH2 0x139 JUMPI DUP1 PUSH4 0xBE378228 EQ PUSH2 0x11D JUMPI DUP1 PUSH4 0xD3A1CBFD EQ PUSH2 0xED JUMPI DUP1 PUSH4 0xE2B02576 EQ PUSH2 0xA8 JUMPI PUSH4 0xEAEF9F2F EQ PUSH2 0x77 JUMPI PUSH1 0x0 DUP1 REVERT JUMPDEST CALLVALUE PUSH2 0xA3 JUMPI PUSH1 0x20 CALLDATASIZE PUSH1 0x3 NOT ADD SLT PUSH2 0xA3 JUMPI PUSH1 0x4 CALLDATALOAD PUSH1 0x0 MSTORE PUSH1 0x1 PUSH1 0x20 MSTORE PUSH1 0x20 PUSH1 0x40 PUSH1 0x0 KECCAK256 SLOAD PUSH1 0x40 MLOAD SWAP1 DUP2 MSTORE RETURN JUMPDEST PUSH1 0x0 DUP1 REVERT JUMPDEST CALLVALUE PUSH2 0xA3 JUMPI PUSH1 0x0 CALLDATASIZE PUSH1 0x3 NOT ADD SLT PUSH2 0xA3 JUMPI PUSH1 0x40 MLOAD PUSH32 0x0 PUSH1 0x1 PUSH1 0x1 PUSH1 0xA0 SHL SUB AND DUP2 MSTORE PUSH1 0x20 SWAP1 RETURN JUMPDEST CALLVALUE PUSH2 0xA3 JUMPI PUSH1 0x40 PUSH2 0x106 PUSH2 0x100 CALLDATASIZE PUSH2 0x87C JUMP JUMPDEST SWAP2 PUSH2 0xEEA JUMP JUMPDEST DUP3 MLOAD SWAP2 ISZERO ISZERO DUP3 MSTORE PUSH1 0x1 PUSH1 0x1 PUSH1 0xA0 SHL SUB AND PUSH1 0x20 DUP3 ADD MSTORE RETURN JUMPDEST CALLVALUE PUSH2 0xA3 JUMPI PUSH1 0x0 CALLDATASIZE PUSH1 0x3 NOT ADD SLT PUSH2 0xA3 JUMPI PUSH1 0x20 PUSH1 0x40 MLOAD PUSH1 0x32 DUP2 MSTORE RETURN JUMPDEST CALLVALUE PUSH2 0xA3 JUMPI PUSH1 0x20 CALLDATASIZE PUSH1 0x3 NOT ADD SLT PUSH2 0xA3 JUMPI PUSH1 0x4 CALLDATALOAD PUSH1 0x0 MSTORE PUSH1 0x0 PUSH1 0x20 MSTORE PUSH1 0x40 PUSH1 0x0 KECCAK256 PUSH1 0x1 DUP1 PUSH1 0xA0 SHL SUB DUP2 SLOAD AND PUSH1 0x1 DUP1 PUSH1 0xA0 SHL SUB PUSH1 0x1 DUP4 ADD SLOAD AND SWAP2 PUSH1 0x2 DUP2 ADD SLOAD PUSH1 0x3 DUP3 ADD SLOAD PUSH1 0x4 DUP4 ADD SLOAD PUSH1 0x5 DUP5 ADD SLOAD SWAP1 PUSH1 0x6 DUP6 ADD SLOAD SWAP3 PUSH1 0x7 DUP7 ADD SLOAD SWAP5 PUSH1 0xFF PUSH1 0x9 PUSH1 0x8 DUP10 ADD SLOAD SWAP9 ADD SLOAD AND SWAP9 PUSH1 0x40 MLOAD SWAP9 DUP10 MSTORE PUSH1 0x20 DUP10 ADD MSTORE PUSH1 0x40 DUP9 ADD MSTORE PUSH1 0x60 DUP8 ADD MSTORE PUSH1 0x80 DUP7 ADD MSTORE PUSH1 0xA0 DUP6 ADD MSTORE PUSH1 0xC0 DUP5 ADD MSTORE PUSH1 0xE0 DUP4 ADD MSTORE PUSH2 0x100 DUP3 ADD MSTORE PUSH1 0x5 DUP3 LT ISZERO PUSH2 0x1E5 JUMPI PUSH2 0x140 SWAP2 PUSH2 0x120 DUP3 ADD MSTORE RETURN JUMPDEST PUSH4 0x4E487B71 PUSH1 0xE0 SHL PUSH1 0x0 MSTORE PUSH1 0x21 PUSH1 0x4 MSTORE PUSH1 0x24 PUSH1 0x0 REVERT JUMPDEST CALLVALUE PUSH2 0xA3 JUMPI PUSH1 0x40 CALLDATASIZE PUSH1 0x3 NOT ADD SLT PUSH2 0xA3 JUMPI PUSH1 0x24 CALLDATALOAD PUSH1 0x1 PUSH1 0x1 PUSH1 0xA0 SHL SUB DUP2 AND DUP2 SUB PUSH2 0xA3 JUMPI PUSH2 0x22B SWAP1 PUSH1 0x4 CALLDATALOAD PUSH2 0xA02 JUMP JUMPDEST STOP JUMPDEST CALLVALUE PUSH2 0xA3 JUMPI PUSH2 0x23B CALLDATASIZE PUSH2 0x87C JUMP JUMPDEST PUSH2 0x248 DUP2 DUP4 DUP6 SWAP5 SWAP6 PUSH2 0xEEA JUMP JUMPDEST DUP2 PUSH2 0x81C JUMPI JUMPDEST POP ISZERO PUSH2 0x7E3 JUMPI PUSH1 0xE0 DUP3 ADD CALLDATALOAD SWAP1 TIMESTAMP DUP3 GT ISZERO PUSH2 0x79E JUMPI PUSH1 0x80 DUP4 ADD CALLDATALOAD SWAP2 DUP1 DUP4 GT PUSH2 0x75A JUMPI PUSH1 0x40 DUP5 ADD CALLDATALOAD SWAP2 DUP3 ISZERO PUSH2 0x716 JUMPI PUSH1 0x60 DUP6 ADD CALLDATALOAD SWAP5 DUP6 ISZERO PUSH2 0x6C6 JUMPI PUSH1 0xA0 DUP2 ADD CALLDATALOAD SWAP7 DUP8 ISZERO PUSH2 0x672 JUMPI PUSH1 0xC0 DUP3 ADD CALLDATALOAD SWAP3 PUSH2 0x2A3 DUP10 DUP8 PUSH2 0x9B4 JUMP JUMPDEST DUP5 LT PUSH2 0x62D JUMPI PUSH2 0x2E9 PUSH1 0x40 PUSH2 0x2C0 PUSH2 0x2BB CALLDATASIZE DUP8 PUSH2 0x924 JUMP JUMPDEST PUSH2 0xFC0 JUMP JUMPDEST SWAP4 DUP4 DUP3 MLOAD SWAP5 DUP6 SWAP3 PUSH1 0x20 DUP5 ADD SWAP8 DUP9 MSTORE DUP5 DUP5 ADD CALLDATACOPY DUP2 ADD PUSH1 0x0 DUP4 DUP3 ADD MSTORE SUB ADD PUSH1 0x1F NOT DUP2 ADD DUP4 MSTORE DUP3 PUSH2 0x902 JUMP JUMPDEST MLOAD SWAP1 KECCAK256 SWAP6 DUP7 PUSH1 0x0 MSTORE PUSH1 0x0 PUSH1 0x20 MSTORE PUSH1 0x1 DUP1 PUSH1 0xA0 SHL SUB PUSH1 0x40 PUSH1 0x0 KECCAK256 SLOAD AND PUSH2 0x5E8 JUMPI PUSH2 0x312 DUP9 DUP7 PUSH2 0x9B4 JUMP JUMPDEST PUSH2 0x34F PUSH1 0x20 PUSH2 0x320 DUP6 PUSH2 0x8EE JUMP JUMPDEST PUSH1 0x40 MLOAD PUSH4 0x6EB1769F PUSH1 0xE1 SHL DUP2 MSTORE PUSH1 0x1 PUSH1 0x1 PUSH1 0xA0 SHL SUB SWAP1 SWAP2 AND PUSH1 0x4 DUP3 ADD MSTORE ADDRESS PUSH1 0x24 DUP3 ADD MSTORE SWAP2 DUP3 SWAP1 DUP2 SWAP1 PUSH1 0x44 DUP3 ADD SWAP1 JUMP JUMPDEST SUB DUP2 PUSH32 0x0 PUSH1 0x1 PUSH1 0x1 PUSH1 0xA0 SHL SUB AND GAS STATICCALL SWAP1 DUP2 ISZERO PUSH2 0x5DC JUMPI PUSH1 0x0 SWAP2 PUSH2 0x5AA JUMPI JUMPDEST POP LT PUSH2 0x565 JUMPI PUSH2 0x39B DUP3 PUSH2 0x8EE JUMP JUMPDEST SWAP4 PUSH1 0x20 DUP4 ADD SWAP7 PUSH2 0x3AA DUP9 PUSH2 0x8EE JUMP JUMPDEST PUSH1 0x40 MLOAD SWAP2 PUSH2 0x140 DUP4 ADD SWAP8 DUP4 DUP10 LT PUSH8 0xFFFFFFFFFFFFFFFF DUP11 GT OR PUSH2 0x54F JUMPI DUP12 SWAP9 PUSH1 0x40 MSTORE PUSH1 0x1 PUSH1 0xA0 SHL PUSH1 0x1 SWAP1 SUB AND DUP4 MSTORE PUSH1 0x20 DUP4 ADD SWAP2 PUSH1 0x1 PUSH1 0xA0 SHL PUSH1 0x1 SWAP1 SUB AND DUP3 MSTORE PUSH1 0x40 DUP4 ADD SWAP1 DUP10 DUP3 MSTORE DUP13 PUSH1 0x60 DUP6 ADD SWAP2 DUP8 DUP4 MSTORE PUSH1 0x80 DUP7 ADD SWAP1 DUP2 MSTORE PUSH1 0xA0 DUP7 ADD SWAP2 DUP3 MSTORE PUSH1 0xC0 DUP7 ADD SWAP3 DUP11 DUP5 MSTORE PUSH1 0xE0 DUP8 ADD SWAP5 DUP9 DUP7 MSTORE PUSH2 0x100 DUP9 ADD SWAP7 PUSH2 0x100 DUP13 ADD CALLDATALOAD DUP9 MSTORE PUSH2 0x120 DUP10 ADD SWAP14 PUSH1 0x0 DUP16 MSTORE PUSH1 0x0 MSTORE PUSH1 0x0 PUSH1 0x20 MSTORE PUSH1 0x40 PUSH1 0x0 KECCAK256 SWAP9 PUSH1 0x1 PUSH1 0xA0 SHL PUSH1 0x1 SWAP1 SUB SWAP1 PUSH1 0x1 PUSH1 0xA0 SHL PUSH1 0x1 SWAP1 SUB SWAP1 MLOAD AND AND PUSH12 0xFFFFFFFFFFFFFFFFFFFFFFFF PUSH1 0xA0 SHL DUP11 SLOAD AND OR DUP10 SSTORE PUSH1 0x1 PUSH1 0xA0 SHL PUSH1 0x1 SWAP1 SUB SWAP1 MLOAD AND PUSH1 0x1 DUP10 ADD SWAP1 PUSH1 0x1 PUSH1 0xA0 SHL PUSH1 0x1 SWAP1 SUB AND PUSH12 0xFFFFFFFFFFFFFFFFFFFFFFFF PUSH1 0xA0 SHL DUP3 SLOAD AND OR SWAP1 SSTORE MLOAD PUSH1 0x2 DUP9 ADD SSTORE MLOAD PUSH1 0x3 DUP8 ADD SSTORE MLOAD PUSH1 0x4 DUP7 ADD SSTORE MLOAD PUSH1 0x5 DUP6 ADD SSTORE MLOAD PUSH1 0x6 DUP5 ADD SSTORE MLOAD PUSH1 0x7 DUP4 ADD SSTORE MLOAD PUSH1 0x8 DUP3 ADD SSTORE PUSH1 0x9 ADD SWAP5 MLOAD SWAP4 PUSH1 0x5 DUP6 LT ISZERO PUSH2 0x1E5 JUMPI PUSH1 0x20 SWAP10 PUSH2 0x51C PUSH2 0x516 PUSH1 0xA0 SWAP7 DUP13 SWAP10 PUSH32 0xDEC8943E7EF8A51D83C078700FDAB942959D920107DEEBC0B4F301BB42289210 SWAP10 PUSH1 0xFF DUP1 NOT DUP4 SLOAD AND SWAP2 AND OR SWAP1 SSTORE PUSH2 0x8EE JUMP JUMPDEST SWAP10 PUSH2 0x8EE JUMP JUMPDEST SWAP4 PUSH1 0x40 MLOAD SWAP9 DUP10 MSTORE DUP12 DUP10 ADD MSTORE PUSH1 0x40 DUP9 ADD MSTORE PUSH1 0x60 DUP8 ADD MSTORE PUSH1 0x80 DUP7 ADD MSTORE PUSH1 0x1 DUP1 DUP4 SHL SUB AND SWAP5 PUSH1 0x1 DUP1 DUP4 SHL SUB AND SWAP4 LOG4 PUSH1 0x40 MLOAD SWAP1 DUP2 MSTORE RETURN JUMPDEST PUSH4 0x4E487B71 PUSH1 0xE0 SHL PUSH1 0x0 MSTORE PUSH1 0x41 PUSH1 0x4 MSTORE PUSH1 0x24 PUSH1 0x0 REVERT JUMPDEST PUSH1 0x40 MLOAD PUSH3 0x461BCD PUSH1 0xE5 SHL DUP2 MSTORE PUSH1 0x20 PUSH1 0x4 DUP3 ADD MSTORE PUSH1 0x1C PUSH1 0x24 DUP3 ADD MSTORE PUSH32 0x496E73756666696369656E7420505955534420616C6C6F77616E636500000000 PUSH1 0x44 DUP3 ADD MSTORE PUSH1 0x64 SWAP1 REVERT JUMPDEST SWAP1 POP PUSH1 0x20 DUP2 RETURNDATASIZE PUSH1 0x20 GT PUSH2 0x5D4 JUMPI JUMPDEST DUP2 PUSH2 0x5C5 PUSH1 0x20 SWAP4 DUP4 PUSH2 0x902 JUMP JUMPDEST DUP2 ADD SUB SLT PUSH2 0xA3 JUMPI MLOAD DUP11 PUSH2 0x38C JUMP JUMPDEST RETURNDATASIZE SWAP2 POP PUSH2 0x5B8 JUMP JUMPDEST PUSH1 0x40 MLOAD RETURNDATASIZE PUSH1 0x0 DUP3 RETURNDATACOPY RETURNDATASIZE SWAP1 REVERT JUMPDEST PUSH1 0x40 MLOAD PUSH3 0x461BCD PUSH1 0xE5 SHL DUP2 MSTORE PUSH1 0x20 PUSH1 0x4 DUP3 ADD MSTORE PUSH1 0x1B PUSH1 0x24 DUP3 ADD MSTORE PUSH32 0x537562736372697074696F6E20616C7265616479206578697374730000000000 PUSH1 0x44 DUP3 ADD MSTORE PUSH1 0x64 SWAP1 REVERT JUMPDEST PUSH1 0x40 MLOAD PUSH3 0x461BCD PUSH1 0xE5 SHL DUP2 MSTORE PUSH1 0x20 PUSH1 0x4 DUP3 ADD MSTORE PUSH1 0x1D PUSH1 0x24 DUP3 ADD MSTORE PUSH32 0x4D617820746F74616C20616D6F756E7420696E73756666696369656E74000000 PUSH1 0x44 DUP3 ADD MSTORE PUSH1 0x64 SWAP1 REVERT JUMPDEST PUSH1 0x40 MLOAD PUSH3 0x461BCD PUSH1 0xE5 SHL DUP2 MSTORE PUSH1 0x20 PUSH1 0x4 DUP3 ADD MSTORE PUSH1 0x26 PUSH1 0x24 DUP3 ADD MSTORE PUSH32 0x4D6178207061796D656E7473206D757374206265206772656174657220746861 PUSH1 0x44 DUP3 ADD MSTORE PUSH6 0x6E207A65726F PUSH1 0xD0 SHL PUSH1 0x64 DUP3 ADD MSTORE PUSH1 0x84 SWAP1 REVERT JUMPDEST PUSH1 0x40 MLOAD PUSH3 0x461BCD PUSH1 0xE5 SHL DUP2 MSTORE PUSH1 0x20 PUSH1 0x4 DUP3 ADD MSTORE PUSH1 0x22 PUSH1 0x24 DUP3 ADD MSTORE PUSH32 0x496E74657276616C206D7573742062652067726561746572207468616E207A65 PUSH1 0x44 DUP3 ADD MSTORE PUSH2 0x726F PUSH1 0xF0 SHL PUSH1 0x64 DUP3 ADD MSTORE PUSH1 0x84 SWAP1 REVERT JUMPDEST PUSH1 0x64 PUSH1 0x40 MLOAD PUSH3 0x461BCD PUSH1 0xE5 SHL DUP2 MSTORE PUSH1 0x20 PUSH1 0x4 DUP3 ADD MSTORE PUSH1 0x20 PUSH1 0x24 DUP3 ADD MSTORE PUSH32 0x416D6F756E74206D7573742062652067726561746572207468616E207A65726F PUSH1 0x44 DUP3 ADD MSTORE REVERT JUMPDEST PUSH1 0x64 PUSH1 0x40 MLOAD PUSH3 0x461BCD PUSH1 0xE5 SHL DUP2 MSTORE PUSH1 0x20 PUSH1 0x4 DUP3 ADD MSTORE PUSH1 0x20 PUSH1 0x24 DUP3 ADD MSTORE PUSH32 0x53746172742074696D65206D757374206265206265666F726520657870697279 PUSH1 0x44 DUP3 ADD MSTORE REVERT JUMPDEST PUSH1 0x40 MLOAD PUSH3 0x461BCD PUSH1 0xE5 SHL DUP2 MSTORE PUSH1 0x20 PUSH1 0x4 DUP3 ADD MSTORE PUSH1 0x1B PUSH1 0x24 DUP3 ADD MSTORE PUSH32 0x537562736372697074696F6E20696E74656E7420657870697265640000000000 PUSH1 0x44 DUP3 ADD MSTORE PUSH1 0x64 SWAP1 REVERT JUMPDEST PUSH1 0x40 MLOAD PUSH3 0x461BCD PUSH1 0xE5 SHL DUP2 MSTORE PUSH1 0x20 PUSH1 0x4 DUP3 ADD MSTORE PUSH1 0x11 PUSH1 0x24 DUP3 ADD MSTORE PUSH17 0x496E76616C6964207369676E6174757265 PUSH1 0x78 SHL PUSH1 0x44 DUP3 ADD MSTORE PUSH1 0x64 SWAP1 REVERT JUMPDEST SWAP1 POP PUSH1 0x1 PUSH1 0x1 PUSH1 0xA0 SHL SUB PUSH2 0x82F DUP5 PUSH2 0x8EE JUMP JUMPDEST PUSH1 0x1 PUSH1 0x1 PUSH1 0xA0 SHL SUB SWAP1 SWAP3 AND SWAP2 AND EQ DUP5 PUSH2 0x24E JUMP JUMPDEST CALLVALUE PUSH2 0xA3 JUMPI PUSH1 0x0 CALLDATASIZE PUSH1 0x3 NOT ADD SLT PUSH2 0xA3 JUMPI DUP1 PUSH32 0x95D1972EBB257253C8ECA5422008068E9EBAE76C58E3BEAFA47373A6A2C529DA PUSH1 0x20 SWAP3 MSTORE RETURN JUMPDEST PUSH1 0x3 NOT DUP2 ADD PUSH2 0x140 DUP2 SLT PUSH2 0xA3 JUMPI PUSH2 0x120 SGT PUSH2 0xA3 JUMPI PUSH1 0x4 SWAP2 PUSH2 0x124 CALLDATALOAD PUSH8 0xFFFFFFFFFFFFFFFF DUP2 GT PUSH2 0xA3 JUMPI DUP3 PUSH1 0x23 DUP3 ADD SLT ISZERO PUSH2 0xA3 JUMPI DUP1 PUSH1 0x4 ADD CALLDATALOAD SWAP3 PUSH8 0xFFFFFFFFFFFFFFFF DUP5 GT PUSH2 0xA3 JUMPI PUSH1 0x24 DUP5 DUP4 ADD ADD GT PUSH2 0xA3 JUMPI PUSH1 0x24 ADD SWAP2 SWAP1 JUMP JUMPDEST CALLDATALOAD SWAP1 PUSH1 0x1 PUSH1 0x1 PUSH1 0xA0 SHL SUB DUP3 AND DUP3 SUB PUSH2 0xA3 JUMPI JUMP JUMPDEST CALLDATALOAD PUSH1 0x1 PUSH1 0x1 PUSH1 0xA0 SHL SUB DUP2 AND DUP2 SUB PUSH2 0xA3 JUMPI SWAP1 JUMP JUMPDEST SWAP1 PUSH1 0x1F DUP1 NOT SWAP2 ADD AND DUP2 ADD SWAP1 DUP2 LT PUSH8 0xFFFFFFFFFFFFFFFF DUP3 GT OR PUSH2 0x54F JUMPI PUSH1 0x40 MSTORE JUMP JUMPDEST SWAP2 SWAP1 DUP3 PUSH2 0x120 SWAP2 SUB SLT PUSH2 0xA3 JUMPI PUSH1 0x40 MLOAD PUSH2 0x120 DUP2 ADD DUP2 DUP2 LT PUSH8 0xFFFFFFFFFFFFFFFF DUP3 GT OR PUSH2 0x54F JUMPI PUSH1 0x40 MSTORE PUSH2 0x100 DUP1 DUP3 SWAP5 PUSH2 0x95E DUP2 PUSH2 0x8DA JUMP JUMPDEST DUP5 MSTORE PUSH2 0x96C PUSH1 0x20 DUP3 ADD PUSH2 0x8DA JUMP JUMPDEST PUSH1 0x20 DUP6 ADD MSTORE PUSH1 0x40 DUP2 ADD CALLDATALOAD PUSH1 0x40 DUP6 ADD MSTORE PUSH1 0x60 DUP2 ADD CALLDATALOAD PUSH1 0x60 DUP6 ADD MSTORE PUSH1 0x80 DUP2 ADD CALLDATALOAD PUSH1 0x80 DUP6 ADD MSTORE PUSH1 0xA0 DUP2 ADD CALLDATALOAD PUSH1 0xA0 DUP6 ADD MSTORE PUSH1 0xC0 DUP2 ADD CALLDATALOAD PUSH1 0xC0 DUP6 ADD MSTORE PUSH1 0xE0 DUP2 ADD CALLDATALOAD PUSH1 0xE0 DUP6 ADD MSTORE ADD CALLDATALOAD SWAP2 ADD MSTORE JUMP JUMPDEST DUP2 DUP2 MUL SWAP3 SWAP2 DUP2 ISZERO SWAP2 DUP5 DIV EQ OR ISZERO PUSH2 0x9C7 JUMPI JUMP JUMPDEST PUSH4 0x4E487B71 PUSH1 0xE0 SHL PUSH1 0x0 MSTORE PUSH1 0x11 PUSH1 0x4 MSTORE PUSH1 0x24 PUSH1 0x0 REVERT JUMPDEST SWAP2 SWAP1 DUP3 ADD DUP1 SWAP3 GT PUSH2 0x9C7 JUMPI JUMP JUMPDEST SWAP1 DUP2 PUSH1 0x20 SWAP2 SUB SLT PUSH2 0xA3 JUMPI MLOAD DUP1 ISZERO ISZERO DUP2 SUB PUSH2 0xA3 JUMPI SWAP1 JUMP JUMPDEST DUP1 PUSH1 0x0 MSTORE PUSH1 0x0 PUSH1 0x20 MSTORE PUSH1 0x40 PUSH1 0x0 KECCAK256 SWAP1 PUSH1 0x1 DUP1 PUSH1 0xA0 SHL SUB DUP3 SLOAD AND ISZERO PUSH2 0xEA5 JUMPI PUSH1 0x9 DUP3 ADD SWAP2 PUSH1 0xFF DUP4 SLOAD AND PUSH1 0x5 DUP2 LT ISZERO PUSH2 0x1E5 JUMPI PUSH2 0xE60 JUMPI PUSH1 0x7 DUP2 ADD SLOAD TIMESTAMP GT PUSH2 0xDDE JUMPI DUP2 PUSH1 0x0 MSTORE PUSH1 0x0 PUSH1 0x20 MSTORE PUSH2 0xA7B PUSH1 0x40 PUSH1 0x0 KECCAK256 DUP4 PUSH1 0x0 MSTORE PUSH1 0x1 PUSH1 0x20 MSTORE PUSH2 0xA75 PUSH1 0x40 PUSH1 0x0 KECCAK256 SLOAD PUSH1 0x3 PUSH1 0x4 DUP5 ADD SLOAD SWAP4 ADD SLOAD SWAP1 PUSH2 0x9B4 JUMP JUMPDEST SWAP1 PUSH2 0x9DD JUMP JUMPDEST TIMESTAMP LT PUSH2 0xDA3 JUMPI PUSH2 0xA8A DUP3 PUSH2 0x1074 JUMP JUMPDEST ISZERO PUSH2 0xD65 JUMPI DUP2 PUSH1 0x0 MSTORE PUSH1 0x1 PUSH1 0x20 MSTORE PUSH1 0x40 PUSH1 0x0 KECCAK256 SLOAD SWAP3 PUSH1 0x1 DUP5 ADD DUP1 SWAP5 GT PUSH2 0x9C7 JUMPI PUSH1 0x2 DUP3 ADD SWAP5 DUP6 SLOAD SWAP5 PUSH1 0x32 DUP7 MUL DUP7 DUP2 DIV PUSH1 0x32 EQ DUP8 ISZERO OR ISZERO PUSH2 0x9C7 JUMPI PUSH2 0x2710 SWAP1 DIV SWAP2 DUP3 DUP8 SUB SWAP7 DUP8 GT PUSH2 0x9C7 JUMPI DUP5 SLOAD PUSH1 0x1 DUP7 ADD DUP1 SLOAD PUSH1 0x40 MLOAD PUSH4 0x23B872DD PUSH1 0xE0 SHL DUP2 MSTORE PUSH1 0x1 PUSH1 0x1 PUSH1 0xA0 SHL SUB SWAP4 DUP5 AND PUSH1 0x4 DUP3 ADD MSTORE SWAP1 DUP4 AND PUSH1 0x24 DUP3 ADD MSTORE PUSH1 0x44 DUP2 ADD SWAP10 SWAP1 SWAP10 MSTORE SWAP8 PUSH32 0x0 SWAP1 SWAP2 AND SWAP1 PUSH1 0x20 DUP2 PUSH1 0x64 DUP2 PUSH1 0x0 DUP7 GAS CALL SWAP1 DUP2 PUSH2 0xD48 JUMPI JUMPDEST POP PUSH2 0xBB5 JUMPI POP POP POP POP POP PUSH1 0x80 PUSH32 0x8D07BB7D7FFC0FDE6EBC3E0E718C1FDBFAC73EB7EA593DA5566FA86A1C3C1A30 SWAP2 PUSH1 0x1 DUP1 PUSH1 0xA0 SHL SUB SWAP1 SLOAD AND SWAP4 PUSH1 0x1 DUP1 PUSH1 0xA0 SHL SUB SWAP1 SLOAD AND SWAP5 SLOAD PUSH1 0x40 MLOAD SWAP1 DUP2 MSTORE PUSH1 0x40 PUSH1 0x20 DUP3 ADD MSTORE PUSH1 0xF PUSH1 0x40 DUP3 ADD MSTORE PUSH15 0x151C985B9CD9995C8819985A5B1959 PUSH1 0x8A SHL PUSH1 0x60 DUP3 ADD MSTORE LOG4 JUMP JUMPDEST DUP6 SLOAD PUSH1 0x40 MLOAD PUSH4 0x23B872DD PUSH1 0xE0 SHL DUP2 MSTORE PUSH1 0x1 PUSH1 0x1 PUSH1 0xA0 SHL SUB SWAP2 DUP3 AND PUSH1 0x4 DUP3 ADD MSTORE SWAP1 DUP4 AND PUSH1 0x24 DUP3 ADD MSTORE PUSH1 0x44 DUP2 ADD DUP6 SWAP1 MSTORE SWAP1 PUSH1 0x20 SWAP1 DUP3 SWAP1 PUSH1 0x64 SWAP1 DUP3 SWAP1 PUSH1 0x0 SWAP1 GAS CALL SWAP1 DUP2 PUSH2 0xD1B JUMPI JUMPDEST POP PUSH2 0xC71 JUMPI POP POP POP POP PUSH1 0x80 PUSH32 0x8D07BB7D7FFC0FDE6EBC3E0E718C1FDBFAC73EB7EA593DA5566FA86A1C3C1A30 SWAP2 PUSH1 0x1 DUP1 PUSH1 0xA0 SHL SUB SWAP1 SLOAD AND SWAP4 PUSH1 0x1 DUP1 PUSH1 0xA0 SHL SUB SWAP1 SLOAD AND SWAP5 SLOAD PUSH1 0x40 MLOAD SWAP1 DUP2 MSTORE PUSH1 0x40 PUSH1 0x20 DUP3 ADD MSTORE PUSH1 0x13 PUSH1 0x40 DUP3 ADD MSTORE PUSH19 0x119959481D1C985B9CD9995C8819985A5B1959 PUSH1 0x6A SHL PUSH1 0x60 DUP3 ADD MSTORE LOG4 JUMP JUMPDEST DUP6 PUSH1 0x0 SWAP9 SWAP6 SWAP8 SWAP5 SWAP9 MSTORE PUSH1 0x1 PUSH1 0x20 MSTORE PUSH1 0x40 PUSH1 0x0 KECCAK256 SWAP2 DUP3 SLOAD SWAP2 PUSH1 0x0 NOT DUP4 EQ PUSH2 0x9C7 JUMPI DUP8 SWAP5 PUSH32 0xDA131DF023BE8B7D63A716139B42D5152CCF8728CFE960A6629BC576D36DD118 SWAP5 PUSH1 0x1 PUSH1 0x80 SWAP6 ADD SWAP1 SSTORE PUSH1 0x1 DUP1 PUSH1 0xA0 SHL SUB DUP11 SLOAD AND SWAP7 PUSH1 0x1 DUP1 PUSH1 0xA0 SHL SUB SWAP1 SLOAD AND SWAP8 SLOAD PUSH1 0x40 MLOAD SWAP4 DUP5 MSTORE PUSH1 0x20 DUP5 ADD MSTORE PUSH1 0x40 DUP4 ADD MSTORE PUSH1 0x1 DUP1 PUSH1 0xA0 SHL SUB AND PUSH1 0x60 DUP3 ADD MSTORE LOG4 PUSH1 0x0 MSTORE PUSH1 0x1 PUSH1 0x20 MSTORE PUSH1 0x5 PUSH1 0x40 PUSH1 0x0 KECCAK256 SLOAD SWAP2 ADD SLOAD GT ISZERO PUSH2 0xD0E JUMPI POP JUMP JUMPDEST DUP1 SLOAD PUSH1 0xFF NOT AND PUSH1 0x4 OR SWAP1 SSTORE JUMP JUMPDEST PUSH2 0xD3C SWAP1 PUSH1 0x20 RETURNDATASIZE PUSH1 0x20 GT PUSH2 0xD41 JUMPI JUMPDEST PUSH2 0xD34 DUP2 DUP4 PUSH2 0x902 JUMP JUMPDEST DUP2 ADD SWAP1 PUSH2 0x9EA JUMP JUMPDEST PUSH2 0xBFA JUMP JUMPDEST POP RETURNDATASIZE PUSH2 0xD2A JUMP JUMPDEST PUSH2 0xD60 SWAP1 PUSH1 0x20 RETURNDATASIZE PUSH1 0x20 GT PUSH2 0xD41 JUMPI PUSH2 0xD34 DUP2 DUP4 PUSH2 0x902 JUMP JUMPDEST PUSH2 0xB41 JUMP JUMPDEST PUSH1 0x40 MLOAD PUSH3 0x461BCD PUSH1 0xE5 SHL DUP2 MSTORE PUSH1 0x20 PUSH1 0x4 DUP3 ADD MSTORE PUSH1 0x16 PUSH1 0x24 DUP3 ADD MSTORE PUSH22 0x10D85B9B9BDD08195E1958DD5D19481C185E5B595B9D PUSH1 0x52 SHL PUSH1 0x44 DUP3 ADD MSTORE PUSH1 0x64 SWAP1 REVERT JUMPDEST PUSH1 0x40 MLOAD PUSH3 0x461BCD PUSH1 0xE5 SHL DUP2 MSTORE PUSH1 0x20 PUSH1 0x4 DUP3 ADD MSTORE PUSH1 0x13 PUSH1 0x24 DUP3 ADD MSTORE PUSH19 0x14185E5B595B9D081B9BDD08191D59481E595D PUSH1 0x6A SHL PUSH1 0x44 DUP3 ADD MSTORE PUSH1 0x64 SWAP1 REVERT JUMPDEST DUP3 SLOAD PUSH1 0xFF NOT AND PUSH1 0x3 OR SWAP1 SWAP3 SSTORE DUP2 SLOAD PUSH1 0x1 DUP4 ADD SLOAD PUSH1 0x2 SWAP1 SWAP4 ADD SLOAD PUSH1 0x40 DUP1 MLOAD SWAP2 DUP3 MSTORE PUSH1 0x20 DUP3 ADD DUP2 SWAP1 MSTORE PUSH1 0x14 SWAP1 DUP3 ADD MSTORE PUSH20 0x14DD589CD8DC9A5C1D1A5BDB88195E1C1A5C9959 PUSH1 0x62 SHL PUSH1 0x60 DUP3 ADD MSTORE PUSH1 0x1 PUSH1 0x1 PUSH1 0xA0 SHL SUB SWAP4 DUP5 AND SWAP5 POP SWAP3 AND SWAP2 PUSH32 0x8D07BB7D7FFC0FDE6EBC3E0E718C1FDBFAC73EB7EA593DA5566FA86A1C3C1A30 SWAP1 PUSH1 0x80 SWAP1 LOG4 JUMP JUMPDEST PUSH1 0x40 MLOAD PUSH3 0x461BCD PUSH1 0xE5 SHL DUP2 MSTORE PUSH1 0x20 PUSH1 0x4 DUP3 ADD MSTORE PUSH1 0x17 PUSH1 0x24 DUP3 ADD MSTORE PUSH32 0x537562736372697074696F6E206E6F7420616374697665000000000000000000 PUSH1 0x44 DUP3 ADD MSTORE PUSH1 0x64 SWAP1 REVERT JUMPDEST PUSH1 0x40 MLOAD PUSH3 0x461BCD PUSH1 0xE5 SHL DUP2 MSTORE PUSH1 0x20 PUSH1 0x4 DUP3 ADD MSTORE PUSH1 0x1B PUSH1 0x24 DUP3 ADD MSTORE PUSH32 0x537562736372697074696F6E20646F6573206E6F742065786973740000000000 PUSH1 0x44 DUP3 ADD MSTORE PUSH1 0x64 SWAP1 REVERT JUMPDEST SWAP1 SWAP3 SWAP2 SWAP3 PUSH2 0xEFB PUSH2 0x2BB CALLDATASIZE DUP5 PUSH2 0x924 JUMP JUMPDEST PUSH1 0x40 MLOAD PUSH1 0x20 DUP2 ADD SWAP2 PUSH2 0x1901 PUSH1 0xF0 SHL DUP4 MSTORE PUSH32 0x0 PUSH1 0x22 DUP4 ADD MSTORE PUSH1 0x42 DUP3 ADD MSTORE PUSH1 0x42 DUP2 MSTORE PUSH2 0xF45 PUSH1 0x62 DUP3 PUSH2 0x902 JUMP JUMPDEST MLOAD SWAP1 KECCAK256 PUSH8 0xFFFFFFFFFFFFFFFF DUP6 GT PUSH2 0x54F JUMPI PUSH1 0x40 MLOAD SWAP1 PUSH2 0xF6F PUSH1 0x1F DUP8 ADD PUSH1 0x1F NOT AND PUSH1 0x20 ADD DUP4 PUSH2 0x902 JUMP JUMPDEST DUP6 DUP3 MSTORE CALLDATASIZE DUP7 DUP5 ADD GT PUSH2 0xA3 JUMPI PUSH1 0x0 PUSH1 0x20 DUP8 PUSH2 0xF9E SWAP9 PUSH2 0xF95 SWAP7 DUP4 DUP8 ADD CALLDATACOPY DUP5 ADD ADD MSTORE PUSH2 0x11EA JUMP JUMPDEST SWAP1 SWAP5 SWAP2 SWAP5 PUSH2 0x1226 JUMP JUMPDEST PUSH1 0x1 PUSH1 0x1 PUSH1 0xA0 SHL SUB SWAP1 PUSH2 0xFB0 SWAP1 PUSH2 0x8EE JUMP JUMPDEST AND PUSH1 0x1 PUSH1 0x1 PUSH1 0xA0 SHL SUB DUP4 AND EQ SWAP2 SWAP1 JUMP JUMPDEST PUSH1 0x1 DUP1 PUSH1 0xA0 SHL SUB DUP2 MLOAD AND SWAP1 PUSH1 0x1 DUP1 PUSH1 0xA0 SHL SUB PUSH1 0x20 DUP3 ADD MLOAD AND SWAP1 PUSH1 0x40 DUP2 ADD MLOAD SWAP1 PUSH1 0x60 DUP2 ADD MLOAD PUSH1 0x80 DUP3 ADD MLOAD PUSH1 0xA0 DUP4 ADD MLOAD SWAP1 PUSH1 0xC0 DUP5 ADD MLOAD SWAP3 PUSH2 0x100 PUSH1 0xE0 DUP7 ADD MLOAD SWAP6 ADD MLOAD SWAP6 PUSH1 0x40 MLOAD SWAP8 PUSH1 0x20 DUP10 ADD SWAP10 PUSH32 0x95D1972EBB257253C8ECA5422008068E9EBAE76C58E3BEAFA47373A6A2C529DA DUP12 MSTORE PUSH1 0x40 DUP11 ADD MSTORE PUSH1 0x60 DUP10 ADD MSTORE PUSH1 0x80 DUP9 ADD MSTORE PUSH1 0xA0 DUP8 ADD MSTORE PUSH1 0xC0 DUP7 ADD MSTORE PUSH1 0xE0 DUP6 ADD MSTORE PUSH2 0x100 DUP5 ADD MSTORE PUSH2 0x120 DUP4 ADD MSTORE PUSH2 0x140 DUP3 ADD MSTORE PUSH2 0x140 DUP2 MSTORE PUSH2 0x106E PUSH2 0x160 DUP3 PUSH2 0x902 JUMP JUMPDEST MLOAD SWAP1 KECCAK256 SWAP1 JUMP JUMPDEST DUP1 PUSH1 0x0 MSTORE PUSH1 0x0 PUSH1 0x20 MSTORE PUSH1 0x40 PUSH1 0x0 KECCAK256 SWAP1 PUSH1 0x0 MSTORE PUSH1 0x1 PUSH1 0x20 MSTORE PUSH1 0x40 PUSH1 0x0 KECCAK256 SLOAD SWAP1 PUSH1 0x5 DUP2 ADD SLOAD DUP3 LT ISZERO PUSH2 0x11E3 JUMPI PUSH2 0x10B8 PUSH2 0x10B3 SWAP3 PUSH1 0x2 DUP4 ADD SLOAD SWAP4 DUP5 DUP1 SWAP3 PUSH2 0x9B4 JUMP JUMPDEST PUSH2 0x9DD JUMP JUMPDEST PUSH1 0x6 DUP3 ADD SLOAD LT PUSH2 0x11E3 JUMPI SLOAD PUSH1 0x40 MLOAD PUSH4 0x70A08231 PUSH1 0xE0 SHL DUP2 MSTORE PUSH1 0x1 PUSH1 0x1 PUSH1 0xA0 SHL SUB SWAP2 DUP3 AND PUSH1 0x4 DUP3 ADD DUP2 SWAP1 MSTORE SWAP2 PUSH32 0x0 AND SWAP1 PUSH1 0x20 DUP2 PUSH1 0x24 DUP2 DUP6 GAS STATICCALL DUP1 ISZERO PUSH2 0x5DC JUMPI DUP5 SWAP2 PUSH1 0x0 SWAP2 PUSH2 0x11AE JUMPI JUMPDEST POP LT PUSH2 0x11A6 JUMPI PUSH1 0x40 MLOAD PUSH4 0x6EB1769F PUSH1 0xE1 SHL DUP2 MSTORE PUSH1 0x1 PUSH1 0x1 PUSH1 0xA0 SHL SUB SWAP3 SWAP1 SWAP3 AND PUSH1 0x4 DUP4 ADD MSTORE ADDRESS PUSH1 0x24 DUP4 ADD MSTORE PUSH1 0x20 SWAP1 DUP3 SWAP1 PUSH1 0x44 SWAP1 DUP3 SWAP1 GAS STATICCALL SWAP1 DUP2 ISZERO PUSH2 0x5DC JUMPI PUSH1 0x0 SWAP2 PUSH2 0x1174 JUMPI JUMPDEST POP LT PUSH2 0x116F JUMPI PUSH1 0x1 SWAP1 JUMP JUMPDEST PUSH1 0x0 SWAP1 JUMP JUMPDEST SWAP1 POP PUSH1 0x20 DUP2 RETURNDATASIZE PUSH1 0x20 GT PUSH2 0x119E JUMPI JUMPDEST DUP2 PUSH2 0x118F PUSH1 0x20 SWAP4 DUP4 PUSH2 0x902 JUMP JUMPDEST DUP2 ADD SUB SLT PUSH2 0xA3 JUMPI MLOAD CODESIZE PUSH2 0x1164 JUMP JUMPDEST RETURNDATASIZE SWAP2 POP PUSH2 0x1182 JUMP JUMPDEST POP POP POP PUSH1 0x0 SWAP1 JUMP JUMPDEST SWAP2 POP POP PUSH1 0x20 DUP2 RETURNDATASIZE PUSH1 0x20 GT PUSH2 0x11DB JUMPI JUMPDEST DUP2 PUSH2 0x11CA PUSH1 0x20 SWAP4 DUP4 PUSH2 0x902 JUMP JUMPDEST DUP2 ADD SUB SLT PUSH2 0xA3 JUMPI DUP4 SWAP1 MLOAD CODESIZE PUSH2 0x111F JUMP JUMPDEST RETURNDATASIZE SWAP2 POP PUSH2 0x11BD JUMP JUMPDEST POP POP PUSH1 0x0 SWAP1 JUMP JUMPDEST DUP2 MLOAD SWAP2 SWAP1 PUSH1 0x41 DUP4 SUB PUSH2 0x121B JUMPI PUSH2 0x1214 SWAP3 POP PUSH1 0x20 DUP3 ADD MLOAD SWAP1 PUSH1 0x60 PUSH1 0x40 DUP5 ADD MLOAD SWAP4 ADD MLOAD PUSH1 0x0 BYTE SWAP1 PUSH2 0x1298 JUMP JUMPDEST SWAP2 SWAP3 SWAP1 SWAP2 SWAP1 JUMP JUMPDEST POP POP PUSH1 0x0 SWAP2 PUSH1 0x2 SWAP2 SWAP1 JUMP JUMPDEST SWAP2 SWAP1 SWAP2 PUSH1 0x4 DUP2 LT ISZERO PUSH2 0x1E5 JUMPI DUP1 PUSH2 0x123C JUMPI POP SWAP1 POP JUMP JUMPDEST PUSH1 0x0 PUSH1 0x1 DUP3 SUB PUSH2 0x1257 JUMPI PUSH4 0xF645EEDF PUSH1 0xE0 SHL PUSH1 0x0 MSTORE PUSH1 0x4 PUSH1 0x0 REVERT JUMPDEST POP PUSH1 0x2 DUP2 SUB PUSH2 0x1275 JUMPI DUP3 PUSH4 0xFCE698F7 PUSH1 0xE0 SHL PUSH1 0x0 MSTORE PUSH1 0x4 MSTORE PUSH1 0x24 PUSH1 0x0 REVERT JUMPDEST SWAP1 SWAP2 PUSH1 0x3 PUSH1 0x0 SWAP3 EQ PUSH2 0x1285 JUMPI POP POP JUMP JUMPDEST PUSH4 0x35E2F383 PUSH1 0xE2 SHL DUP3 MSTORE PUSH1 0x4 MSTORE PUSH1 0x24 SWAP2 POP REVERT JUMPDEST SWAP2 SWAP1 PUSH32 0x7FFFFFFFFFFFFFFFFFFFFFFFFFFFFFFF5D576E7357A4501DDFE92F46681B20A0 DUP5 GT PUSH2 0x1315 JUMPI SWAP2 PUSH1 0x20 SWAP4 PUSH1 0x80 SWAP3 PUSH1 0xFF PUSH1 0x0 SWAP6 PUSH1 0x40 MLOAD SWAP5 DUP6 MSTORE AND DUP7 DUP5 ADD MSTORE PUSH1 0x40 DUP4 ADD MSTORE PUSH1 0x60 DUP3 ADD MSTORE DUP3 DUP1 MSTORE PUSH1 0x1 GAS STATICCALL ISZERO PUSH2 0x5DC JUMPI PUSH1 0x0 MLOAD PUSH1 0x1 PUSH1 0x1 PUSH1 0xA0 SHL SUB DUP2 AND ISZERO PUSH2 0x1309 JUMPI SWAP1 PUSH1 0x0 SWAP1 PUSH1 0x0 SWAP1 JUMP JUMPDEST POP PUSH1 0x0 SWAP1 PUSH1 0x1 SWAP1 PUSH1 0x0 SWAP1 JUMP JUMPDEST POP POP POP PUSH1 0x0 SWAP2 PUSH1 0x3 SWAP2 SWAP1 JUMP INVALID LOG2 PUSH5 0x6970667358 0x22 SLT KECCAK256 0xE5 PREVRANDAO 0xCF BLOBHASH 0xC7 0xD7 MUL SWAP14 0x22 NUMBER ADDRESS JUMPI 0xAA PUSH30 0xB02848D531412ECD95765A07E5E8AB5668D764736F6C634300081C003300 "},"methodIdentifiers":{"PROTOCOL_FEE_BPS()":"be378228","PYUSD_ADDRESS()":"e2b02576","SUBSCRIPTION_INTENT_TYPEHASH()":"33e5a1d6","createSubscription((address,address,uint256,uint256,uint256,uint256,uint256,uint256,uint256),bytes)":"5ad63a24","executeSubscription(bytes32,address)":"69e1fd9a","executedPayments(bytes32)":"eaef9f2f","subscriptions(bytes32)":"94259c6c","verifyIntent((address,address,uint256,uint256,uint256,uint256,uint256,uint256,uint256),bytes)":"d3a1cbfd"}}}}}