{"contracts/SubscriptionManager.sol":{"SubscriptionManager":{"abi":[{"inputs":[{"internalType":"address[]","name":"supportedTokenAddresses","type":"address[]"},{"internalType":"address","name":"_relayerRegistry","type":"address"}],"stateMutability":"nonpayable","type":"constructor"},{"inputs":[],"name":"ECDSAInvalidSignature","type":"error"},{"inputs":[{"internalType":"uint256","name":"length","type":"uint256"}],"name":"ECDSAInvalidSignatureLength","type":"error"},{"inputs":[{"internalType":"bytes32","name":"s","type":"bytes32"}],"name":"ECDSAInvalidSignatureS","type":"error"},{"inputs":[{"internalType":"address","name":"owner","type":"address"}],"name":"OwnableInvalidOwner","type":"error"},{"inputs":[{"internalType":"address","name":"account","type":"address"}],"name":"OwnableUnauthorizedAccount","type":"error"},{"inputs":[],"name":"ReentrancyGuardReentrantCall","type":"error"},{"anonymous":false,"inputs":[{"indexed":true,"internalType":"address","name":"previousOwner","type":"address"},{"indexed":true,"internalType":"address","name":"newOwner","type":"address"}],"name":"OwnershipTransferred","type":"event"},{"anonymous":false,"inputs":[{"indexed":true,"internalType":"bytes32","name":"subscriptionId","type":"bytes32"},{"indexed":true,"internalType":"address","name":"subscriber","type":"address"},{"indexed":true,"internalType":"address","name":"merchant","type":"address"},{"indexed":false,"internalType":"address","name":"token","type":"address"},{"indexed":false,"internalType":"uint256","name":"paymentNumber","type":"uint256"},{"indexed":false,"internalType":"uint256","name":"amount","type":"uint256"},{"indexed":false,"internalType":"uint256","name":"fee","type":"uint256"},{"indexed":false,"internalType":"address","name":"relayer","type":"address"}],"name":"PaymentExecuted","type":"event"},{"anonymous":false,"inputs":[{"indexed":true,"internalType":"bytes32","name":"subscriptionId","type":"bytes32"},{"indexed":true,"internalType":"address","name":"subscriber","type":"address"},{"indexed":true,"internalType":"address","name":"merchant","type":"address"},{"indexed":false,"internalType":"uint256","name":"amount","type":"uint256"},{"indexed":false,"internalType":"string","name":"reason","type":"string"}],"name":"PaymentFailed","type":"event"},{"anonymous":false,"inputs":[{"indexed":true,"internalType":"bytes32","name":"subscriptionId","type":"bytes32"},{"indexed":true,"internalType":"address","name":"subscriber","type":"address"},{"indexed":true,"internalType":"address","name":"merchant","type":"address"}],"name":"SubscriptionCancelled","type":"event"},{"anonymous":false,"inputs":[{"indexed":true,"internalType":"bytes32","name":"subscriptionId","type":"bytes32"},{"indexed":true,"internalType":"address","name":"subscriber","type":"address"},{"indexed":true,"internalType":"address","name":"merchant","type":"address"},{"indexed":false,"internalType":"address","name":"token","type":"address"},{"indexed":false,"internalType":"uint256","name":"amount","type":"uint256"},{"indexed":false,"internalType":"uint256","name":"interval","type":"uint256"},{"indexed":false,"internalType":"uint256","name":"maxPayments","type":"uint256"},{"indexed":false,"internalType":"uint256","name":"maxTotalAmount","type":"uint256"},{"indexed":false,"internalType":"uint256","name":"expiry","type":"uint256"}],"name":"SubscriptionCreated","type":"event"},{"anonymous":false,"inputs":[{"indexed":true,"internalType":"bytes32","name":"subscriptionId","type":"bytes32"},{"indexed":true,"internalType":"address","name":"subscriber","type":"address"}],"name":"SubscriptionPaused","type":"event"},{"anonymous":false,"inputs":[{"indexed":true,"internalType":"bytes32","name":"subscriptionId","type":"bytes32"},{"indexed":true,"internalType":"address","name":"subscriber","type":"address"}],"name":"SubscriptionResumed","type":"event"},{"anonymous":false,"inputs":[{"indexed":true,"internalType":"address","name":"token","type":"address"}],"name":"TokenAdded","type":"event"},{"anonymous":false,"inputs":[{"indexed":true,"internalType":"address","name":"token","type":"address"}],"name":"TokenRemoved","type":"event"},{"inputs":[],"name":"PAUSE_REQUEST_TYPEHASH","outputs":[{"internalType":"bytes32","name":"","type":"bytes32"}],"stateMutability":"view","type":"function"},{"inputs":[],"name":"PROTOCOL_FEE_BPS","outputs":[{"internalType":"uint256","name":"","type":"uint256"}],"stateMutability":"view","type":"function"},{"inputs":[],"name":"RELAYER_REGISTRY","outputs":[{"internalType":"contract RelayerRegistry","name":"","type":"address"}],"stateMutability":"view","type":"function"},{"inputs":[],"name":"RESUME_REQUEST_TYPEHASH","outputs":[{"internalType":"bytes32","name":"","type":"bytes32"}],"stateMutability":"view","type":"function"},{"inputs":[],"name":"SUBSCRIPTION_INTENT_TYPEHASH","outputs":[{"internalType":"bytes32","name":"","type":"bytes32"}],"stateMutability":"view","type":"function"},{"inputs":[{"internalType":"address","name":"","type":"address"}],"name":"activeSubscriptionCounts","outputs":[{"internalType":"uint256","name":"","type":"uint256"}],"stateMutability":"view","type":"function"},{"inputs":[{"internalType":"address","name":"token","type":"address"}],"name":"addSupportedToken","outputs":[],"stateMutability":"nonpayable","type":"function"},{"inputs":[{"internalType":"bytes32","name":"subscriptionId","type":"bytes32"}],"name":"cancelSubscription","outputs":[],"stateMutability":"nonpayable","type":"function"},{"inputs":[{"components":[{"internalType":"address","name":"subscriber","type":"address"},{"internalType":"address","name":"merchant","type":"address"},{"internalType":"uint256","name":"amount","type":"uint256"},{"internalType":"uint256","name":"interval","type":"uint256"},{"internalType":"uint256","name":"startTime","type":"uint256"},{"internalType":"uint256","name":"maxPayments","type":"uint256"},{"internalType":"uint256","name":"maxTotalAmount","type":"uint256"},{"internalType":"uint256","name":"expiry","type":"uint256"},{"internalType":"uint256","name":"nonce","type":"uint256"},{"internalType":"address","name":"token","type":"address"}],"internalType":"struct SubscriptionManager.SubscriptionIntent","name":"intent","type":"tuple"},{"internalType":"bytes","name":"signature","type":"bytes"}],"name":"createSubscription","outputs":[{"internalType":"bytes32","name":"subscriptionId","type":"bytes32"}],"stateMutability":"nonpayable","type":"function"},{"inputs":[{"internalType":"address","name":"","type":"address"}],"name":"currentNonce","outputs":[{"internalType":"uint256","name":"","type":"uint256"}],"stateMutability":"view","type":"function"},{"inputs":[{"internalType":"bytes32","name":"subscriptionId","type":"bytes32"}],"name":"depositForSubscription","outputs":[],"stateMutability":"payable","type":"function"},{"inputs":[{"internalType":"bytes32","name":"","type":"bytes32"}],"name":"ethDeposits","outputs":[{"internalType":"uint256","name":"","type":"uint256"}],"stateMutability":"view","type":"function"},{"inputs":[{"internalType":"bytes32","name":"subscriptionId","type":"bytes32"},{"internalType":"address","name":"relayer","type":"address"}],"name":"executeSubscription","outputs":[],"stateMutability":"nonpayable","type":"function"},{"inputs":[{"internalType":"bytes32","name":"","type":"bytes32"}],"name":"executedPayments","outputs":[{"internalType":"uint256","name":"","type":"uint256"}],"stateMutability":"view","type":"function"},{"inputs":[{"internalType":"address","name":"_subscriber","type":"address"}],"name":"getNextNonce","outputs":[{"internalType":"uint256","name":"","type":"uint256"}],"stateMutability":"view","type":"function"},{"inputs":[{"internalType":"bytes32","name":"subscriptionId","type":"bytes32"}],"name":"getNextPaymentTime","outputs":[{"internalType":"uint256","name":"","type":"uint256"}],"stateMutability":"view","type":"function"},{"inputs":[{"internalType":"bytes32","name":"subscriptionId","type":"bytes32"}],"name":"getPaymentCount","outputs":[{"internalType":"uint256","name":"","type":"uint256"}],"stateMutability":"view","type":"function"},{"inputs":[{"internalType":"bytes32","name":"subscriptionId","type":"bytes32"}],"name":"getSubscription","outputs":[{"components":[{"internalType":"address","name":"subscriber","type":"address"},{"internalType":"address","name":"merchant","type":"address"},{"internalType":"uint256","name":"amount","type":"uint256"},{"internalType":"uint256","name":"interval","type":"uint256"},{"internalType":"uint256","name":"startTime","type":"uint256"},{"internalType":"uint256","name":"maxPayments","type":"uint256"},{"internalType":"uint256","name":"maxTotalAmount","type":"uint256"},{"internalType":"uint256","name":"expiry","type":"uint256"},{"internalType":"uint256","name":"nonce","type":"uint256"},{"internalType":"address","name":"token","type":"address"},{"internalType":"enum SubscriptionManager.SubscriptionStatus","name":"status","type":"uint8"}],"internalType":"struct SubscriptionManager.Subscription","name":"","type":"tuple"}],"stateMutability":"view","type":"function"},{"inputs":[{"internalType":"bytes32","name":"subscriptionId","type":"bytes32"}],"name":"getSubscriptionToken","outputs":[{"internalType":"address","name":"","type":"address"}],"stateMutability":"view","type":"function"},{"inputs":[],"name":"getSupportedTokens","outputs":[{"internalType":"address[]","name":"","type":"address[]"}],"stateMutability":"view","type":"function"},{"inputs":[{"internalType":"bytes32","name":"subscriptionId","type":"bytes32"}],"name":"isSubscriptionActive","outputs":[{"internalType":"bool","name":"","type":"bool"}],"stateMutability":"view","type":"function"},{"inputs":[],"name":"owner","outputs":[{"internalType":"address","name":"","type":"address"}],"stateMutability":"view","type":"function"},{"inputs":[{"internalType":"bytes32","name":"subscriptionId","type":"bytes32"},{"internalType":"bytes","name":"signature","type":"bytes"}],"name":"pauseSubscription","outputs":[],"stateMutability":"nonpayable","type":"function"},{"inputs":[{"internalType":"address","name":"token","type":"address"}],"name":"removeSupportedToken","outputs":[],"stateMutability":"nonpayable","type":"function"},{"inputs":[],"name":"renounceOwnership","outputs":[],"stateMutability":"nonpayable","type":"function"},{"inputs":[{"internalType":"bytes32","name":"subscriptionId","type":"bytes32"},{"internalType":"bytes","name":"signature","type":"bytes"}],"name":"resumeSubscription","outputs":[],"stateMutability":"nonpayable","type":"function"},{"inputs":[{"internalType":"bytes32","name":"","type":"bytes32"}],"name":"subscriptionToken","outputs":[{"internalType":"address","name":"","type":"address"}],"stateMutability":"view","type":"function"},{"inputs":[{"internalType":"bytes32","name":"","type":"bytes32"}],"name":"subscriptions","outputs":[{"internalType":"address","name":"subscriber","type":"address"},{"internalType":"address","name":"merchant","type":"address"},{"internalType":"uint256","name":"amount","type":"uint256"},{"internalType":"uint256","name":"interval","type":"uint256"},{"internalType":"uint256","name":"startTime","type":"uint256"},{"internalType":"uint256","name":"maxPayments","type":"uint256"},{"internalType":"uint256","name":"maxTotalAmount","type":"uint256"},{"internalType":"uint256","name":"expiry","type":"uint256"},{"internalType":"uint256","name":"nonce","type":"uint256"},{"internalType":"address","name":"token","type":"address"},{"internalType":"enum SubscriptionManager.SubscriptionStatus","name":"status","type":"uint8"}],"stateMutability":"view","type":"function"},{"inputs":[{"internalType":"address","name":"","type":"address"}],"name":"supportedTokens","outputs":[{"internalType":"bool","name":"","type":"bool"}],"stateMutability":"view","type":"function"},{"inputs":[{"internalType":"address","name":"newOwner","type":"address"}],"name":"transferOwnership","outputs":[],"stateMutability":"nonpayable","type":"function"},{"inputs":[{"components":[{"internalType":"address","name":"subscriber","type":"address"},{"internalType":"address","name":"merchant","type":"address"},{"internalType":"uint256","name":"amount","type":"uint256"},{"internalType":"uint256","name":"interval","type":"uint256"},{"internalType":"uint256","name":"startTime","type":"uint256"},{"internalType":"uint256","name":"maxPayments","type":"uint256"},{"internalType":"uint256","name":"maxTotalAmount","type":"uint256"},{"internalType":"uint256","name":"expiry","type":"uint256"},{"internalType":"uint256","name":"nonce","type":"uint256"},{"internalType":"address","name":"token","type":"address"}],"internalType":"struct SubscriptionManager.SubscriptionIntent","name":"intent","type":"tuple"},{"internalType":"bytes","name":"signature","type":"bytes"}],"name":"verifyIntent","outputs":[{"internalType":"bool","name":"valid","type":"bool"},{"internalType":"address","name":"signer","type":"address"}],"stateMutability":"view","type":"function"},{"inputs":[{"internalType":"bytes32","name":"subscriptionId","type":"bytes32"}],"name":"withdrawUnusedETH","outputs":[],"stateMutability":"nonpayable","type":"function"},{"stateMutability":"payable","type":"receive"}],"devdoc":{"errors":{"ECDSAInvalidSignature()":[{"details":"The signature derives the `address(0)`."}],"ECDSAInvalidSignatureLength(uint256)":[{"details":"The signature has an invalid length."}],"ECDSAInvalidSignatureS(bytes32)":[{"details":"The signature has an S value that is in the upper half order."}],"OwnableInvalidOwner(address)":[{"details":"The owner is not a valid owner account. (eg. `address(0)`)"}],"OwnableUnauthorizedAccount(address)":[{"details":"The caller account is not authorized to perform an operation."}],"ReentrancyGuardReentrantCall()":[{"details":"Unauthorized reentrant call."}]},"kind":"dev","methods":{"owner()":{"details":"Returns the address of the current owner."},"renounceOwnership()":{"details":"Leaves the contract without owner. It will not be possible to call `onlyOwner` functions. Can only be called by the current owner. NOTE: Renouncing ownership will leave the contract without an owner, thereby disabling any functionality that is only available to the owner."},"transferOwnership(address)":{"details":"Transfers ownership of the contract to a new account (`newOwner`). Can only be called by the current owner."}},"version":1},"evm":{"bytecode":{"linkReferences":{},"object":"60c0806040523461049057613458803803809161001c8285610495565b83398101906040818303126104905780516001600160401b0381116104905781019180601f84011215610490578251926001600160401b03841161040a578360051b90604051946100706020840187610495565b855260208086019282010192831161049057602001905b828210610478578461009b602086016104b8565b600160005533156104625760018054336001600160a01b0319821681179092556040519291906001600160a01b03167f8be0079c531659141344cd1fd0a4f28419497f9722a3daafe3b4186f6b6457e0600080a36001600160a01b03169081156104205750608052604051610111604082610495565b6005815264417572756d60d81b602090910152604080517facdbaa2d9365d09420a73f7eac1bfd80ef7f0a52431b7ed44c1d8a8f77e56da8916101549082610495565b600181526020810190603160f81b82525190206040519060208201927f8b73c3c69bb8fe3d512ecc4cf759cc79239f7b179b0ffacaa9a75d522b39400f8452604083015260608201524660808201523060a082015260a081526101b860c082610495565b51902060a0526000805260056020526000805160206134388339815191525460ff1661037557600080526005602052600080516020613438833981519152805460ff191660011790556009546801000000000000000081101561040a5760018101806009558110156103f4576000805160206134188339815191520180546001600160a01b03191690556009546000808052600a6020527f13da86008ba1c6922daee3e07db95305ef49ebced9f5467a0b8613fcc6b343e391909155905b80518210156103c557600582901b810160200151600092906001600160a01b031680156103ba57808452600560205260ff60408520541661037557808452600560205260408420805460ff191660011790556009546801000000000000000081101561036157600181018060095581101561034d576000805160206134188339815191520180546001600160a01b03191682179055600954818552600a60205260408520559192600192907f784c8f4dbf0ffedd6e72c76501c545a70f8b203b30a26ce542bf92ba87c248a49080a25b0190610276565b634e487b7160e01b85526032600452602485fd5b634e487b7160e01b85526041600452602485fd5b60405162461bcd60e51b815260206004820152601760248201527f546f6b656e20616c726561647920737570706f727465640000000000000000006044820152606490fd5b506001919250610346565b604051612f4b90816104cd823960805181818161056e015261201c015260a0518181816110cc0152611db90152f35b634e487b7160e01b600052603260045260246000fd5b634e487b7160e01b600052604160045260246000fd5b62461bcd60e51b815260206004820181905260248201527f496e76616c69642072656c6179657220726567697374727920616464726573736044820152606490fd5b631e4fbdf760e01b600052600060045260246000fd5b60208091610485846104b8565b815201910190610087565b600080fd5b601f909101601f19168101906001600160401b0382119082101761040a57604052565b51906001600160a01b03821682036104905756fe6080604052600436101561001b575b361561001957600080fd5b005b60003560e01c80631282a90814611b415780631f32768e146119b057806333e5a1d6146119755780634e504922146117ed5780635adf2d8d146117b25780636437ecfc14610e7357806368c4ac261461177357806369e1fd9a146117345780636c00f051146116225780636d69fcaf146114ca5780636f9569711461023b578063715018a61461146d57806376319190146111d35780637656b44014610de057806377bef003146110035780637b0e3b6214610fc85780637f4a7fd014610ed65780638da5cb5b14610ead57806390193b7c14610e7357806391351c8214610e1457806393db9cc414610de057806394259c6c14610d235780639c9b549d1461059d578063a807db7514610558578063be3782281461053c578063c603ff48146104d3578063d21f1ffc1461036d578063d3c7c2c7146102a1578063d655912014610267578063eaef9f2f1461023b578063ebd9c39c1461020f5763f2fde38b0361000e573461020a57602036600319011261020a57610199611bea565b6101a1612d71565b6001600160a01b031680156101f457600180546001600160a01b0319811683179091556001600160a01b03167f8be0079c531659141344cd1fd0a4f28419497f9722a3daafe3b4186f6b6457e0600080a3005b631e4fbdf760e01b600052600060045260246000fd5b600080fd5b3461020a57602036600319011261020a5760043560005260076020526020604060002054604051908152f35b3461020a57602036600319011261020a5760043560005260036020526020604060002054604051908152f35b3461020a57602036600319011261020a576001600160a01b03610288611bea565b1660005260086020526020604060002054604051908152f35b3461020a57600036600319011261020a576040518060206009549283815201809260096000527f6e1540171b6c0c960b71a7020d9f60077f6af931a8bbf590da0223dacf75c7af9060005b81811061034e5750505081610302910382611c61565b6040519182916020830190602084525180915260408301919060005b81811061032c575050500390f35b82516001600160a01b031684528594506020938401939092019160010161031e565b82546001600160a01b03168452602090930192600192830192016102ec565b3461020a57602036600319011261020a57600435600081815260026020526040902080546001600160a01b03166103a5811515611e1d565b330361048e576009810160ff815460a01c16600581101561047857801590811561046d575b5015610429576103d983612942565b805460ff60a01b1916600160a11b1790558054600191909101546001600160a01b03908116929116907f8065a33ad053d617d51579685a263b0f7c6ec05931dbc0280bfda3a784208959600080a4005b606460405162461bcd60e51b815260206004820152602060248201527f537562736372697074696f6e2063616e6e6f742062652063616e63656c6c65646044820152fd5b6001915014846103ca565b634e487b7160e01b600052602160045260246000fd5b60405162461bcd60e51b815260206004820152601a60248201527f4f6e6c7920737562736372696265722063616e2063616e63656c0000000000006044820152606490fd5b3461020a57602036600319011261020a576020610534600435806000526002835260406000209061050e60018060a01b038354161515611e1d565b6000526003835261052e6040600020546003600484015493015490611f8b565b90611f7e565b604051908152f35b3461020a57600036600319011261020a57602060405160328152f35b3461020a57600036600319011261020a576040517f00000000000000000000000000000000000000000000000000000000000000006001600160a01b03168152602090f35b3461020a576105ab36611b9f565b91610100810135906001600160a01b036105c482611d79565b1660005260046020526040600020548203610cee576101208101936001600160a01b036105f086611d79565b16600052600560205260ff6040600020541615610cb357610621610615828685611d8d565b81610c8c575b506127e6565b60e08201359042821115610c4757608083013594828611610c03576040840135938415610bbf576060810135908115610b6f5760a0810135928315610b1b5760c0820135946106708589611f8b565b8610610ad6576106b6604061068d6106883687611c83565b612857565b93838251948592602084019788528484013781016000838201520301601f198101835282611c61565b5190206000818152600260205260409020549098906001600160a01b0316610a9157899789906001600160a01b036106ed8b611d79565b1661098e575b6106fc84611d79565b908888602087019c61070d8e611d79565b9061071790611d79565b966040519561072587611c44565b600160a01b600190031686526020860191600160a01b600190031682528d6040870190815260608701908b82526080880192835260a08801938d855260c0890195865260e08901968752610100890197885261012089019a600160a01b60019003168b5261014089019960008b526000526002602052604060002098600160a01b6001900390600160a01b60019003905116166001600160601b0360a01b8a5416178955600160a01b600190039051166001890190600160a01b60019003166001600160601b0360a01b82541617905551600288015551600387015551600486015551600585015551600684015551600783015551600882015560090191600160a01b6001900390600160a01b60019003905116166001600160601b0360a01b8354161782555190600582101561047857805460ff60a01b191660a09290921b60ff60a01b16919091179055600061087c8a611d79565b89825260066020526040822080546001600160a01b0319166001600160a01b039283161790556108ab8b611d79565b1681526008602052604081208054906001820180921161097a579361093861093261092c8d9a9660209f987fb76f505b43aee5831d9f29bf6332a7aa4e48e7016819fbd63de7dbace080f0499b9760c09b976040925560018060a01b0361091184611d79565b168152602060049052206109258154611fe6565b9055611d79565b9b611d79565b95611d79565b986040519960018060a01b03168a528c8a015260408901526060880152608087015260a086015260018060a01b03169460018060a01b031693a4604051908152f35b634e487b7160e01b83526011600452602483fd5b98505061099b8488611f8b565b6109ed60206001600160a01b036109b18e611d79565b166109bb86611d79565b604051636eb1769f60e11b81526001600160a01b03909116600482015230602482015292839190829081906044820190565b03915afa908115610a8557600091610a53575b5010610a0e57888a986106f3565b60405162461bcd60e51b815260206004820152601c60248201527f496e73756666696369656e7420746f6b656e20616c6c6f77616e6365000000006044820152606490fd5b90506020813d602011610a7d575b81610a6e60209383611c61565b8101031261020a57518c610a00565b3d9150610a61565b6040513d6000823e3d90fd5b60405162461bcd60e51b815260206004820152601b60248201527f537562736372697074696f6e20616c72656164792065786973747300000000006044820152606490fd5b60405162461bcd60e51b815260206004820152601d60248201527f4d617820746f74616c20616d6f756e7420696e73756666696369656e740000006044820152606490fd5b60405162461bcd60e51b815260206004820152602660248201527f4d6178207061796d656e7473206d7573742062652067726561746572207468616044820152656e207a65726f60d01b6064820152608490fd5b60405162461bcd60e51b815260206004820152602260248201527f496e74657276616c206d7573742062652067726561746572207468616e207a65604482015261726f60f01b6064820152608490fd5b606460405162461bcd60e51b815260206004820152602060248201527f416d6f756e74206d7573742062652067726561746572207468616e207a65726f6044820152fd5b606460405162461bcd60e51b815260206004820152602060248201527f53746172742074696d65206d757374206265206265666f7265206578706972796044820152fd5b60405162461bcd60e51b815260206004820152601b60248201527f537562736372697074696f6e20696e74656e74206578706972656400000000006044820152606490fd5b90506001600160a01b03610c9f85611d79565b6001600160a01b039092169116148761061b565b60405162461bcd60e51b8152602060048201526013602482015272151bdad95b881b9bdd081cdd5c1c1bdc9d1959606a1b6044820152606490fd5b60405162461bcd60e51b815260206004820152600d60248201526c496e76616c6964206e6f6e636560981b6044820152606490fd5b3461020a57602036600319011261020a5760043560005260026020526101606040600020610dde60018060a01b038254169160018060a01b036001820154169060028101546003820154600483015460058401549060068501549260078601549460096008880154970154976040519a8b5260208b015260408a01526060890152608088015260a087015260c086015260e085015261010084015260018060a01b03811661012084015260ff61014084019160a01c16611bdd565bf35b3461020a57602036600319011261020a576004356000526006602052602060018060a01b0360406000205416604051908152f35b3461020a57602036600319011261020a57600435600090815260026020526040902080546001600160a01b0316151580610e56575b6020906040519015158152f35b506009015460a01c60ff1660058110156104785760209015610e49565b3461020a57602036600319011261020a576001600160a01b03610e94611bea565b1660005260046020526020604060002054604051908152f35b3461020a57600036600319011261020a576001546040516001600160a01b039091168152602090f35b602036600319011261020a57600435610eed612920565b80600052600260205260ff60096040600020610f4060018060a01b03825416610f17811515611e1d565b600086815260066020526040902054610f39906001600160a01b031615611e69565b3314611eac565b015460a01c1660058110156104785780610f639115908115610fbd575b50611f32565b3415610f8a5760005260076020526040600020610f81348254611f7e565b90556001600055005b60405162461bcd60e51b815260206004820152600b60248201526a139bc8115512081cd95b9d60aa1b6044820152606490fd5b600191501483610f5d565b3461020a57600036600319011261020a5760206040517fd806147178df513a750f9faa80312ba59509af708425df523403bf058ce4b2448152f35b3461020a5761101136611c14565b9082600052600260205260406000209160018060a01b0383541690611037821515611e1d565b600984019260ff845460a01c1660058110156104785760010361118e576111296111206111389361111a869485600052600460205260406000205460405160208101917fd806147178df513a750f9faa80312ba59509af708425df523403bf058ce4b24483528d60408301526060820152606081526110b7608082611c61565b51902060405161190160f01b602082019081527f00000000000000000000000000000000000000000000000000000000000000006022830152604282019290925261110f81606281015b03601f198101835282611c61565b519020923691611d42565b90612d9a565b90929192612dd6565b6001600160a01b0316146127e6565b6000526004602052604060002061114f8154611fe6565b9055805460ff60a01b19169055546001600160a01b0316907faa36c7b46a257244f7f4be84a7163f464e536b2f812d6c308ef7856c58ba925d600080a3005b60405162461bcd60e51b815260206004820152601760248201527f537562736372697074696f6e206e6f74207061757365640000000000000000006044820152606490fd5b3461020a57602036600319011261020a576111ec611bea565b6111f4612d71565b6001600160a01b031680156114285780600052600560205260ff60406000205416156113ed578060005260086020526040600020546113a857806000526005602052604060002060ff19815416905580600052600a602052604060002054801561136d576009548082036112de575b505060095480156112c8576000190161127b81612826565b81549060018060a01b039060031b1b1916905560095580600052600a602052600060408120557f4c910b69fe65a61f7531b9c5042b2329ca7179c77290aa7e2eb3afa3c8511fd3600080a2005b634e487b7160e01b600052603160045260246000fd5b6000198101908111611357576112f390612826565b905460039190911b1c6001600160a01b03166000198201828111611357578161131e61134292612826565b81546001600160a01b0393841660039290921b91821b9390911b1916919091179055565b600052600a6020526040600020558180611263565b634e487b7160e01b600052601160045260246000fd5b60405162461bcd60e51b8152602060048201526013602482015272746f6b656e20696e646578206d697373696e6760681b6044820152606490fd5b60405162461bcd60e51b815260206004820152601c60248201527f41637469766520737562736372697074696f6e732070726573656e74000000006044820152606490fd5b60405162461bcd60e51b81526020600482015260136024820152721d1bdad95b881b9bdd081cdd5c1c1bdc9d1959606a1b6044820152606490fd5b60405162461bcd60e51b815260206004820152601960248201527f63616e6e6f742072656d6f76652065746820737570706f7274000000000000006044820152606490fd5b3461020a57600036600319011261020a57611486612d71565b600180546001600160a01b031981169091556000906001600160a01b03167f8be0079c531659141344cd1fd0a4f28419497f9722a3daafe3b4186f6b6457e08280a3005b3461020a57602036600319011261020a576114e3611bea565b6114eb612d71565b6001600160a01b0381169081156115e75781600052600560205260ff604060002054166115a2578160005260056020526040600020600160ff19825416179055600954906801000000000000000082101561158c5761131e8260016115539401600955612826565b60095481600052600a6020526040600020557f784c8f4dbf0ffedd6e72c76501c545a70f8b203b30a26ce542bf92ba87c248a4600080a2005b634e487b7160e01b600052604160045260246000fd5b60405162461bcd60e51b815260206004820152601760248201527f546f6b656e20616c726561647920737570706f727465640000000000000000006044820152606490fd5b60405162461bcd60e51b8152602060048201526013602482015272195d1a08185b1c9958591e48195b98589b1959606a1b6044820152606490fd5b3461020a5761163036611c14565b82600052600260205260406000209160018060a01b0383541690611655821515611e1d565b600984019260ff845460a01c16600581101561047857611120849261111a6116d8956116846111299515611f32565b85600052600460205260406000205460405160208101917fb4d196c0bbe67585f3497477b08a7dedca34f0794cef101cf570c3e415f6d93983528d60408301526060820152606081526110b7608082611c61565b600052600460205260406000206116ef8154611fe6565b9055805460ff60a01b1916600160a01b179055546001600160a01b0316907fded8d4d23682b33f0e79da6698526d10c5f7ec65705c1903e9ac7f78b5e3a51b600080a3005b3461020a57604036600319011261020a576024356001600160a01b038116810361020a5761176c90611764612920565b600435611ff5565b6001600055005b3461020a57602036600319011261020a576001600160a01b03611794611bea565b166000526005602052602060ff604060002054166040519015158152f35b3461020a57600036600319011261020a5760206040517fb4d196c0bbe67585f3497477b08a7dedca34f0794cef101cf570c3e415f6d9398152f35b3461020a57602036600319011261020a57600435611809612920565b80600052600260205260ff6009604060002061183360018060a01b03825416610f17811515611e1d565b015460a01c16600581101590816104785760028114918215611967575b8215611956575b505015611911578060005260076020526040600020549081156118d7576000808093819382526007602052816040812055335af1611893611eea565b50156118a0576001600055005b60405162461bcd60e51b815260206004820152600f60248201526e15da5d1a191c985dc819985a5b1959608a1b6044820152606490fd5b60405162461bcd60e51b81526020600482015260126024820152714e6f2045544820746f20776974686472617760701b6044820152606490fd5b60405162461bcd60e51b815260206004820152601960248201527f537562736372697074696f6e207374696c6c20616374697665000000000000006044820152606490fd5b909150610478576004148280611857565b506003811491506000611850565b3461020a57600036600319011261020a5760206040517f316f763395dccfb0903cc163e1283e12acbf4ec58e2882ed12c2f13bac9864618152f35b3461020a57602036600319011261020a5760006101406040516119d281611c44565b8281528260208201528260408201528260608201528260808201528260a08201528260c08201528260e08201528261010082015282610120820152015260043560005260026020526040600020604051611a2b81611c44565b60018060a01b03825416815260018060a01b0360018301541691602082019283526002810154604083019081526003820154916060840192835260048101549060808501918252600581015460a08601908152600682015460c0870190815260078301549160e0880192835260096008850154946101008a0195865201549460ff6101208a019660018060a01b038116885260a01c16976101408a019760058a1015610478576101609b610dde9a8a526040519b60018060a01b039051168c5260018060a01b0390511660208c01525160408b01525160608a01525160808901525160a08801525160c08701525160e08601525161010085015260018060a01b0390511661012084015251610140830190611bdd565b3461020a576040611b5a611b5436611b9f565b91611d8d565b825191151582526001600160a01b03166020820152f35b9181601f8401121561020a5782359167ffffffffffffffff831161020a576020838186019501011161020a57565b906003198201610160811261020a576101401361020a57600491610144359067ffffffffffffffff821161020a57611bd991600401611b71565b9091565b9060058210156104785752565b600435906001600160a01b038216820361020a57565b35906001600160a01b038216820361020a57565b90604060031983011261020a57600435916024359067ffffffffffffffff821161020a57611bd991600401611b71565b610160810190811067ffffffffffffffff82111761158c57604052565b90601f8019910116810190811067ffffffffffffffff82111761158c57604052565b91908261014091031261020a57604051610140810181811067ffffffffffffffff82111761158c57604052610120611d21818395611cc081611c00565b8552611cce60208201611c00565b602086015260408101356040860152606081013560608601526080810135608086015260a081013560a086015260c081013560c086015260e081013560e086015261010081013561010086015201611c00565b910152565b67ffffffffffffffff811161158c57601f01601f191660200190565b929192611d4e82611d26565b91611d5c6040519384611c61565b82948184528183011161020a578281602093846000960137010152565b356001600160a01b038116810361020a5790565b90611dfb939261111a611df292611da76106883687611c83565b60405161190160f01b602082019081527f00000000000000000000000000000000000000000000000000000000000000006022830152604282019290925261110f8160628101611101565b90949194612dd6565b6001600160a01b0390611e0d90611d79565b166001600160a01b038316149190565b15611e2457565b60405162461bcd60e51b815260206004820152601b60248201527f537562736372697074696f6e20646f6573206e6f7420657869737400000000006044820152606490fd5b15611e7057565b60405162461bcd60e51b81526020600482015260146024820152732737ba1022aa241039bab139b1b934b83a34b7b760611b6044820152606490fd5b15611eb357565b60405162461bcd60e51b815260206004820152600f60248201526e27b7363c9039bab139b1b934b132b960891b6044820152606490fd5b3d15611f15573d90611efb82611d26565b91611f096040519384611c61565b82523d6000602084013e565b606090565b9081602091031261020a5751801515810361020a5790565b15611f3957565b60405162461bcd60e51b815260206004820152601760248201527f537562736372697074696f6e206e6f74206163746976650000000000000000006044820152606490fd5b9190820180921161135757565b8181029291811591840414171561135757565b9190820391821161135757565b60405190611fba604083611c61565b601882527f4d65726368616e74207472616e73666572206661696c656400000000000000006020830152565b60001981146113575760010190565b90336001600160a01b03909116036127ae576040516385c99e2b60e01b81523360048201527f00000000000000000000000000000000000000000000000000000000000000006001600160a01b031691600091602081602481875afa9081156127a3578391612774575b5015612736578082526002602052604082208054612087906001600160a01b03161515611e1d565b600981019360ff855460a01c166005811015612722576120a79015611f32565b828452600660209081526040808620546001600160a01b0316808752600590925285205460ff16156126dd57600783015442116125fc57838552600260205261210d60408620858752600360205261052e60408820546003600484015493015490611f8b565b42106125c15783855260036020526040852054600181018091116125ad576002840190815492603284028481046032148515171561259957612710900493612155828961298d565b156124db5750612166848454611f9e565b8890896060918785156000146124cb57508a825260076020526040822054875411156124235750505060405161219d604082611c61565b601881527f496e73756666696369656e7420455448206465706f73697400000000000000006020820152905b156122e657507f8edd31b1042c3b68388248a57905bb81bd5b2abd7334d9e2cee14b88a479a23d60a08892838b52600360205260408b2061220a8154611fe6565b9055600180831b0389541694600180841b0360018b01541696549060405192835260208301526040820152866060820152336080820152a4813b156122e25784916064839260405194859384926344a7c63960e11b84523360048501526001602485015260448401525af180156122d7579084916122be575b5082905260036020526005604084205491015411156122a157505050565b6122aa90612942565b50805460ff60a01b1916600160a21b179055565b816122c891611c61565b6122d3578238612283565b8280fd5b6040513d86823e3d90fd5b8480fd5b9350505093919495508051156123e5575b60018060a01b03835416926001808060a01b039101541693549060405191825260406020830152805190816040840152875b8281106123cf575050906060818389837f8d07bb7d7ffc0fde6ebc3e0e718c1fdbfac73eb7ea593da5566fa86a1c3c1a309684010152601f80199101168101030190a4803b156123cb578180916064604051809481936344a7c63960e11b83523360048401528160248401528160448401525af180156123c0576123ab575050565b6123b6828092611c61565b6123bd5750565b80fd5b6040513d84823e3d90fd5b5080fd5b8060208092840101516060828701015201612329565b506040516123f4604082611c61565b601881527f5061796d656e7420657865637574696f6e206661696c6564000000000000000060208201526122f7565b60018a0154829182918291906001600160a01b03165af1612442611eea565b506124565750612450611fab565b906121c9565b90508880808088335af1612468611eea565b5015612490578354888a52600760205261248760408b20918254611f9e565b905560016121c9565b60405162461bcd60e51b8152602060048201526013602482015272119959481d1c985b9cd9995c8819985a5b1959606a1b6044820152606490fd5b9250905061245092508389612af2565b9694979850505050507f8d07bb7d7ffc0fde6ebc3e0e718c1fdbfac73eb7ea593da5566fa86a1c3c1a30608060018060a01b03845416936001808060a01b03910154169460405190815260406020820152601d60408201527f457865637574696f6e20636f6e73747261696e7473206e6f74206d65740000006060820152a4803b156123cb578180916064604051809481936344a7c63960e11b83523360048401528160248401528160448401525af180156123c0576123ab575050565b634e487b7160e01b89526011600452602489fd5b634e487b7160e01b86526011600452602486fd5b60405162461bcd60e51b815260206004820152601360248201527214185e5b595b9d081b9bdd08191d59481e595d606a1b6044820152606490fd5b50929361260a839293612942565b805460ff60a01b1916600360a01b1790558154600183015460029093015460408051918252602082018190526014908201527314dd589cd8dc9a5c1d1a5bdb88195e1c1a5c995960621b60608201526001600160a01b03938416939190911691907f8d07bb7d7ffc0fde6ebc3e0e718c1fdbfac73eb7ea593da5566fa86a1c3c1a3090608090a4803b156123cb578180916064604051809481936344a7c63960e11b83523360048401528160248401528160448401525af180156123c0576126d0575050565b816126da91611c61565b50565b60405162461bcd60e51b815260206004820152601960248201527f546f6b656e206e6f206c6f6e67657220737570706f72746564000000000000006044820152606490fd5b634e487b7160e01b85526021600452602485fd5b60405162461bcd60e51b815260206004820152601660248201527514995b185e595c881b9bdd08185d5d1a1bdc9a5e995960521b6044820152606490fd5b612796915060203d60201161279c575b61278e8183611c61565b810190611f1a565b3861205f565b503d612784565b6040513d85823e3d90fd5b60405162461bcd60e51b815260206004820152601060248201526f0a4cad8c2f2cae440dad2e6dac2e8c6d60831b6044820152606490fd5b156127ed57565b60405162461bcd60e51b8152602060048201526011602482015270496e76616c6964207369676e617475726560781b6044820152606490fd5b60095481101561284157600960005260206000200190600090565b634e487b7160e01b600052603260045260246000fd5b60018060a01b038151169060018060a01b03602082015116906040810151906060810151608082015160a083015160c08401519160e0850151936101008601519561012060018060a01b0391015116966040519860208a019a7f316f763395dccfb0903cc163e1283e12acbf4ec58e2882ed12c2f13bac9864618c5260408b015260608a0152608089015260a088015260c087015260e0860152610100850152610120840152610140830152610160820152610160815261291a61018082611c61565b51902090565b600260005414612931576002600055565b633ee5aeb560e01b60005260046000fd5b600052600660205260018060a01b036040600020541680600052600860205260406000205461296e5750565b6000526008602052604060002080549060001982019182116113575755565b8060005260026020526040600020906000526003602052604060002054916005820154831015612aad576129d16129cc93600284015494858092611f8b565b611f7e565b600683015410612aad576001600160a01b0316908115612aea57546040516370a0823160e01b81526001600160a01b03909116600482018190529190602081602481855afa8015610a85578491600091612ab5575b5010612aad57604051636eb1769f60e11b81526001600160a01b03929092166004830152306024830152602090829060449082905afa908115610a8557600091612a7b575b5010612a7657600190565b600090565b90506020813d602011612aa5575b81612a9660209383611c61565b8101031261020a575138612a6b565b3d9150612a89565b505050600090565b9150506020813d602011612ae2575b81612ad160209383611c61565b8101031261020a5783905138612a26565b3d9150612ac4565b505050600190565b600281015481546040516370a0823160e01b81526001600160a01b039182166004820181905293969594909116939190602081602481885afa8015610a85578291600091612d3c575b5010612cf857604051636eb1769f60e11b81526001600160a01b0384166004820152306024820152602081604481885afa908115610a8557600091612cc6575b5010612c785760018501546040516323b872dd60e01b60208201526001600160a01b039384166024820152921660448301526064820152612bc990612bc38160848101611101565b82612e48565b15612c675791546040516323b872dd60e01b60208201526001600160a01b039091166024820152336044820152606480820192909252908152612c1691612c11608483611c61565b612e48565b15612c3357600190604051612c2c602082611c61565b6000815290565b600090604051612c44604082611c61565b6013815272119959481d1c985b9cd9995c8819985a5b1959606a1b602082015290565b505050600090612c75611fab565b90565b5050505050600090604051612c8e606082611c61565b602281527f496e73756666696369656e7420616c6c6f77616e636520666f72207061796d656020820152611b9d60f21b604082015290565b90506020813d602011612cf0575b81612ce160209383611c61565b8101031261020a575138612b7b565b3d9150612cd4565b505050505050600090604051612d0f604082611c61565b602081527f496e73756666696369656e742062616c616e636520666f72207061796d656e74602082015290565b9150506020813d602011612d69575b81612d5860209383611c61565b8101031261020a5781905138612b3b565b3d9150612d4b565b6001546001600160a01b03163303612d8557565b63118cdaa760e01b6000523360045260246000fd5b8151919060418303612dcb57612dc492506020820151906060604084015193015160001a90612e8c565b9192909190565b505060009160029190565b91909160048110156104785780612dec57509050565b600060018203612e075763f645eedf60e01b60005260046000fd5b5060028103612e25578263fce698f760e01b60005260045260246000fd5b9091600360009214612e35575050565b6335e2f38360e21b825260045260249150fd5b600091829182602083519301915af1612e5f611eea565b9015612e86578051908115612e7f57602080612c75938301019101611f1a565b5050600190565b50600090565b91907f7fffffffffffffffffffffffffffffff5d576e7357a4501ddfe92f46681b20a08411612f09579160209360809260ff60009560405194855216868401526040830152606082015282805260015afa15610a85576000516001600160a01b03811615612efd5790600090600090565b50600090600190600090565b5050506000916003919056fea2646970667358221220282ed00533d21ab5955f8439b64617497a7e91e1ab1fe67d264628859cb2651a64736f6c634300081c00336e1540171b6c0c960b71a7020d9f60077f6af931a8bbf590da0223dacf75c7af05b8ccbb9d4d8fb16ea74ce3c29a41f1b461fbdaff4714a0d9a8eb05499746bc","opcodes":"PUSH1 0xC0 DUP1 PUSH1 0x40 MSTORE CALLVALUE PUSH2 0x490 JUMPI PUSH2 0x3458 DUP1 CODESIZE SUB DUP1 SWAP2 PUSH2 0x1C DUP3 DUP6 PUSH2 0x495 JUMP JUMPDEST DUP4 CODECOPY DUP2 ADD SWAP1 PUSH1 0x40 DUP2 DUP4 SUB SLT PUSH2 0x490 JUMPI DUP1 MLOAD PUSH1 0x1 PUSH1 0x1 PUSH1 0x40 SHL SUB DUP2 GT PUSH2 0x490 JUMPI DUP2 ADD SWAP2 DUP1 PUSH1 0x1F DUP5 ADD SLT ISZERO PUSH2 0x490 JUMPI DUP3 MLOAD SWAP3 PUSH1 0x1 PUSH1 0x1 PUSH1 0x40 SHL SUB DUP5 GT PUSH2 0x40A JUMPI DUP4 PUSH1 0x5 SHL SWAP1 PUSH1 0x40 MLOAD SWAP5 PUSH2 0x70 PUSH1 0x20 DUP5 ADD DUP8 PUSH2 0x495 JUMP JUMPDEST DUP6 MSTORE PUSH1 0x20 DUP1 DUP7 ADD SWAP3 DUP3 ADD ADD SWAP3 DUP4 GT PUSH2 0x490 JUMPI PUSH1 0x20 ADD SWAP1 JUMPDEST DUP3 DUP3 LT PUSH2 0x478 JUMPI DUP5 PUSH2 0x9B PUSH1 0x20 DUP7 ADD PUSH2 0x4B8 JUMP JUMPDEST PUSH1 0x1 PUSH1 0x0 SSTORE CALLER ISZERO PUSH2 0x462 JUMPI PUSH1 0x1 DUP1 SLOAD CALLER PUSH1 0x1 PUSH1 0x1 PUSH1 0xA0 SHL SUB NOT DUP3 AND DUP2 OR SWAP1 SWAP3 SSTORE PUSH1 0x40 MLOAD SWAP3 SWAP2 SWAP1 PUSH1 0x1 PUSH1 0x1 PUSH1 0xA0 SHL SUB AND PUSH32 0x8BE0079C531659141344CD1FD0A4F28419497F9722A3DAAFE3B4186F6B6457E0 PUSH1 0x0 DUP1 LOG3 PUSH1 0x1 PUSH1 0x1 PUSH1 0xA0 SHL SUB AND SWAP1 DUP2 ISZERO PUSH2 0x420 JUMPI POP PUSH1 0x80 MSTORE PUSH1 0x40 MLOAD PUSH2 0x111 PUSH1 0x40 DUP3 PUSH2 0x495 JUMP JUMPDEST PUSH1 0x5 DUP2 MSTORE PUSH5 0x417572756D PUSH1 0xD8 SHL PUSH1 0x20 SWAP1 SWAP2 ADD MSTORE PUSH1 0x40 DUP1 MLOAD PUSH32 0xACDBAA2D9365D09420A73F7EAC1BFD80EF7F0A52431B7ED44C1D8A8F77E56DA8 SWAP2 PUSH2 0x154 SWAP1 DUP3 PUSH2 0x495 JUMP JUMPDEST PUSH1 0x1 DUP2 MSTORE PUSH1 0x20 DUP2 ADD SWAP1 PUSH1 0x31 PUSH1 0xF8 SHL DUP3 MSTORE MLOAD SWAP1 KECCAK256 PUSH1 0x40 MLOAD SWAP1 PUSH1 0x20 DUP3 ADD SWAP3 PUSH32 0x8B73C3C69BB8FE3D512ECC4CF759CC79239F7B179B0FFACAA9A75D522B39400F DUP5 MSTORE PUSH1 0x40 DUP4 ADD MSTORE PUSH1 0x60 DUP3 ADD MSTORE CHAINID PUSH1 0x80 DUP3 ADD MSTORE ADDRESS PUSH1 0xA0 DUP3 ADD MSTORE PUSH1 0xA0 DUP2 MSTORE PUSH2 0x1B8 PUSH1 0xC0 DUP3 PUSH2 0x495 JUMP JUMPDEST MLOAD SWAP1 KECCAK256 PUSH1 0xA0 MSTORE PUSH1 0x0 DUP1 MSTORE PUSH1 0x5 PUSH1 0x20 MSTORE PUSH1 0x0 DUP1 MLOAD PUSH1 0x20 PUSH2 0x3438 DUP4 CODECOPY DUP2 MLOAD SWAP2 MSTORE SLOAD PUSH1 0xFF AND PUSH2 0x375 JUMPI PUSH1 0x0 DUP1 MSTORE PUSH1 0x5 PUSH1 0x20 MSTORE PUSH1 0x0 DUP1 MLOAD PUSH1 0x20 PUSH2 0x3438 DUP4 CODECOPY DUP2 MLOAD SWAP2 MSTORE DUP1 SLOAD PUSH1 0xFF NOT AND PUSH1 0x1 OR SWAP1 SSTORE PUSH1 0x9 SLOAD PUSH9 0x10000000000000000 DUP2 LT ISZERO PUSH2 0x40A JUMPI PUSH1 0x1 DUP2 ADD DUP1 PUSH1 0x9 SSTORE DUP2 LT ISZERO PUSH2 0x3F4 JUMPI PUSH1 0x0 DUP1 MLOAD PUSH1 0x20 PUSH2 0x3418 DUP4 CODECOPY DUP2 MLOAD SWAP2 MSTORE ADD DUP1 SLOAD PUSH1 0x1 PUSH1 0x1 PUSH1 0xA0 SHL SUB NOT AND SWAP1 SSTORE PUSH1 0x9 SLOAD PUSH1 0x0 DUP1 DUP1 MSTORE PUSH1 0xA PUSH1 0x20 MSTORE PUSH32 0x13DA86008BA1C6922DAEE3E07DB95305EF49EBCED9F5467A0B8613FCC6B343E3 SWAP2 SWAP1 SWAP2 SSTORE SWAP1 JUMPDEST DUP1 MLOAD DUP3 LT ISZERO PUSH2 0x3C5 JUMPI PUSH1 0x5 DUP3 SWAP1 SHL DUP2 ADD PUSH1 0x20 ADD MLOAD PUSH1 0x0 SWAP3 SWAP1 PUSH1 0x1 PUSH1 0x1 PUSH1 0xA0 SHL SUB AND DUP1 ISZERO PUSH2 0x3BA JUMPI DUP1 DUP5 MSTORE PUSH1 0x5 PUSH1 0x20 MSTORE PUSH1 0xFF PUSH1 0x40 DUP6 KECCAK256 SLOAD AND PUSH2 0x375 JUMPI DUP1 DUP5 MSTORE PUSH1 0x5 PUSH1 0x20 MSTORE PUSH1 0x40 DUP5 KECCAK256 DUP1 SLOAD PUSH1 0xFF NOT AND PUSH1 0x1 OR SWAP1 SSTORE PUSH1 0x9 SLOAD PUSH9 0x10000000000000000 DUP2 LT ISZERO PUSH2 0x361 JUMPI PUSH1 0x1 DUP2 ADD DUP1 PUSH1 0x9 SSTORE DUP2 LT ISZERO PUSH2 0x34D JUMPI PUSH1 0x0 DUP1 MLOAD PUSH1 0x20 PUSH2 0x3418 DUP4 CODECOPY DUP2 MLOAD SWAP2 MSTORE ADD DUP1 SLOAD PUSH1 0x1 PUSH1 0x1 PUSH1 0xA0 SHL SUB NOT AND DUP3 OR SWAP1 SSTORE PUSH1 0x9 SLOAD DUP2 DUP6 MSTORE PUSH1 0xA PUSH1 0x20 MSTORE PUSH1 0x40 DUP6 KECCAK256 SSTORE SWAP2 SWAP3 PUSH1 0x1 SWAP3 SWAP1 PUSH32 0x784C8F4DBF0FFEDD6E72C76501C545A70F8B203B30A26CE542BF92BA87C248A4 SWAP1 DUP1 LOG2 JUMPDEST ADD SWAP1 PUSH2 0x276 JUMP JUMPDEST PUSH4 0x4E487B71 PUSH1 0xE0 SHL DUP6 MSTORE PUSH1 0x32 PUSH1 0x4 MSTORE PUSH1 0x24 DUP6 REVERT JUMPDEST PUSH4 0x4E487B71 PUSH1 0xE0 SHL DUP6 MSTORE PUSH1 0x41 PUSH1 0x4 MSTORE PUSH1 0x24 DUP6 REVERT JUMPDEST PUSH1 0x40 MLOAD PUSH3 0x461BCD PUSH1 0xE5 SHL DUP2 MSTORE PUSH1 0x20 PUSH1 0x4 DUP3 ADD MSTORE PUSH1 0x17 PUSH1 0x24 DUP3 ADD MSTORE PUSH32 0x546F6B656E20616C726561647920737570706F72746564000000000000000000 PUSH1 0x44 DUP3 ADD MSTORE PUSH1 0x64 SWAP1 REVERT JUMPDEST POP PUSH1 0x1 SWAP2 SWAP3 POP PUSH2 0x346 JUMP JUMPDEST PUSH1 0x40 MLOAD PUSH2 0x2F4B SWAP1 DUP2 PUSH2 0x4CD DUP3 CODECOPY PUSH1 0x80 MLOAD DUP2 DUP2 DUP2 PUSH2 0x56E ADD MSTORE PUSH2 0x201C ADD MSTORE PUSH1 0xA0 MLOAD DUP2 DUP2 DUP2 PUSH2 0x10CC ADD MSTORE PUSH2 0x1DB9 ADD MSTORE RETURN JUMPDEST PUSH4 0x4E487B71 PUSH1 0xE0 SHL PUSH1 0x0 MSTORE PUSH1 0x32 PUSH1 0x4 MSTORE PUSH1 0x24 PUSH1 0x0 REVERT JUMPDEST PUSH4 0x4E487B71 PUSH1 0xE0 SHL PUSH1 0x0 MSTORE PUSH1 0x41 PUSH1 0x4 MSTORE PUSH1 0x24 PUSH1 0x0 REVERT JUMPDEST PUSH3 0x461BCD PUSH1 0xE5 SHL DUP2 MSTORE PUSH1 0x20 PUSH1 0x4 DUP3 ADD DUP2 SWAP1 MSTORE PUSH1 0x24 DUP3 ADD MSTORE PUSH32 0x496E76616C69642072656C617965722072656769737472792061646472657373 PUSH1 0x44 DUP3 ADD MSTORE PUSH1 0x64 SWAP1 REVERT JUMPDEST PUSH4 0x1E4FBDF7 PUSH1 0xE0 SHL PUSH1 0x0 MSTORE PUSH1 0x0 PUSH1 0x4 MSTORE PUSH1 0x24 PUSH1 0x0 REVERT JUMPDEST PUSH1 0x20 DUP1 SWAP2 PUSH2 0x485 DUP5 PUSH2 0x4B8 JUMP JUMPDEST DUP2 MSTORE ADD SWAP2 ADD SWAP1 PUSH2 0x87 JUMP JUMPDEST PUSH1 0x0 DUP1 REVERT JUMPDEST PUSH1 0x1F SWAP1 SWAP2 ADD PUSH1 0x1F NOT AND DUP2 ADD SWAP1 PUSH1 0x1 PUSH1 0x1 PUSH1 0x40 SHL SUB DUP3 GT SWAP1 DUP3 LT OR PUSH2 0x40A JUMPI PUSH1 0x40 MSTORE JUMP JUMPDEST MLOAD SWAP1 PUSH1 0x1 PUSH1 0x1 PUSH1 0xA0 SHL SUB DUP3 AND DUP3 SUB PUSH2 0x490 JUMPI JUMP INVALID PUSH1 0x80 PUSH1 0x40 MSTORE PUSH1 0x4 CALLDATASIZE LT ISZERO PUSH2 0x1B JUMPI JUMPDEST CALLDATASIZE ISZERO PUSH2 0x19 JUMPI PUSH1 0x0 DUP1 REVERT JUMPDEST STOP JUMPDEST PUSH1 0x0 CALLDATALOAD PUSH1 0xE0 SHR DUP1 PUSH4 0x1282A908 EQ PUSH2 0x1B41 JUMPI DUP1 PUSH4 0x1F32768E EQ PUSH2 0x19B0 JUMPI DUP1 PUSH4 0x33E5A1D6 EQ PUSH2 0x1975 JUMPI DUP1 PUSH4 0x4E504922 EQ PUSH2 0x17ED JUMPI DUP1 PUSH4 0x5ADF2D8D EQ PUSH2 0x17B2 JUMPI DUP1 PUSH4 0x6437ECFC EQ PUSH2 0xE73 JUMPI DUP1 PUSH4 0x68C4AC26 EQ PUSH2 0x1773 JUMPI DUP1 PUSH4 0x69E1FD9A EQ PUSH2 0x1734 JUMPI DUP1 PUSH4 0x6C00F051 EQ PUSH2 0x1622 JUMPI DUP1 PUSH4 0x6D69FCAF EQ PUSH2 0x14CA JUMPI DUP1 PUSH4 0x6F956971 EQ PUSH2 0x23B JUMPI DUP1 PUSH4 0x715018A6 EQ PUSH2 0x146D JUMPI DUP1 PUSH4 0x76319190 EQ PUSH2 0x11D3 JUMPI DUP1 PUSH4 0x7656B440 EQ PUSH2 0xDE0 JUMPI DUP1 PUSH4 0x77BEF003 EQ PUSH2 0x1003 JUMPI DUP1 PUSH4 0x7B0E3B62 EQ PUSH2 0xFC8 JUMPI DUP1 PUSH4 0x7F4A7FD0 EQ PUSH2 0xED6 JUMPI DUP1 PUSH4 0x8DA5CB5B EQ PUSH2 0xEAD JUMPI DUP1 PUSH4 0x90193B7C EQ PUSH2 0xE73 JUMPI DUP1 PUSH4 0x91351C82 EQ PUSH2 0xE14 JUMPI DUP1 PUSH4 0x93DB9CC4 EQ PUSH2 0xDE0 JUMPI DUP1 PUSH4 0x94259C6C EQ PUSH2 0xD23 JUMPI DUP1 PUSH4 0x9C9B549D EQ PUSH2 0x59D JUMPI DUP1 PUSH4 0xA807DB75 EQ PUSH2 0x558 JUMPI DUP1 PUSH4 0xBE378228 EQ PUSH2 0x53C JUMPI DUP1 PUSH4 0xC603FF48 EQ PUSH2 0x4D3 JUMPI DUP1 PUSH4 0xD21F1FFC EQ PUSH2 0x36D JUMPI DUP1 PUSH4 0xD3C7C2C7 EQ PUSH2 0x2A1 JUMPI DUP1 PUSH4 0xD6559120 EQ PUSH2 0x267 JUMPI DUP1 PUSH4 0xEAEF9F2F EQ PUSH2 0x23B JUMPI DUP1 PUSH4 0xEBD9C39C EQ PUSH2 0x20F JUMPI PUSH4 0xF2FDE38B SUB PUSH2 0xE JUMPI CALLVALUE PUSH2 0x20A JUMPI PUSH1 0x20 CALLDATASIZE PUSH1 0x3 NOT ADD SLT PUSH2 0x20A JUMPI PUSH2 0x199 PUSH2 0x1BEA JUMP JUMPDEST PUSH2 0x1A1 PUSH2 0x2D71 JUMP JUMPDEST PUSH1 0x1 PUSH1 0x1 PUSH1 0xA0 SHL SUB AND DUP1 ISZERO PUSH2 0x1F4 JUMPI PUSH1 0x1 DUP1 SLOAD PUSH1 0x1 PUSH1 0x1 PUSH1 0xA0 SHL SUB NOT DUP2 AND DUP4 OR SWAP1 SWAP2 SSTORE PUSH1 0x1 PUSH1 0x1 PUSH1 0xA0 SHL SUB AND PUSH32 0x8BE0079C531659141344CD1FD0A4F28419497F9722A3DAAFE3B4186F6B6457E0 PUSH1 0x0 DUP1 LOG3 STOP JUMPDEST PUSH4 0x1E4FBDF7 PUSH1 0xE0 SHL PUSH1 0x0 MSTORE PUSH1 0x0 PUSH1 0x4 MSTORE PUSH1 0x24 PUSH1 0x0 REVERT JUMPDEST PUSH1 0x0 DUP1 REVERT JUMPDEST CALLVALUE PUSH2 0x20A JUMPI PUSH1 0x20 CALLDATASIZE PUSH1 0x3 NOT ADD SLT PUSH2 0x20A JUMPI PUSH1 0x4 CALLDATALOAD PUSH1 0x0 MSTORE PUSH1 0x7 PUSH1 0x20 MSTORE PUSH1 0x20 PUSH1 0x40 PUSH1 0x0 KECCAK256 SLOAD PUSH1 0x40 MLOAD SWAP1 DUP2 MSTORE RETURN JUMPDEST CALLVALUE PUSH2 0x20A JUMPI PUSH1 0x20 CALLDATASIZE PUSH1 0x3 NOT ADD SLT PUSH2 0x20A JUMPI PUSH1 0x4 CALLDATALOAD PUSH1 0x0 MSTORE PUSH1 0x3 PUSH1 0x20 MSTORE PUSH1 0x20 PUSH1 0x40 PUSH1 0x0 KECCAK256 SLOAD PUSH1 0x40 MLOAD SWAP1 DUP2 MSTORE RETURN JUMPDEST CALLVALUE PUSH2 0x20A JUMPI PUSH1 0x20 CALLDATASIZE PUSH1 0x3 NOT ADD SLT PUSH2 0x20A JUMPI PUSH1 0x1 PUSH1 0x1 PUSH1 0xA0 SHL SUB PUSH2 0x288 PUSH2 0x1BEA JUMP JUMPDEST AND PUSH1 0x0 MSTORE PUSH1 0x8 PUSH1 0x20 MSTORE PUSH1 0x20 PUSH1 0x40 PUSH1 0x0 KECCAK256 SLOAD PUSH1 0x40 MLOAD SWAP1 DUP2 MSTORE RETURN JUMPDEST CALLVALUE PUSH2 0x20A JUMPI PUSH1 0x0 CALLDATASIZE PUSH1 0x3 NOT ADD SLT PUSH2 0x20A JUMPI PUSH1 0x40 MLOAD DUP1 PUSH1 0x20 PUSH1 0x9 SLOAD SWAP3 DUP4 DUP2 MSTORE ADD DUP1 SWAP3 PUSH1 0x9 PUSH1 0x0 MSTORE PUSH32 0x6E1540171B6C0C960B71A7020D9F60077F6AF931A8BBF590DA0223DACF75C7AF SWAP1 PUSH1 0x0 JUMPDEST DUP2 DUP2 LT PUSH2 0x34E JUMPI POP POP POP DUP2 PUSH2 0x302 SWAP2 SUB DUP3 PUSH2 0x1C61 JUMP JUMPDEST PUSH1 0x40 MLOAD SWAP2 DUP3 SWAP2 PUSH1 0x20 DUP4 ADD SWAP1 PUSH1 0x20 DUP5 MSTORE MLOAD DUP1 SWAP2 MSTORE PUSH1 0x40 DUP4 ADD SWAP2 SWAP1 PUSH1 0x0 JUMPDEST DUP2 DUP2 LT PUSH2 0x32C JUMPI POP POP POP SUB SWAP1 RETURN JUMPDEST DUP3 MLOAD PUSH1 0x1 PUSH1 0x1 PUSH1 0xA0 SHL SUB AND DUP5 MSTORE DUP6 SWAP5 POP PUSH1 0x20 SWAP4 DUP5 ADD SWAP4 SWAP1 SWAP3 ADD SWAP2 PUSH1 0x1 ADD PUSH2 0x31E JUMP JUMPDEST DUP3 SLOAD PUSH1 0x1 PUSH1 0x1 PUSH1 0xA0 SHL SUB AND DUP5 MSTORE PUSH1 0x20 SWAP1 SWAP4 ADD SWAP3 PUSH1 0x1 SWAP3 DUP4 ADD SWAP3 ADD PUSH2 0x2EC JUMP JUMPDEST CALLVALUE PUSH2 0x20A JUMPI PUSH1 0x20 CALLDATASIZE PUSH1 0x3 NOT ADD SLT PUSH2 0x20A JUMPI PUSH1 0x4 CALLDATALOAD PUSH1 0x0 DUP2 DUP2 MSTORE PUSH1 0x2 PUSH1 0x20 MSTORE PUSH1 0x40 SWAP1 KECCAK256 DUP1 SLOAD PUSH1 0x1 PUSH1 0x1 PUSH1 0xA0 SHL SUB AND PUSH2 0x3A5 DUP2 ISZERO ISZERO PUSH2 0x1E1D JUMP JUMPDEST CALLER SUB PUSH2 0x48E JUMPI PUSH1 0x9 DUP2 ADD PUSH1 0xFF DUP2 SLOAD PUSH1 0xA0 SHR AND PUSH1 0x5 DUP2 LT ISZERO PUSH2 0x478 JUMPI DUP1 ISZERO SWAP1 DUP2 ISZERO PUSH2 0x46D JUMPI JUMPDEST POP ISZERO PUSH2 0x429 JUMPI PUSH2 0x3D9 DUP4 PUSH2 0x2942 JUMP JUMPDEST DUP1 SLOAD PUSH1 0xFF PUSH1 0xA0 SHL NOT AND PUSH1 0x1 PUSH1 0xA1 SHL OR SWAP1 SSTORE DUP1 SLOAD PUSH1 0x1 SWAP2 SWAP1 SWAP2 ADD SLOAD PUSH1 0x1 PUSH1 0x1 PUSH1 0xA0 SHL SUB SWAP1 DUP2 AND SWAP3 SWAP2 AND SWAP1 PUSH32 0x8065A33AD053D617D51579685A263B0F7C6EC05931DBC0280BFDA3A784208959 PUSH1 0x0 DUP1 LOG4 STOP JUMPDEST PUSH1 0x64 PUSH1 0x40 MLOAD PUSH3 0x461BCD PUSH1 0xE5 SHL DUP2 MSTORE PUSH1 0x20 PUSH1 0x4 DUP3 ADD MSTORE PUSH1 0x20 PUSH1 0x24 DUP3 ADD MSTORE PUSH32 0x537562736372697074696F6E2063616E6E6F742062652063616E63656C6C6564 PUSH1 0x44 DUP3 ADD MSTORE REVERT JUMPDEST PUSH1 0x1 SWAP2 POP EQ DUP5 PUSH2 0x3CA JUMP JUMPDEST PUSH4 0x4E487B71 PUSH1 0xE0 SHL PUSH1 0x0 MSTORE PUSH1 0x21 PUSH1 0x4 MSTORE PUSH1 0x24 PUSH1 0x0 REVERT JUMPDEST PUSH1 0x40 MLOAD PUSH3 0x461BCD PUSH1 0xE5 SHL DUP2 MSTORE PUSH1 0x20 PUSH1 0x4 DUP3 ADD MSTORE PUSH1 0x1A PUSH1 0x24 DUP3 ADD MSTORE PUSH32 0x4F6E6C7920737562736372696265722063616E2063616E63656C000000000000 PUSH1 0x44 DUP3 ADD MSTORE PUSH1 0x64 SWAP1 REVERT JUMPDEST CALLVALUE PUSH2 0x20A JUMPI PUSH1 0x20 CALLDATASIZE PUSH1 0x3 NOT ADD SLT PUSH2 0x20A JUMPI PUSH1 0x20 PUSH2 0x534 PUSH1 0x4 CALLDATALOAD DUP1 PUSH1 0x0 MSTORE PUSH1 0x2 DUP4 MSTORE PUSH1 0x40 PUSH1 0x0 KECCAK256 SWAP1 PUSH2 0x50E PUSH1 0x1 DUP1 PUSH1 0xA0 SHL SUB DUP4 SLOAD AND ISZERO ISZERO PUSH2 0x1E1D JUMP JUMPDEST PUSH1 0x0 MSTORE PUSH1 0x3 DUP4 MSTORE PUSH2 0x52E PUSH1 0x40 PUSH1 0x0 KECCAK256 SLOAD PUSH1 0x3 PUSH1 0x4 DUP5 ADD SLOAD SWAP4 ADD SLOAD SWAP1 PUSH2 0x1F8B JUMP JUMPDEST SWAP1 PUSH2 0x1F7E JUMP JUMPDEST PUSH1 0x40 MLOAD SWAP1 DUP2 MSTORE RETURN JUMPDEST CALLVALUE PUSH2 0x20A JUMPI PUSH1 0x0 CALLDATASIZE PUSH1 0x3 NOT ADD SLT PUSH2 0x20A JUMPI PUSH1 0x20 PUSH1 0x40 MLOAD PUSH1 0x32 DUP2 MSTORE RETURN JUMPDEST CALLVALUE PUSH2 0x20A JUMPI PUSH1 0x0 CALLDATASIZE PUSH1 0x3 NOT ADD SLT PUSH2 0x20A JUMPI PUSH1 0x40 MLOAD PUSH32 0x0 PUSH1 0x1 PUSH1 0x1 PUSH1 0xA0 SHL SUB AND DUP2 MSTORE PUSH1 0x20 SWAP1 RETURN JUMPDEST CALLVALUE PUSH2 0x20A JUMPI PUSH2 0x5AB CALLDATASIZE PUSH2 0x1B9F JUMP JUMPDEST SWAP2 PUSH2 0x100 DUP2 ADD CALLDATALOAD SWAP1 PUSH1 0x1 PUSH1 0x1 PUSH1 0xA0 SHL SUB PUSH2 0x5C4 DUP3 PUSH2 0x1D79 JUMP JUMPDEST AND PUSH1 0x0 MSTORE PUSH1 0x4 PUSH1 0x20 MSTORE PUSH1 0x40 PUSH1 0x0 KECCAK256 SLOAD DUP3 SUB PUSH2 0xCEE JUMPI PUSH2 0x120 DUP2 ADD SWAP4 PUSH1 0x1 PUSH1 0x1 PUSH1 0xA0 SHL SUB PUSH2 0x5F0 DUP7 PUSH2 0x1D79 JUMP JUMPDEST AND PUSH1 0x0 MSTORE PUSH1 0x5 PUSH1 0x20 MSTORE PUSH1 0xFF PUSH1 0x40 PUSH1 0x0 KECCAK256 SLOAD AND ISZERO PUSH2 0xCB3 JUMPI PUSH2 0x621 PUSH2 0x615 DUP3 DUP7 DUP6 PUSH2 0x1D8D JUMP JUMPDEST DUP2 PUSH2 0xC8C JUMPI JUMPDEST POP PUSH2 0x27E6 JUMP JUMPDEST PUSH1 0xE0 DUP3 ADD CALLDATALOAD SWAP1 TIMESTAMP DUP3 GT ISZERO PUSH2 0xC47 JUMPI PUSH1 0x80 DUP4 ADD CALLDATALOAD SWAP5 DUP3 DUP7 GT PUSH2 0xC03 JUMPI PUSH1 0x40 DUP5 ADD CALLDATALOAD SWAP4 DUP5 ISZERO PUSH2 0xBBF JUMPI PUSH1 0x60 DUP2 ADD CALLDATALOAD SWAP1 DUP2 ISZERO PUSH2 0xB6F JUMPI PUSH1 0xA0 DUP2 ADD CALLDATALOAD SWAP3 DUP4 ISZERO PUSH2 0xB1B JUMPI PUSH1 0xC0 DUP3 ADD CALLDATALOAD SWAP5 PUSH2 0x670 DUP6 DUP10 PUSH2 0x1F8B JUMP JUMPDEST DUP7 LT PUSH2 0xAD6 JUMPI PUSH2 0x6B6 PUSH1 0x40 PUSH2 0x68D PUSH2 0x688 CALLDATASIZE DUP8 PUSH2 0x1C83 JUMP JUMPDEST PUSH2 0x2857 JUMP JUMPDEST SWAP4 DUP4 DUP3 MLOAD SWAP5 DUP6 SWAP3 PUSH1 0x20 DUP5 ADD SWAP8 DUP9 MSTORE DUP5 DUP5 ADD CALLDATACOPY DUP2 ADD PUSH1 0x0 DUP4 DUP3 ADD MSTORE SUB ADD PUSH1 0x1F NOT DUP2 ADD DUP4 MSTORE DUP3 PUSH2 0x1C61 JUMP JUMPDEST MLOAD SWAP1 KECCAK256 PUSH1 0x0 DUP2 DUP2 MSTORE PUSH1 0x2 PUSH1 0x20 MSTORE PUSH1 0x40 SWAP1 KECCAK256 SLOAD SWAP1 SWAP9 SWAP1 PUSH1 0x1 PUSH1 0x1 PUSH1 0xA0 SHL SUB AND PUSH2 0xA91 JUMPI DUP10 SWAP8 DUP10 SWAP1 PUSH1 0x1 PUSH1 0x1 PUSH1 0xA0 SHL SUB PUSH2 0x6ED DUP12 PUSH2 0x1D79 JUMP JUMPDEST AND PUSH2 0x98E JUMPI JUMPDEST PUSH2 0x6FC DUP5 PUSH2 0x1D79 JUMP JUMPDEST SWAP1 DUP9 DUP9 PUSH1 0x20 DUP8 ADD SWAP13 PUSH2 0x70D DUP15 PUSH2 0x1D79 JUMP JUMPDEST SWAP1 PUSH2 0x717 SWAP1 PUSH2 0x1D79 JUMP JUMPDEST SWAP7 PUSH1 0x40 MLOAD SWAP6 PUSH2 0x725 DUP8 PUSH2 0x1C44 JUMP JUMPDEST PUSH1 0x1 PUSH1 0xA0 SHL PUSH1 0x1 SWAP1 SUB AND DUP7 MSTORE PUSH1 0x20 DUP7 ADD SWAP2 PUSH1 0x1 PUSH1 0xA0 SHL PUSH1 0x1 SWAP1 SUB AND DUP3 MSTORE DUP14 PUSH1 0x40 DUP8 ADD SWAP1 DUP2 MSTORE PUSH1 0x60 DUP8 ADD SWAP1 DUP12 DUP3 MSTORE PUSH1 0x80 DUP9 ADD SWAP3 DUP4 MSTORE PUSH1 0xA0 DUP9 ADD SWAP4 DUP14 DUP6 MSTORE PUSH1 0xC0 DUP10 ADD SWAP6 DUP7 MSTORE PUSH1 0xE0 DUP10 ADD SWAP7 DUP8 MSTORE PUSH2 0x100 DUP10 ADD SWAP8 DUP9 MSTORE PUSH2 0x120 DUP10 ADD SWAP11 PUSH1 0x1 PUSH1 0xA0 SHL PUSH1 0x1 SWAP1 SUB AND DUP12 MSTORE PUSH2 0x140 DUP10 ADD SWAP10 PUSH1 0x0 DUP12 MSTORE PUSH1 0x0 MSTORE PUSH1 0x2 PUSH1 0x20 MSTORE PUSH1 0x40 PUSH1 0x0 KECCAK256 SWAP9 PUSH1 0x1 PUSH1 0xA0 SHL PUSH1 0x1 SWAP1 SUB SWAP1 PUSH1 0x1 PUSH1 0xA0 SHL PUSH1 0x1 SWAP1 SUB SWAP1 MLOAD AND AND PUSH1 0x1 PUSH1 0x1 PUSH1 0x60 SHL SUB PUSH1 0xA0 SHL DUP11 SLOAD AND OR DUP10 SSTORE PUSH1 0x1 PUSH1 0xA0 SHL PUSH1 0x1 SWAP1 SUB SWAP1 MLOAD AND PUSH1 0x1 DUP10 ADD SWAP1 PUSH1 0x1 PUSH1 0xA0 SHL PUSH1 0x1 SWAP1 SUB AND PUSH1 0x1 PUSH1 0x1 PUSH1 0x60 SHL SUB PUSH1 0xA0 SHL DUP3 SLOAD AND OR SWAP1 SSTORE MLOAD PUSH1 0x2 DUP9 ADD SSTORE MLOAD PUSH1 0x3 DUP8 ADD SSTORE MLOAD PUSH1 0x4 DUP7 ADD SSTORE MLOAD PUSH1 0x5 DUP6 ADD SSTORE MLOAD PUSH1 0x6 DUP5 ADD SSTORE MLOAD PUSH1 0x7 DUP4 ADD SSTORE MLOAD PUSH1 0x8 DUP3 ADD SSTORE PUSH1 0x9 ADD SWAP2 PUSH1 0x1 PUSH1 0xA0 SHL PUSH1 0x1 SWAP1 SUB SWAP1 PUSH1 0x1 PUSH1 0xA0 SHL PUSH1 0x1 SWAP1 SUB SWAP1 MLOAD AND AND PUSH1 0x1 PUSH1 0x1 PUSH1 0x60 SHL SUB PUSH1 0xA0 SHL DUP4 SLOAD AND OR DUP3 SSTORE MLOAD SWAP1 PUSH1 0x5 DUP3 LT ISZERO PUSH2 0x478 JUMPI DUP1 SLOAD PUSH1 0xFF PUSH1 0xA0 SHL NOT AND PUSH1 0xA0 SWAP3 SWAP1 SWAP3 SHL PUSH1 0xFF PUSH1 0xA0 SHL AND SWAP2 SWAP1 SWAP2 OR SWAP1 SSTORE PUSH1 0x0 PUSH2 0x87C DUP11 PUSH2 0x1D79 JUMP JUMPDEST DUP10 DUP3 MSTORE PUSH1 0x6 PUSH1 0x20 MSTORE PUSH1 0x40 DUP3 KECCAK256 DUP1 SLOAD PUSH1 0x1 PUSH1 0x1 PUSH1 0xA0 SHL SUB NOT AND PUSH1 0x1 PUSH1 0x1 PUSH1 0xA0 SHL SUB SWAP3 DUP4 AND OR SWAP1 SSTORE PUSH2 0x8AB DUP12 PUSH2 0x1D79 JUMP JUMPDEST AND DUP2 MSTORE PUSH1 0x8 PUSH1 0x20 MSTORE PUSH1 0x40 DUP2 KECCAK256 DUP1 SLOAD SWAP1 PUSH1 0x1 DUP3 ADD DUP1 SWAP3 GT PUSH2 0x97A JUMPI SWAP4 PUSH2 0x938 PUSH2 0x932 PUSH2 0x92C DUP14 SWAP11 SWAP7 PUSH1 0x20 SWAP16 SWAP9 PUSH32 0xB76F505B43AEE5831D9F29BF6332A7AA4E48E7016819FBD63DE7DBACE080F049 SWAP12 SWAP8 PUSH1 0xC0 SWAP12 SWAP8 PUSH1 0x40 SWAP3 SSTORE PUSH1 0x1 DUP1 PUSH1 0xA0 SHL SUB PUSH2 0x911 DUP5 PUSH2 0x1D79 JUMP JUMPDEST AND DUP2 MSTORE PUSH1 0x20 PUSH1 0x4 SWAP1 MSTORE KECCAK256 PUSH2 0x925 DUP2 SLOAD PUSH2 0x1FE6 JUMP JUMPDEST SWAP1 SSTORE PUSH2 0x1D79 JUMP JUMPDEST SWAP12 PUSH2 0x1D79 JUMP JUMPDEST SWAP6 PUSH2 0x1D79 JUMP JUMPDEST SWAP9 PUSH1 0x40 MLOAD SWAP10 PUSH1 0x1 DUP1 PUSH1 0xA0 SHL SUB AND DUP11 MSTORE DUP13 DUP11 ADD MSTORE PUSH1 0x40 DUP10 ADD MSTORE PUSH1 0x60 DUP9 ADD MSTORE PUSH1 0x80 DUP8 ADD MSTORE PUSH1 0xA0 DUP7 ADD MSTORE PUSH1 0x1 DUP1 PUSH1 0xA0 SHL SUB AND SWAP5 PUSH1 0x1 DUP1 PUSH1 0xA0 SHL SUB AND SWAP4 LOG4 PUSH1 0x40 MLOAD SWAP1 DUP2 MSTORE RETURN JUMPDEST PUSH4 0x4E487B71 PUSH1 0xE0 SHL DUP4 MSTORE PUSH1 0x11 PUSH1 0x4 MSTORE PUSH1 0x24 DUP4 REVERT JUMPDEST SWAP9 POP POP PUSH2 0x99B DUP5 DUP9 PUSH2 0x1F8B JUMP JUMPDEST PUSH2 0x9ED PUSH1 0x20 PUSH1 0x1 PUSH1 0x1 PUSH1 0xA0 SHL SUB PUSH2 0x9B1 DUP15 PUSH2 0x1D79 JUMP JUMPDEST AND PUSH2 0x9BB DUP7 PUSH2 0x1D79 JUMP JUMPDEST PUSH1 0x40 MLOAD PUSH4 0x6EB1769F PUSH1 0xE1 SHL DUP2 MSTORE PUSH1 0x1 PUSH1 0x1 PUSH1 0xA0 SHL SUB SWAP1 SWAP2 AND PUSH1 0x4 DUP3 ADD MSTORE ADDRESS PUSH1 0x24 DUP3 ADD MSTORE SWAP3 DUP4 SWAP2 SWAP1 DUP3 SWAP1 DUP2 SWAP1 PUSH1 0x44 DUP3 ADD SWAP1 JUMP JUMPDEST SUB SWAP2 GAS STATICCALL SWAP1 DUP2 ISZERO PUSH2 0xA85 JUMPI PUSH1 0x0 SWAP2 PUSH2 0xA53 JUMPI JUMPDEST POP LT PUSH2 0xA0E JUMPI DUP9 DUP11 SWAP9 PUSH2 0x6F3 JUMP JUMPDEST PUSH1 0x40 MLOAD PUSH3 0x461BCD PUSH1 0xE5 SHL DUP2 MSTORE PUSH1 0x20 PUSH1 0x4 DUP3 ADD MSTORE PUSH1 0x1C PUSH1 0x24 DUP3 ADD MSTORE PUSH32 0x496E73756666696369656E7420746F6B656E20616C6C6F77616E636500000000 PUSH1 0x44 DUP3 ADD MSTORE PUSH1 0x64 SWAP1 REVERT JUMPDEST SWAP1 POP PUSH1 0x20 DUP2 RETURNDATASIZE PUSH1 0x20 GT PUSH2 0xA7D JUMPI JUMPDEST DUP2 PUSH2 0xA6E PUSH1 0x20 SWAP4 DUP4 PUSH2 0x1C61 JUMP JUMPDEST DUP2 ADD SUB SLT PUSH2 0x20A JUMPI MLOAD DUP13 PUSH2 0xA00 JUMP JUMPDEST RETURNDATASIZE SWAP2 POP PUSH2 0xA61 JUMP JUMPDEST PUSH1 0x40 MLOAD RETURNDATASIZE PUSH1 0x0 DUP3 RETURNDATACOPY RETURNDATASIZE SWAP1 REVERT JUMPDEST PUSH1 0x40 MLOAD PUSH3 0x461BCD PUSH1 0xE5 SHL DUP2 MSTORE PUSH1 0x20 PUSH1 0x4 DUP3 ADD MSTORE PUSH1 0x1B PUSH1 0x24 DUP3 ADD MSTORE PUSH32 0x537562736372697074696F6E20616C7265616479206578697374730000000000 PUSH1 0x44 DUP3 ADD MSTORE PUSH1 0x64 SWAP1 REVERT JUMPDEST PUSH1 0x40 MLOAD PUSH3 0x461BCD PUSH1 0xE5 SHL DUP2 MSTORE PUSH1 0x20 PUSH1 0x4 DUP3 ADD MSTORE PUSH1 0x1D PUSH1 0x24 DUP3 ADD MSTORE PUSH32 0x4D617820746F74616C20616D6F756E7420696E73756666696369656E74000000 PUSH1 0x44 DUP3 ADD MSTORE PUSH1 0x64 SWAP1 REVERT JUMPDEST PUSH1 0x40 MLOAD PUSH3 0x461BCD PUSH1 0xE5 SHL DUP2 MSTORE PUSH1 0x20 PUSH1 0x4 DUP3 ADD MSTORE PUSH1 0x26 PUSH1 0x24 DUP3 ADD MSTORE PUSH32 0x4D6178207061796D656E7473206D757374206265206772656174657220746861 PUSH1 0x44 DUP3 ADD MSTORE PUSH6 0x6E207A65726F PUSH1 0xD0 SHL PUSH1 0x64 DUP3 ADD MSTORE PUSH1 0x84 SWAP1 REVERT JUMPDEST PUSH1 0x40 MLOAD PUSH3 0x461BCD PUSH1 0xE5 SHL DUP2 MSTORE PUSH1 0x20 PUSH1 0x4 DUP3 ADD MSTORE PUSH1 0x22 PUSH1 0x24 DUP3 ADD MSTORE PUSH32 0x496E74657276616C206D7573742062652067726561746572207468616E207A65 PUSH1 0x44 DUP3 ADD MSTORE PUSH2 0x726F PUSH1 0xF0 SHL PUSH1 0x64 DUP3 ADD MSTORE PUSH1 0x84 SWAP1 REVERT JUMPDEST PUSH1 0x64 PUSH1 0x40 MLOAD PUSH3 0x461BCD PUSH1 0xE5 SHL DUP2 MSTORE PUSH1 0x20 PUSH1 0x4 DUP3 ADD MSTORE PUSH1 0x20 PUSH1 0x24 DUP3 ADD MSTORE PUSH32 0x416D6F756E74206D7573742062652067726561746572207468616E207A65726F PUSH1 0x44 DUP3 ADD MSTORE REVERT JUMPDEST PUSH1 0x64 PUSH1 0x40 MLOAD PUSH3 0x461BCD PUSH1 0xE5 SHL DUP2 MSTORE PUSH1 0x20 PUSH1 0x4 DUP3 ADD MSTORE PUSH1 0x20 PUSH1 0x24 DUP3 ADD MSTORE PUSH32 0x53746172742074696D65206D757374206265206265666F726520657870697279 PUSH1 0x44 DUP3 ADD MSTORE REVERT JUMPDEST PUSH1 0x40 MLOAD PUSH3 0x461BCD PUSH1 0xE5 SHL DUP2 MSTORE PUSH1 0x20 PUSH1 0x4 DUP3 ADD MSTORE PUSH1 0x1B PUSH1 0x24 DUP3 ADD MSTORE PUSH32 0x537562736372697074696F6E20696E74656E7420657870697265640000000000 PUSH1 0x44 DUP3 ADD MSTORE PUSH1 0x64 SWAP1 REVERT JUMPDEST SWAP1 POP PUSH1 0x1 PUSH1 0x1 PUSH1 0xA0 SHL SUB PUSH2 0xC9F DUP6 PUSH2 0x1D79 JUMP JUMPDEST PUSH1 0x1 PUSH1 0x1 PUSH1 0xA0 SHL SUB SWAP1 SWAP3 AND SWAP2 AND EQ DUP8 PUSH2 0x61B JUMP JUMPDEST PUSH1 0x40 MLOAD PUSH3 0x461BCD PUSH1 0xE5 SHL DUP2 MSTORE PUSH1 0x20 PUSH1 0x4 DUP3 ADD MSTORE PUSH1 0x13 PUSH1 0x24 DUP3 ADD MSTORE PUSH19 0x151BDAD95B881B9BDD081CDD5C1C1BDC9D1959 PUSH1 0x6A SHL PUSH1 0x44 DUP3 ADD MSTORE PUSH1 0x64 SWAP1 REVERT JUMPDEST PUSH1 0x40 MLOAD PUSH3 0x461BCD PUSH1 0xE5 SHL DUP2 MSTORE PUSH1 0x20 PUSH1 0x4 DUP3 ADD MSTORE PUSH1 0xD PUSH1 0x24 DUP3 ADD MSTORE PUSH13 0x496E76616C6964206E6F6E6365 PUSH1 0x98 SHL PUSH1 0x44 DUP3 ADD MSTORE PUSH1 0x64 SWAP1 REVERT JUMPDEST CALLVALUE PUSH2 0x20A JUMPI PUSH1 0x20 CALLDATASIZE PUSH1 0x3 NOT ADD SLT PUSH2 0x20A JUMPI PUSH1 0x4 CALLDATALOAD PUSH1 0x0 MSTORE PUSH1 0x2 PUSH1 0x20 MSTORE PUSH2 0x160 PUSH1 0x40 PUSH1 0x0 KECCAK256 PUSH2 0xDDE PUSH1 0x1 DUP1 PUSH1 0xA0 SHL SUB DUP3 SLOAD AND SWAP2 PUSH1 0x1 DUP1 PUSH1 0xA0 SHL SUB PUSH1 0x1 DUP3 ADD SLOAD AND SWAP1 PUSH1 0x2 DUP2 ADD SLOAD PUSH1 0x3 DUP3 ADD SLOAD PUSH1 0x4 DUP4 ADD SLOAD PUSH1 0x5 DUP5 ADD SLOAD SWAP1 PUSH1 0x6 DUP6 ADD SLOAD SWAP3 PUSH1 0x7 DUP7 ADD SLOAD SWAP5 PUSH1 0x9 PUSH1 0x8 DUP9 ADD SLOAD SWAP8 ADD SLOAD SWAP8 PUSH1 0x40 MLOAD SWAP11 DUP12 MSTORE PUSH1 0x20 DUP12 ADD MSTORE PUSH1 0x40 DUP11 ADD MSTORE PUSH1 0x60 DUP10 ADD MSTORE PUSH1 0x80 DUP9 ADD MSTORE PUSH1 0xA0 DUP8 ADD MSTORE PUSH1 0xC0 DUP7 ADD MSTORE PUSH1 0xE0 DUP6 ADD MSTORE PUSH2 0x100 DUP5 ADD MSTORE PUSH1 0x1 DUP1 PUSH1 0xA0 SHL SUB DUP2 AND PUSH2 0x120 DUP5 ADD MSTORE PUSH1 0xFF PUSH2 0x140 DUP5 ADD SWAP2 PUSH1 0xA0 SHR AND PUSH2 0x1BDD JUMP JUMPDEST RETURN JUMPDEST CALLVALUE PUSH2 0x20A JUMPI PUSH1 0x20 CALLDATASIZE PUSH1 0x3 NOT ADD SLT PUSH2 0x20A JUMPI PUSH1 0x4 CALLDATALOAD PUSH1 0x0 MSTORE PUSH1 0x6 PUSH1 0x20 MSTORE PUSH1 0x20 PUSH1 0x1 DUP1 PUSH1 0xA0 SHL SUB PUSH1 0x40 PUSH1 0x0 KECCAK256 SLOAD AND PUSH1 0x40 MLOAD SWAP1 DUP2 MSTORE RETURN JUMPDEST CALLVALUE PUSH2 0x20A JUMPI PUSH1 0x20 CALLDATASIZE PUSH1 0x3 NOT ADD SLT PUSH2 0x20A JUMPI PUSH1 0x4 CALLDATALOAD PUSH1 0x0 SWAP1 DUP2 MSTORE PUSH1 0x2 PUSH1 0x20 MSTORE PUSH1 0x40 SWAP1 KECCAK256 DUP1 SLOAD PUSH1 0x1 PUSH1 0x1 PUSH1 0xA0 SHL SUB AND ISZERO ISZERO DUP1 PUSH2 0xE56 JUMPI JUMPDEST PUSH1 0x20 SWAP1 PUSH1 0x40 MLOAD SWAP1 ISZERO ISZERO DUP2 MSTORE RETURN JUMPDEST POP PUSH1 0x9 ADD SLOAD PUSH1 0xA0 SHR PUSH1 0xFF AND PUSH1 0x5 DUP2 LT ISZERO PUSH2 0x478 JUMPI PUSH1 0x20 SWAP1 ISZERO PUSH2 0xE49 JUMP JUMPDEST CALLVALUE PUSH2 0x20A JUMPI PUSH1 0x20 CALLDATASIZE PUSH1 0x3 NOT ADD SLT PUSH2 0x20A JUMPI PUSH1 0x1 PUSH1 0x1 PUSH1 0xA0 SHL SUB PUSH2 0xE94 PUSH2 0x1BEA JUMP JUMPDEST AND PUSH1 0x0 MSTORE PUSH1 0x4 PUSH1 0x20 MSTORE PUSH1 0x20 PUSH1 0x40 PUSH1 0x0 KECCAK256 SLOAD PUSH1 0x40 MLOAD SWAP1 DUP2 MSTORE RETURN JUMPDEST CALLVALUE PUSH2 0x20A JUMPI PUSH1 0x0 CALLDATASIZE PUSH1 0x3 NOT ADD SLT PUSH2 0x20A JUMPI PUSH1 0x1 SLOAD PUSH1 0x40 MLOAD PUSH1 0x1 PUSH1 0x1 PUSH1 0xA0 SHL SUB SWAP1 SWAP2 AND DUP2 MSTORE PUSH1 0x20 SWAP1 RETURN JUMPDEST PUSH1 0x20 CALLDATASIZE PUSH1 0x3 NOT ADD SLT PUSH2 0x20A JUMPI PUSH1 0x4 CALLDATALOAD PUSH2 0xEED PUSH2 0x2920 JUMP JUMPDEST DUP1 PUSH1 0x0 MSTORE PUSH1 0x2 PUSH1 0x20 MSTORE PUSH1 0xFF PUSH1 0x9 PUSH1 0x40 PUSH1 0x0 KECCAK256 PUSH2 0xF40 PUSH1 0x1 DUP1 PUSH1 0xA0 SHL SUB DUP3 SLOAD AND PUSH2 0xF17 DUP2 ISZERO ISZERO PUSH2 0x1E1D JUMP JUMPDEST PUSH1 0x0 DUP7 DUP2 MSTORE PUSH1 0x6 PUSH1 0x20 MSTORE PUSH1 0x40 SWAP1 KECCAK256 SLOAD PUSH2 0xF39 SWAP1 PUSH1 0x1 PUSH1 0x1 PUSH1 0xA0 SHL SUB AND ISZERO PUSH2 0x1E69 JUMP JUMPDEST CALLER EQ PUSH2 0x1EAC JUMP JUMPDEST ADD SLOAD PUSH1 0xA0 SHR AND PUSH1 0x5 DUP2 LT ISZERO PUSH2 0x478 JUMPI DUP1 PUSH2 0xF63 SWAP2 ISZERO SWAP1 DUP2 ISZERO PUSH2 0xFBD JUMPI JUMPDEST POP PUSH2 0x1F32 JUMP JUMPDEST CALLVALUE ISZERO PUSH2 0xF8A JUMPI PUSH1 0x0 MSTORE PUSH1 0x7 PUSH1 0x20 MSTORE PUSH1 0x40 PUSH1 0x0 KECCAK256 PUSH2 0xF81 CALLVALUE DUP3 SLOAD PUSH2 0x1F7E JUMP JUMPDEST SWAP1 SSTORE PUSH1 0x1 PUSH1 0x0 SSTORE STOP JUMPDEST PUSH1 0x40 MLOAD PUSH3 0x461BCD PUSH1 0xE5 SHL DUP2 MSTORE PUSH1 0x20 PUSH1 0x4 DUP3 ADD MSTORE PUSH1 0xB PUSH1 0x24 DUP3 ADD MSTORE PUSH11 0x139BC8115512081CD95B9D PUSH1 0xAA SHL PUSH1 0x44 DUP3 ADD MSTORE PUSH1 0x64 SWAP1 REVERT JUMPDEST PUSH1 0x1 SWAP2 POP EQ DUP4 PUSH2 0xF5D JUMP JUMPDEST CALLVALUE PUSH2 0x20A JUMPI PUSH1 0x0 CALLDATASIZE PUSH1 0x3 NOT ADD SLT PUSH2 0x20A JUMPI PUSH1 0x20 PUSH1 0x40 MLOAD PUSH32 0xD806147178DF513A750F9FAA80312BA59509AF708425DF523403BF058CE4B244 DUP2 MSTORE RETURN JUMPDEST CALLVALUE PUSH2 0x20A JUMPI PUSH2 0x1011 CALLDATASIZE PUSH2 0x1C14 JUMP JUMPDEST SWAP1 DUP3 PUSH1 0x0 MSTORE PUSH1 0x2 PUSH1 0x20 MSTORE PUSH1 0x40 PUSH1 0x0 KECCAK256 SWAP2 PUSH1 0x1 DUP1 PUSH1 0xA0 SHL SUB DUP4 SLOAD AND SWAP1 PUSH2 0x1037 DUP3 ISZERO ISZERO PUSH2 0x1E1D JUMP JUMPDEST PUSH1 0x9 DUP5 ADD SWAP3 PUSH1 0xFF DUP5 SLOAD PUSH1 0xA0 SHR AND PUSH1 0x5 DUP2 LT ISZERO PUSH2 0x478 JUMPI PUSH1 0x1 SUB PUSH2 0x118E JUMPI PUSH2 0x1129 PUSH2 0x1120 PUSH2 0x1138 SWAP4 PUSH2 0x111A DUP7 SWAP5 DUP6 PUSH1 0x0 MSTORE PUSH1 0x4 PUSH1 0x20 MSTORE PUSH1 0x40 PUSH1 0x0 KECCAK256 SLOAD PUSH1 0x40 MLOAD PUSH1 0x20 DUP2 ADD SWAP2 PUSH32 0xD806147178DF513A750F9FAA80312BA59509AF708425DF523403BF058CE4B244 DUP4 MSTORE DUP14 PUSH1 0x40 DUP4 ADD MSTORE PUSH1 0x60 DUP3 ADD MSTORE PUSH1 0x60 DUP2 MSTORE PUSH2 0x10B7 PUSH1 0x80 DUP3 PUSH2 0x1C61 JUMP JUMPDEST MLOAD SWAP1 KECCAK256 PUSH1 0x40 MLOAD PUSH2 0x1901 PUSH1 0xF0 SHL PUSH1 0x20 DUP3 ADD SWAP1 DUP2 MSTORE PUSH32 0x0 PUSH1 0x22 DUP4 ADD MSTORE PUSH1 0x42 DUP3 ADD SWAP3 SWAP1 SWAP3 MSTORE PUSH2 0x110F DUP2 PUSH1 0x62 DUP2 ADD JUMPDEST SUB PUSH1 0x1F NOT DUP2 ADD DUP4 MSTORE DUP3 PUSH2 0x1C61 JUMP JUMPDEST MLOAD SWAP1 KECCAK256 SWAP3 CALLDATASIZE SWAP2 PUSH2 0x1D42 JUMP JUMPDEST SWAP1 PUSH2 0x2D9A JUMP JUMPDEST SWAP1 SWAP3 SWAP2 SWAP3 PUSH2 0x2DD6 JUMP JUMPDEST PUSH1 0x1 PUSH1 0x1 PUSH1 0xA0 SHL SUB AND EQ PUSH2 0x27E6 JUMP JUMPDEST PUSH1 0x0 MSTORE PUSH1 0x4 PUSH1 0x20 MSTORE PUSH1 0x40 PUSH1 0x0 KECCAK256 PUSH2 0x114F DUP2 SLOAD PUSH2 0x1FE6 JUMP JUMPDEST SWAP1 SSTORE DUP1 SLOAD PUSH1 0xFF PUSH1 0xA0 SHL NOT AND SWAP1 SSTORE SLOAD PUSH1 0x1 PUSH1 0x1 PUSH1 0xA0 SHL SUB AND SWAP1 PUSH32 0xAA36C7B46A257244F7F4BE84A7163F464E536B2F812D6C308EF7856C58BA925D PUSH1 0x0 DUP1 LOG3 STOP JUMPDEST PUSH1 0x40 MLOAD PUSH3 0x461BCD PUSH1 0xE5 SHL DUP2 MSTORE PUSH1 0x20 PUSH1 0x4 DUP3 ADD MSTORE PUSH1 0x17 PUSH1 0x24 DUP3 ADD MSTORE PUSH32 0x537562736372697074696F6E206E6F7420706175736564000000000000000000 PUSH1 0x44 DUP3 ADD MSTORE PUSH1 0x64 SWAP1 REVERT JUMPDEST CALLVALUE PUSH2 0x20A JUMPI PUSH1 0x20 CALLDATASIZE PUSH1 0x3 NOT ADD SLT PUSH2 0x20A JUMPI PUSH2 0x11EC PUSH2 0x1BEA JUMP JUMPDEST PUSH2 0x11F4 PUSH2 0x2D71 JUMP JUMPDEST PUSH1 0x1 PUSH1 0x1 PUSH1 0xA0 SHL SUB AND DUP1 ISZERO PUSH2 0x1428 JUMPI DUP1 PUSH1 0x0 MSTORE PUSH1 0x5 PUSH1 0x20 MSTORE PUSH1 0xFF PUSH1 0x40 PUSH1 0x0 KECCAK256 SLOAD AND ISZERO PUSH2 0x13ED JUMPI DUP1 PUSH1 0x0 MSTORE PUSH1 0x8 PUSH1 0x20 MSTORE PUSH1 0x40 PUSH1 0x0 KECCAK256 SLOAD PUSH2 0x13A8 JUMPI DUP1 PUSH1 0x0 MSTORE PUSH1 0x5 PUSH1 0x20 MSTORE PUSH1 0x40 PUSH1 0x0 KECCAK256 PUSH1 0xFF NOT DUP2 SLOAD AND SWAP1 SSTORE DUP1 PUSH1 0x0 MSTORE PUSH1 0xA PUSH1 0x20 MSTORE PUSH1 0x40 PUSH1 0x0 KECCAK256 SLOAD DUP1 ISZERO PUSH2 0x136D JUMPI PUSH1 0x9 SLOAD DUP1 DUP3 SUB PUSH2 0x12DE JUMPI JUMPDEST POP POP PUSH1 0x9 SLOAD DUP1 ISZERO PUSH2 0x12C8 JUMPI PUSH1 0x0 NOT ADD PUSH2 0x127B DUP2 PUSH2 0x2826 JUMP JUMPDEST DUP2 SLOAD SWAP1 PUSH1 0x1 DUP1 PUSH1 0xA0 SHL SUB SWAP1 PUSH1 0x3 SHL SHL NOT AND SWAP1 SSTORE PUSH1 0x9 SSTORE DUP1 PUSH1 0x0 MSTORE PUSH1 0xA PUSH1 0x20 MSTORE PUSH1 0x0 PUSH1 0x40 DUP2 KECCAK256 SSTORE PUSH32 0x4C910B69FE65A61F7531B9C5042B2329CA7179C77290AA7E2EB3AFA3C8511FD3 PUSH1 0x0 DUP1 LOG2 STOP JUMPDEST PUSH4 0x4E487B71 PUSH1 0xE0 SHL PUSH1 0x0 MSTORE PUSH1 0x31 PUSH1 0x4 MSTORE PUSH1 0x24 PUSH1 0x0 REVERT JUMPDEST PUSH1 0x0 NOT DUP2 ADD SWAP1 DUP2 GT PUSH2 0x1357 JUMPI PUSH2 0x12F3 SWAP1 PUSH2 0x2826 JUMP JUMPDEST SWAP1 SLOAD PUSH1 0x3 SWAP2 SWAP1 SWAP2 SHL SHR PUSH1 0x1 PUSH1 0x1 PUSH1 0xA0 SHL SUB AND PUSH1 0x0 NOT DUP3 ADD DUP3 DUP2 GT PUSH2 0x1357 JUMPI DUP2 PUSH2 0x131E PUSH2 0x1342 SWAP3 PUSH2 0x2826 JUMP JUMPDEST DUP2 SLOAD PUSH1 0x1 PUSH1 0x1 PUSH1 0xA0 SHL SUB SWAP4 DUP5 AND PUSH1 0x3 SWAP3 SWAP1 SWAP3 SHL SWAP2 DUP3 SHL SWAP4 SWAP1 SWAP2 SHL NOT AND SWAP2 SWAP1 SWAP2 OR SWAP1 SSTORE JUMP JUMPDEST PUSH1 0x0 MSTORE PUSH1 0xA PUSH1 0x20 MSTORE PUSH1 0x40 PUSH1 0x0 KECCAK256 SSTORE DUP2 DUP1 PUSH2 0x1263 JUMP JUMPDEST PUSH4 0x4E487B71 PUSH1 0xE0 SHL PUSH1 0x0 MSTORE PUSH1 0x11 PUSH1 0x4 MSTORE PUSH1 0x24 PUSH1 0x0 REVERT JUMPDEST PUSH1 0x40 MLOAD PUSH3 0x461BCD PUSH1 0xE5 SHL DUP2 MSTORE PUSH1 0x20 PUSH1 0x4 DUP3 ADD MSTORE PUSH1 0x13 PUSH1 0x24 DUP3 ADD MSTORE PUSH19 0x746F6B656E20696E646578206D697373696E67 PUSH1 0x68 SHL PUSH1 0x44 DUP3 ADD MSTORE PUSH1 0x64 SWAP1 REVERT JUMPDEST PUSH1 0x40 MLOAD PUSH3 0x461BCD PUSH1 0xE5 SHL DUP2 MSTORE PUSH1 0x20 PUSH1 0x4 DUP3 ADD MSTORE PUSH1 0x1C PUSH1 0x24 DUP3 ADD MSTORE PUSH32 0x41637469766520737562736372697074696F6E732070726573656E7400000000 PUSH1 0x44 DUP3 ADD MSTORE PUSH1 0x64 SWAP1 REVERT JUMPDEST PUSH1 0x40 MLOAD PUSH3 0x461BCD PUSH1 0xE5 SHL DUP2 MSTORE PUSH1 0x20 PUSH1 0x4 DUP3 ADD MSTORE PUSH1 0x13 PUSH1 0x24 DUP3 ADD MSTORE PUSH19 0x1D1BDAD95B881B9BDD081CDD5C1C1BDC9D1959 PUSH1 0x6A SHL PUSH1 0x44 DUP3 ADD MSTORE PUSH1 0x64 SWAP1 REVERT JUMPDEST PUSH1 0x40 MLOAD PUSH3 0x461BCD PUSH1 0xE5 SHL DUP2 MSTORE PUSH1 0x20 PUSH1 0x4 DUP3 ADD MSTORE PUSH1 0x19 PUSH1 0x24 DUP3 ADD MSTORE PUSH32 0x63616E6E6F742072656D6F76652065746820737570706F727400000000000000 PUSH1 0x44 DUP3 ADD MSTORE PUSH1 0x64 SWAP1 REVERT JUMPDEST CALLVALUE PUSH2 0x20A JUMPI PUSH1 0x0 CALLDATASIZE PUSH1 0x3 NOT ADD SLT PUSH2 0x20A JUMPI PUSH2 0x1486 PUSH2 0x2D71 JUMP JUMPDEST PUSH1 0x1 DUP1 SLOAD PUSH1 0x1 PUSH1 0x1 PUSH1 0xA0 SHL SUB NOT DUP2 AND SWAP1 SWAP2 SSTORE PUSH1 0x0 SWAP1 PUSH1 0x1 PUSH1 0x1 PUSH1 0xA0 SHL SUB AND PUSH32 0x8BE0079C531659141344CD1FD0A4F28419497F9722A3DAAFE3B4186F6B6457E0 DUP3 DUP1 LOG3 STOP JUMPDEST CALLVALUE PUSH2 0x20A JUMPI PUSH1 0x20 CALLDATASIZE PUSH1 0x3 NOT ADD SLT PUSH2 0x20A JUMPI PUSH2 0x14E3 PUSH2 0x1BEA JUMP JUMPDEST PUSH2 0x14EB PUSH2 0x2D71 JUMP JUMPDEST PUSH1 0x1 PUSH1 0x1 PUSH1 0xA0 SHL SUB DUP2 AND SWAP1 DUP2 ISZERO PUSH2 0x15E7 JUMPI DUP2 PUSH1 0x0 MSTORE PUSH1 0x5 PUSH1 0x20 MSTORE PUSH1 0xFF PUSH1 0x40 PUSH1 0x0 KECCAK256 SLOAD AND PUSH2 0x15A2 JUMPI DUP2 PUSH1 0x0 MSTORE PUSH1 0x5 PUSH1 0x20 MSTORE PUSH1 0x40 PUSH1 0x0 KECCAK256 PUSH1 0x1 PUSH1 0xFF NOT DUP3 SLOAD AND OR SWAP1 SSTORE PUSH1 0x9 SLOAD SWAP1 PUSH9 0x10000000000000000 DUP3 LT ISZERO PUSH2 0x158C JUMPI PUSH2 0x131E DUP3 PUSH1 0x1 PUSH2 0x1553 SWAP5 ADD PUSH1 0x9 SSTORE PUSH2 0x2826 JUMP JUMPDEST PUSH1 0x9 SLOAD DUP2 PUSH1 0x0 MSTORE PUSH1 0xA PUSH1 0x20 MSTORE PUSH1 0x40 PUSH1 0x0 KECCAK256 SSTORE PUSH32 0x784C8F4DBF0FFEDD6E72C76501C545A70F8B203B30A26CE542BF92BA87C248A4 PUSH1 0x0 DUP1 LOG2 STOP JUMPDEST PUSH4 0x4E487B71 PUSH1 0xE0 SHL PUSH1 0x0 MSTORE PUSH1 0x41 PUSH1 0x4 MSTORE PUSH1 0x24 PUSH1 0x0 REVERT JUMPDEST PUSH1 0x40 MLOAD PUSH3 0x461BCD PUSH1 0xE5 SHL DUP2 MSTORE PUSH1 0x20 PUSH1 0x4 DUP3 ADD MSTORE PUSH1 0x17 PUSH1 0x24 DUP3 ADD MSTORE PUSH32 0x546F6B656E20616C726561647920737570706F72746564000000000000000000 PUSH1 0x44 DUP3 ADD MSTORE PUSH1 0x64 SWAP1 REVERT JUMPDEST PUSH1 0x40 MLOAD PUSH3 0x461BCD PUSH1 0xE5 SHL DUP2 MSTORE PUSH1 0x20 PUSH1 0x4 DUP3 ADD MSTORE PUSH1 0x13 PUSH1 0x24 DUP3 ADD MSTORE PUSH19 0x195D1A08185B1C9958591E48195B98589B1959 PUSH1 0x6A SHL PUSH1 0x44 DUP3 ADD MSTORE PUSH1 0x64 SWAP1 REVERT JUMPDEST CALLVALUE PUSH2 0x20A JUMPI PUSH2 0x1630 CALLDATASIZE PUSH2 0x1C14 JUMP JUMPDEST DUP3 PUSH1 0x0 MSTORE PUSH1 0x2 PUSH1 0x20 MSTORE PUSH1 0x40 PUSH1 0x0 KECCAK256 SWAP2 PUSH1 0x1 DUP1 PUSH1 0xA0 SHL SUB DUP4 SLOAD AND SWAP1 PUSH2 0x1655 DUP3 ISZERO ISZERO PUSH2 0x1E1D JUMP JUMPDEST PUSH1 0x9 DUP5 ADD SWAP3 PUSH1 0xFF DUP5 SLOAD PUSH1 0xA0 SHR AND PUSH1 0x5 DUP2 LT ISZERO PUSH2 0x478 JUMPI PUSH2 0x1120 DUP5 SWAP3 PUSH2 0x111A PUSH2 0x16D8 SWAP6 PUSH2 0x1684 PUSH2 0x1129 SWAP6 ISZERO PUSH2 0x1F32 JUMP JUMPDEST DUP6 PUSH1 0x0 MSTORE PUSH1 0x4 PUSH1 0x20 MSTORE PUSH1 0x40 PUSH1 0x0 KECCAK256 SLOAD PUSH1 0x40 MLOAD PUSH1 0x20 DUP2 ADD SWAP2 PUSH32 0xB4D196C0BBE67585F3497477B08A7DEDCA34F0794CEF101CF570C3E415F6D939 DUP4 MSTORE DUP14 PUSH1 0x40 DUP4 ADD MSTORE PUSH1 0x60 DUP3 ADD MSTORE PUSH1 0x60 DUP2 MSTORE PUSH2 0x10B7 PUSH1 0x80 DUP3 PUSH2 0x1C61 JUMP JUMPDEST PUSH1 0x0 MSTORE PUSH1 0x4 PUSH1 0x20 MSTORE PUSH1 0x40 PUSH1 0x0 KECCAK256 PUSH2 0x16EF DUP2 SLOAD PUSH2 0x1FE6 JUMP JUMPDEST SWAP1 SSTORE DUP1 SLOAD PUSH1 0xFF PUSH1 0xA0 SHL NOT AND PUSH1 0x1 PUSH1 0xA0 SHL OR SWAP1 SSTORE SLOAD PUSH1 0x1 PUSH1 0x1 PUSH1 0xA0 SHL SUB AND SWAP1 PUSH32 0xDED8D4D23682B33F0E79DA6698526D10C5F7EC65705C1903E9AC7F78B5E3A51B PUSH1 0x0 DUP1 LOG3 STOP JUMPDEST CALLVALUE PUSH2 0x20A JUMPI PUSH1 0x40 CALLDATASIZE PUSH1 0x3 NOT ADD SLT PUSH2 0x20A JUMPI PUSH1 0x24 CALLDATALOAD PUSH1 0x1 PUSH1 0x1 PUSH1 0xA0 SHL SUB DUP2 AND DUP2 SUB PUSH2 0x20A JUMPI PUSH2 0x176C SWAP1 PUSH2 0x1764 PUSH2 0x2920 JUMP JUMPDEST PUSH1 0x4 CALLDATALOAD PUSH2 0x1FF5 JUMP JUMPDEST PUSH1 0x1 PUSH1 0x0 SSTORE STOP JUMPDEST CALLVALUE PUSH2 0x20A JUMPI PUSH1 0x20 CALLDATASIZE PUSH1 0x3 NOT ADD SLT PUSH2 0x20A JUMPI PUSH1 0x1 PUSH1 0x1 PUSH1 0xA0 SHL SUB PUSH2 0x1794 PUSH2 0x1BEA JUMP JUMPDEST AND PUSH1 0x0 MSTORE PUSH1 0x5 PUSH1 0x20 MSTORE PUSH1 0x20 PUSH1 0xFF PUSH1 0x40 PUSH1 0x0 KECCAK256 SLOAD AND PUSH1 0x40 MLOAD SWAP1 ISZERO ISZERO DUP2 MSTORE RETURN JUMPDEST CALLVALUE PUSH2 0x20A JUMPI PUSH1 0x0 CALLDATASIZE PUSH1 0x3 NOT ADD SLT PUSH2 0x20A JUMPI PUSH1 0x20 PUSH1 0x40 MLOAD PUSH32 0xB4D196C0BBE67585F3497477B08A7DEDCA34F0794CEF101CF570C3E415F6D939 DUP2 MSTORE RETURN JUMPDEST CALLVALUE PUSH2 0x20A JUMPI PUSH1 0x20 CALLDATASIZE PUSH1 0x3 NOT ADD SLT PUSH2 0x20A JUMPI PUSH1 0x4 CALLDATALOAD PUSH2 0x1809 PUSH2 0x2920 JUMP JUMPDEST DUP1 PUSH1 0x0 MSTORE PUSH1 0x2 PUSH1 0x20 MSTORE PUSH1 0xFF PUSH1 0x9 PUSH1 0x40 PUSH1 0x0 KECCAK256 PUSH2 0x1833 PUSH1 0x1 DUP1 PUSH1 0xA0 SHL SUB DUP3 SLOAD AND PUSH2 0xF17 DUP2 ISZERO ISZERO PUSH2 0x1E1D JUMP JUMPDEST ADD SLOAD PUSH1 0xA0 SHR AND PUSH1 0x5 DUP2 LT ISZERO SWAP1 DUP2 PUSH2 0x478 JUMPI PUSH1 0x2 DUP2 EQ SWAP2 DUP3 ISZERO PUSH2 0x1967 JUMPI JUMPDEST DUP3 ISZERO PUSH2 0x1956 JUMPI JUMPDEST POP POP ISZERO PUSH2 0x1911 JUMPI DUP1 PUSH1 0x0 MSTORE PUSH1 0x7 PUSH1 0x20 MSTORE PUSH1 0x40 PUSH1 0x0 KECCAK256 SLOAD SWAP1 DUP2 ISZERO PUSH2 0x18D7 JUMPI PUSH1 0x0 DUP1 DUP1 SWAP4 DUP2 SWAP4 DUP3 MSTORE PUSH1 0x7 PUSH1 0x20 MSTORE DUP2 PUSH1 0x40 DUP2 KECCAK256 SSTORE CALLER GAS CALL PUSH2 0x1893 PUSH2 0x1EEA JUMP JUMPDEST POP ISZERO PUSH2 0x18A0 JUMPI PUSH1 0x1 PUSH1 0x0 SSTORE STOP JUMPDEST PUSH1 0x40 MLOAD PUSH3 0x461BCD PUSH1 0xE5 SHL DUP2 MSTORE PUSH1 0x20 PUSH1 0x4 DUP3 ADD MSTORE PUSH1 0xF PUSH1 0x24 DUP3 ADD MSTORE PUSH15 0x15DA5D1A191C985DC819985A5B1959 PUSH1 0x8A SHL PUSH1 0x44 DUP3 ADD MSTORE PUSH1 0x64 SWAP1 REVERT JUMPDEST PUSH1 0x40 MLOAD PUSH3 0x461BCD PUSH1 0xE5 SHL DUP2 MSTORE PUSH1 0x20 PUSH1 0x4 DUP3 ADD MSTORE PUSH1 0x12 PUSH1 0x24 DUP3 ADD MSTORE PUSH18 0x4E6F2045544820746F207769746864726177 PUSH1 0x70 SHL PUSH1 0x44 DUP3 ADD MSTORE PUSH1 0x64 SWAP1 REVERT JUMPDEST PUSH1 0x40 MLOAD PUSH3 0x461BCD PUSH1 0xE5 SHL DUP2 MSTORE PUSH1 0x20 PUSH1 0x4 DUP3 ADD MSTORE PUSH1 0x19 PUSH1 0x24 DUP3 ADD MSTORE PUSH32 0x537562736372697074696F6E207374696C6C2061637469766500000000000000 PUSH1 0x44 DUP3 ADD MSTORE PUSH1 0x64 SWAP1 REVERT JUMPDEST SWAP1 SWAP2 POP PUSH2 0x478 JUMPI PUSH1 0x4 EQ DUP3 DUP1 PUSH2 0x1857 JUMP JUMPDEST POP PUSH1 0x3 DUP2 EQ SWAP2 POP PUSH1 0x0 PUSH2 0x1850 JUMP JUMPDEST CALLVALUE PUSH2 0x20A JUMPI PUSH1 0x0 CALLDATASIZE PUSH1 0x3 NOT ADD SLT PUSH2 0x20A JUMPI PUSH1 0x20 PUSH1 0x40 MLOAD PUSH32 0x316F763395DCCFB0903CC163E1283E12ACBF4EC58E2882ED12C2F13BAC986461 DUP2 MSTORE RETURN JUMPDEST CALLVALUE PUSH2 0x20A JUMPI PUSH1 0x20 CALLDATASIZE PUSH1 0x3 NOT ADD SLT PUSH2 0x20A JUMPI PUSH1 0x0 PUSH2 0x140 PUSH1 0x40 MLOAD PUSH2 0x19D2 DUP2 PUSH2 0x1C44 JUMP JUMPDEST DUP3 DUP2 MSTORE DUP3 PUSH1 0x20 DUP3 ADD MSTORE DUP3 PUSH1 0x40 DUP3 ADD MSTORE DUP3 PUSH1 0x60 DUP3 ADD MSTORE DUP3 PUSH1 0x80 DUP3 ADD MSTORE DUP3 PUSH1 0xA0 DUP3 ADD MSTORE DUP3 PUSH1 0xC0 DUP3 ADD MSTORE DUP3 PUSH1 0xE0 DUP3 ADD MSTORE DUP3 PUSH2 0x100 DUP3 ADD MSTORE DUP3 PUSH2 0x120 DUP3 ADD MSTORE ADD MSTORE PUSH1 0x4 CALLDATALOAD PUSH1 0x0 MSTORE PUSH1 0x2 PUSH1 0x20 MSTORE PUSH1 0x40 PUSH1 0x0 KECCAK256 PUSH1 0x40 MLOAD PUSH2 0x1A2B DUP2 PUSH2 0x1C44 JUMP JUMPDEST PUSH1 0x1 DUP1 PUSH1 0xA0 SHL SUB DUP3 SLOAD AND DUP2 MSTORE PUSH1 0x1 DUP1 PUSH1 0xA0 SHL SUB PUSH1 0x1 DUP4 ADD SLOAD AND SWAP2 PUSH1 0x20 DUP3 ADD SWAP3 DUP4 MSTORE PUSH1 0x2 DUP2 ADD SLOAD PUSH1 0x40 DUP4 ADD SWAP1 DUP2 MSTORE PUSH1 0x3 DUP3 ADD SLOAD SWAP2 PUSH1 0x60 DUP5 ADD SWAP3 DUP4 MSTORE PUSH1 0x4 DUP2 ADD SLOAD SWAP1 PUSH1 0x80 DUP6 ADD SWAP2 DUP3 MSTORE PUSH1 0x5 DUP2 ADD SLOAD PUSH1 0xA0 DUP7 ADD SWAP1 DUP2 MSTORE PUSH1 0x6 DUP3 ADD SLOAD PUSH1 0xC0 DUP8 ADD SWAP1 DUP2 MSTORE PUSH1 0x7 DUP4 ADD SLOAD SWAP2 PUSH1 0xE0 DUP9 ADD SWAP3 DUP4 MSTORE PUSH1 0x9 PUSH1 0x8 DUP6 ADD SLOAD SWAP5 PUSH2 0x100 DUP11 ADD SWAP6 DUP7 MSTORE ADD SLOAD SWAP5 PUSH1 0xFF PUSH2 0x120 DUP11 ADD SWAP7 PUSH1 0x1 DUP1 PUSH1 0xA0 SHL SUB DUP2 AND DUP9 MSTORE PUSH1 0xA0 SHR AND SWAP8 PUSH2 0x140 DUP11 ADD SWAP8 PUSH1 0x5 DUP11 LT ISZERO PUSH2 0x478 JUMPI PUSH2 0x160 SWAP12 PUSH2 0xDDE SWAP11 DUP11 MSTORE PUSH1 0x40 MLOAD SWAP12 PUSH1 0x1 DUP1 PUSH1 0xA0 SHL SUB SWAP1 MLOAD AND DUP13 MSTORE PUSH1 0x1 DUP1 PUSH1 0xA0 SHL SUB SWAP1 MLOAD AND PUSH1 0x20 DUP13 ADD MSTORE MLOAD PUSH1 0x40 DUP12 ADD MSTORE MLOAD PUSH1 0x60 DUP11 ADD MSTORE MLOAD PUSH1 0x80 DUP10 ADD MSTORE MLOAD PUSH1 0xA0 DUP9 ADD MSTORE MLOAD PUSH1 0xC0 DUP8 ADD MSTORE MLOAD PUSH1 0xE0 DUP7 ADD MSTORE MLOAD PUSH2 0x100 DUP6 ADD MSTORE PUSH1 0x1 DUP1 PUSH1 0xA0 SHL SUB SWAP1 MLOAD AND PUSH2 0x120 DUP5 ADD MSTORE MLOAD PUSH2 0x140 DUP4 ADD SWAP1 PUSH2 0x1BDD JUMP JUMPDEST CALLVALUE PUSH2 0x20A JUMPI PUSH1 0x40 PUSH2 0x1B5A PUSH2 0x1B54 CALLDATASIZE PUSH2 0x1B9F JUMP JUMPDEST SWAP2 PUSH2 0x1D8D JUMP JUMPDEST DUP3 MLOAD SWAP2 ISZERO ISZERO DUP3 MSTORE PUSH1 0x1 PUSH1 0x1 PUSH1 0xA0 SHL SUB AND PUSH1 0x20 DUP3 ADD MSTORE RETURN JUMPDEST SWAP2 DUP2 PUSH1 0x1F DUP5 ADD SLT ISZERO PUSH2 0x20A JUMPI DUP3 CALLDATALOAD SWAP2 PUSH8 0xFFFFFFFFFFFFFFFF DUP4 GT PUSH2 0x20A JUMPI PUSH1 0x20 DUP4 DUP2 DUP7 ADD SWAP6 ADD ADD GT PUSH2 0x20A JUMPI JUMP JUMPDEST SWAP1 PUSH1 0x3 NOT DUP3 ADD PUSH2 0x160 DUP2 SLT PUSH2 0x20A JUMPI PUSH2 0x140 SGT PUSH2 0x20A JUMPI PUSH1 0x4 SWAP2 PUSH2 0x144 CALLDATALOAD SWAP1 PUSH8 0xFFFFFFFFFFFFFFFF DUP3 GT PUSH2 0x20A JUMPI PUSH2 0x1BD9 SWAP2 PUSH1 0x4 ADD PUSH2 0x1B71 JUMP JUMPDEST SWAP1 SWAP2 JUMP JUMPDEST SWAP1 PUSH1 0x5 DUP3 LT ISZERO PUSH2 0x478 JUMPI MSTORE JUMP JUMPDEST PUSH1 0x4 CALLDATALOAD SWAP1 PUSH1 0x1 PUSH1 0x1 PUSH1 0xA0 SHL SUB DUP3 AND DUP3 SUB PUSH2 0x20A JUMPI JUMP JUMPDEST CALLDATALOAD SWAP1 PUSH1 0x1 PUSH1 0x1 PUSH1 0xA0 SHL SUB DUP3 AND DUP3 SUB PUSH2 0x20A JUMPI JUMP JUMPDEST SWAP1 PUSH1 0x40 PUSH1 0x3 NOT DUP4 ADD SLT PUSH2 0x20A JUMPI PUSH1 0x4 CALLDATALOAD SWAP2 PUSH1 0x24 CALLDATALOAD SWAP1 PUSH8 0xFFFFFFFFFFFFFFFF DUP3 GT PUSH2 0x20A JUMPI PUSH2 0x1BD9 SWAP2 PUSH1 0x4 ADD PUSH2 0x1B71 JUMP JUMPDEST PUSH2 0x160 DUP2 ADD SWAP1 DUP2 LT PUSH8 0xFFFFFFFFFFFFFFFF DUP3 GT OR PUSH2 0x158C JUMPI PUSH1 0x40 MSTORE JUMP JUMPDEST SWAP1 PUSH1 0x1F DUP1 NOT SWAP2 ADD AND DUP2 ADD SWAP1 DUP2 LT PUSH8 0xFFFFFFFFFFFFFFFF DUP3 GT OR PUSH2 0x158C JUMPI PUSH1 0x40 MSTORE JUMP JUMPDEST SWAP2 SWAP1 DUP3 PUSH2 0x140 SWAP2 SUB SLT PUSH2 0x20A JUMPI PUSH1 0x40 MLOAD PUSH2 0x140 DUP2 ADD DUP2 DUP2 LT PUSH8 0xFFFFFFFFFFFFFFFF DUP3 GT OR PUSH2 0x158C JUMPI PUSH1 0x40 MSTORE PUSH2 0x120 PUSH2 0x1D21 DUP2 DUP4 SWAP6 PUSH2 0x1CC0 DUP2 PUSH2 0x1C00 JUMP JUMPDEST DUP6 MSTORE PUSH2 0x1CCE PUSH1 0x20 DUP3 ADD PUSH2 0x1C00 JUMP JUMPDEST PUSH1 0x20 DUP7 ADD MSTORE PUSH1 0x40 DUP2 ADD CALLDATALOAD PUSH1 0x40 DUP7 ADD MSTORE PUSH1 0x60 DUP2 ADD CALLDATALOAD PUSH1 0x60 DUP7 ADD MSTORE PUSH1 0x80 DUP2 ADD CALLDATALOAD PUSH1 0x80 DUP7 ADD MSTORE PUSH1 0xA0 DUP2 ADD CALLDATALOAD PUSH1 0xA0 DUP7 ADD MSTORE PUSH1 0xC0 DUP2 ADD CALLDATALOAD PUSH1 0xC0 DUP7 ADD MSTORE PUSH1 0xE0 DUP2 ADD CALLDATALOAD PUSH1 0xE0 DUP7 ADD MSTORE PUSH2 0x100 DUP2 ADD CALLDATALOAD PUSH2 0x100 DUP7 ADD MSTORE ADD PUSH2 0x1C00 JUMP JUMPDEST SWAP2 ADD MSTORE JUMP JUMPDEST PUSH8 0xFFFFFFFFFFFFFFFF DUP2 GT PUSH2 0x158C JUMPI PUSH1 0x1F ADD PUSH1 0x1F NOT AND PUSH1 0x20 ADD SWAP1 JUMP JUMPDEST SWAP3 SWAP2 SWAP3 PUSH2 0x1D4E DUP3 PUSH2 0x1D26 JUMP JUMPDEST SWAP2 PUSH2 0x1D5C PUSH1 0x40 MLOAD SWAP4 DUP5 PUSH2 0x1C61 JUMP JUMPDEST DUP3 SWAP5 DUP2 DUP5 MSTORE DUP2 DUP4 ADD GT PUSH2 0x20A JUMPI DUP3 DUP2 PUSH1 0x20 SWAP4 DUP5 PUSH1 0x0 SWAP7 ADD CALLDATACOPY ADD ADD MSTORE JUMP JUMPDEST CALLDATALOAD PUSH1 0x1 PUSH1 0x1 PUSH1 0xA0 SHL SUB DUP2 AND DUP2 SUB PUSH2 0x20A JUMPI SWAP1 JUMP JUMPDEST SWAP1 PUSH2 0x1DFB SWAP4 SWAP3 PUSH2 0x111A PUSH2 0x1DF2 SWAP3 PUSH2 0x1DA7 PUSH2 0x688 CALLDATASIZE DUP8 PUSH2 0x1C83 JUMP JUMPDEST PUSH1 0x40 MLOAD PUSH2 0x1901 PUSH1 0xF0 SHL PUSH1 0x20 DUP3 ADD SWAP1 DUP2 MSTORE PUSH32 0x0 PUSH1 0x22 DUP4 ADD MSTORE PUSH1 0x42 DUP3 ADD SWAP3 SWAP1 SWAP3 MSTORE PUSH2 0x110F DUP2 PUSH1 0x62 DUP2 ADD PUSH2 0x1101 JUMP JUMPDEST SWAP1 SWAP5 SWAP2 SWAP5 PUSH2 0x2DD6 JUMP JUMPDEST PUSH1 0x1 PUSH1 0x1 PUSH1 0xA0 SHL SUB SWAP1 PUSH2 0x1E0D SWAP1 PUSH2 0x1D79 JUMP JUMPDEST AND PUSH1 0x1 PUSH1 0x1 PUSH1 0xA0 SHL SUB DUP4 AND EQ SWAP2 SWAP1 JUMP JUMPDEST ISZERO PUSH2 0x1E24 JUMPI JUMP JUMPDEST PUSH1 0x40 MLOAD PUSH3 0x461BCD PUSH1 0xE5 SHL DUP2 MSTORE PUSH1 0x20 PUSH1 0x4 DUP3 ADD MSTORE PUSH1 0x1B PUSH1 0x24 DUP3 ADD MSTORE PUSH32 0x537562736372697074696F6E20646F6573206E6F742065786973740000000000 PUSH1 0x44 DUP3 ADD MSTORE PUSH1 0x64 SWAP1 REVERT JUMPDEST ISZERO PUSH2 0x1E70 JUMPI JUMP JUMPDEST PUSH1 0x40 MLOAD PUSH3 0x461BCD PUSH1 0xE5 SHL DUP2 MSTORE PUSH1 0x20 PUSH1 0x4 DUP3 ADD MSTORE PUSH1 0x14 PUSH1 0x24 DUP3 ADD MSTORE PUSH20 0x2737BA1022AA241039BAB139B1B934B83A34B7B7 PUSH1 0x61 SHL PUSH1 0x44 DUP3 ADD MSTORE PUSH1 0x64 SWAP1 REVERT JUMPDEST ISZERO PUSH2 0x1EB3 JUMPI JUMP JUMPDEST PUSH1 0x40 MLOAD PUSH3 0x461BCD PUSH1 0xE5 SHL DUP2 MSTORE PUSH1 0x20 PUSH1 0x4 DUP3 ADD MSTORE PUSH1 0xF PUSH1 0x24 DUP3 ADD MSTORE PUSH15 0x27B7363C9039BAB139B1B934B132B9 PUSH1 0x89 SHL PUSH1 0x44 DUP3 ADD MSTORE PUSH1 0x64 SWAP1 REVERT JUMPDEST RETURNDATASIZE ISZERO PUSH2 0x1F15 JUMPI RETURNDATASIZE SWAP1 PUSH2 0x1EFB DUP3 PUSH2 0x1D26 JUMP JUMPDEST SWAP2 PUSH2 0x1F09 PUSH1 0x40 MLOAD SWAP4 DUP5 PUSH2 0x1C61 JUMP JUMPDEST DUP3 MSTORE RETURNDATASIZE PUSH1 0x0 PUSH1 0x20 DUP5 ADD RETURNDATACOPY JUMP JUMPDEST PUSH1 0x60 SWAP1 JUMP JUMPDEST SWAP1 DUP2 PUSH1 0x20 SWAP2 SUB SLT PUSH2 0x20A JUMPI MLOAD DUP1 ISZERO ISZERO DUP2 SUB PUSH2 0x20A JUMPI SWAP1 JUMP JUMPDEST ISZERO PUSH2 0x1F39 JUMPI JUMP JUMPDEST PUSH1 0x40 MLOAD PUSH3 0x461BCD PUSH1 0xE5 SHL DUP2 MSTORE PUSH1 0x20 PUSH1 0x4 DUP3 ADD MSTORE PUSH1 0x17 PUSH1 0x24 DUP3 ADD MSTORE PUSH32 0x537562736372697074696F6E206E6F7420616374697665000000000000000000 PUSH1 0x44 DUP3 ADD MSTORE PUSH1 0x64 SWAP1 REVERT JUMPDEST SWAP2 SWAP1 DUP3 ADD DUP1 SWAP3 GT PUSH2 0x1357 JUMPI JUMP JUMPDEST DUP2 DUP2 MUL SWAP3 SWAP2 DUP2 ISZERO SWAP2 DUP5 DIV EQ OR ISZERO PUSH2 0x1357 JUMPI JUMP JUMPDEST SWAP2 SWAP1 DUP3 SUB SWAP2 DUP3 GT PUSH2 0x1357 JUMPI JUMP JUMPDEST PUSH1 0x40 MLOAD SWAP1 PUSH2 0x1FBA PUSH1 0x40 DUP4 PUSH2 0x1C61 JUMP JUMPDEST PUSH1 0x18 DUP3 MSTORE PUSH32 0x4D65726368616E74207472616E73666572206661696C65640000000000000000 PUSH1 0x20 DUP4 ADD MSTORE JUMP JUMPDEST PUSH1 0x0 NOT DUP2 EQ PUSH2 0x1357 JUMPI PUSH1 0x1 ADD SWAP1 JUMP JUMPDEST SWAP1 CALLER PUSH1 0x1 PUSH1 0x1 PUSH1 0xA0 SHL SUB SWAP1 SWAP2 AND SUB PUSH2 0x27AE JUMPI PUSH1 0x40 MLOAD PUSH4 0x85C99E2B PUSH1 0xE0 SHL DUP2 MSTORE CALLER PUSH1 0x4 DUP3 ADD MSTORE PUSH32 0x0 PUSH1 0x1 PUSH1 0x1 PUSH1 0xA0 SHL SUB AND SWAP2 PUSH1 0x0 SWAP2 PUSH1 0x20 DUP2 PUSH1 0x24 DUP2 DUP8 GAS STATICCALL SWAP1 DUP2 ISZERO PUSH2 0x27A3 JUMPI DUP4 SWAP2 PUSH2 0x2774 JUMPI JUMPDEST POP ISZERO PUSH2 0x2736 JUMPI DUP1 DUP3 MSTORE PUSH1 0x2 PUSH1 0x20 MSTORE PUSH1 0x40 DUP3 KECCAK256 DUP1 SLOAD PUSH2 0x2087 SWAP1 PUSH1 0x1 PUSH1 0x1 PUSH1 0xA0 SHL SUB AND ISZERO ISZERO PUSH2 0x1E1D JUMP JUMPDEST PUSH1 0x9 DUP2 ADD SWAP4 PUSH1 0xFF DUP6 SLOAD PUSH1 0xA0 SHR AND PUSH1 0x5 DUP2 LT ISZERO PUSH2 0x2722 JUMPI PUSH2 0x20A7 SWAP1 ISZERO PUSH2 0x1F32 JUMP JUMPDEST DUP3 DUP5 MSTORE PUSH1 0x6 PUSH1 0x20 SWAP1 DUP2 MSTORE PUSH1 0x40 DUP1 DUP7 KECCAK256 SLOAD PUSH1 0x1 PUSH1 0x1 PUSH1 0xA0 SHL SUB AND DUP1 DUP8 MSTORE PUSH1 0x5 SWAP1 SWAP3 MSTORE DUP6 KECCAK256 SLOAD PUSH1 0xFF AND ISZERO PUSH2 0x26DD JUMPI PUSH1 0x7 DUP4 ADD SLOAD TIMESTAMP GT PUSH2 0x25FC JUMPI DUP4 DUP6 MSTORE PUSH1 0x2 PUSH1 0x20 MSTORE PUSH2 0x210D PUSH1 0x40 DUP7 KECCAK256 DUP6 DUP8 MSTORE PUSH1 0x3 PUSH1 0x20 MSTORE PUSH2 0x52E PUSH1 0x40 DUP9 KECCAK256 SLOAD PUSH1 0x3 PUSH1 0x4 DUP5 ADD SLOAD SWAP4 ADD SLOAD SWAP1 PUSH2 0x1F8B JUMP JUMPDEST TIMESTAMP LT PUSH2 0x25C1 JUMPI DUP4 DUP6 MSTORE PUSH1 0x3 PUSH1 0x20 MSTORE PUSH1 0x40 DUP6 KECCAK256 SLOAD PUSH1 0x1 DUP2 ADD DUP1 SWAP2 GT PUSH2 0x25AD JUMPI PUSH1 0x2 DUP5 ADD SWAP1 DUP2 SLOAD SWAP3 PUSH1 0x32 DUP5 MUL DUP5 DUP2 DIV PUSH1 0x32 EQ DUP6 ISZERO OR ISZERO PUSH2 0x2599 JUMPI PUSH2 0x2710 SWAP1 DIV SWAP4 PUSH2 0x2155 DUP3 DUP10 PUSH2 0x298D JUMP JUMPDEST ISZERO PUSH2 0x24DB JUMPI POP PUSH2 0x2166 DUP5 DUP5 SLOAD PUSH2 0x1F9E JUMP JUMPDEST DUP9 SWAP1 DUP10 PUSH1 0x60 SWAP2 DUP8 DUP6 ISZERO PUSH1 0x0 EQ PUSH2 0x24CB JUMPI POP DUP11 DUP3 MSTORE PUSH1 0x7 PUSH1 0x20 MSTORE PUSH1 0x40 DUP3 KECCAK256 SLOAD DUP8 SLOAD GT ISZERO PUSH2 0x2423 JUMPI POP POP POP PUSH1 0x40 MLOAD PUSH2 0x219D PUSH1 0x40 DUP3 PUSH2 0x1C61 JUMP JUMPDEST PUSH1 0x18 DUP2 MSTORE PUSH32 0x496E73756666696369656E7420455448206465706F7369740000000000000000 PUSH1 0x20 DUP3 ADD MSTORE SWAP1 JUMPDEST ISZERO PUSH2 0x22E6 JUMPI POP PUSH32 0x8EDD31B1042C3B68388248A57905BB81BD5B2ABD7334D9E2CEE14B88A479A23D PUSH1 0xA0 DUP9 SWAP3 DUP4 DUP12 MSTORE PUSH1 0x3 PUSH1 0x20 MSTORE PUSH1 0x40 DUP12 KECCAK256 PUSH2 0x220A DUP2 SLOAD PUSH2 0x1FE6 JUMP JUMPDEST SWAP1 SSTORE PUSH1 0x1 DUP1 DUP4 SHL SUB DUP10 SLOAD AND SWAP5 PUSH1 0x1 DUP1 DUP5 SHL SUB PUSH1 0x1 DUP12 ADD SLOAD AND SWAP7 SLOAD SWAP1 PUSH1 0x40 MLOAD SWAP3 DUP4 MSTORE PUSH1 0x20 DUP4 ADD MSTORE PUSH1 0x40 DUP3 ADD MSTORE DUP7 PUSH1 0x60 DUP3 ADD MSTORE CALLER PUSH1 0x80 DUP3 ADD MSTORE LOG4 DUP2 EXTCODESIZE ISZERO PUSH2 0x22E2 JUMPI DUP5 SWAP2 PUSH1 0x64 DUP4 SWAP3 PUSH1 0x40 MLOAD SWAP5 DUP6 SWAP4 DUP5 SWAP3 PUSH4 0x44A7C639 PUSH1 0xE1 SHL DUP5 MSTORE CALLER PUSH1 0x4 DUP6 ADD MSTORE PUSH1 0x1 PUSH1 0x24 DUP6 ADD MSTORE PUSH1 0x44 DUP5 ADD MSTORE GAS CALL DUP1 ISZERO PUSH2 0x22D7 JUMPI SWAP1 DUP5 SWAP2 PUSH2 0x22BE JUMPI JUMPDEST POP DUP3 SWAP1 MSTORE PUSH1 0x3 PUSH1 0x20 MSTORE PUSH1 0x5 PUSH1 0x40 DUP5 KECCAK256 SLOAD SWAP2 ADD SLOAD GT ISZERO PUSH2 0x22A1 JUMPI POP POP POP JUMP JUMPDEST PUSH2 0x22AA SWAP1 PUSH2 0x2942 JUMP JUMPDEST POP DUP1 SLOAD PUSH1 0xFF PUSH1 0xA0 SHL NOT AND PUSH1 0x1 PUSH1 0xA2 SHL OR SWAP1 SSTORE JUMP JUMPDEST DUP2 PUSH2 0x22C8 SWAP2 PUSH2 0x1C61 JUMP JUMPDEST PUSH2 0x22D3 JUMPI DUP3 CODESIZE PUSH2 0x2283 JUMP JUMPDEST DUP3 DUP1 REVERT JUMPDEST PUSH1 0x40 MLOAD RETURNDATASIZE DUP7 DUP3 RETURNDATACOPY RETURNDATASIZE SWAP1 REVERT JUMPDEST DUP5 DUP1 REVERT JUMPDEST SWAP4 POP POP POP SWAP4 SWAP2 SWAP5 SWAP6 POP DUP1 MLOAD ISZERO PUSH2 0x23E5 JUMPI JUMPDEST PUSH1 0x1 DUP1 PUSH1 0xA0 SHL SUB DUP4 SLOAD AND SWAP3 PUSH1 0x1 DUP1 DUP1 PUSH1 0xA0 SHL SUB SWAP2 ADD SLOAD AND SWAP4 SLOAD SWAP1 PUSH1 0x40 MLOAD SWAP2 DUP3 MSTORE PUSH1 0x40 PUSH1 0x20 DUP4 ADD MSTORE DUP1 MLOAD SWAP1 DUP2 PUSH1 0x40 DUP5 ADD MSTORE DUP8 JUMPDEST DUP3 DUP2 LT PUSH2 0x23CF JUMPI POP POP SWAP1 PUSH1 0x60 DUP2 DUP4 DUP10 DUP4 PUSH32 0x8D07BB7D7FFC0FDE6EBC3E0E718C1FDBFAC73EB7EA593DA5566FA86A1C3C1A30 SWAP7 DUP5 ADD ADD MSTORE PUSH1 0x1F DUP1 NOT SWAP2 ADD AND DUP2 ADD SUB ADD SWAP1 LOG4 DUP1 EXTCODESIZE ISZERO PUSH2 0x23CB JUMPI DUP2 DUP1 SWAP2 PUSH1 0x64 PUSH1 0x40 MLOAD DUP1 SWAP5 DUP2 SWAP4 PUSH4 0x44A7C639 PUSH1 0xE1 SHL DUP4 MSTORE CALLER PUSH1 0x4 DUP5 ADD MSTORE DUP2 PUSH1 0x24 DUP5 ADD MSTORE DUP2 PUSH1 0x44 DUP5 ADD MSTORE GAS CALL DUP1 ISZERO PUSH2 0x23C0 JUMPI PUSH2 0x23AB JUMPI POP POP JUMP JUMPDEST PUSH2 0x23B6 DUP3 DUP1 SWAP3 PUSH2 0x1C61 JUMP JUMPDEST PUSH2 0x23BD JUMPI POP JUMP JUMPDEST DUP1 REVERT JUMPDEST PUSH1 0x40 MLOAD RETURNDATASIZE DUP5 DUP3 RETURNDATACOPY RETURNDATASIZE SWAP1 REVERT JUMPDEST POP DUP1 REVERT JUMPDEST DUP1 PUSH1 0x20 DUP1 SWAP3 DUP5 ADD ADD MLOAD PUSH1 0x60 DUP3 DUP8 ADD ADD MSTORE ADD PUSH2 0x2329 JUMP JUMPDEST POP PUSH1 0x40 MLOAD PUSH2 0x23F4 PUSH1 0x40 DUP3 PUSH2 0x1C61 JUMP JUMPDEST PUSH1 0x18 DUP2 MSTORE PUSH32 0x5061796D656E7420657865637574696F6E206661696C65640000000000000000 PUSH1 0x20 DUP3 ADD MSTORE PUSH2 0x22F7 JUMP JUMPDEST PUSH1 0x1 DUP11 ADD SLOAD DUP3 SWAP2 DUP3 SWAP2 DUP3 SWAP2 SWAP1 PUSH1 0x1 PUSH1 0x1 PUSH1 0xA0 SHL SUB AND GAS CALL PUSH2 0x2442 PUSH2 0x1EEA JUMP JUMPDEST POP PUSH2 0x2456 JUMPI POP PUSH2 0x2450 PUSH2 0x1FAB JUMP JUMPDEST SWAP1 PUSH2 0x21C9 JUMP JUMPDEST SWAP1 POP DUP9 DUP1 DUP1 DUP1 DUP9 CALLER GAS CALL PUSH2 0x2468 PUSH2 0x1EEA JUMP JUMPDEST POP ISZERO PUSH2 0x2490 JUMPI DUP4 SLOAD DUP9 DUP11 MSTORE PUSH1 0x7 PUSH1 0x20 MSTORE PUSH2 0x2487 PUSH1 0x40 DUP12 KECCAK256 SWAP2 DUP3 SLOAD PUSH2 0x1F9E JUMP JUMPDEST SWAP1 SSTORE PUSH1 0x1 PUSH2 0x21C9 JUMP JUMPDEST PUSH1 0x40 MLOAD PUSH3 0x461BCD PUSH1 0xE5 SHL DUP2 MSTORE PUSH1 0x20 PUSH1 0x4 DUP3 ADD MSTORE PUSH1 0x13 PUSH1 0x24 DUP3 ADD MSTORE PUSH19 0x119959481D1C985B9CD9995C8819985A5B1959 PUSH1 0x6A SHL PUSH1 0x44 DUP3 ADD MSTORE PUSH1 0x64 SWAP1 REVERT JUMPDEST SWAP3 POP SWAP1 POP PUSH2 0x2450 SWAP3 POP DUP4 DUP10 PUSH2 0x2AF2 JUMP JUMPDEST SWAP7 SWAP5 SWAP8 SWAP9 POP POP POP POP POP PUSH32 0x8D07BB7D7FFC0FDE6EBC3E0E718C1FDBFAC73EB7EA593DA5566FA86A1C3C1A30 PUSH1 0x80 PUSH1 0x1 DUP1 PUSH1 0xA0 SHL SUB DUP5 SLOAD AND SWAP4 PUSH1 0x1 DUP1 DUP1 PUSH1 0xA0 SHL SUB SWAP2 ADD SLOAD AND SWAP5 PUSH1 0x40 MLOAD SWAP1 DUP2 MSTORE PUSH1 0x40 PUSH1 0x20 DUP3 ADD MSTORE PUSH1 0x1D PUSH1 0x40 DUP3 ADD MSTORE PUSH32 0x457865637574696F6E20636F6E73747261696E7473206E6F74206D6574000000 PUSH1 0x60 DUP3 ADD MSTORE LOG4 DUP1 EXTCODESIZE ISZERO PUSH2 0x23CB JUMPI DUP2 DUP1 SWAP2 PUSH1 0x64 PUSH1 0x40 MLOAD DUP1 SWAP5 DUP2 SWAP4 PUSH4 0x44A7C639 PUSH1 0xE1 SHL DUP4 MSTORE CALLER PUSH1 0x4 DUP5 ADD MSTORE DUP2 PUSH1 0x24 DUP5 ADD MSTORE DUP2 PUSH1 0x44 DUP5 ADD MSTORE GAS CALL DUP1 ISZERO PUSH2 0x23C0 JUMPI PUSH2 0x23AB JUMPI POP POP JUMP JUMPDEST PUSH4 0x4E487B71 PUSH1 0xE0 SHL DUP10 MSTORE PUSH1 0x11 PUSH1 0x4 MSTORE PUSH1 0x24 DUP10 REVERT JUMPDEST PUSH4 0x4E487B71 PUSH1 0xE0 SHL DUP7 MSTORE PUSH1 0x11 PUSH1 0x4 MSTORE PUSH1 0x24 DUP7 REVERT JUMPDEST PUSH1 0x40 MLOAD PUSH3 0x461BCD PUSH1 0xE5 SHL DUP2 MSTORE PUSH1 0x20 PUSH1 0x4 DUP3 ADD MSTORE PUSH1 0x13 PUSH1 0x24 DUP3 ADD MSTORE PUSH19 0x14185E5B595B9D081B9BDD08191D59481E595D PUSH1 0x6A SHL PUSH1 0x44 DUP3 ADD MSTORE PUSH1 0x64 SWAP1 REVERT JUMPDEST POP SWAP3 SWAP4 PUSH2 0x260A DUP4 SWAP3 SWAP4 PUSH2 0x2942 JUMP JUMPDEST DUP1 SLOAD PUSH1 0xFF PUSH1 0xA0 SHL NOT AND PUSH1 0x3 PUSH1 0xA0 SHL OR SWAP1 SSTORE DUP2 SLOAD PUSH1 0x1 DUP4 ADD SLOAD PUSH1 0x2 SWAP1 SWAP4 ADD SLOAD PUSH1 0x40 DUP1 MLOAD SWAP2 DUP3 MSTORE PUSH1 0x20 DUP3 ADD DUP2 SWAP1 MSTORE PUSH1 0x14 SWAP1 DUP3 ADD MSTORE PUSH20 0x14DD589CD8DC9A5C1D1A5BDB88195E1C1A5C9959 PUSH1 0x62 SHL PUSH1 0x60 DUP3 ADD MSTORE PUSH1 0x1 PUSH1 0x1 PUSH1 0xA0 SHL SUB SWAP4 DUP5 AND SWAP4 SWAP2 SWAP1 SWAP2 AND SWAP2 SWAP1 PUSH32 0x8D07BB7D7FFC0FDE6EBC3E0E718C1FDBFAC73EB7EA593DA5566FA86A1C3C1A30 SWAP1 PUSH1 0x80 SWAP1 LOG4 DUP1 EXTCODESIZE ISZERO PUSH2 0x23CB JUMPI DUP2 DUP1 SWAP2 PUSH1 0x64 PUSH1 0x40 MLOAD DUP1 SWAP5 DUP2 SWAP4 PUSH4 0x44A7C639 PUSH1 0xE1 SHL DUP4 MSTORE CALLER PUSH1 0x4 DUP5 ADD MSTORE DUP2 PUSH1 0x24 DUP5 ADD MSTORE DUP2 PUSH1 0x44 DUP5 ADD MSTORE GAS CALL DUP1 ISZERO PUSH2 0x23C0 JUMPI PUSH2 0x26D0 JUMPI POP POP JUMP JUMPDEST DUP2 PUSH2 0x26DA SWAP2 PUSH2 0x1C61 JUMP JUMPDEST POP JUMP JUMPDEST PUSH1 0x40 MLOAD PUSH3 0x461BCD PUSH1 0xE5 SHL DUP2 MSTORE PUSH1 0x20 PUSH1 0x4 DUP3 ADD MSTORE PUSH1 0x19 PUSH1 0x24 DUP3 ADD MSTORE PUSH32 0x546F6B656E206E6F206C6F6E67657220737570706F7274656400000000000000 PUSH1 0x44 DUP3 ADD MSTORE PUSH1 0x64 SWAP1 REVERT JUMPDEST PUSH4 0x4E487B71 PUSH1 0xE0 SHL DUP6 MSTORE PUSH1 0x21 PUSH1 0x4 MSTORE PUSH1 0x24 DUP6 REVERT JUMPDEST PUSH1 0x40 MLOAD PUSH3 0x461BCD PUSH1 0xE5 SHL DUP2 MSTORE PUSH1 0x20 PUSH1 0x4 DUP3 ADD MSTORE PUSH1 0x16 PUSH1 0x24 DUP3 ADD MSTORE PUSH22 0x14995B185E595C881B9BDD08185D5D1A1BDC9A5E9959 PUSH1 0x52 SHL PUSH1 0x44 DUP3 ADD MSTORE PUSH1 0x64 SWAP1 REVERT JUMPDEST PUSH2 0x2796 SWAP2 POP PUSH1 0x20 RETURNDATASIZE PUSH1 0x20 GT PUSH2 0x279C JUMPI JUMPDEST PUSH2 0x278E DUP2 DUP4 PUSH2 0x1C61 JUMP JUMPDEST DUP2 ADD SWAP1 PUSH2 0x1F1A JUMP JUMPDEST CODESIZE PUSH2 0x205F JUMP JUMPDEST POP RETURNDATASIZE PUSH2 0x2784 JUMP JUMPDEST PUSH1 0x40 MLOAD RETURNDATASIZE DUP6 DUP3 RETURNDATACOPY RETURNDATASIZE SWAP1 REVERT JUMPDEST PUSH1 0x40 MLOAD PUSH3 0x461BCD PUSH1 0xE5 SHL DUP2 MSTORE PUSH1 0x20 PUSH1 0x4 DUP3 ADD MSTORE PUSH1 0x10 PUSH1 0x24 DUP3 ADD MSTORE PUSH16 0xA4CAD8C2F2CAE440DAD2E6DAC2E8C6D PUSH1 0x83 SHL PUSH1 0x44 DUP3 ADD MSTORE PUSH1 0x64 SWAP1 REVERT JUMPDEST ISZERO PUSH2 0x27ED JUMPI JUMP JUMPDEST PUSH1 0x40 MLOAD PUSH3 0x461BCD PUSH1 0xE5 SHL DUP2 MSTORE PUSH1 0x20 PUSH1 0x4 DUP3 ADD MSTORE PUSH1 0x11 PUSH1 0x24 DUP3 ADD MSTORE PUSH17 0x496E76616C6964207369676E6174757265 PUSH1 0x78 SHL PUSH1 0x44 DUP3 ADD MSTORE PUSH1 0x64 SWAP1 REVERT JUMPDEST PUSH1 0x9 SLOAD DUP2 LT ISZERO PUSH2 0x2841 JUMPI PUSH1 0x9 PUSH1 0x0 MSTORE PUSH1 0x20 PUSH1 0x0 KECCAK256 ADD SWAP1 PUSH1 0x0 SWAP1 JUMP JUMPDEST PUSH4 0x4E487B71 PUSH1 0xE0 SHL PUSH1 0x0 MSTORE PUSH1 0x32 PUSH1 0x4 MSTORE PUSH1 0x24 PUSH1 0x0 REVERT JUMPDEST PUSH1 0x1 DUP1 PUSH1 0xA0 SHL SUB DUP2 MLOAD AND SWAP1 PUSH1 0x1 DUP1 PUSH1 0xA0 SHL SUB PUSH1 0x20 DUP3 ADD MLOAD AND SWAP1 PUSH1 0x40 DUP2 ADD MLOAD SWAP1 PUSH1 0x60 DUP2 ADD MLOAD PUSH1 0x80 DUP3 ADD MLOAD PUSH1 0xA0 DUP4 ADD MLOAD PUSH1 0xC0 DUP5 ADD MLOAD SWAP2 PUSH1 0xE0 DUP6 ADD MLOAD SWAP4 PUSH2 0x100 DUP7 ADD MLOAD SWAP6 PUSH2 0x120 PUSH1 0x1 DUP1 PUSH1 0xA0 SHL SUB SWAP2 ADD MLOAD AND SWAP7 PUSH1 0x40 MLOAD SWAP9 PUSH1 0x20 DUP11 ADD SWAP11 PUSH32 0x316F763395DCCFB0903CC163E1283E12ACBF4EC58E2882ED12C2F13BAC986461 DUP13 MSTORE PUSH1 0x40 DUP12 ADD MSTORE PUSH1 0x60 DUP11 ADD MSTORE PUSH1 0x80 DUP10 ADD MSTORE PUSH1 0xA0 DUP9 ADD MSTORE PUSH1 0xC0 DUP8 ADD MSTORE PUSH1 0xE0 DUP7 ADD MSTORE PUSH2 0x100 DUP6 ADD MSTORE PUSH2 0x120 DUP5 ADD MSTORE PUSH2 0x140 DUP4 ADD MSTORE PUSH2 0x160 DUP3 ADD MSTORE PUSH2 0x160 DUP2 MSTORE PUSH2 0x291A PUSH2 0x180 DUP3 PUSH2 0x1C61 JUMP JUMPDEST MLOAD SWAP1 KECCAK256 SWAP1 JUMP JUMPDEST PUSH1 0x2 PUSH1 0x0 SLOAD EQ PUSH2 0x2931 JUMPI PUSH1 0x2 PUSH1 0x0 SSTORE JUMP JUMPDEST PUSH4 0x3EE5AEB5 PUSH1 0xE0 SHL PUSH1 0x0 MSTORE PUSH1 0x4 PUSH1 0x0 REVERT JUMPDEST PUSH1 0x0 MSTORE PUSH1 0x6 PUSH1 0x20 MSTORE PUSH1 0x1 DUP1 PUSH1 0xA0 SHL SUB PUSH1 0x40 PUSH1 0x0 KECCAK256 SLOAD AND DUP1 PUSH1 0x0 MSTORE PUSH1 0x8 PUSH1 0x20 MSTORE PUSH1 0x40 PUSH1 0x0 KECCAK256 SLOAD PUSH2 0x296E JUMPI POP JUMP JUMPDEST PUSH1 0x0 MSTORE PUSH1 0x8 PUSH1 0x20 MSTORE PUSH1 0x40 PUSH1 0x0 KECCAK256 DUP1 SLOAD SWAP1 PUSH1 0x0 NOT DUP3 ADD SWAP2 DUP3 GT PUSH2 0x1357 JUMPI SSTORE JUMP JUMPDEST DUP1 PUSH1 0x0 MSTORE PUSH1 0x2 PUSH1 0x20 MSTORE PUSH1 0x40 PUSH1 0x0 KECCAK256 SWAP1 PUSH1 0x0 MSTORE PUSH1 0x3 PUSH1 0x20 MSTORE PUSH1 0x40 PUSH1 0x0 KECCAK256 SLOAD SWAP2 PUSH1 0x5 DUP3 ADD SLOAD DUP4 LT ISZERO PUSH2 0x2AAD JUMPI PUSH2 0x29D1 PUSH2 0x29CC SWAP4 PUSH1 0x2 DUP5 ADD SLOAD SWAP5 DUP6 DUP1 SWAP3 PUSH2 0x1F8B JUMP JUMPDEST PUSH2 0x1F7E JUMP JUMPDEST PUSH1 0x6 DUP4 ADD SLOAD LT PUSH2 0x2AAD JUMPI PUSH1 0x1 PUSH1 0x1 PUSH1 0xA0 SHL SUB AND SWAP1 DUP2 ISZERO PUSH2 0x2AEA JUMPI SLOAD PUSH1 0x40 MLOAD PUSH4 0x70A08231 PUSH1 0xE0 SHL DUP2 MSTORE PUSH1 0x1 PUSH1 0x1 PUSH1 0xA0 SHL SUB SWAP1 SWAP2 AND PUSH1 0x4 DUP3 ADD DUP2 SWAP1 MSTORE SWAP2 SWAP1 PUSH1 0x20 DUP2 PUSH1 0x24 DUP2 DUP6 GAS STATICCALL DUP1 ISZERO PUSH2 0xA85 JUMPI DUP5 SWAP2 PUSH1 0x0 SWAP2 PUSH2 0x2AB5 JUMPI JUMPDEST POP LT PUSH2 0x2AAD JUMPI PUSH1 0x40 MLOAD PUSH4 0x6EB1769F PUSH1 0xE1 SHL DUP2 MSTORE PUSH1 0x1 PUSH1 0x1 PUSH1 0xA0 SHL SUB SWAP3 SWAP1 SWAP3 AND PUSH1 0x4 DUP4 ADD MSTORE ADDRESS PUSH1 0x24 DUP4 ADD MSTORE PUSH1 0x20 SWAP1 DUP3 SWAP1 PUSH1 0x44 SWAP1 DUP3 SWAP1 GAS STATICCALL SWAP1 DUP2 ISZERO PUSH2 0xA85 JUMPI PUSH1 0x0 SWAP2 PUSH2 0x2A7B JUMPI JUMPDEST POP LT PUSH2 0x2A76 JUMPI PUSH1 0x1 SWAP1 JUMP JUMPDEST PUSH1 0x0 SWAP1 JUMP JUMPDEST SWAP1 POP PUSH1 0x20 DUP2 RETURNDATASIZE PUSH1 0x20 GT PUSH2 0x2AA5 JUMPI JUMPDEST DUP2 PUSH2 0x2A96 PUSH1 0x20 SWAP4 DUP4 PUSH2 0x1C61 JUMP JUMPDEST DUP2 ADD SUB SLT PUSH2 0x20A JUMPI MLOAD CODESIZE PUSH2 0x2A6B JUMP JUMPDEST RETURNDATASIZE SWAP2 POP PUSH2 0x2A89 JUMP JUMPDEST POP POP POP PUSH1 0x0 SWAP1 JUMP JUMPDEST SWAP2 POP POP PUSH1 0x20 DUP2 RETURNDATASIZE PUSH1 0x20 GT PUSH2 0x2AE2 JUMPI JUMPDEST DUP2 PUSH2 0x2AD1 PUSH1 0x20 SWAP4 DUP4 PUSH2 0x1C61 JUMP JUMPDEST DUP2 ADD SUB SLT PUSH2 0x20A JUMPI DUP4 SWAP1 MLOAD CODESIZE PUSH2 0x2A26 JUMP JUMPDEST RETURNDATASIZE SWAP2 POP PUSH2 0x2AC4 JUMP JUMPDEST POP POP POP PUSH1 0x1 SWAP1 JUMP JUMPDEST PUSH1 0x2 DUP2 ADD SLOAD DUP2 SLOAD PUSH1 0x40 MLOAD PUSH4 0x70A08231 PUSH1 0xE0 SHL DUP2 MSTORE PUSH1 0x1 PUSH1 0x1 PUSH1 0xA0 SHL SUB SWAP2 DUP3 AND PUSH1 0x4 DUP3 ADD DUP2 SWAP1 MSTORE SWAP4 SWAP7 SWAP6 SWAP5 SWAP1 SWAP2 AND SWAP4 SWAP2 SWAP1 PUSH1 0x20 DUP2 PUSH1 0x24 DUP2 DUP9 GAS STATICCALL DUP1 ISZERO PUSH2 0xA85 JUMPI DUP3 SWAP2 PUSH1 0x0 SWAP2 PUSH2 0x2D3C JUMPI JUMPDEST POP LT PUSH2 0x2CF8 JUMPI PUSH1 0x40 MLOAD PUSH4 0x6EB1769F PUSH1 0xE1 SHL DUP2 MSTORE PUSH1 0x1 PUSH1 0x1 PUSH1 0xA0 SHL SUB DUP5 AND PUSH1 0x4 DUP3 ADD MSTORE ADDRESS PUSH1 0x24 DUP3 ADD MSTORE PUSH1 0x20 DUP2 PUSH1 0x44 DUP2 DUP9 GAS STATICCALL SWAP1 DUP2 ISZERO PUSH2 0xA85 JUMPI PUSH1 0x0 SWAP2 PUSH2 0x2CC6 JUMPI JUMPDEST POP LT PUSH2 0x2C78 JUMPI PUSH1 0x1 DUP6 ADD SLOAD PUSH1 0x40 MLOAD PUSH4 0x23B872DD PUSH1 0xE0 SHL PUSH1 0x20 DUP3 ADD MSTORE PUSH1 0x1 PUSH1 0x1 PUSH1 0xA0 SHL SUB SWAP4 DUP5 AND PUSH1 0x24 DUP3 ADD MSTORE SWAP3 AND PUSH1 0x44 DUP4 ADD MSTORE PUSH1 0x64 DUP3 ADD MSTORE PUSH2 0x2BC9 SWAP1 PUSH2 0x2BC3 DUP2 PUSH1 0x84 DUP2 ADD PUSH2 0x1101 JUMP JUMPDEST DUP3 PUSH2 0x2E48 JUMP JUMPDEST ISZERO PUSH2 0x2C67 JUMPI SWAP2 SLOAD PUSH1 0x40 MLOAD PUSH4 0x23B872DD PUSH1 0xE0 SHL PUSH1 0x20 DUP3 ADD MSTORE PUSH1 0x1 PUSH1 0x1 PUSH1 0xA0 SHL SUB SWAP1 SWAP2 AND PUSH1 0x24 DUP3 ADD MSTORE CALLER PUSH1 0x44 DUP3 ADD MSTORE PUSH1 0x64 DUP1 DUP3 ADD SWAP3 SWAP1 SWAP3 MSTORE SWAP1 DUP2 MSTORE PUSH2 0x2C16 SWAP2 PUSH2 0x2C11 PUSH1 0x84 DUP4 PUSH2 0x1C61 JUMP JUMPDEST PUSH2 0x2E48 JUMP JUMPDEST ISZERO PUSH2 0x2C33 JUMPI PUSH1 0x1 SWAP1 PUSH1 0x40 MLOAD PUSH2 0x2C2C PUSH1 0x20 DUP3 PUSH2 0x1C61 JUMP JUMPDEST PUSH1 0x0 DUP2 MSTORE SWAP1 JUMP JUMPDEST PUSH1 0x0 SWAP1 PUSH1 0x40 MLOAD PUSH2 0x2C44 PUSH1 0x40 DUP3 PUSH2 0x1C61 JUMP JUMPDEST PUSH1 0x13 DUP2 MSTORE PUSH19 0x119959481D1C985B9CD9995C8819985A5B1959 PUSH1 0x6A SHL PUSH1 0x20 DUP3 ADD MSTORE SWAP1 JUMP JUMPDEST POP POP POP PUSH1 0x0 SWAP1 PUSH2 0x2C75 PUSH2 0x1FAB JUMP JUMPDEST SWAP1 JUMP JUMPDEST POP POP POP POP POP PUSH1 0x0 SWAP1 PUSH1 0x40 MLOAD PUSH2 0x2C8E PUSH1 0x60 DUP3 PUSH2 0x1C61 JUMP JUMPDEST PUSH1 0x22 DUP2 MSTORE PUSH32 0x496E73756666696369656E7420616C6C6F77616E636520666F72207061796D65 PUSH1 0x20 DUP3 ADD MSTORE PUSH2 0x1B9D PUSH1 0xF2 SHL PUSH1 0x40 DUP3 ADD MSTORE SWAP1 JUMP JUMPDEST SWAP1 POP PUSH1 0x20 DUP2 RETURNDATASIZE PUSH1 0x20 GT PUSH2 0x2CF0 JUMPI JUMPDEST DUP2 PUSH2 0x2CE1 PUSH1 0x20 SWAP4 DUP4 PUSH2 0x1C61 JUMP JUMPDEST DUP2 ADD SUB SLT PUSH2 0x20A JUMPI MLOAD CODESIZE PUSH2 0x2B7B JUMP JUMPDEST RETURNDATASIZE SWAP2 POP PUSH2 0x2CD4 JUMP JUMPDEST POP POP POP POP POP POP PUSH1 0x0 SWAP1 PUSH1 0x40 MLOAD PUSH2 0x2D0F PUSH1 0x40 DUP3 PUSH2 0x1C61 JUMP JUMPDEST PUSH1 0x20 DUP2 MSTORE PUSH32 0x496E73756666696369656E742062616C616E636520666F72207061796D656E74 PUSH1 0x20 DUP3 ADD MSTORE SWAP1 JUMP JUMPDEST SWAP2 POP POP PUSH1 0x20 DUP2 RETURNDATASIZE PUSH1 0x20 GT PUSH2 0x2D69 JUMPI JUMPDEST DUP2 PUSH2 0x2D58 PUSH1 0x20 SWAP4 DUP4 PUSH2 0x1C61 JUMP JUMPDEST DUP2 ADD SUB SLT PUSH2 0x20A JUMPI DUP2 SWAP1 MLOAD CODESIZE PUSH2 0x2B3B JUMP JUMPDEST RETURNDATASIZE SWAP2 POP PUSH2 0x2D4B JUMP JUMPDEST PUSH1 0x1 SLOAD PUSH1 0x1 PUSH1 0x1 PUSH1 0xA0 SHL SUB AND CALLER SUB PUSH2 0x2D85 JUMPI JUMP JUMPDEST PUSH4 0x118CDAA7 PUSH1 0xE0 SHL PUSH1 0x0 MSTORE CALLER PUSH1 0x4 MSTORE PUSH1 0x24 PUSH1 0x0 REVERT JUMPDEST DUP2 MLOAD SWAP2 SWAP1 PUSH1 0x41 DUP4 SUB PUSH2 0x2DCB JUMPI PUSH2 0x2DC4 SWAP3 POP PUSH1 0x20 DUP3 ADD MLOAD SWAP1 PUSH1 0x60 PUSH1 0x40 DUP5 ADD MLOAD SWAP4 ADD MLOAD PUSH1 0x0 BYTE SWAP1 PUSH2 0x2E8C JUMP JUMPDEST SWAP2 SWAP3 SWAP1 SWAP2 SWAP1 JUMP JUMPDEST POP POP PUSH1 0x0 SWAP2 PUSH1 0x2 SWAP2 SWAP1 JUMP JUMPDEST SWAP2 SWAP1 SWAP2 PUSH1 0x4 DUP2 LT ISZERO PUSH2 0x478 JUMPI DUP1 PUSH2 0x2DEC JUMPI POP SWAP1 POP JUMP JUMPDEST PUSH1 0x0 PUSH1 0x1 DUP3 SUB PUSH2 0x2E07 JUMPI PUSH4 0xF645EEDF PUSH1 0xE0 SHL PUSH1 0x0 MSTORE PUSH1 0x4 PUSH1 0x0 REVERT JUMPDEST POP PUSH1 0x2 DUP2 SUB PUSH2 0x2E25 JUMPI DUP3 PUSH4 0xFCE698F7 PUSH1 0xE0 SHL PUSH1 0x0 MSTORE PUSH1 0x4 MSTORE PUSH1 0x24 PUSH1 0x0 REVERT JUMPDEST SWAP1 SWAP2 PUSH1 0x3 PUSH1 0x0 SWAP3 EQ PUSH2 0x2E35 JUMPI POP POP JUMP JUMPDEST PUSH4 0x35E2F383 PUSH1 0xE2 SHL DUP3 MSTORE PUSH1 0x4 MSTORE PUSH1 0x24 SWAP2 POP REVERT JUMPDEST PUSH1 0x0 SWAP2 DUP3 SWAP2 DUP3 PUSH1 0x20 DUP4 MLOAD SWAP4 ADD SWAP2 GAS CALL PUSH2 0x2E5F PUSH2 0x1EEA JUMP JUMPDEST SWAP1 ISZERO PUSH2 0x2E86 JUMPI DUP1 MLOAD SWAP1 DUP2 ISZERO PUSH2 0x2E7F JUMPI PUSH1 0x20 DUP1 PUSH2 0x2C75 SWAP4 DUP4 ADD ADD SWAP2 ADD PUSH2 0x1F1A JUMP JUMPDEST POP POP PUSH1 0x1 SWAP1 JUMP JUMPDEST POP PUSH1 0x0 SWAP1 JUMP JUMPDEST SWAP2 SWAP1 PUSH32 0x7FFFFFFFFFFFFFFFFFFFFFFFFFFFFFFF5D576E7357A4501DDFE92F46681B20A0 DUP5 GT PUSH2 0x2F09 JUMPI SWAP2 PUSH1 0x20 SWAP4 PUSH1 0x80 SWAP3 PUSH1 0xFF PUSH1 0x0 SWAP6 PUSH1 0x40 MLOAD SWAP5 DUP6 MSTORE AND DUP7 DUP5 ADD MSTORE PUSH1 0x40 DUP4 ADD MSTORE PUSH1 0x60 DUP3 ADD MSTORE DUP3 DUP1 MSTORE PUSH1 0x1 GAS STATICCALL ISZERO PUSH2 0xA85 JUMPI PUSH1 0x0 MLOAD PUSH1 0x1 PUSH1 0x1 PUSH1 0xA0 SHL SUB DUP2 AND ISZERO PUSH2 0x2EFD JUMPI SWAP1 PUSH1 0x0 SWAP1 PUSH1 0x0 SWAP1 JUMP JUMPDEST POP PUSH1 0x0 SWAP1 PUSH1 0x1 SWAP1 PUSH1 0x0 SWAP1 JUMP JUMPDEST POP POP POP PUSH1 0x0 SWAP2 PUSH1 0x3 SWAP2 SWAP1 JUMP INVALID LOG2 PUSH5 0x6970667358 0x22 SLT KECCAK256 0x28 0x2E 0xD0 SDIV CALLER 0xD2 BYTE 0xB5 SWAP6 PUSH0 DUP5 CODECOPY 0xB6 CHAINID OR BLOBHASH PUSH27 0x7E91E1AB1FE67D264628859CB2651A64736F6C634300081C00336E ISZERO BLOCKHASH OR SHL PUSH13 0xC960B71A7020D9F60077F6AF9 BALANCE 0xA8 0xBB CREATE2 SWAP1 0xDA MUL 0x23 0xDA 0xCF PUSH22 0xC7AF05B8CCBB9D4D8FB16EA74CE3C29A41F1B461FBDA SELFDESTRUCT SELFBALANCE EQ LOG0 0xD9 0xA8 0xEB SDIV BLOBHASH SWAP8 CHAINID 0xBC "},"gasEstimates":{"creation":{"codeDepositCost":"2421400","executionCost":"infinite","totalCost":"infinite"},"external":{"PAUSE_REQUEST_TYPEHASH()":"235","PROTOCOL_FEE_BPS()":"675","RELAYER_REGISTRY()":"infinite","RESUME_REQUEST_TYPEHASH()":"477","SUBSCRIPTION_INTENT_TYPEHASH()":"191","activeSubscriptionCounts(address)":"3017","addSupportedToken(address)":"105229","cancelSubscription(bytes32)":"64242","createSubscription((address,address,uint256,uint256,uint256,uint256,uint256,uint256,uint256,address),bytes)":"infinite","currentNonce(address)":"2511","depositForSubscription(bytes32)":"77928","ethDeposits(bytes32)":"2976","executeSubscription(bytes32,address)":"infinite","executedPayments(bytes32)":"2954","getNextNonce(address)":"2797","getNextPaymentTime(bytes32)":"9465","getPaymentCount(bytes32)":"2536","getSubscription(bytes32)":"infinite","getSubscriptionToken(bytes32)":"2774","getSupportedTokens()":"infinite","isSubscriptionActive(bytes32)":"4959","owner()":"2648","pauseSubscription(bytes32,bytes)":"infinite","removeSupportedToken(address)":"92517","renounceOwnership()":"28297","resumeSubscription(bytes32,bytes)":"infinite","subscriptionToken(bytes32)":"2620","subscriptions(bytes32)":"22070","supportedTokens(address)":"2545","transferOwnership(address)":"28843","verifyIntent((address,address,uint256,uint256,uint256,uint256,uint256,uint256,uint256,address),bytes)":"infinite","withdrawUnusedETH(bytes32)":"infinite"},"internal":{"_addSupportedTokenInternal(address,bool)":"infinite","_attemptPayment(struct SubscriptionManager.Subscription storage pointer,address,uint256,uint256)":"infinite","_callToken(address,bytes memory)":"infinite","_canExecutePayment(bytes32,address)":"infinite","_decrementActiveCount(bytes32)":"28679","_domainSeparatorV4()":"infinite","_hashIntent(struct SubscriptionManager.SubscriptionIntent memory)":"infinite","_isPaymentDue(bytes32)":"infinite","_validateSubscriptionParams(struct SubscriptionManager.SubscriptionIntent calldata)":"infinite"}},"methodIdentifiers":{"PAUSE_REQUEST_TYPEHASH()":"5adf2d8d","PROTOCOL_FEE_BPS()":"be378228","RELAYER_REGISTRY()":"a807db75","RESUME_REQUEST_TYPEHASH()":"7b0e3b62","SUBSCRIPTION_INTENT_TYPEHASH()":"33e5a1d6","activeSubscriptionCounts(address)":"d6559120","addSupportedToken(address)":"6d69fcaf","cancelSubscription(bytes32)":"d21f1ffc","createSubscription((address,address,uint256,uint256,uint256,uint256,uint256,uint256,uint256,address),bytes)":"9c9b549d","currentNonce(address)":"6437ecfc","depositForSubscription(bytes32)":"7f4a7fd0","ethDeposits(bytes32)":"ebd9c39c","executeSubscription(bytes32,address)":"69e1fd9a","executedPayments(bytes32)":"eaef9f2f","getNextNonce(address)":"90193b7c","getNextPaymentTime(bytes32)":"c603ff48","getPaymentCount(bytes32)":"6f956971","getSubscription(bytes32)":"1f32768e","getSubscriptionToken(bytes32)":"93db9cc4","getSupportedTokens()":"d3c7c2c7","isSubscriptionActive(bytes32)":"91351c82","owner()":"8da5cb5b","pauseSubscription(bytes32,bytes)":"6c00f051","removeSupportedToken(address)":"76319190","renounceOwnership()":"715018a6","resumeSubscription(bytes32,bytes)":"77bef003","subscriptionToken(bytes32)":"7656b440","subscriptions(bytes32)":"94259c6c","supportedTokens(address)":"68c4ac26","transferOwnership(address)":"f2fde38b","verifyIntent((address,address,uint256,uint256,uint256,uint256,uint256,uint256,uint256,address),bytes)":"1282a908","withdrawUnusedETH(bytes32)":"4e504922"}},"storageLayout":{"storage":[{"astId":1498,"contract":"contracts/SubscriptionManager.sol:SubscriptionManager","label":"_status","offset":0,"slot":"0","type":"t_uint256"},{"astId":8,"contract":"contracts/SubscriptionManager.sol:SubscriptionManager","label":"_owner","offset":0,"slot":"1","type":"t_address"},{"astId":3182,"contract":"contracts/SubscriptionManager.sol:SubscriptionManager","label":"subscriptions","offset":0,"slot":"2","type":"t_mapping(t_bytes32,t_struct(Subscription)3156_storage)"},{"astId":3186,"contract":"contracts/SubscriptionManager.sol:SubscriptionManager","label":"executedPayments","offset":0,"slot":"3","type":"t_mapping(t_bytes32,t_uint256)"},{"astId":3190,"contract":"contracts/SubscriptionManager.sol:SubscriptionManager","label":"currentNonce","offset":0,"slot":"4","type":"t_mapping(t_address,t_uint256)"},{"astId":3194,"contract":"contracts/SubscriptionManager.sol:SubscriptionManager","label":"supportedTokens","offset":0,"slot":"5","type":"t_mapping(t_address,t_bool)"},{"astId":3198,"contract":"contracts/SubscriptionManager.sol:SubscriptionManager","label":"subscriptionToken","offset":0,"slot":"6","type":"t_mapping(t_bytes32,t_address)"},{"astId":3202,"contract":"contracts/SubscriptionManager.sol:SubscriptionManager","label":"ethDeposits","offset":0,"slot":"7","type":"t_mapping(t_bytes32,t_uint256)"},{"astId":3206,"contract":"contracts/SubscriptionManager.sol:SubscriptionManager","label":"activeSubscriptionCounts","offset":0,"slot":"8","type":"t_mapping(t_address,t_uint256)"},{"astId":3209,"contract":"contracts/SubscriptionManager.sol:SubscriptionManager","label":"supportedTokenList","offset":0,"slot":"9","type":"t_array(t_address)dyn_storage"},{"astId":3213,"contract":"contracts/SubscriptionManager.sol:SubscriptionManager","label":"supportedTokenIndex","offset":0,"slot":"10","type":"t_mapping(t_address,t_uint256)"}],"types":{"t_address":{"encoding":"inplace","label":"address","numberOfBytes":"20"},"t_array(t_address)dyn_storage":{"base":"t_address","encoding":"dynamic_array","label":"address[]","numberOfBytes":"32"},"t_bool":{"encoding":"inplace","label":"bool","numberOfBytes":"1"},"t_bytes32":{"encoding":"inplace","label":"bytes32","numberOfBytes":"32"},"t_enum(SubscriptionStatus)3132":{"encoding":"inplace","label":"enum SubscriptionManager.SubscriptionStatus","numberOfBytes":"1"},"t_mapping(t_address,t_bool)":{"encoding":"mapping","key":"t_address","label":"mapping(address => bool)","numberOfBytes":"32","value":"t_bool"},"t_mapping(t_address,t_uint256)":{"encoding":"mapping","key":"t_address","label":"mapping(address => uint256)","numberOfBytes":"32","value":"t_uint256"},"t_mapping(t_bytes32,t_address)":{"encoding":"mapping","key":"t_bytes32","label":"mapping(bytes32 => address)","numberOfBytes":"32","value":"t_address"},"t_mapping(t_bytes32,t_struct(Subscription)3156_storage)":{"encoding":"mapping","key":"t_bytes32","label":"mapping(bytes32 => struct SubscriptionManager.Subscription)","numberOfBytes":"32","value":"t_struct(Subscription)3156_storage"},"t_mapping(t_bytes32,t_uint256)":{"encoding":"mapping","key":"t_bytes32","label":"mapping(bytes32 => uint256)","numberOfBytes":"32","value":"t_uint256"},"t_struct(Subscription)3156_storage":{"encoding":"inplace","label":"struct SubscriptionManager.Subscription","members":[{"astId":3134,"contract":"contracts/SubscriptionManager.sol:SubscriptionManager","label":"subscriber","offset":0,"slot":"0","type":"t_address"},{"astId":3136,"contract":"contracts/SubscriptionManager.sol:SubscriptionManager","label":"merchant","offset":0,"slot":"1","type":"t_address"},{"astId":3138,"contract":"contracts/SubscriptionManager.sol:SubscriptionManager","label":"amount","offset":0,"slot":"2","type":"t_uint256"},{"astId":3140,"contract":"contracts/SubscriptionManager.sol:SubscriptionManager","label":"interval","offset":0,"slot":"3","type":"t_uint256"},{"astId":3142,"contract":"contracts/SubscriptionManager.sol:SubscriptionManager","label":"startTime","offset":0,"slot":"4","type":"t_uint256"},{"astId":3144,"contract":"contracts/SubscriptionManager.sol:SubscriptionManager","label":"maxPayments","offset":0,"slot":"5","type":"t_uint256"},{"astId":3146,"contract":"contracts/SubscriptionManager.sol:SubscriptionManager","label":"maxTotalAmount","offset":0,"slot":"6","type":"t_uint256"},{"astId":3148,"contract":"contracts/SubscriptionManager.sol:SubscriptionManager","label":"expiry","offset":0,"slot":"7","type":"t_uint256"},{"astId":3150,"contract":"contracts/SubscriptionManager.sol:SubscriptionManager","label":"nonce","offset":0,"slot":"8","type":"t_uint256"},{"astId":3152,"contract":"contracts/SubscriptionManager.sol:SubscriptionManager","label":"token","offset":0,"slot":"9","type":"t_address"},{"astId":3155,"contract":"contracts/SubscriptionManager.sol:SubscriptionManager","label":"status","offset":20,"slot":"9","type":"t_enum(SubscriptionStatus)3132"}],"numberOfBytes":"320"},"t_uint256":{"encoding":"inplace","label":"uint256","numberOfBytes":"32"}}},"userdoc":{"kind":"user","methods":{},"version":1}}}}