{"project/contracts/SubscriptionManager.sol":{"SubscriptionManager":{"abi":[{"inputs":[{"internalType":"address","name":"_pyusdAddress","type":"address"}],"stateMutability":"nonpayable","type":"constructor"},{"inputs":[],"name":"ECDSAInvalidSignature","type":"error"},{"inputs":[{"internalType":"uint256","name":"length","type":"uint256"}],"name":"ECDSAInvalidSignatureLength","type":"error"},{"inputs":[{"internalType":"bytes32","name":"s","type":"bytes32"}],"name":"ECDSAInvalidSignatureS","type":"error"},{"anonymous":false,"inputs":[{"indexed":true,"internalType":"bytes32","name":"subscriptionId","type":"bytes32"},{"indexed":true,"internalType":"address","name":"subscriber","type":"address"},{"indexed":true,"internalType":"address","name":"merchant","type":"address"},{"indexed":false,"internalType":"uint256","name":"paymentNumber","type":"uint256"},{"indexed":false,"internalType":"uint256","name":"amount","type":"uint256"},{"indexed":false,"internalType":"uint256","name":"fee","type":"uint256"},{"indexed":false,"internalType":"address","name":"relayer","type":"address"}],"name":"PaymentExecuted","type":"event"},{"anonymous":false,"inputs":[{"indexed":true,"internalType":"bytes32","name":"subscriptionId","type":"bytes32"},{"indexed":true,"internalType":"address","name":"subscriber","type":"address"},{"indexed":true,"internalType":"address","name":"merchant","type":"address"},{"indexed":false,"internalType":"uint256","name":"amount","type":"uint256"},{"indexed":false,"internalType":"string","name":"reason","type":"string"}],"name":"PaymentFailed","type":"event"},{"anonymous":false,"inputs":[{"indexed":true,"internalType":"bytes32","name":"subscriptionId","type":"bytes32"},{"indexed":true,"internalType":"address","name":"subscriber","type":"address"},{"indexed":true,"internalType":"address","name":"merchant","type":"address"}],"name":"SubscriptionCancelled","type":"event"},{"anonymous":false,"inputs":[{"indexed":true,"internalType":"bytes32","name":"subscriptionId","type":"bytes32"},{"indexed":true,"internalType":"address","name":"subscriber","type":"address"},{"indexed":true,"internalType":"address","name":"merchant","type":"address"},{"indexed":false,"internalType":"uint256","name":"amount","type":"uint256"},{"indexed":false,"internalType":"uint256","name":"interval","type":"uint256"},{"indexed":false,"internalType":"uint256","name":"maxPayments","type":"uint256"},{"indexed":false,"internalType":"uint256","name":"maxTotalAmount","type":"uint256"},{"indexed":false,"internalType":"uint256","name":"expiry","type":"uint256"}],"name":"SubscriptionCreated","type":"event"},{"anonymous":false,"inputs":[{"indexed":true,"internalType":"bytes32","name":"subscriptionId","type":"bytes32"},{"indexed":true,"internalType":"address","name":"subscriber","type":"address"}],"name":"SubscriptionPaused","type":"event"},{"anonymous":false,"inputs":[{"indexed":true,"internalType":"bytes32","name":"subscriptionId","type":"bytes32"},{"indexed":true,"internalType":"address","name":"subscriber","type":"address"}],"name":"SubscriptionResumed","type":"event"},{"inputs":[],"name":"PROTOCOL_FEE_BPS","outputs":[{"internalType":"uint256","name":"","type":"uint256"}],"stateMutability":"view","type":"function"},{"inputs":[],"name":"PYUSD_ADDRESS","outputs":[{"internalType":"address","name":"","type":"address"}],"stateMutability":"view","type":"function"},{"inputs":[],"name":"SUBSCRIPTION_INTENT_TYPEHASH","outputs":[{"internalType":"bytes32","name":"","type":"bytes32"}],"stateMutability":"view","type":"function"},{"inputs":[{"components":[{"internalType":"address","name":"subscriber","type":"address"},{"internalType":"address","name":"merchant","type":"address"},{"internalType":"uint256","name":"amount","type":"uint256"},{"internalType":"uint256","name":"interval","type":"uint256"},{"internalType":"uint256","name":"startTime","type":"uint256"},{"internalType":"uint256","name":"maxPayments","type":"uint256"},{"internalType":"uint256","name":"maxTotalAmount","type":"uint256"},{"internalType":"uint256","name":"expiry","type":"uint256"},{"internalType":"uint256","name":"nonce","type":"uint256"}],"internalType":"struct SubscriptionManager.SubscriptionIntent","name":"intent","type":"tuple"},{"internalType":"bytes","name":"signature","type":"bytes"}],"name":"createSubscription","outputs":[{"internalType":"bytes32","name":"subscriptionId","type":"bytes32"}],"stateMutability":"nonpayable","type":"function"},{"inputs":[{"internalType":"bytes32","name":"subscriptionId","type":"bytes32"},{"internalType":"address","name":"relayer","type":"address"}],"name":"executeSubscription","outputs":[],"stateMutability":"nonpayable","type":"function"},{"inputs":[{"internalType":"bytes32","name":"","type":"bytes32"}],"name":"executedPayments","outputs":[{"internalType":"uint256","name":"","type":"uint256"}],"stateMutability":"view","type":"function"},{"inputs":[{"internalType":"bytes32","name":"","type":"bytes32"}],"name":"subscriptions","outputs":[{"internalType":"address","name":"subscriber","type":"address"},{"internalType":"address","name":"merchant","type":"address"},{"internalType":"uint256","name":"amount","type":"uint256"},{"internalType":"uint256","name":"interval","type":"uint256"},{"internalType":"uint256","name":"startTime","type":"uint256"},{"internalType":"uint256","name":"maxPayments","type":"uint256"},{"internalType":"uint256","name":"maxTotalAmount","type":"uint256"},{"internalType":"uint256","name":"expiry","type":"uint256"},{"internalType":"uint256","name":"nonce","type":"uint256"},{"internalType":"enum SubscriptionManager.SubscriptionStatus","name":"status","type":"uint8"}],"stateMutability":"view","type":"function"},{"inputs":[{"components":[{"internalType":"address","name":"subscriber","type":"address"},{"internalType":"address","name":"merchant","type":"address"},{"internalType":"uint256","name":"amount","type":"uint256"},{"internalType":"uint256","name":"interval","type":"uint256"},{"internalType":"uint256","name":"startTime","type":"uint256"},{"internalType":"uint256","name":"maxPayments","type":"uint256"},{"internalType":"uint256","name":"maxTotalAmount","type":"uint256"},{"internalType":"uint256","name":"expiry","type":"uint256"},{"internalType":"uint256","name":"nonce","type":"uint256"}],"internalType":"struct SubscriptionManager.SubscriptionIntent","name":"intent","type":"tuple"},{"internalType":"bytes","name":"signature","type":"bytes"}],"name":"verifyIntent","outputs":[{"internalType":"bool","name":"valid","type":"bool"},{"internalType":"address","name":"signer","type":"address"}],"stateMutability":"view","type":"function"}],"evm":{"bytecode":{"linkReferences":{},"object":"60c060405234801561000f575f5ffd5b506040516117d03803806117d083398101604081905261002e91610110565b6001600160a01b031660809081526040805180820182526005815264417572756d60d81b6020918201528151808301835260018152603160f81b9082015281517f8b73c3c69bb8fe3d512ecc4cf759cc79239f7b179b0ffacaa9a75d522b39400f818301527facdbaa2d9365d09420a73f7eac1bfd80ef7f0a52431b7ed44c1d8a8f77e56da8818401527fc89efdaa54c0f20c7adf612882df0950f5a951637e0307cdcb4c672f298b8bc6606082015246938101939093523060a08085019190915282518085038201815260c09094019092528251920191909120905261013d565b5f60208284031215610120575f5ffd5b81516001600160a01b0381168114610136575f5ffd5b9392505050565b60805160a05161165d6101735f395f610b7401525f81816101ae01528181610358015281816108c90152610ff7015261165d5ff3fe608060405234801561000f575f5ffd5b5060043610610085575f3560e01c8063be37822811610058578063be3782281461016f578063d3a1cbfd14610177578063e2b02576146101a9578063eaef9f2f146101e8575f5ffd5b806333e5a1d6146100895780635ad63a24146100c357806369e1fd9a146100d657806394259c6c146100eb575b5f5ffd5b6100b07f95d1972ebb257253c8eca5422008068e9ebae76c58e3beafa47373a6a2c529da81565b6040519081526020015b60405180910390f35b6100b06100d13660046112fe565b610207565b6100e96100e43660046113a1565b610644565b005b6101596100f93660046113cb565b5f6020819052908152604090208054600182015460028301546003840154600485015460058601546006870154600788015460088901546009909901546001600160a01b0398891699979098169795969495939492939192909160ff168a565b6040516100ba9a999897969594939291906113f6565b6100b0603281565b61018a6101853660046112fe565b610b5a565b6040805192151583526001600160a01b039091166020830152016100ba565b6101d07f000000000000000000000000000000000000000000000000000000000000000081565b6040516001600160a01b0390911681526020016100ba565b6100b06101f63660046113cb565b60016020525f908152604090205481565b5f5f5f610215868686610b5a565b91509150818015610243575061022e6020870187611473565b6001600160a01b0316816001600160a01b0316145b6102885760405162461bcd60e51b8152602060048201526011602482015270496e76616c6964207369676e617475726560781b60448201526064015b60405180910390fd5b61029186610c36565b6102a86102a3368890038801886114c9565b610e5c565b85856040516020016102bc93929190611550565b60408051601f1981840301815291815281516020928301205f818152928390529120549093506001600160a01b0316156103385760405162461bcd60e51b815260206004820152601b60248201527f537562736372697074696f6e20616c7265616479206578697374730000000000604482015260640161027f565b5f61034b60a0880135604089013561157d565b9050806001600160a01b037f00000000000000000000000000000000000000000000000000000000000000001663dd62ed3e61038a60208b018b611473565b6040516001600160e01b031960e084901b1681526001600160a01b039091166004820152306024820152604401602060405180830381865afa1580156103d2573d5f5f3e3d5ffd5b505050506040513d601f19601f820116820180604052508101906103f69190611594565b10156104445760405162461bcd60e51b815260206004820152601c60248201527f496e73756666696369656e7420505955534420616c6c6f77616e636500000000604482015260640161027f565b6040805161014081019091528061045e60208a018a611473565b6001600160a01b0316815260200188602001602081019061047f9190611473565b6001600160a01b031681526020018860400135815260200188606001358152602001886080013581526020018860a0013581526020018860c0013581526020018860e00135815260200188610100013581526020015f60048111156104e6576104e66113e2565b90525f8581526020818152604091829020835181546001600160a01b039182166001600160a01b03199182161783559285015160018084018054929093169190941617905591830151600283015560608301516003830155608083015160048084019190915560a0840151600584015560c0840151600684015560e0840151600784015561010084015160088401556101208401516009840180549193909260ff1990921691849081111561059d5761059d6113e2565b02179055506105b59150506040880160208901611473565b6001600160a01b03166105cb6020890189611473565b60408051818b013581526060808c0135602083015260a0808d01359383019390935260c08c01359082015260e08b013560808201526001600160a01b03929092169187917fdec8943e7ef8a51d83c078700fdab942959d920107deebc0b4f301bb42289210910160405180910390a45050509392505050565b5f82815260208190526040902080546001600160a01b03166106a85760405162461bcd60e51b815260206004820152601b60248201527f537562736372697074696f6e20646f6573206e6f742065786973740000000000604482015260640161027f565b5f600982015460ff1660048111156106c2576106c26113e2565b1461070f5760405162461bcd60e51b815260206004820152601760248201527f537562736372697074696f6e206e6f7420616374697665000000000000000000604482015260640161027f565b80600701544211156107ab5760098101805460ff1916600317905560018101548154600283015460408051918252602082018190526014908201527314dd589cd8dc9a5c1d1a5bdb88195e1c1a5c995960621b60608201526001600160a01b03928316929091169085907f8d07bb7d7ffc0fde6ebc3e0e718c1fdbfac73eb7ea593da5566fa86a1c3c1a309060800160405180910390a4505050565b6107b483610f2d565b6107f65760405162461bcd60e51b815260206004820152601360248201527214185e5b595b9d081b9bdd08191d59481e595d606a1b604482015260640161027f565b6107ff83610f6f565b6108445760405162461bcd60e51b815260206004820152601660248201527510d85b9b9bdd08195e1958dd5d19481c185e5b595b9d60521b604482015260640161027f565b5f83815260016020819052604082205461085d916115ab565b90505f61271060328460020154610874919061157d565b61087e91906115be565b90505f81846002015461089191906115dd565b845460018601546040516323b872dd60e01b81526001600160a01b0392831660048201529082166024820152604481018390529192507f000000000000000000000000000000000000000000000000000000000000000091908216906323b872dd906064016020604051808303815f875af1925050508015610930575060408051601f3d908101601f1916820190925261092d918101906115f0565b60015b6109b1576001850154855460028701546040805191825260208201819052600f908201526e151c985b9cd9995c8819985a5b1959608a1b60608201526001600160a01b03928316929091169089907f8d07bb7d7ffc0fde6ebc3e0e718c1fdbfac73eb7ea593da5566fa86a1c3c1a30906080015b60405180910390a4610b51565b5084546040516323b872dd60e01b81526001600160a01b039182166004820152878216602482015260448101859052908216906323b872dd906064016020604051808303815f875af1925050508015610a27575060408051601f3d908101601f19168201909252610a24918101906115f0565b60015b610aa357600185015485546002870154604080519182526020820181905260139082015272119959481d1c985b9cd9995c8819985a5b1959606a1b60608201526001600160a01b03928316929091169089907f8d07bb7d7ffc0fde6ebc3e0e718c1fdbfac73eb7ea593da5566fa86a1c3c1a30906080016109a4565b505f878152600160205260408120805491610abd8361160f565b909155505060018501548554600287015460408051888152602081019290925281018690526001600160a01b038981166060830152928316929091169089907fda131df023be8b7d63a716139b42d5152ccf8728cfe960a6629bc576d36dd1189060800160405180910390a460058501545f8881526001602052604090205410610b515760098501805460ff191660041790555b50505050505050565b5f8080610b6f6102a3368890038801886114c9565b90505f7f000000000000000000000000000000000000000000000000000000000000000060405161190160f01b60208201526022810191909152604281018390526062016040516020818303038152906040528051906020012090505f610c0b8288888080601f0160208091040260200160405190810160405280939291908181526020018383808284375f9201919091525061110792505050565b9050610c1a6020890189611473565b6001600160a01b03828116911614945092505050935093915050565b428160e0013511610c895760405162461bcd60e51b815260206004820152601b60248201527f537562736372697074696f6e20696e74656e7420657870697265640000000000604482015260640161027f565b8060e0013581608001351115610ce15760405162461bcd60e51b815260206004820181905260248201527f53746172742074696d65206d757374206265206265666f726520657870697279604482015260640161027f565b5f816040013511610d345760405162461bcd60e51b815260206004820181905260248201527f416d6f756e74206d7573742062652067726561746572207468616e207a65726f604482015260640161027f565b5f816060013511610d925760405162461bcd60e51b815260206004820152602260248201527f496e74657276616c206d7573742062652067726561746572207468616e207a65604482015261726f60f01b606482015260840161027f565b5f8160a0013511610df45760405162461bcd60e51b815260206004820152602660248201527f4d6178207061796d656e7473206d7573742062652067726561746572207468616044820152656e207a65726f60d01b606482015260840161027f565b610e0660a0820135604083013561157d565b8160c001351015610e595760405162461bcd60e51b815260206004820152601d60248201527f4d617820746f74616c20616d6f756e7420696e73756666696369656e74000000604482015260640161027f565b50565b5f7f95d1972ebb257253c8eca5422008068e9ebae76c58e3beafa47373a6a2c529da825f015183602001518460400151856060015186608001518760a001518860c001518960e001518a6101000151604051602001610f109a99989796959493929190998a526001600160a01b0398891660208b01529690971660408901526060880194909452608087019290925260a086015260c085015260e08401526101008301919091526101208201526101400190565b604051602081830303815290604052805190602001209050919050565b5f81815260208181526040808320600190925282205460038201548390610f54908361157d565b8360040154610f6391906115ab565b42101595945050505050565b5f81815260208181526040808320600190925282205460058201548110610f9957505f9392505050565b5f826002015482610faa919061157d565b90508260060154836002015482610fc191906115ab565b1115610fd157505f949350505050565b600283015483546040516370a0823160e01b81526001600160a01b0391821660048201527f000000000000000000000000000000000000000000000000000000000000000092918316906370a0823190602401602060405180830381865afa15801561103f573d5f5f3e3d5ffd5b505050506040513d601f19601f820116820180604052508101906110639190611594565b101561107457505f95945050505050565b60028401548454604051636eb1769f60e11b81526001600160a01b0391821660048201523060248201529083169063dd62ed3e90604401602060405180830381865afa1580156110c6573d5f5f3e3d5ffd5b505050506040513d601f19601f820116820180604052508101906110ea9190611594565b10156110fb57505f95945050505050565b50600195945050505050565b5f5f5f5f6111158686611131565b925092509250611125828261117a565b50909150505b92915050565b5f5f5f8351604103611168576020840151604085015160608601515f1a61115a88828585611236565b955095509550505050611173565b505081515f91506002905b9250925092565b5f82600381111561118d5761118d6113e2565b03611196575050565b60018260038111156111aa576111aa6113e2565b036111c85760405163f645eedf60e01b815260040160405180910390fd5b60028260038111156111dc576111dc6113e2565b036111fd5760405163fce698f760e01b81526004810182905260240161027f565b6003826003811115611211576112116113e2565b03611232576040516335e2f38360e21b81526004810182905260240161027f565b5050565b5f80807f7fffffffffffffffffffffffffffffff5d576e7357a4501ddfe92f46681b20a084111561126f57505f915060039050826112f4565b604080515f808252602082018084528a905260ff891692820192909252606081018790526080810186905260019060a0016020604051602081039080840390855afa1580156112c0573d5f5f3e3d5ffd5b5050604051601f1901519150506001600160a01b0381166112eb57505f9250600191508290506112f4565b92505f91508190505b9450945094915050565b5f5f5f838503610140811215611312575f5ffd5b610120811215611320575f5ffd5b5083925061012084013567ffffffffffffffff81111561133e575f5ffd5b8401601f8101861361134e575f5ffd5b803567ffffffffffffffff811115611364575f5ffd5b866020828401011115611375575f5ffd5b939660209190910195509293505050565b80356001600160a01b038116811461139c575f5ffd5b919050565b5f5f604083850312156113b2575f5ffd5b823591506113c260208401611386565b90509250929050565b5f602082840312156113db575f5ffd5b5035919050565b634e487b7160e01b5f52602160045260245ffd5b6001600160a01b038b811682528a16602082015260408101899052606081018890526080810187905260a0810186905260c0810185905260e08101849052610100810183905261014081016005831061145d57634e487b7160e01b5f52602160045260245ffd5b826101208301529b9a5050505050505050505050565b5f60208284031215611483575f5ffd5b61148c82611386565b9392505050565b604051610120810167ffffffffffffffff811182821017156114c357634e487b7160e01b5f52604160045260245ffd5b60405290565b5f6101208284031280156114db575f5ffd5b506114e4611493565b6114ed83611386565b81526114fb60208401611386565b602082015260408381013590820152606080840135908201526080808401359082015260a0808401359082015260c0808401359082015260e08084013590820152610100928301359281019290925250919050565b838152818360208301375f910160200190815292915050565b634e487b7160e01b5f52601160045260245ffd5b808202811582820484141761112b5761112b611569565b5f602082840312156115a4575f5ffd5b5051919050565b8082018082111561112b5761112b611569565b5f826115d857634e487b7160e01b5f52601260045260245ffd5b500490565b8181038181111561112b5761112b611569565b5f60208284031215611600575f5ffd5b8151801515811461148c575f5ffd5b5f6001820161162057611620611569565b506001019056fea26469706673582212201b75c5c34dfbe57963b515a26c3a882b897c71db47947ecb673088ce10dc4a8764736f6c634300081c0033","opcodes":"PUSH1 0xC0 PUSH1 0x40 MSTORE CALLVALUE DUP1 ISZERO PUSH2 0xF JUMPI PUSH0 PUSH0 REVERT JUMPDEST POP PUSH1 0x40 MLOAD PUSH2 0x17D0 CODESIZE SUB DUP1 PUSH2 0x17D0 DUP4 CODECOPY DUP2 ADD PUSH1 0x40 DUP2 SWAP1 MSTORE PUSH2 0x2E SWAP2 PUSH2 0x110 JUMP JUMPDEST PUSH1 0x1 PUSH1 0x1 PUSH1 0xA0 SHL SUB AND PUSH1 0x80 SWAP1 DUP2 MSTORE PUSH1 0x40 DUP1 MLOAD DUP1 DUP3 ADD DUP3 MSTORE PUSH1 0x5 DUP2 MSTORE PUSH5 0x417572756D PUSH1 0xD8 SHL PUSH1 0x20 SWAP2 DUP3 ADD MSTORE DUP2 MLOAD DUP1 DUP4 ADD DUP4 MSTORE PUSH1 0x1 DUP2 MSTORE PUSH1 0x31 PUSH1 0xF8 SHL SWAP1 DUP3 ADD MSTORE DUP2 MLOAD PUSH32 0x8B73C3C69BB8FE3D512ECC4CF759CC79239F7B179B0FFACAA9A75D522B39400F DUP2 DUP4 ADD MSTORE PUSH32 0xACDBAA2D9365D09420A73F7EAC1BFD80EF7F0A52431B7ED44C1D8A8F77E56DA8 DUP2 DUP5 ADD MSTORE PUSH32 0xC89EFDAA54C0F20C7ADF612882DF0950F5A951637E0307CDCB4C672F298B8BC6 PUSH1 0x60 DUP3 ADD MSTORE CHAINID SWAP4 DUP2 ADD SWAP4 SWAP1 SWAP4 MSTORE ADDRESS PUSH1 0xA0 DUP1 DUP6 ADD SWAP2 SWAP1 SWAP2 MSTORE DUP3 MLOAD DUP1 DUP6 SUB DUP3 ADD DUP2 MSTORE PUSH1 0xC0 SWAP1 SWAP5 ADD SWAP1 SWAP3 MSTORE DUP3 MLOAD SWAP3 ADD SWAP2 SWAP1 SWAP2 KECCAK256 SWAP1 MSTORE PUSH2 0x13D JUMP JUMPDEST PUSH0 PUSH1 0x20 DUP3 DUP5 SUB SLT ISZERO PUSH2 0x120 JUMPI PUSH0 PUSH0 REVERT JUMPDEST DUP2 MLOAD PUSH1 0x1 PUSH1 0x1 PUSH1 0xA0 SHL SUB DUP2 AND DUP2 EQ PUSH2 0x136 JUMPI PUSH0 PUSH0 REVERT JUMPDEST SWAP4 SWAP3 POP POP POP JUMP JUMPDEST PUSH1 0x80 MLOAD PUSH1 0xA0 MLOAD PUSH2 0x165D PUSH2 0x173 PUSH0 CODECOPY PUSH0 PUSH2 0xB74 ADD MSTORE PUSH0 DUP2 DUP2 PUSH2 0x1AE ADD MSTORE DUP2 DUP2 PUSH2 0x358 ADD MSTORE DUP2 DUP2 PUSH2 0x8C9 ADD MSTORE PUSH2 0xFF7 ADD MSTORE PUSH2 0x165D PUSH0 RETURN INVALID PUSH1 0x80 PUSH1 0x40 MSTORE CALLVALUE DUP1 ISZERO PUSH2 0xF JUMPI PUSH0 PUSH0 REVERT JUMPDEST POP PUSH1 0x4 CALLDATASIZE LT PUSH2 0x85 JUMPI PUSH0 CALLDATALOAD PUSH1 0xE0 SHR DUP1 PUSH4 0xBE378228 GT PUSH2 0x58 JUMPI DUP1 PUSH4 0xBE378228 EQ PUSH2 0x16F JUMPI DUP1 PUSH4 0xD3A1CBFD EQ PUSH2 0x177 JUMPI DUP1 PUSH4 0xE2B02576 EQ PUSH2 0x1A9 JUMPI DUP1 PUSH4 0xEAEF9F2F EQ PUSH2 0x1E8 JUMPI PUSH0 PUSH0 REVERT JUMPDEST DUP1 PUSH4 0x33E5A1D6 EQ PUSH2 0x89 JUMPI DUP1 PUSH4 0x5AD63A24 EQ PUSH2 0xC3 JUMPI DUP1 PUSH4 0x69E1FD9A EQ PUSH2 0xD6 JUMPI DUP1 PUSH4 0x94259C6C EQ PUSH2 0xEB JUMPI JUMPDEST PUSH0 PUSH0 REVERT JUMPDEST PUSH2 0xB0 PUSH32 0x95D1972EBB257253C8ECA5422008068E9EBAE76C58E3BEAFA47373A6A2C529DA DUP2 JUMP JUMPDEST PUSH1 0x40 MLOAD SWAP1 DUP2 MSTORE PUSH1 0x20 ADD JUMPDEST PUSH1 0x40 MLOAD DUP1 SWAP2 SUB SWAP1 RETURN JUMPDEST PUSH2 0xB0 PUSH2 0xD1 CALLDATASIZE PUSH1 0x4 PUSH2 0x12FE JUMP JUMPDEST PUSH2 0x207 JUMP JUMPDEST PUSH2 0xE9 PUSH2 0xE4 CALLDATASIZE PUSH1 0x4 PUSH2 0x13A1 JUMP JUMPDEST PUSH2 0x644 JUMP JUMPDEST STOP JUMPDEST PUSH2 0x159 PUSH2 0xF9 CALLDATASIZE PUSH1 0x4 PUSH2 0x13CB JUMP JUMPDEST PUSH0 PUSH1 0x20 DUP2 SWAP1 MSTORE SWAP1 DUP2 MSTORE PUSH1 0x40 SWAP1 KECCAK256 DUP1 SLOAD PUSH1 0x1 DUP3 ADD SLOAD PUSH1 0x2 DUP4 ADD SLOAD PUSH1 0x3 DUP5 ADD SLOAD PUSH1 0x4 DUP6 ADD SLOAD PUSH1 0x5 DUP7 ADD SLOAD PUSH1 0x6 DUP8 ADD SLOAD PUSH1 0x7 DUP9 ADD SLOAD PUSH1 0x8 DUP10 ADD SLOAD PUSH1 0x9 SWAP1 SWAP10 ADD SLOAD PUSH1 0x1 PUSH1 0x1 PUSH1 0xA0 SHL SUB SWAP9 DUP10 AND SWAP10 SWAP8 SWAP1 SWAP9 AND SWAP8 SWAP6 SWAP7 SWAP5 SWAP6 SWAP4 SWAP5 SWAP3 SWAP4 SWAP2 SWAP3 SWAP1 SWAP2 PUSH1 0xFF AND DUP11 JUMP JUMPDEST PUSH1 0x40 MLOAD PUSH2 0xBA SWAP11 SWAP10 SWAP9 SWAP8 SWAP7 SWAP6 SWAP5 SWAP4 SWAP3 SWAP2 SWAP1 PUSH2 0x13F6 JUMP JUMPDEST PUSH2 0xB0 PUSH1 0x32 DUP2 JUMP JUMPDEST PUSH2 0x18A PUSH2 0x185 CALLDATASIZE PUSH1 0x4 PUSH2 0x12FE JUMP JUMPDEST PUSH2 0xB5A JUMP JUMPDEST PUSH1 0x40 DUP1 MLOAD SWAP3 ISZERO ISZERO DUP4 MSTORE PUSH1 0x1 PUSH1 0x1 PUSH1 0xA0 SHL SUB SWAP1 SWAP2 AND PUSH1 0x20 DUP4 ADD MSTORE ADD PUSH2 0xBA JUMP JUMPDEST PUSH2 0x1D0 PUSH32 0x0 DUP2 JUMP JUMPDEST PUSH1 0x40 MLOAD PUSH1 0x1 PUSH1 0x1 PUSH1 0xA0 SHL SUB SWAP1 SWAP2 AND DUP2 MSTORE PUSH1 0x20 ADD PUSH2 0xBA JUMP JUMPDEST PUSH2 0xB0 PUSH2 0x1F6 CALLDATASIZE PUSH1 0x4 PUSH2 0x13CB JUMP JUMPDEST PUSH1 0x1 PUSH1 0x20 MSTORE PUSH0 SWAP1 DUP2 MSTORE PUSH1 0x40 SWAP1 KECCAK256 SLOAD DUP2 JUMP JUMPDEST PUSH0 PUSH0 PUSH0 PUSH2 0x215 DUP7 DUP7 DUP7 PUSH2 0xB5A JUMP JUMPDEST SWAP2 POP SWAP2 POP DUP2 DUP1 ISZERO PUSH2 0x243 JUMPI POP PUSH2 0x22E PUSH1 0x20 DUP8 ADD DUP8 PUSH2 0x1473 JUMP JUMPDEST PUSH1 0x1 PUSH1 0x1 PUSH1 0xA0 SHL SUB AND DUP2 PUSH1 0x1 PUSH1 0x1 PUSH1 0xA0 SHL SUB AND EQ JUMPDEST PUSH2 0x288 JUMPI PUSH1 0x40 MLOAD PUSH3 0x461BCD PUSH1 0xE5 SHL DUP2 MSTORE PUSH1 0x20 PUSH1 0x4 DUP3 ADD MSTORE PUSH1 0x11 PUSH1 0x24 DUP3 ADD MSTORE PUSH17 0x496E76616C6964207369676E6174757265 PUSH1 0x78 SHL PUSH1 0x44 DUP3 ADD MSTORE PUSH1 0x64 ADD JUMPDEST PUSH1 0x40 MLOAD DUP1 SWAP2 SUB SWAP1 REVERT JUMPDEST PUSH2 0x291 DUP7 PUSH2 0xC36 JUMP JUMPDEST PUSH2 0x2A8 PUSH2 0x2A3 CALLDATASIZE DUP9 SWAP1 SUB DUP9 ADD DUP9 PUSH2 0x14C9 JUMP JUMPDEST PUSH2 0xE5C JUMP JUMPDEST DUP6 DUP6 PUSH1 0x40 MLOAD PUSH1 0x20 ADD PUSH2 0x2BC SWAP4 SWAP3 SWAP2 SWAP1 PUSH2 0x1550 JUMP JUMPDEST PUSH1 0x40 DUP1 MLOAD PUSH1 0x1F NOT DUP2 DUP5 SUB ADD DUP2 MSTORE SWAP2 DUP2 MSTORE DUP2 MLOAD PUSH1 0x20 SWAP3 DUP4 ADD KECCAK256 PUSH0 DUP2 DUP2 MSTORE SWAP3 DUP4 SWAP1 MSTORE SWAP2 KECCAK256 SLOAD SWAP1 SWAP4 POP PUSH1 0x1 PUSH1 0x1 PUSH1 0xA0 SHL SUB AND ISZERO PUSH2 0x338 JUMPI PUSH1 0x40 MLOAD PUSH3 0x461BCD PUSH1 0xE5 SHL DUP2 MSTORE PUSH1 0x20 PUSH1 0x4 DUP3 ADD MSTORE PUSH1 0x1B PUSH1 0x24 DUP3 ADD MSTORE PUSH32 0x537562736372697074696F6E20616C7265616479206578697374730000000000 PUSH1 0x44 DUP3 ADD MSTORE PUSH1 0x64 ADD PUSH2 0x27F JUMP JUMPDEST PUSH0 PUSH2 0x34B PUSH1 0xA0 DUP9 ADD CALLDATALOAD PUSH1 0x40 DUP10 ADD CALLDATALOAD PUSH2 0x157D JUMP JUMPDEST SWAP1 POP DUP1 PUSH1 0x1 PUSH1 0x1 PUSH1 0xA0 SHL SUB PUSH32 0x0 AND PUSH4 0xDD62ED3E PUSH2 0x38A PUSH1 0x20 DUP12 ADD DUP12 PUSH2 0x1473 JUMP JUMPDEST PUSH1 0x40 MLOAD PUSH1 0x1 PUSH1 0x1 PUSH1 0xE0 SHL SUB NOT PUSH1 0xE0 DUP5 SWAP1 SHL AND DUP2 MSTORE PUSH1 0x1 PUSH1 0x1 PUSH1 0xA0 SHL SUB SWAP1 SWAP2 AND PUSH1 0x4 DUP3 ADD MSTORE ADDRESS PUSH1 0x24 DUP3 ADD MSTORE PUSH1 0x44 ADD PUSH1 0x20 PUSH1 0x40 MLOAD DUP1 DUP4 SUB DUP2 DUP7 GAS STATICCALL ISZERO DUP1 ISZERO PUSH2 0x3D2 JUMPI RETURNDATASIZE PUSH0 PUSH0 RETURNDATACOPY RETURNDATASIZE PUSH0 REVERT JUMPDEST POP POP POP POP PUSH1 0x40 MLOAD RETURNDATASIZE PUSH1 0x1F NOT PUSH1 0x1F DUP3 ADD AND DUP3 ADD DUP1 PUSH1 0x40 MSTORE POP DUP2 ADD SWAP1 PUSH2 0x3F6 SWAP2 SWAP1 PUSH2 0x1594 JUMP JUMPDEST LT ISZERO PUSH2 0x444 JUMPI PUSH1 0x40 MLOAD PUSH3 0x461BCD PUSH1 0xE5 SHL DUP2 MSTORE PUSH1 0x20 PUSH1 0x4 DUP3 ADD MSTORE PUSH1 0x1C PUSH1 0x24 DUP3 ADD MSTORE PUSH32 0x496E73756666696369656E7420505955534420616C6C6F77616E636500000000 PUSH1 0x44 DUP3 ADD MSTORE PUSH1 0x64 ADD PUSH2 0x27F JUMP JUMPDEST PUSH1 0x40 DUP1 MLOAD PUSH2 0x140 DUP2 ADD SWAP1 SWAP2 MSTORE DUP1 PUSH2 0x45E PUSH1 0x20 DUP11 ADD DUP11 PUSH2 0x1473 JUMP JUMPDEST PUSH1 0x1 PUSH1 0x1 PUSH1 0xA0 SHL SUB AND DUP2 MSTORE PUSH1 0x20 ADD DUP9 PUSH1 0x20 ADD PUSH1 0x20 DUP2 ADD SWAP1 PUSH2 0x47F SWAP2 SWAP1 PUSH2 0x1473 JUMP JUMPDEST PUSH1 0x1 PUSH1 0x1 PUSH1 0xA0 SHL SUB AND DUP2 MSTORE PUSH1 0x20 ADD DUP9 PUSH1 0x40 ADD CALLDATALOAD DUP2 MSTORE PUSH1 0x20 ADD DUP9 PUSH1 0x60 ADD CALLDATALOAD DUP2 MSTORE PUSH1 0x20 ADD DUP9 PUSH1 0x80 ADD CALLDATALOAD DUP2 MSTORE PUSH1 0x20 ADD DUP9 PUSH1 0xA0 ADD CALLDATALOAD DUP2 MSTORE PUSH1 0x20 ADD DUP9 PUSH1 0xC0 ADD CALLDATALOAD DUP2 MSTORE PUSH1 0x20 ADD DUP9 PUSH1 0xE0 ADD CALLDATALOAD DUP2 MSTORE PUSH1 0x20 ADD DUP9 PUSH2 0x100 ADD CALLDATALOAD DUP2 MSTORE PUSH1 0x20 ADD PUSH0 PUSH1 0x4 DUP2 GT ISZERO PUSH2 0x4E6 JUMPI PUSH2 0x4E6 PUSH2 0x13E2 JUMP JUMPDEST SWAP1 MSTORE PUSH0 DUP6 DUP2 MSTORE PUSH1 0x20 DUP2 DUP2 MSTORE PUSH1 0x40 SWAP2 DUP3 SWAP1 KECCAK256 DUP4 MLOAD DUP2 SLOAD PUSH1 0x1 PUSH1 0x1 PUSH1 0xA0 SHL SUB SWAP2 DUP3 AND PUSH1 0x1 PUSH1 0x1 PUSH1 0xA0 SHL SUB NOT SWAP2 DUP3 AND OR DUP4 SSTORE SWAP3 DUP6 ADD MLOAD PUSH1 0x1 DUP1 DUP5 ADD DUP1 SLOAD SWAP3 SWAP1 SWAP4 AND SWAP2 SWAP1 SWAP5 AND OR SWAP1 SSTORE SWAP2 DUP4 ADD MLOAD PUSH1 0x2 DUP4 ADD SSTORE PUSH1 0x60 DUP4 ADD MLOAD PUSH1 0x3 DUP4 ADD SSTORE PUSH1 0x80 DUP4 ADD MLOAD PUSH1 0x4 DUP1 DUP5 ADD SWAP2 SWAP1 SWAP2 SSTORE PUSH1 0xA0 DUP5 ADD MLOAD PUSH1 0x5 DUP5 ADD SSTORE PUSH1 0xC0 DUP5 ADD MLOAD PUSH1 0x6 DUP5 ADD SSTORE PUSH1 0xE0 DUP5 ADD MLOAD PUSH1 0x7 DUP5 ADD SSTORE PUSH2 0x100 DUP5 ADD MLOAD PUSH1 0x8 DUP5 ADD SSTORE PUSH2 0x120 DUP5 ADD MLOAD PUSH1 0x9 DUP5 ADD DUP1 SLOAD SWAP2 SWAP4 SWAP1 SWAP3 PUSH1 0xFF NOT SWAP1 SWAP3 AND SWAP2 DUP5 SWAP1 DUP2 GT ISZERO PUSH2 0x59D JUMPI PUSH2 0x59D PUSH2 0x13E2 JUMP JUMPDEST MUL OR SWAP1 SSTORE POP PUSH2 0x5B5 SWAP2 POP POP PUSH1 0x40 DUP9 ADD PUSH1 0x20 DUP10 ADD PUSH2 0x1473 JUMP JUMPDEST PUSH1 0x1 PUSH1 0x1 PUSH1 0xA0 SHL SUB AND PUSH2 0x5CB PUSH1 0x20 DUP10 ADD DUP10 PUSH2 0x1473 JUMP JUMPDEST PUSH1 0x40 DUP1 MLOAD DUP2 DUP12 ADD CALLDATALOAD DUP2 MSTORE PUSH1 0x60 DUP1 DUP13 ADD CALLDATALOAD PUSH1 0x20 DUP4 ADD MSTORE PUSH1 0xA0 DUP1 DUP14 ADD CALLDATALOAD SWAP4 DUP4 ADD SWAP4 SWAP1 SWAP4 MSTORE PUSH1 0xC0 DUP13 ADD CALLDATALOAD SWAP1 DUP3 ADD MSTORE PUSH1 0xE0 DUP12 ADD CALLDATALOAD PUSH1 0x80 DUP3 ADD MSTORE PUSH1 0x1 PUSH1 0x1 PUSH1 0xA0 SHL SUB SWAP3 SWAP1 SWAP3 AND SWAP2 DUP8 SWAP2 PUSH32 0xDEC8943E7EF8A51D83C078700FDAB942959D920107DEEBC0B4F301BB42289210 SWAP2 ADD PUSH1 0x40 MLOAD DUP1 SWAP2 SUB SWAP1 LOG4 POP POP POP SWAP4 SWAP3 POP POP POP JUMP JUMPDEST PUSH0 DUP3 DUP2 MSTORE PUSH1 0x20 DUP2 SWAP1 MSTORE PUSH1 0x40 SWAP1 KECCAK256 DUP1 SLOAD PUSH1 0x1 PUSH1 0x1 PUSH1 0xA0 SHL SUB AND PUSH2 0x6A8 JUMPI PUSH1 0x40 MLOAD PUSH3 0x461BCD PUSH1 0xE5 SHL DUP2 MSTORE PUSH1 0x20 PUSH1 0x4 DUP3 ADD MSTORE PUSH1 0x1B PUSH1 0x24 DUP3 ADD MSTORE PUSH32 0x537562736372697074696F6E20646F6573206E6F742065786973740000000000 PUSH1 0x44 DUP3 ADD MSTORE PUSH1 0x64 ADD PUSH2 0x27F JUMP JUMPDEST PUSH0 PUSH1 0x9 DUP3 ADD SLOAD PUSH1 0xFF AND PUSH1 0x4 DUP2 GT ISZERO PUSH2 0x6C2 JUMPI PUSH2 0x6C2 PUSH2 0x13E2 JUMP JUMPDEST EQ PUSH2 0x70F JUMPI PUSH1 0x40 MLOAD PUSH3 0x461BCD PUSH1 0xE5 SHL DUP2 MSTORE PUSH1 0x20 PUSH1 0x4 DUP3 ADD MSTORE PUSH1 0x17 PUSH1 0x24 DUP3 ADD MSTORE PUSH32 0x537562736372697074696F6E206E6F7420616374697665000000000000000000 PUSH1 0x44 DUP3 ADD MSTORE PUSH1 0x64 ADD PUSH2 0x27F JUMP JUMPDEST DUP1 PUSH1 0x7 ADD SLOAD TIMESTAMP GT ISZERO PUSH2 0x7AB JUMPI PUSH1 0x9 DUP2 ADD DUP1 SLOAD PUSH1 0xFF NOT AND PUSH1 0x3 OR SWAP1 SSTORE PUSH1 0x1 DUP2 ADD SLOAD DUP2 SLOAD PUSH1 0x2 DUP4 ADD SLOAD PUSH1 0x40 DUP1 MLOAD SWAP2 DUP3 MSTORE PUSH1 0x20 DUP3 ADD DUP2 SWAP1 MSTORE PUSH1 0x14 SWAP1 DUP3 ADD MSTORE PUSH20 0x14DD589CD8DC9A5C1D1A5BDB88195E1C1A5C9959 PUSH1 0x62 SHL PUSH1 0x60 DUP3 ADD MSTORE PUSH1 0x1 PUSH1 0x1 PUSH1 0xA0 SHL SUB SWAP3 DUP4 AND SWAP3 SWAP1 SWAP2 AND SWAP1 DUP6 SWAP1 PUSH32 0x8D07BB7D7FFC0FDE6EBC3E0E718C1FDBFAC73EB7EA593DA5566FA86A1C3C1A30 SWAP1 PUSH1 0x80 ADD PUSH1 0x40 MLOAD DUP1 SWAP2 SUB SWAP1 LOG4 POP POP POP JUMP JUMPDEST PUSH2 0x7B4 DUP4 PUSH2 0xF2D JUMP JUMPDEST PUSH2 0x7F6 JUMPI PUSH1 0x40 MLOAD PUSH3 0x461BCD PUSH1 0xE5 SHL DUP2 MSTORE PUSH1 0x20 PUSH1 0x4 DUP3 ADD MSTORE PUSH1 0x13 PUSH1 0x24 DUP3 ADD MSTORE PUSH19 0x14185E5B595B9D081B9BDD08191D59481E595D PUSH1 0x6A SHL PUSH1 0x44 DUP3 ADD MSTORE PUSH1 0x64 ADD PUSH2 0x27F JUMP JUMPDEST PUSH2 0x7FF DUP4 PUSH2 0xF6F JUMP JUMPDEST PUSH2 0x844 JUMPI PUSH1 0x40 MLOAD PUSH3 0x461BCD PUSH1 0xE5 SHL DUP2 MSTORE PUSH1 0x20 PUSH1 0x4 DUP3 ADD MSTORE PUSH1 0x16 PUSH1 0x24 DUP3 ADD MSTORE PUSH22 0x10D85B9B9BDD08195E1958DD5D19481C185E5B595B9D PUSH1 0x52 SHL PUSH1 0x44 DUP3 ADD MSTORE PUSH1 0x64 ADD PUSH2 0x27F JUMP JUMPDEST PUSH0 DUP4 DUP2 MSTORE PUSH1 0x1 PUSH1 0x20 DUP2 SWAP1 MSTORE PUSH1 0x40 DUP3 KECCAK256 SLOAD PUSH2 0x85D SWAP2 PUSH2 0x15AB JUMP JUMPDEST SWAP1 POP PUSH0 PUSH2 0x2710 PUSH1 0x32 DUP5 PUSH1 0x2 ADD SLOAD PUSH2 0x874 SWAP2 SWAP1 PUSH2 0x157D JUMP JUMPDEST PUSH2 0x87E SWAP2 SWAP1 PUSH2 0x15BE JUMP JUMPDEST SWAP1 POP PUSH0 DUP2 DUP5 PUSH1 0x2 ADD SLOAD PUSH2 0x891 SWAP2 SWAP1 PUSH2 0x15DD JUMP JUMPDEST DUP5 SLOAD PUSH1 0x1 DUP7 ADD SLOAD PUSH1 0x40 MLOAD PUSH4 0x23B872DD PUSH1 0xE0 SHL DUP2 MSTORE PUSH1 0x1 PUSH1 0x1 PUSH1 0xA0 SHL SUB SWAP3 DUP4 AND PUSH1 0x4 DUP3 ADD MSTORE SWAP1 DUP3 AND PUSH1 0x24 DUP3 ADD MSTORE PUSH1 0x44 DUP2 ADD DUP4 SWAP1 MSTORE SWAP2 SWAP3 POP PUSH32 0x0 SWAP2 SWAP1 DUP3 AND SWAP1 PUSH4 0x23B872DD SWAP1 PUSH1 0x64 ADD PUSH1 0x20 PUSH1 0x40 MLOAD DUP1 DUP4 SUB DUP2 PUSH0 DUP8 GAS CALL SWAP3 POP POP POP DUP1 ISZERO PUSH2 0x930 JUMPI POP PUSH1 0x40 DUP1 MLOAD PUSH1 0x1F RETURNDATASIZE SWAP1 DUP2 ADD PUSH1 0x1F NOT AND DUP3 ADD SWAP1 SWAP3 MSTORE PUSH2 0x92D SWAP2 DUP2 ADD SWAP1 PUSH2 0x15F0 JUMP JUMPDEST PUSH1 0x1 JUMPDEST PUSH2 0x9B1 JUMPI PUSH1 0x1 DUP6 ADD SLOAD DUP6 SLOAD PUSH1 0x2 DUP8 ADD SLOAD PUSH1 0x40 DUP1 MLOAD SWAP2 DUP3 MSTORE PUSH1 0x20 DUP3 ADD DUP2 SWAP1 MSTORE PUSH1 0xF SWAP1 DUP3 ADD MSTORE PUSH15 0x151C985B9CD9995C8819985A5B1959 PUSH1 0x8A SHL PUSH1 0x60 DUP3 ADD MSTORE PUSH1 0x1 PUSH1 0x1 PUSH1 0xA0 SHL SUB SWAP3 DUP4 AND SWAP3 SWAP1 SWAP2 AND SWAP1 DUP10 SWAP1 PUSH32 0x8D07BB7D7FFC0FDE6EBC3E0E718C1FDBFAC73EB7EA593DA5566FA86A1C3C1A30 SWAP1 PUSH1 0x80 ADD JUMPDEST PUSH1 0x40 MLOAD DUP1 SWAP2 SUB SWAP1 LOG4 PUSH2 0xB51 JUMP JUMPDEST POP DUP5 SLOAD PUSH1 0x40 MLOAD PUSH4 0x23B872DD PUSH1 0xE0 SHL DUP2 MSTORE PUSH1 0x1 PUSH1 0x1 PUSH1 0xA0 SHL SUB SWAP2 DUP3 AND PUSH1 0x4 DUP3 ADD MSTORE DUP8 DUP3 AND PUSH1 0x24 DUP3 ADD MSTORE PUSH1 0x44 DUP2 ADD DUP6 SWAP1 MSTORE SWAP1 DUP3 AND SWAP1 PUSH4 0x23B872DD SWAP1 PUSH1 0x64 ADD PUSH1 0x20 PUSH1 0x40 MLOAD DUP1 DUP4 SUB DUP2 PUSH0 DUP8 GAS CALL SWAP3 POP POP POP DUP1 ISZERO PUSH2 0xA27 JUMPI POP PUSH1 0x40 DUP1 MLOAD PUSH1 0x1F RETURNDATASIZE SWAP1 DUP2 ADD PUSH1 0x1F NOT AND DUP3 ADD SWAP1 SWAP3 MSTORE PUSH2 0xA24 SWAP2 DUP2 ADD SWAP1 PUSH2 0x15F0 JUMP JUMPDEST PUSH1 0x1 JUMPDEST PUSH2 0xAA3 JUMPI PUSH1 0x1 DUP6 ADD SLOAD DUP6 SLOAD PUSH1 0x2 DUP8 ADD SLOAD PUSH1 0x40 DUP1 MLOAD SWAP2 DUP3 MSTORE PUSH1 0x20 DUP3 ADD DUP2 SWAP1 MSTORE PUSH1 0x13 SWAP1 DUP3 ADD MSTORE PUSH19 0x119959481D1C985B9CD9995C8819985A5B1959 PUSH1 0x6A SHL PUSH1 0x60 DUP3 ADD MSTORE PUSH1 0x1 PUSH1 0x1 PUSH1 0xA0 SHL SUB SWAP3 DUP4 AND SWAP3 SWAP1 SWAP2 AND SWAP1 DUP10 SWAP1 PUSH32 0x8D07BB7D7FFC0FDE6EBC3E0E718C1FDBFAC73EB7EA593DA5566FA86A1C3C1A30 SWAP1 PUSH1 0x80 ADD PUSH2 0x9A4 JUMP JUMPDEST POP PUSH0 DUP8 DUP2 MSTORE PUSH1 0x1 PUSH1 0x20 MSTORE PUSH1 0x40 DUP2 KECCAK256 DUP1 SLOAD SWAP2 PUSH2 0xABD DUP4 PUSH2 0x160F JUMP JUMPDEST SWAP1 SWAP2 SSTORE POP POP PUSH1 0x1 DUP6 ADD SLOAD DUP6 SLOAD PUSH1 0x2 DUP8 ADD SLOAD PUSH1 0x40 DUP1 MLOAD DUP9 DUP2 MSTORE PUSH1 0x20 DUP2 ADD SWAP3 SWAP1 SWAP3 MSTORE DUP2 ADD DUP7 SWAP1 MSTORE PUSH1 0x1 PUSH1 0x1 PUSH1 0xA0 SHL SUB DUP10 DUP2 AND PUSH1 0x60 DUP4 ADD MSTORE SWAP3 DUP4 AND SWAP3 SWAP1 SWAP2 AND SWAP1 DUP10 SWAP1 PUSH32 0xDA131DF023BE8B7D63A716139B42D5152CCF8728CFE960A6629BC576D36DD118 SWAP1 PUSH1 0x80 ADD PUSH1 0x40 MLOAD DUP1 SWAP2 SUB SWAP1 LOG4 PUSH1 0x5 DUP6 ADD SLOAD PUSH0 DUP9 DUP2 MSTORE PUSH1 0x1 PUSH1 0x20 MSTORE PUSH1 0x40 SWAP1 KECCAK256 SLOAD LT PUSH2 0xB51 JUMPI PUSH1 0x9 DUP6 ADD DUP1 SLOAD PUSH1 0xFF NOT AND PUSH1 0x4 OR SWAP1 SSTORE JUMPDEST POP POP POP POP POP POP POP JUMP JUMPDEST PUSH0 DUP1 DUP1 PUSH2 0xB6F PUSH2 0x2A3 CALLDATASIZE DUP9 SWAP1 SUB DUP9 ADD DUP9 PUSH2 0x14C9 JUMP JUMPDEST SWAP1 POP PUSH0 PUSH32 0x0 PUSH1 0x40 MLOAD PUSH2 0x1901 PUSH1 0xF0 SHL PUSH1 0x20 DUP3 ADD MSTORE PUSH1 0x22 DUP2 ADD SWAP2 SWAP1 SWAP2 MSTORE PUSH1 0x42 DUP2 ADD DUP4 SWAP1 MSTORE PUSH1 0x62 ADD PUSH1 0x40 MLOAD PUSH1 0x20 DUP2 DUP4 SUB SUB DUP2 MSTORE SWAP1 PUSH1 0x40 MSTORE DUP1 MLOAD SWAP1 PUSH1 0x20 ADD KECCAK256 SWAP1 POP PUSH0 PUSH2 0xC0B DUP3 DUP9 DUP9 DUP1 DUP1 PUSH1 0x1F ADD PUSH1 0x20 DUP1 SWAP2 DIV MUL PUSH1 0x20 ADD PUSH1 0x40 MLOAD SWAP1 DUP2 ADD PUSH1 0x40 MSTORE DUP1 SWAP4 SWAP3 SWAP2 SWAP1 DUP2 DUP2 MSTORE PUSH1 0x20 ADD DUP4 DUP4 DUP1 DUP3 DUP5 CALLDATACOPY PUSH0 SWAP3 ADD SWAP2 SWAP1 SWAP2 MSTORE POP PUSH2 0x1107 SWAP3 POP POP POP JUMP JUMPDEST SWAP1 POP PUSH2 0xC1A PUSH1 0x20 DUP10 ADD DUP10 PUSH2 0x1473 JUMP JUMPDEST PUSH1 0x1 PUSH1 0x1 PUSH1 0xA0 SHL SUB DUP3 DUP2 AND SWAP2 AND EQ SWAP5 POP SWAP3 POP POP POP SWAP4 POP SWAP4 SWAP2 POP POP JUMP JUMPDEST TIMESTAMP DUP2 PUSH1 0xE0 ADD CALLDATALOAD GT PUSH2 0xC89 JUMPI PUSH1 0x40 MLOAD PUSH3 0x461BCD PUSH1 0xE5 SHL DUP2 MSTORE PUSH1 0x20 PUSH1 0x4 DUP3 ADD MSTORE PUSH1 0x1B PUSH1 0x24 DUP3 ADD MSTORE PUSH32 0x537562736372697074696F6E20696E74656E7420657870697265640000000000 PUSH1 0x44 DUP3 ADD MSTORE PUSH1 0x64 ADD PUSH2 0x27F JUMP JUMPDEST DUP1 PUSH1 0xE0 ADD CALLDATALOAD DUP2 PUSH1 0x80 ADD CALLDATALOAD GT ISZERO PUSH2 0xCE1 JUMPI PUSH1 0x40 MLOAD PUSH3 0x461BCD PUSH1 0xE5 SHL DUP2 MSTORE PUSH1 0x20 PUSH1 0x4 DUP3 ADD DUP2 SWAP1 MSTORE PUSH1 0x24 DUP3 ADD MSTORE PUSH32 0x53746172742074696D65206D757374206265206265666F726520657870697279 PUSH1 0x44 DUP3 ADD MSTORE PUSH1 0x64 ADD PUSH2 0x27F JUMP JUMPDEST PUSH0 DUP2 PUSH1 0x40 ADD CALLDATALOAD GT PUSH2 0xD34 JUMPI PUSH1 0x40 MLOAD PUSH3 0x461BCD PUSH1 0xE5 SHL DUP2 MSTORE PUSH1 0x20 PUSH1 0x4 DUP3 ADD DUP2 SWAP1 MSTORE PUSH1 0x24 DUP3 ADD MSTORE PUSH32 0x416D6F756E74206D7573742062652067726561746572207468616E207A65726F PUSH1 0x44 DUP3 ADD MSTORE PUSH1 0x64 ADD PUSH2 0x27F JUMP JUMPDEST PUSH0 DUP2 PUSH1 0x60 ADD CALLDATALOAD GT PUSH2 0xD92 JUMPI PUSH1 0x40 MLOAD PUSH3 0x461BCD PUSH1 0xE5 SHL DUP2 MSTORE PUSH1 0x20 PUSH1 0x4 DUP3 ADD MSTORE PUSH1 0x22 PUSH1 0x24 DUP3 ADD MSTORE PUSH32 0x496E74657276616C206D7573742062652067726561746572207468616E207A65 PUSH1 0x44 DUP3 ADD MSTORE PUSH2 0x726F PUSH1 0xF0 SHL PUSH1 0x64 DUP3 ADD MSTORE PUSH1 0x84 ADD PUSH2 0x27F JUMP JUMPDEST PUSH0 DUP2 PUSH1 0xA0 ADD CALLDATALOAD GT PUSH2 0xDF4 JUMPI PUSH1 0x40 MLOAD PUSH3 0x461BCD PUSH1 0xE5 SHL DUP2 MSTORE PUSH1 0x20 PUSH1 0x4 DUP3 ADD MSTORE PUSH1 0x26 PUSH1 0x24 DUP3 ADD MSTORE PUSH32 0x4D6178207061796D656E7473206D757374206265206772656174657220746861 PUSH1 0x44 DUP3 ADD MSTORE PUSH6 0x6E207A65726F PUSH1 0xD0 SHL PUSH1 0x64 DUP3 ADD MSTORE PUSH1 0x84 ADD PUSH2 0x27F JUMP JUMPDEST PUSH2 0xE06 PUSH1 0xA0 DUP3 ADD CALLDATALOAD PUSH1 0x40 DUP4 ADD CALLDATALOAD PUSH2 0x157D JUMP JUMPDEST DUP2 PUSH1 0xC0 ADD CALLDATALOAD LT ISZERO PUSH2 0xE59 JUMPI PUSH1 0x40 MLOAD PUSH3 0x461BCD PUSH1 0xE5 SHL DUP2 MSTORE PUSH1 0x20 PUSH1 0x4 DUP3 ADD MSTORE PUSH1 0x1D PUSH1 0x24 DUP3 ADD MSTORE PUSH32 0x4D617820746F74616C20616D6F756E7420696E73756666696369656E74000000 PUSH1 0x44 DUP3 ADD MSTORE PUSH1 0x64 ADD PUSH2 0x27F JUMP JUMPDEST POP JUMP JUMPDEST PUSH0 PUSH32 0x95D1972EBB257253C8ECA5422008068E9EBAE76C58E3BEAFA47373A6A2C529DA DUP3 PUSH0 ADD MLOAD DUP4 PUSH1 0x20 ADD MLOAD DUP5 PUSH1 0x40 ADD MLOAD DUP6 PUSH1 0x60 ADD MLOAD DUP7 PUSH1 0x80 ADD MLOAD DUP8 PUSH1 0xA0 ADD MLOAD DUP9 PUSH1 0xC0 ADD MLOAD DUP10 PUSH1 0xE0 ADD MLOAD DUP11 PUSH2 0x100 ADD MLOAD PUSH1 0x40 MLOAD PUSH1 0x20 ADD PUSH2 0xF10 SWAP11 SWAP10 SWAP9 SWAP8 SWAP7 SWAP6 SWAP5 SWAP4 SWAP3 SWAP2 SWAP1 SWAP10 DUP11 MSTORE PUSH1 0x1 PUSH1 0x1 PUSH1 0xA0 SHL SUB SWAP9 DUP10 AND PUSH1 0x20 DUP12 ADD MSTORE SWAP7 SWAP1 SWAP8 AND PUSH1 0x40 DUP10 ADD MSTORE PUSH1 0x60 DUP9 ADD SWAP5 SWAP1 SWAP5 MSTORE PUSH1 0x80 DUP8 ADD SWAP3 SWAP1 SWAP3 MSTORE PUSH1 0xA0 DUP7 ADD MSTORE PUSH1 0xC0 DUP6 ADD MSTORE PUSH1 0xE0 DUP5 ADD MSTORE PUSH2 0x100 DUP4 ADD SWAP2 SWAP1 SWAP2 MSTORE PUSH2 0x120 DUP3 ADD MSTORE PUSH2 0x140 ADD SWAP1 JUMP JUMPDEST PUSH1 0x40 MLOAD PUSH1 0x20 DUP2 DUP4 SUB SUB DUP2 MSTORE SWAP1 PUSH1 0x40 MSTORE DUP1 MLOAD SWAP1 PUSH1 0x20 ADD KECCAK256 SWAP1 POP SWAP2 SWAP1 POP JUMP JUMPDEST PUSH0 DUP2 DUP2 MSTORE PUSH1 0x20 DUP2 DUP2 MSTORE PUSH1 0x40 DUP1 DUP4 KECCAK256 PUSH1 0x1 SWAP1 SWAP3 MSTORE DUP3 KECCAK256 SLOAD PUSH1 0x3 DUP3 ADD SLOAD DUP4 SWAP1 PUSH2 0xF54 SWAP1 DUP4 PUSH2 0x157D JUMP JUMPDEST DUP4 PUSH1 0x4 ADD SLOAD PUSH2 0xF63 SWAP2 SWAP1 PUSH2 0x15AB JUMP JUMPDEST TIMESTAMP LT ISZERO SWAP6 SWAP5 POP POP POP POP POP JUMP JUMPDEST PUSH0 DUP2 DUP2 MSTORE PUSH1 0x20 DUP2 DUP2 MSTORE PUSH1 0x40 DUP1 DUP4 KECCAK256 PUSH1 0x1 SWAP1 SWAP3 MSTORE DUP3 KECCAK256 SLOAD PUSH1 0x5 DUP3 ADD SLOAD DUP2 LT PUSH2 0xF99 JUMPI POP PUSH0 SWAP4 SWAP3 POP POP POP JUMP JUMPDEST PUSH0 DUP3 PUSH1 0x2 ADD SLOAD DUP3 PUSH2 0xFAA SWAP2 SWAP1 PUSH2 0x157D JUMP JUMPDEST SWAP1 POP DUP3 PUSH1 0x6 ADD SLOAD DUP4 PUSH1 0x2 ADD SLOAD DUP3 PUSH2 0xFC1 SWAP2 SWAP1 PUSH2 0x15AB JUMP JUMPDEST GT ISZERO PUSH2 0xFD1 JUMPI POP PUSH0 SWAP5 SWAP4 POP POP POP POP JUMP JUMPDEST PUSH1 0x2 DUP4 ADD SLOAD DUP4 SLOAD PUSH1 0x40 MLOAD PUSH4 0x70A08231 PUSH1 0xE0 SHL DUP2 MSTORE PUSH1 0x1 PUSH1 0x1 PUSH1 0xA0 SHL SUB SWAP2 DUP3 AND PUSH1 0x4 DUP3 ADD MSTORE PUSH32 0x0 SWAP3 SWAP2 DUP4 AND SWAP1 PUSH4 0x70A08231 SWAP1 PUSH1 0x24 ADD PUSH1 0x20 PUSH1 0x40 MLOAD DUP1 DUP4 SUB DUP2 DUP7 GAS STATICCALL ISZERO DUP1 ISZERO PUSH2 0x103F JUMPI RETURNDATASIZE PUSH0 PUSH0 RETURNDATACOPY RETURNDATASIZE PUSH0 REVERT JUMPDEST POP POP POP POP PUSH1 0x40 MLOAD RETURNDATASIZE PUSH1 0x1F NOT PUSH1 0x1F DUP3 ADD AND DUP3 ADD DUP1 PUSH1 0x40 MSTORE POP DUP2 ADD SWAP1 PUSH2 0x1063 SWAP2 SWAP1 PUSH2 0x1594 JUMP JUMPDEST LT ISZERO PUSH2 0x1074 JUMPI POP PUSH0 SWAP6 SWAP5 POP POP POP POP POP JUMP JUMPDEST PUSH1 0x2 DUP5 ADD SLOAD DUP5 SLOAD PUSH1 0x40 MLOAD PUSH4 0x6EB1769F PUSH1 0xE1 SHL DUP2 MSTORE PUSH1 0x1 PUSH1 0x1 PUSH1 0xA0 SHL SUB SWAP2 DUP3 AND PUSH1 0x4 DUP3 ADD MSTORE ADDRESS PUSH1 0x24 DUP3 ADD MSTORE SWAP1 DUP4 AND SWAP1 PUSH4 0xDD62ED3E SWAP1 PUSH1 0x44 ADD PUSH1 0x20 PUSH1 0x40 MLOAD DUP1 DUP4 SUB DUP2 DUP7 GAS STATICCALL ISZERO DUP1 ISZERO PUSH2 0x10C6 JUMPI RETURNDATASIZE PUSH0 PUSH0 RETURNDATACOPY RETURNDATASIZE PUSH0 REVERT JUMPDEST POP POP POP POP PUSH1 0x40 MLOAD RETURNDATASIZE PUSH1 0x1F NOT PUSH1 0x1F DUP3 ADD AND DUP3 ADD DUP1 PUSH1 0x40 MSTORE POP DUP2 ADD SWAP1 PUSH2 0x10EA SWAP2 SWAP1 PUSH2 0x1594 JUMP JUMPDEST LT ISZERO PUSH2 0x10FB JUMPI POP PUSH0 SWAP6 SWAP5 POP POP POP POP POP JUMP JUMPDEST POP PUSH1 0x1 SWAP6 SWAP5 POP POP POP POP POP JUMP JUMPDEST PUSH0 PUSH0 PUSH0 PUSH0 PUSH2 0x1115 DUP7 DUP7 PUSH2 0x1131 JUMP JUMPDEST SWAP3 POP SWAP3 POP SWAP3 POP PUSH2 0x1125 DUP3 DUP3 PUSH2 0x117A JUMP JUMPDEST POP SWAP1 SWAP2 POP POP JUMPDEST SWAP3 SWAP2 POP POP JUMP JUMPDEST PUSH0 PUSH0 PUSH0 DUP4 MLOAD PUSH1 0x41 SUB PUSH2 0x1168 JUMPI PUSH1 0x20 DUP5 ADD MLOAD PUSH1 0x40 DUP6 ADD MLOAD PUSH1 0x60 DUP7 ADD MLOAD PUSH0 BYTE PUSH2 0x115A DUP9 DUP3 DUP6 DUP6 PUSH2 0x1236 JUMP JUMPDEST SWAP6 POP SWAP6 POP SWAP6 POP POP POP POP PUSH2 0x1173 JUMP JUMPDEST POP POP DUP2 MLOAD PUSH0 SWAP2 POP PUSH1 0x2 SWAP1 JUMPDEST SWAP3 POP SWAP3 POP SWAP3 JUMP JUMPDEST PUSH0 DUP3 PUSH1 0x3 DUP2 GT ISZERO PUSH2 0x118D JUMPI PUSH2 0x118D PUSH2 0x13E2 JUMP JUMPDEST SUB PUSH2 0x1196 JUMPI POP POP JUMP JUMPDEST PUSH1 0x1 DUP3 PUSH1 0x3 DUP2 GT ISZERO PUSH2 0x11AA JUMPI PUSH2 0x11AA PUSH2 0x13E2 JUMP JUMPDEST SUB PUSH2 0x11C8 JUMPI PUSH1 0x40 MLOAD PUSH4 0xF645EEDF PUSH1 0xE0 SHL DUP2 MSTORE PUSH1 0x4 ADD PUSH1 0x40 MLOAD DUP1 SWAP2 SUB SWAP1 REVERT JUMPDEST PUSH1 0x2 DUP3 PUSH1 0x3 DUP2 GT ISZERO PUSH2 0x11DC JUMPI PUSH2 0x11DC PUSH2 0x13E2 JUMP JUMPDEST SUB PUSH2 0x11FD JUMPI PUSH1 0x40 MLOAD PUSH4 0xFCE698F7 PUSH1 0xE0 SHL DUP2 MSTORE PUSH1 0x4 DUP2 ADD DUP3 SWAP1 MSTORE PUSH1 0x24 ADD PUSH2 0x27F JUMP JUMPDEST PUSH1 0x3 DUP3 PUSH1 0x3 DUP2 GT ISZERO PUSH2 0x1211 JUMPI PUSH2 0x1211 PUSH2 0x13E2 JUMP JUMPDEST SUB PUSH2 0x1232 JUMPI PUSH1 0x40 MLOAD PUSH4 0x35E2F383 PUSH1 0xE2 SHL DUP2 MSTORE PUSH1 0x4 DUP2 ADD DUP3 SWAP1 MSTORE PUSH1 0x24 ADD PUSH2 0x27F JUMP JUMPDEST POP POP JUMP JUMPDEST PUSH0 DUP1 DUP1 PUSH32 0x7FFFFFFFFFFFFFFFFFFFFFFFFFFFFFFF5D576E7357A4501DDFE92F46681B20A0 DUP5 GT ISZERO PUSH2 0x126F JUMPI POP PUSH0 SWAP2 POP PUSH1 0x3 SWAP1 POP DUP3 PUSH2 0x12F4 JUMP JUMPDEST PUSH1 0x40 DUP1 MLOAD PUSH0 DUP1 DUP3 MSTORE PUSH1 0x20 DUP3 ADD DUP1 DUP5 MSTORE DUP11 SWAP1 MSTORE PUSH1 0xFF DUP10 AND SWAP3 DUP3 ADD SWAP3 SWAP1 SWAP3 MSTORE PUSH1 0x60 DUP2 ADD DUP8 SWAP1 MSTORE PUSH1 0x80 DUP2 ADD DUP7 SWAP1 MSTORE PUSH1 0x1 SWAP1 PUSH1 0xA0 ADD PUSH1 0x20 PUSH1 0x40 MLOAD PUSH1 0x20 DUP2 SUB SWAP1 DUP1 DUP5 SUB SWAP1 DUP6 GAS STATICCALL ISZERO DUP1 ISZERO PUSH2 0x12C0 JUMPI RETURNDATASIZE PUSH0 PUSH0 RETURNDATACOPY RETURNDATASIZE PUSH0 REVERT JUMPDEST POP POP PUSH1 0x40 MLOAD PUSH1 0x1F NOT ADD MLOAD SWAP2 POP POP PUSH1 0x1 PUSH1 0x1 PUSH1 0xA0 SHL SUB DUP2 AND PUSH2 0x12EB JUMPI POP PUSH0 SWAP3 POP PUSH1 0x1 SWAP2 POP DUP3 SWAP1 POP PUSH2 0x12F4 JUMP JUMPDEST SWAP3 POP PUSH0 SWAP2 POP DUP2 SWAP1 POP JUMPDEST SWAP5 POP SWAP5 POP SWAP5 SWAP2 POP POP JUMP JUMPDEST PUSH0 PUSH0 PUSH0 DUP4 DUP6 SUB PUSH2 0x140 DUP2 SLT ISZERO PUSH2 0x1312 JUMPI PUSH0 PUSH0 REVERT JUMPDEST PUSH2 0x120 DUP2 SLT ISZERO PUSH2 0x1320 JUMPI PUSH0 PUSH0 REVERT JUMPDEST POP DUP4 SWAP3 POP PUSH2 0x120 DUP5 ADD CALLDATALOAD PUSH8 0xFFFFFFFFFFFFFFFF DUP2 GT ISZERO PUSH2 0x133E JUMPI PUSH0 PUSH0 REVERT JUMPDEST DUP5 ADD PUSH1 0x1F DUP2 ADD DUP7 SGT PUSH2 0x134E JUMPI PUSH0 PUSH0 REVERT JUMPDEST DUP1 CALLDATALOAD PUSH8 0xFFFFFFFFFFFFFFFF DUP2 GT ISZERO PUSH2 0x1364 JUMPI PUSH0 PUSH0 REVERT JUMPDEST DUP7 PUSH1 0x20 DUP3 DUP5 ADD ADD GT ISZERO PUSH2 0x1375 JUMPI PUSH0 PUSH0 REVERT JUMPDEST SWAP4 SWAP7 PUSH1 0x20 SWAP2 SWAP1 SWAP2 ADD SWAP6 POP SWAP3 SWAP4 POP POP POP JUMP JUMPDEST DUP1 CALLDATALOAD PUSH1 0x1 PUSH1 0x1 PUSH1 0xA0 SHL SUB DUP2 AND DUP2 EQ PUSH2 0x139C JUMPI PUSH0 PUSH0 REVERT JUMPDEST SWAP2 SWAP1 POP JUMP JUMPDEST PUSH0 PUSH0 PUSH1 0x40 DUP4 DUP6 SUB SLT ISZERO PUSH2 0x13B2 JUMPI PUSH0 PUSH0 REVERT JUMPDEST DUP3 CALLDATALOAD SWAP2 POP PUSH2 0x13C2 PUSH1 0x20 DUP5 ADD PUSH2 0x1386 JUMP JUMPDEST SWAP1 POP SWAP3 POP SWAP3 SWAP1 POP JUMP JUMPDEST PUSH0 PUSH1 0x20 DUP3 DUP5 SUB SLT ISZERO PUSH2 0x13DB JUMPI PUSH0 PUSH0 REVERT JUMPDEST POP CALLDATALOAD SWAP2 SWAP1 POP JUMP JUMPDEST PUSH4 0x4E487B71 PUSH1 0xE0 SHL PUSH0 MSTORE PUSH1 0x21 PUSH1 0x4 MSTORE PUSH1 0x24 PUSH0 REVERT JUMPDEST PUSH1 0x1 PUSH1 0x1 PUSH1 0xA0 SHL SUB DUP12 DUP2 AND DUP3 MSTORE DUP11 AND PUSH1 0x20 DUP3 ADD MSTORE PUSH1 0x40 DUP2 ADD DUP10 SWAP1 MSTORE PUSH1 0x60 DUP2 ADD DUP9 SWAP1 MSTORE PUSH1 0x80 DUP2 ADD DUP8 SWAP1 MSTORE PUSH1 0xA0 DUP2 ADD DUP7 SWAP1 MSTORE PUSH1 0xC0 DUP2 ADD DUP6 SWAP1 MSTORE PUSH1 0xE0 DUP2 ADD DUP5 SWAP1 MSTORE PUSH2 0x100 DUP2 ADD DUP4 SWAP1 MSTORE PUSH2 0x140 DUP2 ADD PUSH1 0x5 DUP4 LT PUSH2 0x145D JUMPI PUSH4 0x4E487B71 PUSH1 0xE0 SHL PUSH0 MSTORE PUSH1 0x21 PUSH1 0x4 MSTORE PUSH1 0x24 PUSH0 REVERT JUMPDEST DUP3 PUSH2 0x120 DUP4 ADD MSTORE SWAP12 SWAP11 POP POP POP POP POP POP POP POP POP POP POP JUMP JUMPDEST PUSH0 PUSH1 0x20 DUP3 DUP5 SUB SLT ISZERO PUSH2 0x1483 JUMPI PUSH0 PUSH0 REVERT JUMPDEST PUSH2 0x148C DUP3 PUSH2 0x1386 JUMP JUMPDEST SWAP4 SWAP3 POP POP POP JUMP JUMPDEST PUSH1 0x40 MLOAD PUSH2 0x120 DUP2 ADD PUSH8 0xFFFFFFFFFFFFFFFF DUP2 GT DUP3 DUP3 LT OR ISZERO PUSH2 0x14C3 JUMPI PUSH4 0x4E487B71 PUSH1 0xE0 SHL PUSH0 MSTORE PUSH1 0x41 PUSH1 0x4 MSTORE PUSH1 0x24 PUSH0 REVERT JUMPDEST PUSH1 0x40 MSTORE SWAP1 JUMP JUMPDEST PUSH0 PUSH2 0x120 DUP3 DUP5 SUB SLT DUP1 ISZERO PUSH2 0x14DB JUMPI PUSH0 PUSH0 REVERT JUMPDEST POP PUSH2 0x14E4 PUSH2 0x1493 JUMP JUMPDEST PUSH2 0x14ED DUP4 PUSH2 0x1386 JUMP JUMPDEST DUP2 MSTORE PUSH2 0x14FB PUSH1 0x20 DUP5 ADD PUSH2 0x1386 JUMP JUMPDEST PUSH1 0x20 DUP3 ADD MSTORE PUSH1 0x40 DUP4 DUP2 ADD CALLDATALOAD SWAP1 DUP3 ADD MSTORE PUSH1 0x60 DUP1 DUP5 ADD CALLDATALOAD SWAP1 DUP3 ADD MSTORE PUSH1 0x80 DUP1 DUP5 ADD CALLDATALOAD SWAP1 DUP3 ADD MSTORE PUSH1 0xA0 DUP1 DUP5 ADD CALLDATALOAD SWAP1 DUP3 ADD MSTORE PUSH1 0xC0 DUP1 DUP5 ADD CALLDATALOAD SWAP1 DUP3 ADD MSTORE PUSH1 0xE0 DUP1 DUP5 ADD CALLDATALOAD SWAP1 DUP3 ADD MSTORE PUSH2 0x100 SWAP3 DUP4 ADD CALLDATALOAD SWAP3 DUP2 ADD SWAP3 SWAP1 SWAP3 MSTORE POP SWAP2 SWAP1 POP JUMP JUMPDEST DUP4 DUP2 MSTORE DUP2 DUP4 PUSH1 0x20 DUP4 ADD CALLDATACOPY PUSH0 SWAP2 ADD PUSH1 0x20 ADD SWAP1 DUP2 MSTORE SWAP3 SWAP2 POP POP JUMP JUMPDEST PUSH4 0x4E487B71 PUSH1 0xE0 SHL PUSH0 MSTORE PUSH1 0x11 PUSH1 0x4 MSTORE PUSH1 0x24 PUSH0 REVERT JUMPDEST DUP1 DUP3 MUL DUP2 ISZERO DUP3 DUP3 DIV DUP5 EQ OR PUSH2 0x112B JUMPI PUSH2 0x112B PUSH2 0x1569 JUMP JUMPDEST PUSH0 PUSH1 0x20 DUP3 DUP5 SUB SLT ISZERO PUSH2 0x15A4 JUMPI PUSH0 PUSH0 REVERT JUMPDEST POP MLOAD SWAP2 SWAP1 POP JUMP JUMPDEST DUP1 DUP3 ADD DUP1 DUP3 GT ISZERO PUSH2 0x112B JUMPI PUSH2 0x112B PUSH2 0x1569 JUMP JUMPDEST PUSH0 DUP3 PUSH2 0x15D8 JUMPI PUSH4 0x4E487B71 PUSH1 0xE0 SHL PUSH0 MSTORE PUSH1 0x12 PUSH1 0x4 MSTORE PUSH1 0x24 PUSH0 REVERT JUMPDEST POP DIV SWAP1 JUMP JUMPDEST DUP2 DUP2 SUB DUP2 DUP2 GT ISZERO PUSH2 0x112B JUMPI PUSH2 0x112B PUSH2 0x1569 JUMP JUMPDEST PUSH0 PUSH1 0x20 DUP3 DUP5 SUB SLT ISZERO PUSH2 0x1600 JUMPI PUSH0 PUSH0 REVERT JUMPDEST DUP2 MLOAD DUP1 ISZERO ISZERO DUP2 EQ PUSH2 0x148C JUMPI PUSH0 PUSH0 REVERT JUMPDEST PUSH0 PUSH1 0x1 DUP3 ADD PUSH2 0x1620 JUMPI PUSH2 0x1620 PUSH2 0x1569 JUMP JUMPDEST POP PUSH1 0x1 ADD SWAP1 JUMP INVALID LOG2 PUSH5 0x6970667358 0x22 SLT KECCAK256 SHL PUSH22 0xC5C34DFBE57963B515A26C3A882B897C71DB47947ECB PUSH8 0x3088CE10DC4A8764 PUSH20 0x6F6C634300081C00330000000000000000000000 "},"methodIdentifiers":{"PROTOCOL_FEE_BPS()":"be378228","PYUSD_ADDRESS()":"e2b02576","SUBSCRIPTION_INTENT_TYPEHASH()":"33e5a1d6","createSubscription((address,address,uint256,uint256,uint256,uint256,uint256,uint256,uint256),bytes)":"5ad63a24","executeSubscription(bytes32,address)":"69e1fd9a","executedPayments(bytes32)":"eaef9f2f","subscriptions(bytes32)":"94259c6c","verifyIntent((address,address,uint256,uint256,uint256,uint256,uint256,uint256,uint256),bytes)":"d3a1cbfd"}}}}}