{
  "_format": "hh-sol-artifact-1",
  "contractName": "MockPYUSD",
  "sourceName": "contracts/MockPYUSD.sol",
  "abi": [
    {
      "inputs": [],
      "stateMutability": "nonpayable",
      "type": "constructor"
    },
    {
      "inputs": [
        {
          "internalType": "address",
          "name": "spender",
          "type": "address"
        },
        {
          "internalType": "uint256",
          "name": "allowance",
          "type": "uint256"
        },
        {
          "internalType": "uint256",
          "name": "needed",
          "type": "uint256"
        }
      ],
      "name": "ERC20InsufficientAllowance",
      "type": "error"
    },
    {
      "inputs": [
        {
          "internalType": "address",
          "name": "sender",
          "type": "address"
        },
        {
          "internalType": "uint256",
          "name": "balance",
          "type": "uint256"
        },
        {
          "internalType": "uint256",
          "name": "needed",
          "type": "uint256"
        }
      ],
      "name": "ERC20InsufficientBalance",
      "type": "error"
    },
    {
      "inputs": [
        {
          "internalType": "address",
          "name": "approver",
          "type": "address"
        }
      ],
      "name": "ERC20InvalidApprover",
      "type": "error"
    },
    {
      "inputs": [
        {
          "internalType": "address",
          "name": "receiver",
          "type": "address"
        }
      ],
      "name": "ERC20InvalidReceiver",
      "type": "error"
    },
    {
      "inputs": [
        {
          "internalType": "address",
          "name": "sender",
          "type": "address"
        }
      ],
      "name": "ERC20InvalidSender",
      "type": "error"
    },
    {
      "inputs": [
        {
          "internalType": "address",
          "name": "spender",
          "type": "address"
        }
      ],
      "name": "ERC20InvalidSpender",
      "type": "error"
    },
    {
      "anonymous": false,
      "inputs": [
        {
          "indexed": true,
          "internalType": "address",
          "name": "owner",
          "type": "address"
        },
        {
          "indexed": true,
          "internalType": "address",
          "name": "spender",
          "type": "address"
        },
        {
          "indexed": false,
          "internalType": "uint256",
          "name": "value",
          "type": "uint256"
        }
      ],
      "name": "Approval",
      "type": "event"
    },
    {
      "anonymous": false,
      "inputs": [
        {
          "indexed": true,
          "internalType": "address",
          "name": "from",
          "type": "address"
        },
        {
          "indexed": true,
          "internalType": "address",
          "name": "to",
          "type": "address"
        },
        {
          "indexed": false,
          "internalType": "uint256",
          "name": "value",
          "type": "uint256"
        }
      ],
      "name": "Transfer",
      "type": "event"
    },
    {
      "inputs": [
        {
          "internalType": "address",
          "name": "owner",
          "type": "address"
        },
        {
          "internalType": "address",
          "name": "spender",
          "type": "address"
        }
      ],
      "name": "allowance",
      "outputs": [
        {
          "internalType": "uint256",
          "name": "",
          "type": "uint256"
        }
      ],
      "stateMutability": "view",
      "type": "function"
    },
    {
      "inputs": [
        {
          "internalType": "address",
          "name": "spender",
          "type": "address"
        },
        {
          "internalType": "uint256",
          "name": "value",
          "type": "uint256"
        }
      ],
      "name": "approve",
      "outputs": [
        {
          "internalType": "bool",
          "name": "",
          "type": "bool"
        }
      ],
      "stateMutability": "nonpayable",
      "type": "function"
    },
    {
      "inputs": [
        {
          "internalType": "address",
          "name": "account",
          "type": "address"
        }
      ],
      "name": "balanceOf",
      "outputs": [
        {
          "internalType": "uint256",
          "name": "",
          "type": "uint256"
        }
      ],
      "stateMutability": "view",
      "type": "function"
    },
    {
      "inputs": [
        {
          "internalType": "address",
          "name": "from",
          "type": "address"
        },
        {
          "internalType": "uint256",
          "name": "amount",
          "type": "uint256"
        }
      ],
      "name": "burn",
      "outputs": [],
      "stateMutability": "nonpayable",
      "type": "function"
    },
    {
      "inputs": [],
      "name": "decimals",
      "outputs": [
        {
          "internalType": "uint8",
          "name": "",
          "type": "uint8"
        }
      ],
      "stateMutability": "view",
      "type": "function"
    },
    {
      "inputs": [
        {
          "internalType": "address",
          "name": "",
          "type": "address"
        }
      ],
      "name": "forceFailOnTransfer",
      "outputs": [
        {
          "internalType": "bool",
          "name": "",
          "type": "bool"
        }
      ],
      "stateMutability": "view",
      "type": "function"
    },
    {
      "inputs": [
        {
          "internalType": "address",
          "name": "to",
          "type": "address"
        },
        {
          "internalType": "uint256",
          "name": "amount",
          "type": "uint256"
        }
      ],
      "name": "mint",
      "outputs": [],
      "stateMutability": "nonpayable",
      "type": "function"
    },
    {
      "inputs": [],
      "name": "name",
      "outputs": [
        {
          "internalType": "string",
          "name": "",
          "type": "string"
        }
      ],
      "stateMutability": "view",
      "type": "function"
    },
    {
      "inputs": [
        {
          "internalType": "address",
          "name": "account",
          "type": "address"
        },
        {
          "internalType": "uint256",
          "name": "amount",
          "type": "uint256"
        }
      ],
      "name": "setBalance",
      "outputs": [],
      "stateMutability": "nonpayable",
      "type": "function"
    },
    {
      "inputs": [
        {
          "internalType": "address",
          "name": "account",
          "type": "address"
        },
        {
          "internalType": "bool",
          "name": "fail",
          "type": "bool"
        }
      ],
      "name": "setForceFailOnTransfer",
      "outputs": [],
      "stateMutability": "nonpayable",
      "type": "function"
    },
    {
      "inputs": [
        {
          "internalType": "bool",
          "name": "failing",
          "type": "bool"
        }
      ],
      "name": "setTransferFailing",
      "outputs": [],
      "stateMutability": "nonpayable",
      "type": "function"
    },
    {
      "inputs": [],
      "name": "symbol",
      "outputs": [
        {
          "internalType": "string",
          "name": "",
          "type": "string"
        }
      ],
      "stateMutability": "view",
      "type": "function"
    },
    {
      "inputs": [],
      "name": "totalSupply",
      "outputs": [
        {
          "internalType": "uint256",
          "name": "",
          "type": "uint256"
        }
      ],
      "stateMutability": "view",
      "type": "function"
    },
    {
      "inputs": [
        {
          "internalType": "address",
          "name": "to",
          "type": "address"
        },
        {
          "internalType": "uint256",
          "name": "amount",
          "type": "uint256"
        }
      ],
      "name": "transfer",
      "outputs": [
        {
          "internalType": "bool",
          "name": "",
          "type": "bool"
        }
      ],
      "stateMutability": "nonpayable",
      "type": "function"
    },
    {
      "inputs": [],
      "name": "transferFailing",
      "outputs": [
        {
          "internalType": "bool",
          "name": "",
          "type": "bool"
        }
      ],
      "stateMutability": "view",
      "type": "function"
    },
    {
      "inputs": [
        {
          "internalType": "address",
          "name": "from",
          "type": "address"
        },
        {
          "internalType": "address",
          "name": "to",
          "type": "address"
        },
        {
          "internalType": "uint256",
          "name": "amount",
          "type": "uint256"
        }
      ],
      "name": "transferFrom",
      "outputs": [
        {
          "internalType": "bool",
          "name": "",
          "type": "bool"
        }
      ],
      "stateMutability": "nonpayable",
      "type": "function"
    }
  ],
  "bytecode": "0x6080604052346103ba57604080519060009082016001600160401b038111838210176102cb576040908152600a83526914185e54185b081554d160b21b60208401528051919082016001600160401b038111838210176102cb57604052600582526414165554d160da1b602083015282516001600160401b0381116102cb57600354600181811c911680156103b0575b60208210146102ad57601f811161034d575b506020601f82116001146102ea578293948293926102df575b50508160011b916000199060031b1c1916176003555b81516001600160401b0381116102cb57600454600181811c911680156102c1575b60208210146102ad57601f811161024a575b50602092601f82116001146101e8579282938293926101dd575b50508160011b916000199060031b1c1916176004555b600660ff19600554161760055550600033156101c95760025464e8d4a5100081018091116101b557600255338152806020526040812064e8d4a5100081540190556040519064e8d4a5100082527fddf252ad1be2c89b69c2b068fc378daa952ba7f163c4a11628f55a4df523b3ef60203393a36040516109db90816103c08239f35b634e487b7160e01b82526011600452602482fd5b63ec442f0560e01b81526004819052602490fd5b01519050388061011d565b601f198216936004845280842091845b8681106102325750836001959610610219575b505050811b01600455610133565b015160001960f88460031b161c1916905538808061020b565b919260206001819286850151815501940192016101f8565b600483527f8a35acfbc15ff81a39ae7d344fd709f28e8600b4aa8c65c6b64bfe7fe36bd19b601f830160051c810191602084106102a3575b601f0160051c01905b8181106102985750610103565b83815560010161028b565b9091508190610282565b634e487b7160e01b83526022600452602483fd5b90607f16906100f1565b634e487b7160e01b82526041600452602482fd5b0151905038806100ba565b6003835280832090601f198316845b8181106103355750958360019596971061031c575b505050811b016003556100d0565b015160001960f88460031b161c1916905538808061030e565b9192602060018192868b0151815501940192016102f9565b600383527fc2575a0e9e593c00f959f8c92f12db2869c3395a3b0502d05e2516446f71f85b601f830160051c810191602084106103a6575b601f0160051c01905b81811061039b57506100a1565b83815560010161038e565b9091508190610385565b90607f169061008f565b600080fdfe608080604052600436101561001357600080fd5b60003560e01c90816306fdde031461057657508063095ea7b3146104c457806318160ddd146104a65780631e0f867c1461046757806323b872dd14610438578063313ce5671461041757806340c10f19146103f257806370a08231146103b857806395d89b41146102975780639dc29fac14610272578063a6290fff1461023a578063a9059cbb14610209578063c0bd8085146101bb578063d5b8b5be14610195578063dd62ed3e146101445763e30443bc146100cf57600080fd5b3461013f57604036600319011261013f576100e8610692565b6001600160a01b0381166000908152602081905260409020546024359190808311156101235761011b90610121936107dd565b90610800565b005b80831061012c57005b61012192610139916107dd565b90610875565b600080fd5b3461013f57604036600319011261013f5761015d610692565b6101656106a8565b6001600160a01b039182166000908152600160209081526040808320949093168252928352819020549051908152f35b3461013f57600036600319011261013f57602060ff60055460081c166040519015158152f35b3461013f57604036600319011261013f576101d4610692565b6024359081151580920361013f5760018060a01b0316600052600660205260406000209060ff80198354169116179055600080f35b3461013f57604036600319011261013f576020610230610227610692565b6024359061079f565b6040519015158152f35b3461013f57602036600319011261013f5760043580151580910361013f5761ff006005549160081b169061ff00191617600555600080f35b3461013f57604036600319011261013f5761012161028e610692565b60243590610875565b3461013f57600036600319011261013f5760405160006004548060011c906001811680156103ae575b60208310811461039a5782855290811561037e5750600114610327575b50819003601f01601f191681019067ffffffffffffffff8211818310176103115761030d82918260405282610649565b0390f35b634e487b7160e01b600052604160045260246000fd5b905060046000527f8a35acfbc15ff81a39ae7d344fd709f28e8600b4aa8c65c6b64bfe7fe36bd19b6000905b828210610368575060209150820101826102dd565b6001816020925483858801015201910190610353565b90506020925060ff191682840152151560051b820101826102dd565b634e487b7160e01b84526022600452602484fd5b91607f16916102c0565b3461013f57602036600319011261013f576001600160a01b036103d9610692565b1660005260006020526020604060002054604051908152f35b3461013f57604036600319011261013f5761012161040e610692565b60243590610800565b3461013f57600036600319011261013f57602060ff60055416604051908152f35b3461013f57606036600319011261013f576020610230610456610692565b61045e6106a8565b604435916106be565b3461013f57602036600319011261013f576001600160a01b03610488610692565b166000526006602052602060ff604060002054166040519015158152f35b3461013f57600036600319011261013f576020600254604051908152f35b3461013f57604036600319011261013f576104dd610692565b602435903315610560576001600160a01b031690811561054a57336000526001602052604060002082600052602052806040600020556040519081527f8c5be1e5ebec7d5bd14f71427d1e84f3dd0314c0f7b2291e5b200ac8c7c3b92560203392a3602060405160018152f35b634a1406b160e11b600052600060045260246000fd5b63e602df0560e01b600052600060045260246000fd5b3461013f57600036600319011261013f5760006003548060011c9060018116801561063f575b60208310811461039a5782855290811561037e57506001146105e85750819003601f01601f191681019067ffffffffffffffff8211818310176103115761030d82918260405282610649565b905060036000527fc2575a0e9e593c00f959f8c92f12db2869c3395a3b0502d05e2516446f71f85b6000905b828210610629575060209150820101826102dd565b6001816020925483858801015201910190610614565b91607f169161059c565b91909160208152825180602083015260005b81811061067c575060409293506000838284010152601f8019910116010190565b806020809287010151604082860101520161065b565b600435906001600160a01b038216820361013f57565b602435906001600160a01b038216820361013f57565b919060ff60055460081c16801561077d575b610775576001600160a01b03831660008181526001602090815260408083203384529091529020549093906000198110610715575b50610710935061090c565b600190565b83811061075857841561056057331561054a57610710946000526001602052604060002060018060a01b0333166000526020528360406000209103905538610705565b8390637dc7a0d960e11b6000523360045260245260445260646000fd5b505050600090565b506001600160a01b03831660009081526006602052604090205460ff166106d0565b9060ff60055460081c1680156107c5575b6107be57610710913361090c565b5050600090565b5033600052600660205260ff604060002054166107b0565b919082039182116107ea57565b634e487b7160e01b600052601160045260246000fd5b6001600160a01b031690811561085f576002548181018091116107ea576002557fddf252ad1be2c89b69c2b068fc378daa952ba7f163c4a11628f55a4df523b3ef602060009284845283825260408420818154019055604051908152a3565b63ec442f0560e01b600052600060045260246000fd5b6001600160a01b031680156108f6576000918183528260205260408320548181106108dd57817fddf252ad1be2c89b69c2b068fc378daa952ba7f163c4a11628f55a4df523b3ef926020928587528684520360408620558060025403600255604051908152a3565b6064939263391434e360e21b8452600452602452604452fd5b634b637e8f60e11b600052600060045260246000fd5b6001600160a01b03169081156108f6576001600160a01b031691821561085f57600082815280602052604081205482811061098b5791604082827fddf252ad1be2c89b69c2b068fc378daa952ba7f163c4a11628f55a4df523b3ef958760209652828652038282205586815280845220818154019055604051908152a3565b916064928463391434e360e21b8452600452602452604452fdfea2646970667358221220661b49a34917a40f108d5be77a50c0ec8cb41cef359644b643f53dcaf555a66164736f6c634300081c0033",
  "linkReferences": {},
  "deployedLinkReferences": {}
}