{
  "_format": "hh-sol-artifact-1",
  "contractName": "SubscriptionManager",
  "sourceName": "contracts/SubscriptionManager.sol",
  "abi": [
    {
      "inputs": [
        {
          "internalType": "address",
          "name": "_pyusdAddress",
          "type": "address"
        },
        {
          "internalType": "address",
          "name": "_relayerRegistry",
          "type": "address"
        }
      ],
      "stateMutability": "nonpayable",
      "type": "constructor"
    },
    {
      "inputs": [],
      "name": "ECDSAInvalidSignature",
      "type": "error"
    },
    {
      "inputs": [
        {
          "internalType": "uint256",
          "name": "length",
          "type": "uint256"
        }
      ],
      "name": "ECDSAInvalidSignatureLength",
      "type": "error"
    },
    {
      "inputs": [
        {
          "internalType": "bytes32",
          "name": "s",
          "type": "bytes32"
        }
      ],
      "name": "ECDSAInvalidSignatureS",
      "type": "error"
    },
    {
      "inputs": [],
      "name": "ReentrancyGuardReentrantCall",
      "type": "error"
    },
    {
      "inputs": [
        {
          "internalType": "address",
          "name": "token",
          "type": "address"
        }
      ],
      "name": "SafeERC20FailedOperation",
      "type": "error"
    },
    {
      "anonymous": false,
      "inputs": [
        {
          "indexed": true,
          "internalType": "bytes32",
          "name": "subscriptionId",
          "type": "bytes32"
        },
        {
          "indexed": true,
          "internalType": "address",
          "name": "subscriber",
          "type": "address"
        },
        {
          "indexed": true,
          "internalType": "address",
          "name": "merchant",
          "type": "address"
        },
        {
          "indexed": false,
          "internalType": "uint256",
          "name": "paymentNumber",
          "type": "uint256"
        },
        {
          "indexed": false,
          "internalType": "uint256",
          "name": "amount",
          "type": "uint256"
        },
        {
          "indexed": false,
          "internalType": "uint256",
          "name": "fee",
          "type": "uint256"
        },
        {
          "indexed": false,
          "internalType": "address",
          "name": "relayer",
          "type": "address"
        }
      ],
      "name": "PaymentExecuted",
      "type": "event"
    },
    {
      "anonymous": false,
      "inputs": [
        {
          "indexed": true,
          "internalType": "bytes32",
          "name": "subscriptionId",
          "type": "bytes32"
        },
        {
          "indexed": true,
          "internalType": "address",
          "name": "subscriber",
          "type": "address"
        },
        {
          "indexed": true,
          "internalType": "address",
          "name": "merchant",
          "type": "address"
        },
        {
          "indexed": false,
          "internalType": "uint256",
          "name": "amount",
          "type": "uint256"
        },
        {
          "indexed": false,
          "internalType": "string",
          "name": "reason",
          "type": "string"
        }
      ],
      "name": "PaymentFailed",
      "type": "event"
    },
    {
      "anonymous": false,
      "inputs": [
        {
          "indexed": true,
          "internalType": "bytes32",
          "name": "subscriptionId",
          "type": "bytes32"
        },
        {
          "indexed": true,
          "internalType": "address",
          "name": "subscriber",
          "type": "address"
        },
        {
          "indexed": true,
          "internalType": "address",
          "name": "merchant",
          "type": "address"
        }
      ],
      "name": "SubscriptionCancelled",
      "type": "event"
    },
    {
      "anonymous": false,
      "inputs": [
        {
          "indexed": true,
          "internalType": "bytes32",
          "name": "subscriptionId",
          "type": "bytes32"
        },
        {
          "indexed": true,
          "internalType": "address",
          "name": "subscriber",
          "type": "address"
        },
        {
          "indexed": true,
          "internalType": "address",
          "name": "merchant",
          "type": "address"
        },
        {
          "indexed": false,
          "internalType": "uint256",
          "name": "amount",
          "type": "uint256"
        },
        {
          "indexed": false,
          "internalType": "uint256",
          "name": "interval",
          "type": "uint256"
        },
        {
          "indexed": false,
          "internalType": "uint256",
          "name": "maxPayments",
          "type": "uint256"
        },
        {
          "indexed": false,
          "internalType": "uint256",
          "name": "maxTotalAmount",
          "type": "uint256"
        },
        {
          "indexed": false,
          "internalType": "uint256",
          "name": "expiry",
          "type": "uint256"
        }
      ],
      "name": "SubscriptionCreated",
      "type": "event"
    },
    {
      "anonymous": false,
      "inputs": [
        {
          "indexed": true,
          "internalType": "bytes32",
          "name": "subscriptionId",
          "type": "bytes32"
        },
        {
          "indexed": true,
          "internalType": "address",
          "name": "subscriber",
          "type": "address"
        }
      ],
      "name": "SubscriptionPaused",
      "type": "event"
    },
    {
      "anonymous": false,
      "inputs": [
        {
          "indexed": true,
          "internalType": "bytes32",
          "name": "subscriptionId",
          "type": "bytes32"
        },
        {
          "indexed": true,
          "internalType": "address",
          "name": "subscriber",
          "type": "address"
        }
      ],
      "name": "SubscriptionResumed",
      "type": "event"
    },
    {
      "inputs": [],
      "name": "PAUSE_REQUEST_TYPEHASH",
      "outputs": [
        {
          "internalType": "bytes32",
          "name": "",
          "type": "bytes32"
        }
      ],
      "stateMutability": "view",
      "type": "function"
    },
    {
      "inputs": [],
      "name": "PROTOCOL_FEE_BPS",
      "outputs": [
        {
          "internalType": "uint256",
          "name": "",
          "type": "uint256"
        }
      ],
      "stateMutability": "view",
      "type": "function"
    },
    {
      "inputs": [],
      "name": "PYUSD_ADDRESS",
      "outputs": [
        {
          "internalType": "address",
          "name": "",
          "type": "address"
        }
      ],
      "stateMutability": "view",
      "type": "function"
    },
    {
      "inputs": [],
      "name": "RELAYER_REGISTRY",
      "outputs": [
        {
          "internalType": "contract RelayerRegistry",
          "name": "",
          "type": "address"
        }
      ],
      "stateMutability": "view",
      "type": "function"
    },
    {
      "inputs": [],
      "name": "RESUME_REQUEST_TYPEHASH",
      "outputs": [
        {
          "internalType": "bytes32",
          "name": "",
          "type": "bytes32"
        }
      ],
      "stateMutability": "view",
      "type": "function"
    },
    {
      "inputs": [],
      "name": "SUBSCRIPTION_INTENT_TYPEHASH",
      "outputs": [
        {
          "internalType": "bytes32",
          "name": "",
          "type": "bytes32"
        }
      ],
      "stateMutability": "view",
      "type": "function"
    },
    {
      "inputs": [
        {
          "internalType": "bytes32",
          "name": "subscriptionId",
          "type": "bytes32"
        }
      ],
      "name": "cancelSubscription",
      "outputs": [],
      "stateMutability": "nonpayable",
      "type": "function"
    },
    {
      "inputs": [
        {
          "components": [
            {
              "internalType": "address",
              "name": "subscriber",
              "type": "address"
            },
            {
              "internalType": "address",
              "name": "merchant",
              "type": "address"
            },
            {
              "internalType": "uint256",
              "name": "amount",
              "type": "uint256"
            },
            {
              "internalType": "uint256",
              "name": "interval",
              "type": "uint256"
            },
            {
              "internalType": "uint256",
              "name": "startTime",
              "type": "uint256"
            },
            {
              "internalType": "uint256",
              "name": "maxPayments",
              "type": "uint256"
            },
            {
              "internalType": "uint256",
              "name": "maxTotalAmount",
              "type": "uint256"
            },
            {
              "internalType": "uint256",
              "name": "expiry",
              "type": "uint256"
            },
            {
              "internalType": "uint256",
              "name": "nonce",
              "type": "uint256"
            }
          ],
          "internalType": "struct SubscriptionManager.SubscriptionIntent",
          "name": "intent",
          "type": "tuple"
        },
        {
          "internalType": "bytes",
          "name": "signature",
          "type": "bytes"
        }
      ],
      "name": "createSubscription",
      "outputs": [
        {
          "internalType": "bytes32",
          "name": "subscriptionId",
          "type": "bytes32"
        }
      ],
      "stateMutability": "nonpayable",
      "type": "function"
    },
    {
      "inputs": [
        {
          "internalType": "address",
          "name": "",
          "type": "address"
        }
      ],
      "name": "currentNonce",
      "outputs": [
        {
          "internalType": "uint256",
          "name": "",
          "type": "uint256"
        }
      ],
      "stateMutability": "view",
      "type": "function"
    },
    {
      "inputs": [
        {
          "internalType": "bytes32",
          "name": "subscriptionId",
          "type": "bytes32"
        },
        {
          "internalType": "address",
          "name": "relayer",
          "type": "address"
        }
      ],
      "name": "executeSubscription",
      "outputs": [],
      "stateMutability": "nonpayable",
      "type": "function"
    },
    {
      "inputs": [
        {
          "internalType": "bytes32",
          "name": "",
          "type": "bytes32"
        }
      ],
      "name": "executedPayments",
      "outputs": [
        {
          "internalType": "uint256",
          "name": "",
          "type": "uint256"
        }
      ],
      "stateMutability": "view",
      "type": "function"
    },
    {
      "inputs": [
        {
          "internalType": "address",
          "name": "_subscriber",
          "type": "address"
        }
      ],
      "name": "getNextNonce",
      "outputs": [
        {
          "internalType": "uint256",
          "name": "",
          "type": "uint256"
        }
      ],
      "stateMutability": "view",
      "type": "function"
    },
    {
      "inputs": [
        {
          "internalType": "bytes32",
          "name": "subscriptionId",
          "type": "bytes32"
        }
      ],
      "name": "getNextPaymentTime",
      "outputs": [
        {
          "internalType": "uint256",
          "name": "",
          "type": "uint256"
        }
      ],
      "stateMutability": "view",
      "type": "function"
    },
    {
      "inputs": [
        {
          "internalType": "bytes32",
          "name": "subscriptionId",
          "type": "bytes32"
        }
      ],
      "name": "getPaymentCount",
      "outputs": [
        {
          "internalType": "uint256",
          "name": "",
          "type": "uint256"
        }
      ],
      "stateMutability": "view",
      "type": "function"
    },
    {
      "inputs": [
        {
          "internalType": "bytes32",
          "name": "subscriptionId",
          "type": "bytes32"
        }
      ],
      "name": "getSubscription",
      "outputs": [
        {
          "components": [
            {
              "internalType": "address",
              "name": "subscriber",
              "type": "address"
            },
            {
              "internalType": "address",
              "name": "merchant",
              "type": "address"
            },
            {
              "internalType": "uint256",
              "name": "amount",
              "type": "uint256"
            },
            {
              "internalType": "uint256",
              "name": "interval",
              "type": "uint256"
            },
            {
              "internalType": "uint256",
              "name": "startTime",
              "type": "uint256"
            },
            {
              "internalType": "uint256",
              "name": "maxPayments",
              "type": "uint256"
            },
            {
              "internalType": "uint256",
              "name": "maxTotalAmount",
              "type": "uint256"
            },
            {
              "internalType": "uint256",
              "name": "expiry",
              "type": "uint256"
            },
            {
              "internalType": "uint256",
              "name": "nonce",
              "type": "uint256"
            },
            {
              "internalType": "enum SubscriptionManager.SubscriptionStatus",
              "name": "status",
              "type": "uint8"
            }
          ],
          "internalType": "struct SubscriptionManager.Subscription",
          "name": "",
          "type": "tuple"
        }
      ],
      "stateMutability": "view",
      "type": "function"
    },
    {
      "inputs": [
        {
          "internalType": "bytes32",
          "name": "subscriptionId",
          "type": "bytes32"
        }
      ],
      "name": "isSubscriptionActive",
      "outputs": [
        {
          "internalType": "bool",
          "name": "",
          "type": "bool"
        }
      ],
      "stateMutability": "view",
      "type": "function"
    },
    {
      "inputs": [
        {
          "internalType": "bytes32",
          "name": "subscriptionId",
          "type": "bytes32"
        },
        {
          "internalType": "bytes",
          "name": "signature",
          "type": "bytes"
        }
      ],
      "name": "pauseSubscription",
      "outputs": [],
      "stateMutability": "nonpayable",
      "type": "function"
    },
    {
      "inputs": [
        {
          "internalType": "bytes32",
          "name": "subscriptionId",
          "type": "bytes32"
        },
        {
          "internalType": "bytes",
          "name": "signature",
          "type": "bytes"
        }
      ],
      "name": "resumeSubscription",
      "outputs": [],
      "stateMutability": "nonpayable",
      "type": "function"
    },
    {
      "inputs": [
        {
          "internalType": "bytes32",
          "name": "",
          "type": "bytes32"
        }
      ],
      "name": "subscriptions",
      "outputs": [
        {
          "internalType": "address",
          "name": "subscriber",
          "type": "address"
        },
        {
          "internalType": "address",
          "name": "merchant",
          "type": "address"
        },
        {
          "internalType": "uint256",
          "name": "amount",
          "type": "uint256"
        },
        {
          "internalType": "uint256",
          "name": "interval",
          "type": "uint256"
        },
        {
          "internalType": "uint256",
          "name": "startTime",
          "type": "uint256"
        },
        {
          "internalType": "uint256",
          "name": "maxPayments",
          "type": "uint256"
        },
        {
          "internalType": "uint256",
          "name": "maxTotalAmount",
          "type": "uint256"
        },
        {
          "internalType": "uint256",
          "name": "expiry",
          "type": "uint256"
        },
        {
          "internalType": "uint256",
          "name": "nonce",
          "type": "uint256"
        },
        {
          "internalType": "enum SubscriptionManager.SubscriptionStatus",
          "name": "status",
          "type": "uint8"
        }
      ],
      "stateMutability": "view",
      "type": "function"
    },
    {
      "inputs": [
        {
          "components": [
            {
              "internalType": "address",
              "name": "subscriber",
              "type": "address"
            },
            {
              "internalType": "address",
              "name": "merchant",
              "type": "address"
            },
            {
              "internalType": "uint256",
              "name": "amount",
              "type": "uint256"
            },
            {
              "internalType": "uint256",
              "name": "interval",
              "type": "uint256"
            },
            {
              "internalType": "uint256",
              "name": "startTime",
              "type": "uint256"
            },
            {
              "internalType": "uint256",
              "name": "maxPayments",
              "type": "uint256"
            },
            {
              "internalType": "uint256",
              "name": "maxTotalAmount",
              "type": "uint256"
            },
            {
              "internalType": "uint256",
              "name": "expiry",
              "type": "uint256"
            },
            {
              "internalType": "uint256",
              "name": "nonce",
              "type": "uint256"
            }
          ],
          "internalType": "struct SubscriptionManager.SubscriptionIntent",
          "name": "intent",
          "type": "tuple"
        },
        {
          "internalType": "bytes",
          "name": "signature",
          "type": "bytes"
        }
      ],
      "name": "verifyIntent",
      "outputs": [
        {
          "internalType": "bool",
          "name": "valid",
          "type": "bool"
        },
        {
          "internalType": "address",
          "name": "signer",
          "type": "address"
        }
      ],
      "stateMutability": "view",
      "type": "function"
    }
  ],
  "bytecode": "0x60e080604052346101f9576040816120f5803803809161001f82856101fe565b8339810103126101f95761003e602061003783610237565b9201610237565b60016000556001600160a01b038216156101b4576001600160a01b03169081156101705760805260a0526040516100766040826101fe565b6005815264417572756d60d81b602090910152604080517facdbaa2d9365d09420a73f7eac1bfd80ef7f0a52431b7ed44c1d8a8f77e56da8916100b990826101fe565b600181526020810190603160f81b82525190206040519060208201927f8b73c3c69bb8fe3d512ecc4cf759cc79239f7b179b0ffacaa9a75d522b39400f8452604083015260608201524660808201523060a082015260a0815261011d60c0826101fe565b51902060c052604051611ea9908161024c8239608051818181610142015281816109f9015281816114bd0152611b9d015260a05181818161039001526113c7015260c0518181816106010152611a140152f35b606460405162461bcd60e51b815260206004820152602060248201527f496e76616c69642072656c6179657220726567697374727920616464726573736044820152fd5b60405162461bcd60e51b815260206004820152601560248201527f496e76616c6964205059555344206164647265737300000000000000000000006044820152606490fd5b600080fd5b601f909101601f19168101906001600160401b0382119082101761022157604052565b634e487b7160e01b600052604160045260246000fd5b51906001600160a01b03821682036101f95756fe608080604052600436101561001357600080fd5b60003560e01c9081631f32768e14610f195750806333e5a1d614610ede5780635ad63a24146108a05780635adf2d8d146108655780636437ecfc146104c657806369e1fd9a1461080e5780636c00f051146107055780636f956971146100fb57806377bef0031461053b5780637b0e3b621461050057806390193b7c146104c657806391351c821461046a57806394259c6c146103bf578063a807db751461037a578063be3782281461035e578063c603ff48146102f5578063d21f1ffc146101a1578063d3a1cbfd14610171578063e2b025761461012c5763eaef9f2f146100fb57600080fd5b346101275760203660031901126101275760043560005260026020526020604060002054604051908152f35b600080fd5b34610127576000366003190112610127576040517f00000000000000000000000000000000000000000000000000000000000000006001600160a01b03168152602090f35b3461012757604061018a610184366110b3565b916119e8565b825191151582526001600160a01b03166020820152f35b3461012757602036600319011261012757600435600081815260016020526040902080546001600160a01b03166101d98115156112bc565b33036102b0576009810160ff815416600581101561029a57801590811561028f575b501561024b57805460ff191660021790558054600191909101546001600160a01b03908116929116907f8065a33ad053d617d51579685a263b0f7c6ec05931dbc0280bfda3a784208959600080a4005b606460405162461bcd60e51b815260206004820152602060248201527f537562736372697074696f6e2063616e6e6f742062652063616e63656c6c65646044820152fd5b6001915014846101fb565b634e487b7160e01b600052602160045260246000fd5b60405162461bcd60e51b815260206004820152601a60248201527f4f6e6c7920737562736372696265722063616e2063616e63656c0000000000006044820152606490fd5b34610127576020366003190112610127576020610356600435806000526001835260406000209061033060018060a01b0383541615156112bc565b600052600283526103506040600020546003600484015493015490611284565b90611354565b604051908152f35b3461012757600036600319011261012757602060405160328152f35b34610127576000366003190112610127576040517f00000000000000000000000000000000000000000000000000000000000000006001600160a01b03168152602090f35b34610127576020366003190112610127576004356000526001602052610140604060002061046860018060a01b038254169160018060a01b036001820154169060028101546003820154600483015460058401549060068501549260078601549460ff6009600889015498015416976040519a8b5260208b015260408a01526060890152608088015260a087015260c086015260e0850152610100840152610120830190611078565bf35b3461012757602036600319011261012757600435600090815260016020526040902080546001600160a01b03161515806104ac575b6020906040519015158152f35b506009015460ff16600581101561029a576020901561049f565b34610127576020366003190112610127576001600160a01b036104e76110f1565b1660005260036020526020604060002054604051908152f35b346101275760003660031901126101275760206040517fd806147178df513a750f9faa80312ba59509af708425df523403bf058ce4b2448152f35b34610127576105493661111b565b9082600052600160205260406000209160018060a01b038354169061056f8215156112bc565b600984019260ff845416600581101561029a576001036106c05761065e61065561066d9361064f869485600052600360205260406000205460405160208101917fd806147178df513a750f9faa80312ba59509af708425df523403bf058ce4b24483528d60408301526060820152606081526105ec60808261117e565b51902060405161190160f01b602082019081527f00000000000000000000000000000000000000000000000000000000000000006022830152604282019290925261064481606281015b03601f19810183528261117e565b5190209236916119a1565b90611d3c565b90929192611d78565b6001600160a01b0316146111b4565b6000526003602052604060002061068481546112ad565b9055805460ff19169055546001600160a01b0316907faa36c7b46a257244f7f4be84a7163f464e536b2f812d6c308ef7856c58ba925d600080a3005b60405162461bcd60e51b815260206004820152601760248201527f537562736372697074696f6e206e6f74207061757365640000000000000000006044820152606490fd5b34610127576107133661111b565b82600052600160205260406000209160018060a01b03835416906107388215156112bc565b600984019260ff845416600581101561029a57610655849261064f6107b89561076461065e9515611308565b85600052600360205260406000205460405160208101917fb4d196c0bbe67585f3497477b08a7dedca34f0794cef101cf570c3e415f6d93983528d60408301526060820152606081526105ec60808261117e565b600052600360205260406000206107cf81546112ad565b9055805460ff19166001179055546001600160a01b0316907fded8d4d23682b33f0e79da6698526d10c5f7ec65705c1903e9ac7f78b5e3a51b600080a3005b34610127576040366003190112610127576024356001600160a01b0381168103610127576002600054146108545761084d906002600055600435611361565b6001600055005b633ee5aeb560e01b60005260046000fd5b346101275760003660031901126101275760206040517fb4d196c0bbe67585f3497477b08a7dedca34f0794cef101cf570c3e415f6d9398152f35b34610127576108ae366110b3565b909161010081013591906001600160a01b036108c9826111a0565b1660005260036020526040600020548303610ea9576108f86108ec8386846119e8565b81610e82575b506111b4565b60e08101359242841115610e3d57608082013592848411610df9576040830135928315610db55760608101358015610d655760a0820135978815610d115760c0830135936109468a88611284565b8510610ccc5761098c604061096361095e36886111f4565b611a78565b93838251948592602084019788528484013781016000838201520301601f19810183528261117e565b5190206000818152600160205260409020549097906001600160a01b0316610c87576109b88987611284565b6109f560206109c6866111a0565b604051636eb1769f60e11b81526001600160a01b03909116600482015230602482015291829081906044820190565b03817f00000000000000000000000000000000000000000000000000000000000000006001600160a01b03165afa908115610c7b57600091610c49575b5010610c04578794610a43846111a0565b906020850198610a528a6111a0565b9060405193610a608561114b565b600160a01b600190031684526020840191600160a01b600190031682528c60408501918b8352606086018881526080870191825260a0870192835260c08701938b855260e0880195898752610100890197885261012089019d60008f526000526001602052604060002098600160a01b6001900390600160a01b60019003905116166bffffffffffffffffffffffff60a01b8a5416178955600160a01b600190039051166001890190600160a01b60019003166bffffffffffffffffffffffff60a01b825416179055516002880155516003870155516004860155516005850155516006840155516007830155516008820155600901945193600585101561029a57602099610bd1610bcb60a0968c997fdec8943e7ef8a51d83c078700fdab942959d920107deebc0b4f301bb422892109960ff80198354169116179055600180891b03610bad826111a0565b1660005260038e526040600020610bc481546112ad565b90556111a0565b996111a0565b936040519889528b890152604088015260608701526080860152600180831b031694600180831b031693a4604051908152f35b60405162461bcd60e51b815260206004820152601c60248201527f496e73756666696369656e7420505955534420616c6c6f77616e6365000000006044820152606490fd5b90506020813d602011610c73575b81610c646020938361117e565b8101031261012757518b610a32565b3d9150610c57565b6040513d6000823e3d90fd5b60405162461bcd60e51b815260206004820152601b60248201527f537562736372697074696f6e20616c72656164792065786973747300000000006044820152606490fd5b60405162461bcd60e51b815260206004820152601d60248201527f4d617820746f74616c20616d6f756e7420696e73756666696369656e740000006044820152606490fd5b60405162461bcd60e51b815260206004820152602660248201527f4d6178207061796d656e7473206d7573742062652067726561746572207468616044820152656e207a65726f60d01b6064820152608490fd5b60405162461bcd60e51b815260206004820152602260248201527f496e74657276616c206d7573742062652067726561746572207468616e207a65604482015261726f60f01b6064820152608490fd5b606460405162461bcd60e51b815260206004820152602060248201527f416d6f756e74206d7573742062652067726561746572207468616e207a65726f6044820152fd5b606460405162461bcd60e51b815260206004820152602060248201527f53746172742074696d65206d757374206265206265666f7265206578706972796044820152fd5b60405162461bcd60e51b815260206004820152601b60248201527f537562736372697074696f6e20696e74656e74206578706972656400000000006044820152606490fd5b90506001600160a01b03610e95846111a0565b6001600160a01b03909216911614866108f2565b60405162461bcd60e51b815260206004820152600d60248201526c496e76616c6964206e6f6e636560981b6044820152606490fd5b346101275760003660031901126101275760206040517f95d1972ebb257253c8eca5422008068e9ebae76c58e3beafa47373a6a2c529da8152f35b346101275760203660031901126101275761012081610f3960009361114b565b8281528260208201528260408201528260608201528260808201528260a08201528260c08201528260e082015282610100820152015260043560005260016020526040600020604051610f8b8161114b565b60018060a01b03825416815260018060a01b03600183015416916020820192835260028101546040830190815260038201549160608401928352600481015460808501908152600582015460a0860190815260068301549060c0870191825260078401549260e0880193845260ff60096008870154966101008b0197885201541696610120890196600589101561029a576101409a6104689989526040519a60018060a01b039051168b5260018060a01b0390511660208b01525160408a01525160608901525160808801525160a08701525160c08601525160e085015251610100840152516101208301905b90600582101561029a5752565b9181601f840112156101275782359167ffffffffffffffff8311610127576020838186019501011161012757565b9060031982016101408112610127576101201361012757600491610124359067ffffffffffffffff8211610127576110ed91600401611085565b9091565b600435906001600160a01b038216820361012757565b35906001600160a01b038216820361012757565b90604060031983011261012757600435916024359067ffffffffffffffff8211610127576110ed91600401611085565b610140810190811067ffffffffffffffff82111761116857604052565b634e487b7160e01b600052604160045260246000fd5b90601f8019910116810190811067ffffffffffffffff82111761116857604052565b356001600160a01b03811681036101275790565b156111bb57565b60405162461bcd60e51b8152602060048201526011602482015270496e76616c6964207369676e617475726560781b6044820152606490fd5b91908261012091031261012757604051610120810181811067ffffffffffffffff8211176111685760405261010080829461122e81611107565b845261123c60208201611107565b602085015260408101356040850152606081013560608501526080810135608085015260a081013560a085015260c081013560c085015260e081013560e08501520135910152565b8181029291811591840414171561129757565b634e487b7160e01b600052601160045260246000fd5b60001981146112975760010190565b156112c357565b60405162461bcd60e51b815260206004820152601b60248201527f537562736372697074696f6e20646f6573206e6f7420657869737400000000006044820152606490fd5b1561130f57565b60405162461bcd60e51b815260206004820152601760248201527f537562736372697074696f6e206e6f74206163746976650000000000000000006044820152606490fd5b9190820180921161129757565b6000818152600160205260408120805491929091611389906001600160a01b031615156112bc565b600982019360ff855416600581101561198d576113a69015611308565b6040516320ea7dff60e21b81526001600160a01b03828116600483018190527f00000000000000000000000000000000000000000000000000000000000000009091169291602081602481875afa908115611982578791611943575b5015611909576007850154421161182b57838652600160205261144260408720858852600260205261035060408920546003600484015493015490611284565b42106117f05783865260026020526040862054600181018091116117dc57600286019081549060328202828104603214831517156117c85761271090049461148988611b2c565b1561178a57858303908382116117765789546040516370a0823160e01b81526001600160a01b0391821660048201819052957f0000000000000000000000000000000000000000000000000000000000000000909216949190602081602481895afa9081156116f0579082918f91611741575b50106116fd57604051636eb1769f60e11b81526001600160a01b0387166004820152306024820152602081604481895afa9081156116f0578e916116be575b501061166e57611596886080938c968e6115867fda131df023be8b7d63a716139b42d5152ccf8728cfe960a6629bc576d36dd11898600183019b60018060a01b038d54169085611ca2565b546001600160a01b031690611ca2565b838c52600260205260408c206115ac81546112ad565b905560018060a01b038b54169460018060a01b0390541695546040519182526020820152876040820152866060820152a4823b1561166a5790606486928360405195869485936344a7c63960e11b855260048501526001602485015260448401525af1801561165f57908491611646575b50526002602052600560408320549101541115611638575050565b50805460ff19166004179055565b816116509161117e565b61165b57823861161d565b8280fd5b6040513d86823e3d90fd5b8580fd5b60405162461bcd60e51b815260206004820152602260248201527f496e73756666696369656e7420616c6c6f77616e636520666f72207061796d656044820152611b9d60f21b6064820152608490fd5b90506020813d6020116116e8575b816116d96020938361117e565b8101031261012757513861153b565b3d91506116cc565b8e604051903d90823e3d90fd5b606460405162461bcd60e51b815260206004820152602060248201527f496e73756666696369656e742062616c616e636520666f72207061796d656e746044820152fd5b9150506020813d60201161176e575b8161175d6020938361117e565b8101031261012757819051386114fc565b3d9150611750565b634e487b7160e01b8b52601160045260248bfd5b60405162461bcd60e51b815260206004820152601660248201527510d85b9b9bdd08195e1958dd5d19481c185e5b595b9d60521b6044820152606490fd5b634e487b7160e01b8a52601160045260248afd5b634e487b7160e01b87526011600452602487fd5b60405162461bcd60e51b815260206004820152601360248201527214185e5b595b9d081b9bdd08191d59481e595d606a1b6044820152606490fd5b865460ff1916600317909655508254600184015460029094015460408051918252602082018190526014908201527314dd589cd8dc9a5c1d1a5bdb88195e1c1a5c995960621b60608201529495919491936001600160a01b03908116939116917f8d07bb7d7ffc0fde6ebc3e0e718c1fdbfac73eb7ea593da5566fa86a1c3c1a3090608090a4813b1561165b5782916064839260405194859384926344a7c63960e11b845260048401528160248401528160448401525af180156118fe576118f1575050565b816118fb9161117e565b50565b6040513d84823e3d90fd5b60405162461bcd60e51b815260206004820152601260248201527152656c61796572206e6f742061637469766560701b6044820152606490fd5b90506020813d60201161197a575b8161195e6020938361117e565b81010312611976575180151581036119765738611402565b8680fd5b3d9150611951565b6040513d89823e3d90fd5b634e487b7160e01b85526021600452602485fd5b92919267ffffffffffffffff821161116857604051916119cb601f8201601f19166020018461117e565b829481845281830111610127578281602093846000960137010152565b90611a56939261064f611a4d92611a0261095e36876111f4565b60405161190160f01b602082019081527f0000000000000000000000000000000000000000000000000000000000000000602283015260428201929092526106448160628101610636565b90949194611d78565b6001600160a01b0390611a68906111a0565b166001600160a01b038316149190565b60018060a01b038151169060018060a01b03602082015116906040810151906060810151608082015160a08301519060c08401519261010060e0860151950151956040519760208901997f95d1972ebb257253c8eca5422008068e9ebae76c58e3beafa47373a6a2c529da8b5260408a01526060890152608088015260a087015260c086015260e08501526101008401526101208301526101408201526101408152611b266101608261117e565b51902090565b8060005260016020526040600020906000526002602052604060002054906005810154821015611c9b57611b70611b6b92600283015493848092611284565b611354565b600682015410611c9b57546040516370a0823160e01b81526001600160a01b0391821660048201819052917f00000000000000000000000000000000000000000000000000000000000000001690602081602481855afa8015610c7b578491600091611c66575b5010611c5e57604051636eb1769f60e11b81526001600160a01b03929092166004830152306024830152602090829060449082905afa908115610c7b57600091611c2c575b5010611c2757600190565b600090565b90506020813d602011611c56575b81611c476020938361117e565b81010312610127575138611c1c565b3d9150611c3a565b505050600090565b9150506020813d602011611c93575b81611c826020938361117e565b810103126101275783905138611bd7565b3d9150611c75565b5050600090565b6040516323b872dd60e01b60208083019182526001600160a01b0394851660248401529490931660448201526064808201959095529384529260009190611cea60848261117e565b519082855af115610c7b576000513d611d3357506001600160a01b0381163b155b611d125750565b635274afe760e01b60009081526001600160a01b0391909116600452602490fd5b60011415611d0b565b8151919060418303611d6d57611d6692506020820151906060604084015193015160001a90611dea565b9192909190565b505060009160029190565b919091600481101561029a5780611d8e57509050565b600060018203611da95763f645eedf60e01b60005260046000fd5b5060028103611dc7578263fce698f760e01b60005260045260246000fd5b9091600360009214611dd7575050565b6335e2f38360e21b825260045260249150fd5b91907f7fffffffffffffffffffffffffffffff5d576e7357a4501ddfe92f46681b20a08411611e67579160209360809260ff60009560405194855216868401526040830152606082015282805260015afa15610c7b576000516001600160a01b03811615611e5b5790600090600090565b50600090600190600090565b5050506000916003919056fea264697066735822122016a0a53fb114e6cae86bd17e08443eae7bce4e9371f895e9683d8bdf7197fc6a64736f6c634300081c0033",
  "linkReferences": {},
  "deployedLinkReferences": {}
}