{
  "_format": "hh3-artifact-1",
  "contractName": "SubscriptionManager",
  "sourceName": "contracts/SubscriptionManager.sol",
  "abi": [
    {
      "inputs": [
        {
          "internalType": "address",
          "name": "_pyusdAddress",
          "type": "address"
        }
      ],
      "stateMutability": "nonpayable",
      "type": "constructor"
    },
    {
      "inputs": [],
      "name": "ECDSAInvalidSignature",
      "type": "error"
    },
    {
      "inputs": [
        {
          "internalType": "uint256",
          "name": "length",
          "type": "uint256"
        }
      ],
      "name": "ECDSAInvalidSignatureLength",
      "type": "error"
    },
    {
      "inputs": [
        {
          "internalType": "bytes32",
          "name": "s",
          "type": "bytes32"
        }
      ],
      "name": "ECDSAInvalidSignatureS",
      "type": "error"
    },
    {
      "anonymous": false,
      "inputs": [
        {
          "indexed": true,
          "internalType": "bytes32",
          "name": "subscriptionId",
          "type": "bytes32"
        },
        {
          "indexed": true,
          "internalType": "address",
          "name": "subscriber",
          "type": "address"
        },
        {
          "indexed": true,
          "internalType": "address",
          "name": "merchant",
          "type": "address"
        },
        {
          "indexed": false,
          "internalType": "uint256",
          "name": "paymentNumber",
          "type": "uint256"
        },
        {
          "indexed": false,
          "internalType": "uint256",
          "name": "amount",
          "type": "uint256"
        },
        {
          "indexed": false,
          "internalType": "uint256",
          "name": "fee",
          "type": "uint256"
        },
        {
          "indexed": false,
          "internalType": "address",
          "name": "relayer",
          "type": "address"
        }
      ],
      "name": "PaymentExecuted",
      "type": "event"
    },
    {
      "anonymous": false,
      "inputs": [
        {
          "indexed": true,
          "internalType": "bytes32",
          "name": "subscriptionId",
          "type": "bytes32"
        },
        {
          "indexed": true,
          "internalType": "address",
          "name": "subscriber",
          "type": "address"
        },
        {
          "indexed": true,
          "internalType": "address",
          "name": "merchant",
          "type": "address"
        },
        {
          "indexed": false,
          "internalType": "uint256",
          "name": "amount",
          "type": "uint256"
        },
        {
          "indexed": false,
          "internalType": "string",
          "name": "reason",
          "type": "string"
        }
      ],
      "name": "PaymentFailed",
      "type": "event"
    },
    {
      "anonymous": false,
      "inputs": [
        {
          "indexed": true,
          "internalType": "bytes32",
          "name": "subscriptionId",
          "type": "bytes32"
        },
        {
          "indexed": true,
          "internalType": "address",
          "name": "subscriber",
          "type": "address"
        },
        {
          "indexed": true,
          "internalType": "address",
          "name": "merchant",
          "type": "address"
        }
      ],
      "name": "SubscriptionCancelled",
      "type": "event"
    },
    {
      "anonymous": false,
      "inputs": [
        {
          "indexed": true,
          "internalType": "bytes32",
          "name": "subscriptionId",
          "type": "bytes32"
        },
        {
          "indexed": true,
          "internalType": "address",
          "name": "subscriber",
          "type": "address"
        },
        {
          "indexed": true,
          "internalType": "address",
          "name": "merchant",
          "type": "address"
        },
        {
          "indexed": false,
          "internalType": "uint256",
          "name": "amount",
          "type": "uint256"
        },
        {
          "indexed": false,
          "internalType": "uint256",
          "name": "interval",
          "type": "uint256"
        },
        {
          "indexed": false,
          "internalType": "uint256",
          "name": "maxPayments",
          "type": "uint256"
        },
        {
          "indexed": false,
          "internalType": "uint256",
          "name": "maxTotalAmount",
          "type": "uint256"
        },
        {
          "indexed": false,
          "internalType": "uint256",
          "name": "expiry",
          "type": "uint256"
        }
      ],
      "name": "SubscriptionCreated",
      "type": "event"
    },
    {
      "anonymous": false,
      "inputs": [
        {
          "indexed": true,
          "internalType": "bytes32",
          "name": "subscriptionId",
          "type": "bytes32"
        },
        {
          "indexed": true,
          "internalType": "address",
          "name": "subscriber",
          "type": "address"
        }
      ],
      "name": "SubscriptionPaused",
      "type": "event"
    },
    {
      "anonymous": false,
      "inputs": [
        {
          "indexed": true,
          "internalType": "bytes32",
          "name": "subscriptionId",
          "type": "bytes32"
        },
        {
          "indexed": true,
          "internalType": "address",
          "name": "subscriber",
          "type": "address"
        }
      ],
      "name": "SubscriptionResumed",
      "type": "event"
    },
    {
      "inputs": [],
      "name": "PROTOCOL_FEE_BPS",
      "outputs": [
        {
          "internalType": "uint256",
          "name": "",
          "type": "uint256"
        }
      ],
      "stateMutability": "view",
      "type": "function"
    },
    {
      "inputs": [],
      "name": "PYUSD_ADDRESS",
      "outputs": [
        {
          "internalType": "address",
          "name": "",
          "type": "address"
        }
      ],
      "stateMutability": "view",
      "type": "function"
    },
    {
      "inputs": [],
      "name": "SUBSCRIPTION_INTENT_TYPEHASH",
      "outputs": [
        {
          "internalType": "bytes32",
          "name": "",
          "type": "bytes32"
        }
      ],
      "stateMutability": "view",
      "type": "function"
    },
    {
      "inputs": [
        {
          "components": [
            {
              "internalType": "address",
              "name": "subscriber",
              "type": "address"
            },
            {
              "internalType": "address",
              "name": "merchant",
              "type": "address"
            },
            {
              "internalType": "uint256",
              "name": "amount",
              "type": "uint256"
            },
            {
              "internalType": "uint256",
              "name": "interval",
              "type": "uint256"
            },
            {
              "internalType": "uint256",
              "name": "startTime",
              "type": "uint256"
            },
            {
              "internalType": "uint256",
              "name": "maxPayments",
              "type": "uint256"
            },
            {
              "internalType": "uint256",
              "name": "maxTotalAmount",
              "type": "uint256"
            },
            {
              "internalType": "uint256",
              "name": "expiry",
              "type": "uint256"
            },
            {
              "internalType": "uint256",
              "name": "nonce",
              "type": "uint256"
            }
          ],
          "internalType": "struct SubscriptionManager.SubscriptionIntent",
          "name": "intent",
          "type": "tuple"
        },
        {
          "internalType": "bytes",
          "name": "signature",
          "type": "bytes"
        }
      ],
      "name": "createSubscription",
      "outputs": [
        {
          "internalType": "bytes32",
          "name": "subscriptionId",
          "type": "bytes32"
        }
      ],
      "stateMutability": "nonpayable",
      "type": "function"
    },
    {
      "inputs": [
        {
          "internalType": "bytes32",
          "name": "subscriptionId",
          "type": "bytes32"
        },
        {
          "internalType": "address",
          "name": "relayer",
          "type": "address"
        }
      ],
      "name": "executeSubscription",
      "outputs": [],
      "stateMutability": "nonpayable",
      "type": "function"
    },
    {
      "inputs": [
        {
          "internalType": "bytes32",
          "name": "",
          "type": "bytes32"
        }
      ],
      "name": "executedPayments",
      "outputs": [
        {
          "internalType": "uint256",
          "name": "",
          "type": "uint256"
        }
      ],
      "stateMutability": "view",
      "type": "function"
    },
    {
      "inputs": [
        {
          "internalType": "bytes32",
          "name": "",
          "type": "bytes32"
        }
      ],
      "name": "subscriptions",
      "outputs": [
        {
          "internalType": "address",
          "name": "subscriber",
          "type": "address"
        },
        {
          "internalType": "address",
          "name": "merchant",
          "type": "address"
        },
        {
          "internalType": "uint256",
          "name": "amount",
          "type": "uint256"
        },
        {
          "internalType": "uint256",
          "name": "interval",
          "type": "uint256"
        },
        {
          "internalType": "uint256",
          "name": "startTime",
          "type": "uint256"
        },
        {
          "internalType": "uint256",
          "name": "maxPayments",
          "type": "uint256"
        },
        {
          "internalType": "uint256",
          "name": "maxTotalAmount",
          "type": "uint256"
        },
        {
          "internalType": "uint256",
          "name": "expiry",
          "type": "uint256"
        },
        {
          "internalType": "uint256",
          "name": "nonce",
          "type": "uint256"
        },
        {
          "internalType": "enum SubscriptionManager.SubscriptionStatus",
          "name": "status",
          "type": "uint8"
        }
      ],
      "stateMutability": "view",
      "type": "function"
    },
    {
      "inputs": [
        {
          "components": [
            {
              "internalType": "address",
              "name": "subscriber",
              "type": "address"
            },
            {
              "internalType": "address",
              "name": "merchant",
              "type": "address"
            },
            {
              "internalType": "uint256",
              "name": "amount",
              "type": "uint256"
            },
            {
              "internalType": "uint256",
              "name": "interval",
              "type": "uint256"
            },
            {
              "internalType": "uint256",
              "name": "startTime",
              "type": "uint256"
            },
            {
              "internalType": "uint256",
              "name": "maxPayments",
              "type": "uint256"
            },
            {
              "internalType": "uint256",
              "name": "maxTotalAmount",
              "type": "uint256"
            },
            {
              "internalType": "uint256",
              "name": "expiry",
              "type": "uint256"
            },
            {
              "internalType": "uint256",
              "name": "nonce",
              "type": "uint256"
            }
          ],
          "internalType": "struct SubscriptionManager.SubscriptionIntent",
          "name": "intent",
          "type": "tuple"
        },
        {
          "internalType": "bytes",
          "name": "signature",
          "type": "bytes"
        }
      ],
      "name": "verifyIntent",
      "outputs": [
        {
          "internalType": "bool",
          "name": "valid",
          "type": "bool"
        },
        {
          "internalType": "address",
          "name": "signer",
          "type": "address"
        }
      ],
      "stateMutability": "view",
      "type": "function"
    }
  ],
  "bytecode": "0x60c060405234801561000f575f5ffd5b506040516117d03803806117d083398101604081905261002e91610110565b6001600160a01b031660809081526040805180820182526005815264417572756d60d81b6020918201528151808301835260018152603160f81b9082015281517f8b73c3c69bb8fe3d512ecc4cf759cc79239f7b179b0ffacaa9a75d522b39400f818301527facdbaa2d9365d09420a73f7eac1bfd80ef7f0a52431b7ed44c1d8a8f77e56da8818401527fc89efdaa54c0f20c7adf612882df0950f5a951637e0307cdcb4c672f298b8bc6606082015246938101939093523060a08085019190915282518085038201815260c09094019092528251920191909120905261013d565b5f60208284031215610120575f5ffd5b81516001600160a01b0381168114610136575f5ffd5b9392505050565b60805160a05161165d6101735f395f610b7401525f81816101ae01528181610358015281816108c90152610ff7015261165d5ff3fe608060405234801561000f575f5ffd5b5060043610610085575f3560e01c8063be37822811610058578063be3782281461016f578063d3a1cbfd14610177578063e2b02576146101a9578063eaef9f2f146101e8575f5ffd5b806333e5a1d6146100895780635ad63a24146100c357806369e1fd9a146100d657806394259c6c146100eb575b5f5ffd5b6100b07f95d1972ebb257253c8eca5422008068e9ebae76c58e3beafa47373a6a2c529da81565b6040519081526020015b60405180910390f35b6100b06100d13660046112fe565b610207565b6100e96100e43660046113a1565b610644565b005b6101596100f93660046113cb565b5f6020819052908152604090208054600182015460028301546003840154600485015460058601546006870154600788015460088901546009909901546001600160a01b0398891699979098169795969495939492939192909160ff168a565b6040516100ba9a999897969594939291906113f6565b6100b0603281565b61018a6101853660046112fe565b610b5a565b6040805192151583526001600160a01b039091166020830152016100ba565b6101d07f000000000000000000000000000000000000000000000000000000000000000081565b6040516001600160a01b0390911681526020016100ba565b6100b06101f63660046113cb565b60016020525f908152604090205481565b5f5f5f610215868686610b5a565b91509150818015610243575061022e6020870187611473565b6001600160a01b0316816001600160a01b0316145b6102885760405162461bcd60e51b8152602060048201526011602482015270496e76616c6964207369676e617475726560781b60448201526064015b60405180910390fd5b61029186610c36565b6102a86102a3368890038801886114c9565b610e5c565b85856040516020016102bc93929190611550565b60408051601f1981840301815291815281516020928301205f818152928390529120549093506001600160a01b0316156103385760405162461bcd60e51b815260206004820152601b60248201527f537562736372697074696f6e20616c7265616479206578697374730000000000604482015260640161027f565b5f61034b60a0880135604089013561157d565b9050806001600160a01b037f00000000000000000000000000000000000000000000000000000000000000001663dd62ed3e61038a60208b018b611473565b6040516001600160e01b031960e084901b1681526001600160a01b039091166004820152306024820152604401602060405180830381865afa1580156103d2573d5f5f3e3d5ffd5b505050506040513d601f19601f820116820180604052508101906103f69190611594565b10156104445760405162461bcd60e51b815260206004820152601c60248201527f496e73756666696369656e7420505955534420616c6c6f77616e636500000000604482015260640161027f565b6040805161014081019091528061045e60208a018a611473565b6001600160a01b0316815260200188602001602081019061047f9190611473565b6001600160a01b031681526020018860400135815260200188606001358152602001886080013581526020018860a0013581526020018860c0013581526020018860e00135815260200188610100013581526020015f60048111156104e6576104e66113e2565b90525f8581526020818152604091829020835181546001600160a01b039182166001600160a01b03199182161783559285015160018084018054929093169190941617905591830151600283015560608301516003830155608083015160048084019190915560a0840151600584015560c0840151600684015560e0840151600784015561010084015160088401556101208401516009840180549193909260ff1990921691849081111561059d5761059d6113e2565b02179055506105b59150506040880160208901611473565b6001600160a01b03166105cb6020890189611473565b60408051818b013581526060808c0135602083015260a0808d01359383019390935260c08c01359082015260e08b013560808201526001600160a01b03929092169187917fdec8943e7ef8a51d83c078700fdab942959d920107deebc0b4f301bb42289210910160405180910390a45050509392505050565b5f82815260208190526040902080546001600160a01b03166106a85760405162461bcd60e51b815260206004820152601b60248201527f537562736372697074696f6e20646f6573206e6f742065786973740000000000604482015260640161027f565b5f600982015460ff1660048111156106c2576106c26113e2565b1461070f5760405162461bcd60e51b815260206004820152601760248201527f537562736372697074696f6e206e6f7420616374697665000000000000000000604482015260640161027f565b80600701544211156107ab5760098101805460ff1916600317905560018101548154600283015460408051918252602082018190526014908201527314dd589cd8dc9a5c1d1a5bdb88195e1c1a5c995960621b60608201526001600160a01b03928316929091169085907f8d07bb7d7ffc0fde6ebc3e0e718c1fdbfac73eb7ea593da5566fa86a1c3c1a309060800160405180910390a4505050565b6107b483610f2d565b6107f65760405162461bcd60e51b815260206004820152601360248201527214185e5b595b9d081b9bdd08191d59481e595d606a1b604482015260640161027f565b6107ff83610f6f565b6108445760405162461bcd60e51b815260206004820152601660248201527510d85b9b9bdd08195e1958dd5d19481c185e5b595b9d60521b604482015260640161027f565b5f83815260016020819052604082205461085d916115ab565b90505f61271060328460020154610874919061157d565b61087e91906115be565b90505f81846002015461089191906115dd565b845460018601546040516323b872dd60e01b81526001600160a01b0392831660048201529082166024820152604481018390529192507f000000000000000000000000000000000000000000000000000000000000000091908216906323b872dd906064016020604051808303815f875af1925050508015610930575060408051601f3d908101601f1916820190925261092d918101906115f0565b60015b6109b1576001850154855460028701546040805191825260208201819052600f908201526e151c985b9cd9995c8819985a5b1959608a1b60608201526001600160a01b03928316929091169089907f8d07bb7d7ffc0fde6ebc3e0e718c1fdbfac73eb7ea593da5566fa86a1c3c1a30906080015b60405180910390a4610b51565b5084546040516323b872dd60e01b81526001600160a01b039182166004820152878216602482015260448101859052908216906323b872dd906064016020604051808303815f875af1925050508015610a27575060408051601f3d908101601f19168201909252610a24918101906115f0565b60015b610aa357600185015485546002870154604080519182526020820181905260139082015272119959481d1c985b9cd9995c8819985a5b1959606a1b60608201526001600160a01b03928316929091169089907f8d07bb7d7ffc0fde6ebc3e0e718c1fdbfac73eb7ea593da5566fa86a1c3c1a30906080016109a4565b505f878152600160205260408120805491610abd8361160f565b909155505060018501548554600287015460408051888152602081019290925281018690526001600160a01b038981166060830152928316929091169089907fda131df023be8b7d63a716139b42d5152ccf8728cfe960a6629bc576d36dd1189060800160405180910390a460058501545f8881526001602052604090205410610b515760098501805460ff191660041790555b50505050505050565b5f8080610b6f6102a3368890038801886114c9565b90505f7f000000000000000000000000000000000000000000000000000000000000000060405161190160f01b60208201526022810191909152604281018390526062016040516020818303038152906040528051906020012090505f610c0b8288888080601f0160208091040260200160405190810160405280939291908181526020018383808284375f9201919091525061110792505050565b9050610c1a6020890189611473565b6001600160a01b03828116911614945092505050935093915050565b428160e0013511610c895760405162461bcd60e51b815260206004820152601b60248201527f537562736372697074696f6e20696e74656e7420657870697265640000000000604482015260640161027f565b8060e0013581608001351115610ce15760405162461bcd60e51b815260206004820181905260248201527f53746172742074696d65206d757374206265206265666f726520657870697279604482015260640161027f565b5f816040013511610d345760405162461bcd60e51b815260206004820181905260248201527f416d6f756e74206d7573742062652067726561746572207468616e207a65726f604482015260640161027f565b5f816060013511610d925760405162461bcd60e51b815260206004820152602260248201527f496e74657276616c206d7573742062652067726561746572207468616e207a65604482015261726f60f01b606482015260840161027f565b5f8160a0013511610df45760405162461bcd60e51b815260206004820152602660248201527f4d6178207061796d656e7473206d7573742062652067726561746572207468616044820152656e207a65726f60d01b606482015260840161027f565b610e0660a0820135604083013561157d565b8160c001351015610e595760405162461bcd60e51b815260206004820152601d60248201527f4d617820746f74616c20616d6f756e7420696e73756666696369656e74000000604482015260640161027f565b50565b5f7f95d1972ebb257253c8eca5422008068e9ebae76c58e3beafa47373a6a2c529da825f015183602001518460400151856060015186608001518760a001518860c001518960e001518a6101000151604051602001610f109a99989796959493929190998a526001600160a01b0398891660208b01529690971660408901526060880194909452608087019290925260a086015260c085015260e08401526101008301919091526101208201526101400190565b604051602081830303815290604052805190602001209050919050565b5f81815260208181526040808320600190925282205460038201548390610f54908361157d565b8360040154610f6391906115ab565b42101595945050505050565b5f81815260208181526040808320600190925282205460058201548110610f9957505f9392505050565b5f826002015482610faa919061157d565b90508260060154836002015482610fc191906115ab565b1115610fd157505f949350505050565b600283015483546040516370a0823160e01b81526001600160a01b0391821660048201527f000000000000000000000000000000000000000000000000000000000000000092918316906370a0823190602401602060405180830381865afa15801561103f573d5f5f3e3d5ffd5b505050506040513d601f19601f820116820180604052508101906110639190611594565b101561107457505f95945050505050565b60028401548454604051636eb1769f60e11b81526001600160a01b0391821660048201523060248201529083169063dd62ed3e90604401602060405180830381865afa1580156110c6573d5f5f3e3d5ffd5b505050506040513d601f19601f820116820180604052508101906110ea9190611594565b10156110fb57505f95945050505050565b50600195945050505050565b5f5f5f5f6111158686611131565b925092509250611125828261117a565b50909150505b92915050565b5f5f5f8351604103611168576020840151604085015160608601515f1a61115a88828585611236565b955095509550505050611173565b505081515f91506002905b9250925092565b5f82600381111561118d5761118d6113e2565b03611196575050565b60018260038111156111aa576111aa6113e2565b036111c85760405163f645eedf60e01b815260040160405180910390fd5b60028260038111156111dc576111dc6113e2565b036111fd5760405163fce698f760e01b81526004810182905260240161027f565b6003826003811115611211576112116113e2565b03611232576040516335e2f38360e21b81526004810182905260240161027f565b5050565b5f80807f7fffffffffffffffffffffffffffffff5d576e7357a4501ddfe92f46681b20a084111561126f57505f915060039050826112f4565b604080515f808252602082018084528a905260ff891692820192909252606081018790526080810186905260019060a0016020604051602081039080840390855afa1580156112c0573d5f5f3e3d5ffd5b5050604051601f1901519150506001600160a01b0381166112eb57505f9250600191508290506112f4565b92505f91508190505b9450945094915050565b5f5f5f838503610140811215611312575f5ffd5b610120811215611320575f5ffd5b5083925061012084013567ffffffffffffffff81111561133e575f5ffd5b8401601f8101861361134e575f5ffd5b803567ffffffffffffffff811115611364575f5ffd5b866020828401011115611375575f5ffd5b939660209190910195509293505050565b80356001600160a01b038116811461139c575f5ffd5b919050565b5f5f604083850312156113b2575f5ffd5b823591506113c260208401611386565b90509250929050565b5f602082840312156113db575f5ffd5b5035919050565b634e487b7160e01b5f52602160045260245ffd5b6001600160a01b038b811682528a16602082015260408101899052606081018890526080810187905260a0810186905260c0810185905260e08101849052610100810183905261014081016005831061145d57634e487b7160e01b5f52602160045260245ffd5b826101208301529b9a5050505050505050505050565b5f60208284031215611483575f5ffd5b61148c82611386565b9392505050565b604051610120810167ffffffffffffffff811182821017156114c357634e487b7160e01b5f52604160045260245ffd5b60405290565b5f6101208284031280156114db575f5ffd5b506114e4611493565b6114ed83611386565b81526114fb60208401611386565b602082015260408381013590820152606080840135908201526080808401359082015260a0808401359082015260c0808401359082015260e08084013590820152610100928301359281019290925250919050565b838152818360208301375f910160200190815292915050565b634e487b7160e01b5f52601160045260245ffd5b808202811582820484141761112b5761112b611569565b5f602082840312156115a4575f5ffd5b5051919050565b8082018082111561112b5761112b611569565b5f826115d857634e487b7160e01b5f52601260045260245ffd5b500490565b8181038181111561112b5761112b611569565b5f60208284031215611600575f5ffd5b8151801515811461148c575f5ffd5b5f6001820161162057611620611569565b506001019056fea26469706673582212201b75c5c34dfbe57963b515a26c3a882b897c71db47947ecb673088ce10dc4a8764736f6c634300081c0033",
  "linkReferences": {},
  "deployedLinkReferences": {},
  "immutableReferences": {
    "1384": [
      {
        "length": 32,
        "start": 430
      },
      {
        "length": 32,
        "start": 856
      },
      {
        "length": 32,
        "start": 2249
      },
      {
        "length": 32,
        "start": 4087
      }
    ],
    "1389": [
      {
        "length": 32,
        "start": 2932
      }
    ]
  },
  "inputSourceName": "project/contracts/SubscriptionManager.sol",
  "buildInfoId": "solc-0_8_28-e454d857287e52b10779cbc8c9e0e05d432d878a"
}